{
  "contractName": "XyGovernance",
  "abi": [
    {
      "constant": true,
      "inputs": [
        {
          "name": "",
          "type": "address"
        },
        {
          "name": "",
          "type": "uint256"
        }
      ],
      "name": "resolutions",
      "outputs": [
        {
          "name": "propId",
          "type": "bytes32"
        },
        {
          "name": "stakePenaltyPct",
          "type": "uint256"
        },
        {
          "name": "actionType",
          "type": "uint8"
        },
        {
          "name": "accepted",
          "type": "bool"
        }
      ],
      "payable": false,
      "stateMutability": "view",
      "type": "function"
    },
    {
      "constant": false,
      "inputs": [
        {
          "name": "_governorAddress",
          "type": "address"
        }
      ],
      "name": "initializeGovernor",
      "outputs": [],
      "payable": false,
      "stateMutability": "nonpayable",
      "type": "function"
    },
    {
      "constant": true,
      "inputs": [],
      "name": "governorAddress",
      "outputs": [
        {
          "name": "",
          "type": "address"
        }
      ],
      "payable": false,
      "stateMutability": "view",
      "type": "function"
    },
    {
      "constant": false,
      "inputs": [
        {
          "name": "_propID",
          "type": "bytes32"
        }
      ],
      "name": "processProposal",
      "outputs": [],
      "payable": false,
      "stateMutability": "nonpayable",
      "type": "function"
    },
    {
      "constant": true,
      "inputs": [
        {
          "name": "",
          "type": "bytes32"
        }
      ],
      "name": "proposals",
      "outputs": [
        {
          "name": "appExpiry",
          "type": "uint256"
        },
        {
          "name": "challengeID",
          "type": "uint256"
        },
        {
          "name": "deposit",
          "type": "uint256"
        },
        {
          "name": "name",
          "type": "string"
        },
        {
          "name": "owner",
          "type": "address"
        },
        {
          "name": "processBy",
          "type": "uint256"
        },
        {
          "name": "value",
          "type": "uint256"
        }
      ],
      "payable": false,
      "stateMutability": "view",
      "type": "function"
    },
    {
      "constant": true,
      "inputs": [
        {
          "name": "_propID",
          "type": "bytes32"
        }
      ],
      "name": "propExists",
      "outputs": [
        {
          "name": "",
          "type": "bool"
        }
      ],
      "payable": false,
      "stateMutability": "view",
      "type": "function"
    },
    {
      "constant": true,
      "inputs": [
        {
          "name": "_pollId",
          "type": "uint256"
        }
      ],
      "name": "isPassed",
      "outputs": [
        {
          "name": "",
          "type": "bool"
        }
      ],
      "payable": false,
      "stateMutability": "view",
      "type": "function"
    },
    {
      "constant": true,
      "inputs": [
        {
          "name": "_challengeID",
          "type": "uint256"
        }
      ],
      "name": "challengeWinnerReward",
      "outputs": [
        {
          "name": "",
          "type": "uint256"
        }
      ],
      "payable": false,
      "stateMutability": "view",
      "type": "function"
    },
    {
      "constant": false,
      "inputs": [
        {
          "name": "_challengeIDs",
          "type": "uint256[]"
        }
      ],
      "name": "claimRewards",
      "outputs": [],
      "payable": false,
      "stateMutability": "nonpayable",
      "type": "function"
    },
    {
      "constant": true,
      "inputs": [
        {
          "name": "_name",
          "type": "string"
        }
      ],
      "name": "get",
      "outputs": [
        {
          "name": "value",
          "type": "uint256"
        }
      ],
      "payable": false,
      "stateMutability": "view",
      "type": "function"
    },
    {
      "constant": true,
      "inputs": [
        {
          "name": "_propID",
          "type": "bytes32"
        }
      ],
      "name": "challengeCanBeResolved",
      "outputs": [
        {
          "name": "",
          "type": "bool"
        }
      ],
      "payable": false,
      "stateMutability": "view",
      "type": "function"
    },
    {
      "constant": false,
      "inputs": [
        {
          "name": "_propID",
          "type": "bytes32"
        }
      ],
      "name": "challengeReparameterization",
      "outputs": [
        {
          "name": "challengeID",
          "type": "uint256"
        }
      ],
      "payable": false,
      "stateMutability": "nonpayable",
      "type": "function"
    },
    {
      "constant": true,
      "inputs": [
        {
          "name": "",
          "type": "uint256"
        }
      ],
      "name": "challenges",
      "outputs": [
        {
          "name": "rewardPool",
          "type": "uint256"
        },
        {
          "name": "challenger",
          "type": "address"
        },
        {
          "name": "resolved",
          "type": "bool"
        },
        {
          "name": "stake",
          "type": "uint256"
        },
        {
          "name": "winningTokens",
          "type": "uint256"
        }
      ],
      "payable": false,
      "stateMutability": "view",
      "type": "function"
    },
    {
      "constant": true,
      "inputs": [
        {
          "name": "_challengeID",
          "type": "uint256"
        },
        {
          "name": "_voter",
          "type": "address"
        }
      ],
      "name": "tokenClaims",
      "outputs": [
        {
          "name": "",
          "type": "bool"
        }
      ],
      "payable": false,
      "stateMutability": "view",
      "type": "function"
    },
    {
      "constant": false,
      "inputs": [
        {
          "name": "_challengeID",
          "type": "uint256"
        }
      ],
      "name": "claimReward",
      "outputs": [],
      "payable": false,
      "stateMutability": "nonpayable",
      "type": "function"
    },
    {
      "constant": true,
      "inputs": [
        {
          "name": "",
          "type": "address"
        }
      ],
      "name": "actions",
      "outputs": [
        {
          "name": "propId",
          "type": "bytes32"
        },
        {
          "name": "stakePenaltyPct",
          "type": "uint256"
        },
        {
          "name": "actionType",
          "type": "uint8"
        },
        {
          "name": "accepted",
          "type": "bool"
        }
      ],
      "payable": false,
      "stateMutability": "view",
      "type": "function"
    },
    {
      "constant": false,
      "inputs": [
        {
          "name": "newGov",
          "type": "address"
        }
      ],
      "name": "transferGovernor",
      "outputs": [],
      "payable": false,
      "stateMutability": "nonpayable",
      "type": "function"
    },
    {
      "constant": false,
      "inputs": [
        {
          "name": "_name",
          "type": "string"
        },
        {
          "name": "_value",
          "type": "uint256"
        }
      ],
      "name": "proposeReparameterization",
      "outputs": [
        {
          "name": "",
          "type": "bytes32"
        }
      ],
      "payable": false,
      "stateMutability": "nonpayable",
      "type": "function"
    },
    {
      "constant": true,
      "inputs": [],
      "name": "stageBlockLen",
      "outputs": [
        {
          "name": "",
          "type": "uint256"
        }
      ],
      "payable": false,
      "stateMutability": "view",
      "type": "function"
    },
    {
      "constant": true,
      "inputs": [
        {
          "name": "_voter",
          "type": "address"
        },
        {
          "name": "_challengeID",
          "type": "uint256"
        }
      ],
      "name": "voterReward",
      "outputs": [
        {
          "name": "",
          "type": "uint256"
        }
      ],
      "payable": false,
      "stateMutability": "view",
      "type": "function"
    },
    {
      "constant": true,
      "inputs": [
        {
          "name": "_propID",
          "type": "bytes32"
        }
      ],
      "name": "canBeSet",
      "outputs": [
        {
          "name": "",
          "type": "bool"
        }
      ],
      "payable": false,
      "stateMutability": "view",
      "type": "function"
    },
    {
      "constant": true,
      "inputs": [
        {
          "name": "",
          "type": "bytes32"
        }
      ],
      "name": "params",
      "outputs": [
        {
          "name": "",
          "type": "uint256"
        }
      ],
      "payable": false,
      "stateMutability": "view",
      "type": "function"
    },
    {
      "constant": true,
      "inputs": [],
      "name": "token",
      "outputs": [
        {
          "name": "",
          "type": "address"
        }
      ],
      "payable": false,
      "stateMutability": "view",
      "type": "function"
    },
    {
      "constant": true,
      "inputs": [],
      "name": "voting",
      "outputs": [
        {
          "name": "",
          "type": "address"
        }
      ],
      "payable": false,
      "stateMutability": "view",
      "type": "function"
    },
    {
      "anonymous": false,
      "inputs": [
        {
          "indexed": true,
          "name": "propId",
          "type": "bytes32"
        },
        {
          "indexed": false,
          "name": "actionType",
          "type": "uint8"
        }
      ],
      "name": "NewActionAccepted",
      "type": "event"
    },
    {
      "anonymous": false,
      "inputs": [
        {
          "indexed": true,
          "name": "propId",
          "type": "bytes32"
        },
        {
          "indexed": false,
          "name": "stakee",
          "type": "address"
        },
        {
          "indexed": false,
          "name": "actionType",
          "type": "uint8"
        }
      ],
      "name": "ActionResolved",
      "type": "event"
    },
    {
      "anonymous": false,
      "inputs": [
        {
          "indexed": false,
          "name": "name",
          "type": "string"
        },
        {
          "indexed": false,
          "name": "value",
          "type": "uint256"
        },
        {
          "indexed": false,
          "name": "propID",
          "type": "bytes32"
        },
        {
          "indexed": false,
          "name": "deposit",
          "type": "uint256"
        },
        {
          "indexed": false,
          "name": "appEndDate",
          "type": "uint256"
        },
        {
          "indexed": true,
          "name": "proposer",
          "type": "address"
        }
      ],
      "name": "_ReparameterizationProposal",
      "type": "event"
    },
    {
      "anonymous": false,
      "inputs": [
        {
          "indexed": true,
          "name": "propID",
          "type": "bytes32"
        },
        {
          "indexed": false,
          "name": "challengeID",
          "type": "uint256"
        },
        {
          "indexed": false,
          "name": "commitEndDate",
          "type": "uint256"
        },
        {
          "indexed": false,
          "name": "revealEndDate",
          "type": "uint256"
        },
        {
          "indexed": true,
          "name": "challenger",
          "type": "address"
        }
      ],
      "name": "_NewChallenge",
      "type": "event"
    },
    {
      "anonymous": false,
      "inputs": [
        {
          "indexed": true,
          "name": "propID",
          "type": "bytes32"
        },
        {
          "indexed": false,
          "name": "name",
          "type": "string"
        },
        {
          "indexed": false,
          "name": "value",
          "type": "uint256"
        }
      ],
      "name": "_ProposalAccepted",
      "type": "event"
    },
    {
      "anonymous": false,
      "inputs": [
        {
          "indexed": true,
          "name": "propID",
          "type": "bytes32"
        }
      ],
      "name": "_ProposalExpired",
      "type": "event"
    },
    {
      "anonymous": false,
      "inputs": [
        {
          "indexed": true,
          "name": "propID",
          "type": "bytes32"
        },
        {
          "indexed": true,
          "name": "challengeID",
          "type": "uint256"
        },
        {
          "indexed": false,
          "name": "rewardPool",
          "type": "uint256"
        },
        {
          "indexed": false,
          "name": "totalTokens",
          "type": "uint256"
        }
      ],
      "name": "_ChallengeSucceeded",
      "type": "event"
    },
    {
      "anonymous": false,
      "inputs": [
        {
          "indexed": true,
          "name": "propID",
          "type": "bytes32"
        },
        {
          "indexed": true,
          "name": "challengeID",
          "type": "uint256"
        },
        {
          "indexed": false,
          "name": "rewardPool",
          "type": "uint256"
        },
        {
          "indexed": false,
          "name": "totalTokens",
          "type": "uint256"
        }
      ],
      "name": "_ChallengeFailed",
      "type": "event"
    },
    {
      "anonymous": false,
      "inputs": [
        {
          "indexed": true,
          "name": "challengeID",
          "type": "uint256"
        },
        {
          "indexed": false,
          "name": "reward",
          "type": "uint256"
        },
        {
          "indexed": true,
          "name": "voter",
          "type": "address"
        }
      ],
      "name": "_RewardClaimed",
      "type": "event"
    },
    {
      "constant": false,
      "inputs": [
        {
          "name": "_xyERC20",
          "type": "address"
        },
        {
          "name": "_plcr",
          "type": "address"
        },
        {
          "name": "_parameters",
          "type": "uint256[]"
        }
      ],
      "name": "initialize",
      "outputs": [],
      "payable": false,
      "stateMutability": "nonpayable",
      "type": "function"
    },
    {
      "constant": false,
      "inputs": [
        {
          "name": "stakee",
          "type": "address"
        },
        {
          "name": "penaltyPct",
          "type": "uint256"
        },
        {
          "name": "action",
          "type": "uint8"
        }
      ],
      "name": "proposeNewAction",
      "outputs": [
        {
          "name": "",
          "type": "bytes32"
        }
      ],
      "payable": false,
      "stateMutability": "nonpayable",
      "type": "function"
    },
    {
      "constant": true,
      "inputs": [
        {
          "name": "stakee",
          "type": "address"
        }
      ],
      "name": "hasUnresolvedAction",
      "outputs": [
        {
          "name": "hasAction",
          "type": "bool"
        }
      ],
      "payable": false,
      "stateMutability": "view",
      "type": "function"
    },
    {
      "constant": true,
      "inputs": [
        {
          "name": "stakee",
          "type": "address"
        }
      ],
      "name": "numResolutions",
      "outputs": [
        {
          "name": "",
          "type": "uint256"
        }
      ],
      "payable": false,
      "stateMutability": "view",
      "type": "function"
    },
    {
      "constant": false,
      "inputs": [
        {
          "name": "stakee",
          "type": "address"
        }
      ],
      "name": "resolveAction",
      "outputs": [],
      "payable": false,
      "stateMutability": "nonpayable",
      "type": "function"
    },
    {
      "constant": false,
      "inputs": [],
      "name": "renounceOwnership",
      "outputs": [],
      "payable": false,
      "stateMutability": "nonpayable",
      "type": "function"
    },
    {
      "constant": false,
      "inputs": [
        {
          "name": "_name",
          "type": "string"
        },
        {
          "name": "_value",
          "type": "uint256"
        }
      ],
      "name": "ownerSet",
      "outputs": [],
      "payable": false,
      "stateMutability": "nonpayable",
      "type": "function"
    }
  ],
  "bytecode": "0x608060405234801561001057600080fd5b50613a36806100206000396000f3fe608060405234801561001057600080fd5b5060043610610202576000357c0100000000000000000000000000000000000000000000000000000000900480638f1d37761161012c578063bc806d0b116100bf578063e337fb5c1161008e578063e337fb5c146108d3578063f37c41c71461098f578063fc0c546a146109b5578063fce1ccca146109bd57610202565b8063bc806d0b14610865578063bd0ae4051461086d578063c51131fb14610899578063dc6ab527146108b657610202565b8063ae4d8364116100fb578063ae4d8364146106c9578063b776f56914610771578063b8cc9ce614610797578063bade1c54146107bd57610202565b80638f1d3776146105fb57806392b1f2271461064b578063a5ba3b1e14610680578063ae169a50146106ac57610202565b806349403183116101a4578063715018a611610173578063715018a61461059357806377609a411461059b5780638240ae4b146105b85780638400657e146105d557610202565b806349403183146103fe578063504115521461041b5780635eac62391461044a578063693ec85e146104ed57610202565b806330490e91116101e057806330490e91146102b957806332ed5b12146102d657806335300990146103a75780634348f5cd146103d857610202565b80630fed1274146102075780631607e28a1461026d578063276f1c4114610295575b600080fd5b6102336004803603604081101561021d57600080fd5b50600160a060020a0381351690602001356109c5565b6040518085815260200184815260200183600281111561024f57fe5b60ff1681529115156020830152506040805191829003019350915050f35b6102936004803603602081101561028357600080fd5b5035600160a060020a0316610a12565b005b61029d610aa7565b60408051600160a060020a039092168252519081900360200190f35b610293600480360360208110156102cf57600080fd5b5035610ab6565b6102f3600480360360208110156102ec57600080fd5b5035610ec5565b604051808881526020018781526020018681526020018060200185600160a060020a0316600160a060020a03168152602001848152602001838152602001828103825286818151815260200191508051906020019080838360005b8381101561036657818101518382015260200161034e565b50505050905090810190601f1680156103935780820380516001836020036101000a031916815260200191505b509850505050505050505060405180910390f35b6103c4600480360360208110156103bd57600080fd5b5035610fab565b604080519115158252519081900360200190f35b6103c4600480360360208110156103ee57600080fd5b5035600160a060020a0316610fc4565b6103c46004803603602081101561041457600080fd5b5035610fe1565b6104386004803603602081101561043157600080fd5b50356111fa565b60408051918252519081900360200190f35b6102936004803603602081101561046057600080fd5b81019060208101813564010000000081111561047b57600080fd5b82018360208201111561048d57600080fd5b803590602001918460208302840111640100000000831117156104af57600080fd5b9190808060200260200160405190810160405280939291908181526020018383602002808284376000920191909152509295506112d9945050505050565b6104386004803603602081101561050357600080fd5b81019060208101813564010000000081111561051e57600080fd5b82018360208201111561053057600080fd5b8035906020019184600183028401116401000000008311171561055257600080fd5b91908080601f016020809104026020016040519081016040528093929190818152602001838380828437600092019190915250929550611311945050505050565b61029361139b565b6103c4600480360360208110156105b157600080fd5b50356113fc565b610438600480360360208110156105ce57600080fd5b5035611621565b610293600480360360208110156105eb57600080fd5b5035600160a060020a0316611ad0565b6106186004803603602081101561061157600080fd5b5035611cc0565b60408051958652600160a060020a0390941660208601529115158484015260608401526080830152519081900360a00190f35b6104386004803603606081101561066157600080fd5b508035600160a060020a0316906020810135906040013560ff16611d0d565b6103c46004803603604081101561069657600080fd5b5080359060200135600160a060020a0316611e80565b610293600480360360208110156106c257600080fd5b5035611eaf565b610293600480360360408110156106df57600080fd5b8101906020810181356401000000008111156106fa57600080fd5b82018360208201111561070c57600080fd5b8035906020019184600183028401116401000000008311171561072e57600080fd5b91908080601f0160208091040260200160405190810160405280939291908181526020018383808284376000920191909152509295505091359250612032915050565b6102336004803603602081101561078757600080fd5b5035600160a060020a031661213e565b610293600480360360208110156107ad57600080fd5b5035600160a060020a031661216b565b610438600480360360408110156107d357600080fd5b8101906020810181356401000000008111156107ee57600080fd5b82018360208201111561080057600080fd5b8035906020019184600183028401116401000000008311171561082257600080fd5b91908080601f01602080910402602001604051908101604052809392919081815260200183838082843760009201919091525092955050913592506121d2915050565b6104386127ca565b6104386004803603604081101561088357600080fd5b50600160a060020a0381351690602001356127d0565b6103c4600480360360208110156108af57600080fd5b503561289e565b610438600480360360208110156108cc57600080fd5b50356129c0565b610293600480360360608110156108e957600080fd5b600160a060020a03823581169260208101359091169181019060608101604082013564010000000081111561091d57600080fd5b82018360208201111561092f57600080fd5b8035906020019184602083028401116401000000008311171561095157600080fd5b9190808060200260200160405190810160405280939291908181526020018383602002808284376000920191909152509295506129d2945050505050565b610438600480360360208110156109a557600080fd5b5035600160a060020a0316612a86565b61029d612aa1565b61029d612ab0565b603a602052816000526040600020818154811015156109e057fe5b600091825260209091206003909102018054600182015460029092015490935090915060ff8082169161010090041684565b603954600160a060020a031615610a785760408051600080516020613978833981519152815260206004820152601360248201527f616c726561647920696e697469616c697a656400000000000000000000000000604482015290519081900360640190fd5b6039805473ffffffffffffffffffffffffffffffffffffffff1916600160a060020a0392909216919091179055565b603954600160a060020a031681565b600081815260356020526040902060048101546002820154600160a060020a0390911690610ae38461289e565b15610cbd57600383018054604080516020601f60026000196101006001881615020190951694909404938401819004810282018101909252828152610b869390929091830182828015610b775780601f10610b4c57610100808354040283529160200191610b77565b820191906000526020600020905b815481529060010190602001808311610b5a57829003601f168201915b50505050508460060154612abf565b600683015460408051602081018390528181526003860180546002600019610100600184161502019091160492820183905287937f37f3986c71e1aa2c470cfc4a92af70820610c3065589d35ef1664ea27f3e73a593919290918190606082019085908015610c365780601f10610c0b57610100808354040283529160200191610c36565b820191906000526020600020905b815481529060010190602001808311610c1957829003601f168201915b5050935050505060405180910390a26000848152603560205260408120818155600181018290556002810182905590610c7260038301826137ee565b5060048101805473ffffffffffffffffffffffffffffffffffffffff19169055600060058201819055600690910155603654610cb890600160a060020a03168383612cd0565b610d38565b610cc6846113fc565b15610cd457610cb884612dcc565b82600501544211156102025760405184907f29026cb2acebe6d0a4b6d593ccadf76e3fc6d0a02254e078b0c4a619608089d790600090a26000848152603560205260408120818155600181018290556002810182905590610c7260038301826137ee565b6064610d786040805190810160405280601081526020017f7044697370656e736174696f6e50637400000000000000000000000000000000815250611311565b1115610d8057fe5b610e62603854610e56610dc76040805190810160405280600f81526020017f7052657665616c53746167655365630000000000000000000000000000000000815250611311565b610e56610e086040805190810160405280600f81526020017f70436f6d6d697453746167655365630000000000000000000000000000000000815250611311565b610e56610e496040805190810160405280600e81526020017f704170706c795374616765536563000000000000000000000000000000000000815250611311565b429063ffffffff6130d416565b9063ffffffff6130d416565b506000848152603560205260408120818155600181018290556002810182905590610e9060038301826137ee565b5060048101805473ffffffffffffffffffffffffffffffffffffffff1916905560006005820181905560069091015550505050565b6035602052806000526040600020600091509050806000015490806001015490806002015490806003018054600181600116156101000203166002900480601f016020809104026020016040519081016040528092919081815260200182805460018160011615610100020316600290048015610f835780601f10610f5857610100808354040283529160200191610f83565b820191906000526020600020905b815481529060010190602001808311610f6657829003601f168201915b50505050600483015460058401546006909401549293600160a060020a039091169290915087565b600081815260356020526040812060050154115b919050565b600160a060020a03166000908152603b6020526040902054151590565b603754604080517f494031830000000000000000000000000000000000000000000000000000000081526004810184905290516000928392600160a060020a0390911691634940318391602480820192602092909190829003018186803b15801561104b57600080fd5b505afa15801561105f573d6000803e3d6000fd5b505050506040513d602081101561107557600080fd5b5051603954604080517f4317d00b000000000000000000000000000000000000000000000000000000008152905192935060009261115192600160a060020a031691634317d00b916004808301926020929190829003018186803b1580156110dc57600080fd5b505afa1580156110f0573d6000803e3d6000fd5b505050506040513d602081101561110657600080fd5b505160408051808201909152600b81527f70566f746551756f72756d000000000000000000000000000000000000000000602082015261114590611311565b9063ffffffff6130e116565b603754604080517f2ce35e11000000000000000000000000000000000000000000000000000000008152600481018890529051600160a060020a0390921691632ce35e1191602480820192602092909190829003018186803b1580156111b657600080fd5b505afa1580156111ca573d6000803e3d6000fd5b505050506040513d60208110156111e057600080fd5b50516064021190508180156111f25750805b949350505050565b603754604080517f053e71a6000000000000000000000000000000000000000000000000000000008152600481018490529051600092600160a060020a03169163053e71a6916024808301926020929190829003018186803b15801561125f57600080fd5b505afa158015611273573d6000803e3d6000fd5b505050506040513d602081101561128957600080fd5b505115156112ac5750600081815260346020526040902060029081015402610fbf565b600082815260346020526040902080546002918201546112d392029063ffffffff61310a16565b92915050565b60005b815181101561130d5761130582828151811015156112f657fe5b90602001906020020151611eaf565b6001016112dc565b5050565b600060336000836040516020018082805190602001908083835b6020831061134a5780518252601f19909201916020918201910161132b565b6001836020036101000a038019825116818451168082178552505050505050905001915050604051602081830303815290604052805190602001208152602001908152602001600020549050919050565b6113d96040805190810160405280600681526020017f704f776e65720000000000000000000000000000000000000000000000000000815250611311565b600160a060020a031633146113ed57600080fd5b603c805460ff19166001179055565b6000611406613835565b600083815260356020908152604091829020825160e08101845281548152600180830154828501526002808401548387015260038401805487519381161561010002600019011691909104601f8101869004860283018601909652858252919492936060860193919291908301828280156114c25780601f10611497576101008083540402835291602001916114c2565b820191906000526020600020905b8154815290600101906020018083116114a557829003601f168201915b50505091835250506004820154600160a060020a031660208201526005820154604082015260069091015460609091015290506114fd61387c565b50602081810180516000908152603483526040808220815160a081018352815481526001820154600160a060020a038116968201969096527401000000000000000000000000000000000000000090950460ff1615159185019190915260028101546060850152600301546080840152905111801561157e57506040810151155b80156111f25750603754602080840151604080517fee684830000000000000000000000000000000000000000000000000000000008152600481019290925251600160a060020a039093169263ee68483092602480840193919291829003018186803b1580156115ed57600080fd5b505afa158015611601573d6000803e3d6000fd5b505050506040513d602081101561161757600080fd5b5051949350505050565b600061162b613835565b600083815260356020908152604091829020825160e08101845281548152600180830154828501526002808401548387015260038401805487519381161561010002600019011691909104601f8101869004860283018601909652858252919492936060860193919291908301828280156116e75780601f106116bc576101008083540402835291602001916116e7565b820191906000526020600020905b8154815290600101906020018083116116ca57829003601f168201915b50505091835250506004820154600160a060020a03166020820152600582015460408083019190915260069092015460609091015281015190915061172b84610fab565b801561173957506020820151155b151561174457600080fd5b60375460408051808201909152601081527f70566f74655375636365737352617465000000000000000000000000000000006020820152600091600160a060020a0316906332ed3d609061179790611311565b6117d56040805190810160405280600f81526020017f70436f6d6d697453746167655365630000000000000000000000000000000000815250611311565b6118136040805190810160405280600f81526020017f7052657665616c53746167655365630000000000000000000000000000000000815250611311565b6040518463ffffffff167c0100000000000000000000000000000000000000000000000000000000028152600401808481526020018381526020018281526020019350505050602060405180830381600087803b15801561187357600080fd5b505af1158015611887573d6000803e3d6000fd5b505050506040513d602081101561189d57600080fd5b50516040805160e08101909152601060a082019081527f7044697370656e736174696f6e5063740000000000000000000000000000000060c083015291925090819061190c906064906119009087906111459084906118fb90611311565b61310a565b9063ffffffff61311c16565b81523360208083018290526000604080850182905260608086018990526080958601839052878352603484528183208751815587850151600180830180548b87015173ffffffffffffffffffffffffffffffffffffffff19909116600160a060020a039485161774ff00000000000000000000000000000000000000001916740100000000000000000000000000000000000000009115159190910217905592890151600283015597909601516003909601959095558a82526035909252209091018390556036546119e19216903085613131565b603754604080517f6148fed50000000000000000000000000000000000000000000000000000000081526004810184905290516000928392600160a060020a0390911691636148fed59160248082019260a092909190829003018186803b158015611a4b57600080fd5b505afa158015611a5f573d6000803e3d6000fd5b505050506040513d60a0811015611a7557600080fd5b50805160209182015160408051878152938401839052838101829052519194509250339189917fe94e3086c4bfe84acba4437b85a80fca3721dfc419d1f7afe4fa4e470e670b489181900360600190a3509095945050505050565b603954600160a060020a03163314611b375760408051600080516020613978833981519152815260206004820152601960248201527f4f6e6c7920676f7665726e6f722063616e207265736f6c766500000000000000604482015290519081900360640190fd5b600160a060020a0381166000908152603b602052604090206002810154610100900460ff161515611ba15760405160008051602061397883398151915281526004018080602001828103825260238152602001806139986023913960400191505060405180910390fd5b600160a060020a0382166000908152603a602090815260408220805460018181018084559285529290932084546003909402019283558184015483830155600280850154818501805493958795909460ff90931693919260ff1916918490811115611c0857fe5b0217905550600291820154908201805461ff0019166101009283900460ff9081161515909302179055600160a060020a0385166000818152603b602090815260408083208381556001810193909355918501805461ffff19169055865487860154925193845295507e4a9ca99244012718bcd60999eb52bdd6e09769e7b228a9f022d7575ade245d948894929092169291908201908390811115611ca857fe5b60ff1681526020019250505060405180910390a25050565b60346020526000908152604090208054600182015460028301546003909301549192600160a060020a038216927401000000000000000000000000000000000000000090920460ff169185565b600160a060020a0383166000908152603b602052604081205415611d805760408051600080516020613978833981519152815260206004820152601260248201527f416374696f6e20696e2070726f67726573730000000000000000000000000000604482015290519081900360640190fd5b6000611dca6040805190810160405280601281526020017f7879476f7665726e616e6365416374696f6e000000000000000000000000000081525086600160a060020a03166121d2565b9050611dd46138b7565b608060405190810160405280838152602001868152602001856002811115611df857fe5b815260006020918201819052600160a060020a0389168152603b82526040908190208351815591830151600183810191909155908301516002808401805495965086959293909260ff1916918490811115611e4f57fe5b021790555060609190910151600290910180549115156101000261ff00199092169190911790555090509392505050565b6000828152603460209081526040808320600160a060020a038516845260040190915290205460ff1692915050565b6000818152603460209081526040808320338452600481019092529091205460ff1615611edb57600080fd5b60018181015474010000000000000000000000000000000000000000900460ff16151514611f0857600080fd5b603754604080517f0c03fbd7000000000000000000000000000000000000000000000000000000008152336004820152602481018590529051600092600160a060020a031691630c03fbd7916044808301926020929190829003018186803b158015611f7357600080fd5b505afa158015611f87573d6000803e3d6000fd5b505050506040513d6020811015611f9d57600080fd5b505190506000611fad33856127d0565b600384018054849003905583548190038455336000818152600486016020908152604091829020805460ff1916600117905581518481529151939450919287927f6f4c982acc31b0af2cf1dc1556f21c0325d893782d65e83c68a5534a33f59957928290030190a360365461202c90600160a060020a03163383612cd0565b50505050565b603c5460ff16156120925760408051600080516020613978833981519152815260206004820152601760248201527f4f776e657273686970207761732072656e6f756e636564000000000000000000604482015290519081900360640190fd5b6120d06040805190810160405280600681526020017f704f776e65720000000000000000000000000000000000000000000000000000815250611311565b600160a060020a031633146121345760408051600080516020613978833981519152815260206004820152601360248201527f6f6e6c79206f776e65722063616e2063616c6c00000000000000000000000000604482015290519081900360640190fd5b61130d8282612abf565b603b6020526000908152604090208054600182015460029092015490919060ff8082169161010090041684565b603954600160a060020a03163314610a785760408051600080516020613978833981519152815260206004820152601d60248201527f6f6e6c792063757272656e7420676f762063616e207472616e73666572000000604482015290519081900360640190fd5b60006122126040805190810160405280601281526020017f787950726f706f73616c73456e61626c65640000000000000000000000000000815250611311565b151561226d5760408051600080516020613978833981519152815260206004820152601960248201527f50726f706f73616c73206e6f742079657420656e61626c656400000000000000604482015290519081900360640190fd5b6122b16040805190810160405280601081526020017f7044697370656e736174696f6e5063740000000000000000000000000000000081525084846064600061321f565b6122f56040805190810160405280601181526020017f78795374616b65537563636573735063740000000000000000000000000000008152508484605a600a61321f565b6123396040805190810160405280601881526020017f7879426c6f636b50726f6475636572526577617264506374000000000000000081525084846032600a61321f565b6123806040805190810160405280600f81526020017f78795374616b65436f6f6c646f776e0000000000000000000000000000000000815250848462013b00612d0061321f565b6123c76040805190810160405280601181526020017f7879556e7374616b65436f6f6c646f776e000000000000000000000000000000815250848462013b00612d0061321f565b61240f6040805190810160405280600e81526020017f704170706c7953746167655365630000000000000000000000000000000000008152508484621275006202a30061321f565b6124576040805190810160405280600f81526020017f70436f6d6d6974537461676553656300000000000000000000000000000000008152508484621275006202a30061321f565b61249f6040805190810160405280600f81526020017f7052657665616c537461676553656300000000000000000000000000000000008152508484621275006202a30061321f565b60006124df6040805190810160405280600b81526020017f704d696e4465706f736974000000000000000000000000000000000000000000815250611311565b9050600084846040516020018083805190602001908083835b602083106125175780518252601f1990920191602091820191016124f8565b51815160209384036101000a600019018019909216911617905292019384525060408051808503815293820190528251920191909120925061255c9150829050610fab565b1561256657600080fd5b8361257086611311565b141561257b57600080fd5b604080516101208101909152600e60e082019081527f704170706c79537461676553656300000000000000000000000000000000000061010083015281906125c690610e4990611311565b81526020016000815260200183815260200186815260200133600160a060020a03168152602001612634603854610e56610dc76040805190810160405280600f81526020017f7052657665616c53746167655365630000000000000000000000000000000000815250611311565b815260209081018690526000838152603582526040908190208351815583830151600182015590830151600282015560608301518051919261267e926003850192909101906138df565b50608082015160048201805473ffffffffffffffffffffffffffffffffffffffff1916600160a060020a0390921691909117905560a0820151600582015560c09091015160069091015560008211156126e9576036546126e990600160a060020a0316333085613131565b33600160a060020a03167fb25bdef16105f099e5c185f9c7fd969571e8e0caa3f7bd75409512fe0a41a60b8686848660356000888152602001908152602001600020600001546040518080602001868152602001858152602001848152602001838152602001828103825287818151815260200191508051906020019080838360005b8381101561278457818101518382015260200161276c565b50505050905090810190601f1680156127b15780820380516001836020036101000a031916815260200191505b50965050505050505060405180910390a2949350505050565b60385481565b60008181526034602090815260408083206003810154905460375483517f0c03fbd7000000000000000000000000000000000000000000000000000000008152600160a060020a038981166004830152602482018990529451939592948794921692630c03fbd792604480840193829003018186803b15801561285257600080fd5b505afa158015612866573d6000803e3d6000fd5b505050506040513d602081101561287c57600080fd5b5051905061289483611900838563ffffffff6130e116565b9695505050505050565b60006128a8613835565b600083815260356020908152604091829020825160e08101845281548152600180830154828501526002808401548387015260038401805487519381161561010002600019011691909104601f8101869004860283018601909652858252919492936060860193919291908301828280156129645780601f1061293957610100808354040283529160200191612964565b820191906000526020600020905b81548152906001019060200180831161294757829003601f168201915b50505091835250506004820154600160a060020a03166020820152600582015460408201526006909101546060909101528051909150421180156129ab57508060a0015142105b80156129b957506020810151155b9392505050565b60336020526000908152604090205481565b600054610100900460ff16806129eb57506129eb613333565b806129f9575060005460ff16155b1515612a3e57604051600080516020613978833981519152815260040180806020018281038252602e8152602001806139bb602e913960400191505060405180910390fd5b60008054600161010061ff00198316811760ff1916919091179092550460ff16612a6984848461333a565b600080549115156101000261ff0019909216919091179055505050565b600160a060020a03166000908152603a602052604090205490565b603654600160a060020a031681565b603754600160a060020a031681565b60405180807f7879476f7665726e616e6365416374696f6e000000000000000000000000000081525060120190506040518091039020826040516020018082805190602001908083835b60208310612b285780518252601f199092019160209182019101612b09565b6001836020036101000a038019825116818451168082178552505050505050905001915050604051602081830303815290604052805190602001201415612c4757600160a060020a0381166000908152603b602052604090205481901515612bc95760405160008051602061397883398151915281526004018080602001828103825260228152602001806139e96022913960400191505060405180910390fd5b600160a060020a0381166000908152603b6020526040908190206002808201805461ff0019166101001790819055915492517fc2d2e2698f92571f812944e27375468e1f4377550761633e0112b5522f8ce3429260ff169181908390811115612c2e57fe5b60ff16815260200191505060405180910390a25061130d565b8060336000846040516020018082805190602001908083835b60208310612c7f5780518252601f199092019160209182019101612c60565b6001836020036101000a038019825116818451168082178552505050505050905001915050604051602081830303815290604052805190602001208152602001908152602001600020819055505050565b82600160a060020a031663a9059cbb83836040518363ffffffff167c01000000000000000000000000000000000000000000000000000000000281526004018083600160a060020a0316600160a060020a0316815260200182815260200192505050600060405180830381600087803b158015612d4c57600080fd5b505af1158015612d60573d6000803e3d6000fd5b50505050612d6c6137ba565b1515612dc75760408051600080516020613978833981519152815260206004820152600d60248201527f7472616e73666572206661696c00000000000000000000000000000000000000604482015290519081900360640190fd5b505050565b612dd4613835565b600082815260356020908152604091829020825160e08101845281548152600180830154828501526002808401548387015260038401805487519381161561010002600019011691909104601f810186900486028301860190965285825291949293606086019391929190830182828015612e905780601f10612e6557610100808354040283529160200191612e90565b820191906000526020600020905b815481529060010190602001808311612e7357829003601f168201915b50505091835250506004820154600160a060020a0316602080830191909152600583015460408084019190915260069093015460609092019190915282810180516000908152603490925291812091519293509091612eee906111fa565b603754602080860151604080517f053e71a6000000000000000000000000000000000000000000000000000000008152600481019290925251939450600160a060020a039092169263053e71a6926024808201939291829003018186803b158015612f5857600080fd5b505afa158015612f6c573d6000803e3d6000fd5b505050506040513d6020811015612f8257600080fd5b5051600383015560018201805474ff00000000000000000000000000000000000000001916740100000000000000000000000000000000000000001790556020830151612fce90610fe1565b1561305a57428360a001511115612ff157612ff183606001518460c00151612abf565b6020808401518354600385015460408051928352938201528251919287927fc4497224aa78dd50c9b3e344aab02596201ca1e6dca4057a91a6c02f83f4f6c19281900390910190a3603654608084015161305591600160a060020a03169083612cd0565b61202c565b6020808401518354600385015460408051928352938201528251919287927f362a12431f779a2baff4f77f75ba7960ae993a5c41b425df11f7fd0af2b9cbe69281900390910190a360365460208085015160009081526034909152604090206001015461202c91600160a060020a03908116911683612cd0565b818101828110156112d357fe5b60008215156130f2575060006112d3565b5081810281838281151561310257fe5b04146112d357fe5b60008282111561311657fe5b50900390565b6000818381151561312957fe5b049392505050565b604080517f23b872dd000000000000000000000000000000000000000000000000000000008152600160a060020a0385811660048301528481166024830152604482018490529151918616916323b872dd9160648082019260009290919082900301818387803b1580156131a457600080fd5b505af11580156131b8573d6000803e3d6000fd5b505050506131c46137ba565b151561202c5760408051600080516020613978833981519152815260206004820152601160248201527f7472616e7366657246726f6d206661696c000000000000000000000000000000604482015290519081900360640190fd5b836040516020018082805190602001908083835b602083106132525780518252601f199092019160209182019101613233565b6001836020036101000a03801982511681845116808217855250505050505090500191505060405160208183030381529060405280519060200120856040516020018082805190602001908083835b602083106132c05780518252601f1990920191602091820191016132a1565b6001836020036101000a03801982511681845116808217855250505050505090500191505060405160208183030381529060405280519060200120141561332c57600082111561332c578183111561331757600080fd5b600081111561332c5780831161332c57600080fd5b5050505050565b303b155b90565b619d8060385560368054600160a060020a0380861673ffffffffffffffffffffffffffffffffffffffff1992831617909255603780549285169290911691909117905560408051808201909152600b81527f704d696e4465706f736974000000000000000000000000000000000000000000602082015281516133d49190839060009081106133c557fe5b90602001906020020151612abf565b61341c6040805190810160405280600e81526020017f704170706c7953746167655365630000000000000000000000000000000000008152508260018151811015156133c557fe5b6134646040805190810160405280600f81526020017f70436f6d6d6974537461676553656300000000000000000000000000000000008152508260028151811015156133c557fe5b6134ac6040805190810160405280600f81526020017f7052657665616c537461676553656300000000000000000000000000000000008152508260038151811015156133c557fe5b6134f46040805190810160405280601081526020017f7044697370656e736174696f6e506374000000000000000000000000000000008152508260048151811015156133c557fe5b61353c6040805190810160405280601081526020017f70566f74655375636365737352617465000000000000000000000000000000008152508260058151811015156133c557fe5b6135846040805190810160405280600b81526020017f70566f746551756f72756d0000000000000000000000000000000000000000008152508260068151811015156133c557fe5b6135cc6040805190810160405280601181526020017f78795374616b65537563636573735063740000000000000000000000000000008152508260078151811015156133c557fe5b6136146040805190810160405280600e81526020017f78795765694d696e696e674d696e0000000000000000000000000000000000008152508260088151811015156133c557fe5b61365c6040805190810160405280601581526020017f787958594f52657175657374426f756e74794d696e00000000000000000000008152508260098151811015156133c557fe5b6136a46040805190810160405280600f81526020017f78795374616b65436f6f6c646f776e000000000000000000000000000000000081525082600a8151811015156133c557fe5b6136ec6040805190810160405280601181526020017f7879556e7374616b65436f6f6c646f776e00000000000000000000000000000081525082600b8151811015156133c557fe5b6137346040805190810160405280601281526020017f787950726f706f73616c73456e61626c6564000000000000000000000000000081525082600c8151811015156133c557fe5b61377c6040805190810160405280601881526020017f7879426c6f636b50726f6475636572526577617264506374000000000000000081525082600d8151811015156133c557fe5b60408051808201909152600681527f704f776e657200000000000000000000000000000000000000000000000000006020820152612dc79033612abf565b6000803d80156137d157602081146137da576137e6565b600191506137e6565b60206000803e60005191505b501515905090565b50805460018160011615610100020316600290046000825580601f106138145750613832565b601f016020900490600052602060002090810190613832919061395d565b50565b60e060405190810160405280600081526020016000815260200160008152602001606081526020016000600160a060020a0316815260200160008152602001600081525090565b60a060405190810160405280600081526020016000600160a060020a0316815260200160001515815260200160008152602001600081525090565b6040805160808101825260008082526020820181905290918201908152600060209091015290565b828054600181600116156101000203166002900490600052602060002090601f016020900481019282601f1061392057805160ff191683800117855561394d565b8280016001018555821561394d579182015b8281111561394d578251825591602001919060010190613932565b5061395992915061395d565b5090565b61333791905b80821115613959576000815560010161396356fe08c379a00000000000000000000000000000000000000000000000000000000063616e6e6f74207265736f6c766520616e20756e616363657074656420616374696f6e436f6e747261637420696e7374616e63652068617320616c7265616479206265656e20696e697469616c697a6564476f7665726e616e636520616374696f6e206d7573742062652070726f706f736564a165627a7a72305820a7c5c042f22a964df770caeaa1885556e9533b0ebfaf392b86f17f187d2cb93b0029",
  "source": "pragma solidity >=0.5.0 <0.6.0;\n\nimport \"./utils/Initializable.sol\";\nimport \"./utils/SafeMath.sol\";\nimport \"./XyParameterizer.sol\";\n\n/**\n    @dev Governance contract provides a democratic voting mechanism that will control  \n    parameters and actions that govern the XYO Network\n */\ncontract XyGovernance is Initializable, XyParameterizer {\n    using SafeMath for uint;\n\n    event NewActionAccepted(bytes32 indexed propId, ActionType actionType);\n    event ActionResolved(bytes32 indexed propId, address stakee, ActionType actionType);\n\n    struct GovernanceAction {\n        bytes32 propId;         // proposal id must be unique\n        uint stakePenaltyPct;   // amount that is transferred from the active stake to the penalty balance\n        ActionType actionType;  // type of action              \n        bool accepted;          // cannot be re-ran after accepted\n    }\n\n    enum ActionType { UNSTAKE, ADD_BP, REMOVE_BP }\n\n    mapping (address => GovernanceAction[]) public resolutions;\n    mapping (address => GovernanceAction) public actions;\n\n    // help ease transition into decentralized entity, \n    // and once governance has been established renounce ownership role \n    \n    bool ownershipRenounced;\n\n    function initialize (\n        address _xyERC20,\n        address _plcr,\n        uint[] memory _parameters\n    ) initializer public {\n        init(_xyERC20, _plcr, _parameters);\n    }\n    \n    /** \n        Any staker with over challenge cost can challenge a stakee.\n        @param stakee the stakee to propose action on\n        @param penaltyPct the penalty to enforce on stakers\n     */\n    function proposeNewAction(\n        address stakee, \n        uint penaltyPct, \n        ActionType action) public returns (bytes32) {\n        require(actions[stakee].propId == 0, \"Action in progress\");\n        bytes32 propId = proposeReparameterization(\"xyGovernanceAction\", uint(stakee));\n        GovernanceAction memory a = GovernanceAction(\n            propId,\n            penaltyPct,\n            action,                         // action type\n            false\n        );\n        actions[stakee] = a;\n        return propId;\n    }\n\n    function hasUnresolvedAction(address stakee) public view returns (bool hasAction) {\n        return actions[stakee].propId != 0;\n    }\n\n    function numResolutions(address stakee) public view returns (uint) {\n        return resolutions[stakee].length;\n    }\n\n      /**\n    @dev sets the param with provided name to the provided value, checks for governance action\n    @param _name the name of the param to be set\n    @param _value the value to set the param to be set\n    */\n    function set(string memory _name, uint _value) internal {\n        if (keccak256(abi.encodePacked(_name)) == keccak256(\"xyGovernanceAction\")) {\n            address converted = address(_value);\n            require(actions[address(converted)].propId != 0, \"Governance action must be proposed\");\n            actions[converted].accepted = true;\n            emit NewActionAccepted(actions[converted].propId, actions[converted].actionType);\n        } else {\n            params[keccak256(abi.encodePacked(_name))] = _value;\n        }\n    }\n\n    /** \n        Can only be called by resolver after resolution is complete \n    */\n    function resolveAction(address stakee) public {\n        require (msg.sender == governorAddress, \"Only governor can resolve\");\n        GovernanceAction storage action = actions[stakee];\n        require(action.accepted, \"cannot resolve an unaccepted action\");\n        resolutions[stakee].push(action);\n        delete actions[stakee];\n        emit ActionResolved(action.propId, stakee, action.actionType);\n    }\n\n    /** \n        Can only be called by owner and will remove centralization \n        once governance is established\n    */\n    function renounceOwnership() public {\n        require (msg.sender == address(get(\"pOwner\")));\n        ownershipRenounced = true;\n    }\n\n    /**\n    @dev While this contract is owned any param can be written by owner\n    @param _name the name of the param to be set\n    @param _value the value to set the param to be set\n    */\n    function ownerSet(string memory _name, uint _value) public {\n        require (ownershipRenounced == false, \"Ownership was renounced\");\n        require (msg.sender == address(get(\"pOwner\")), \"only owner can call\");\n        set(_name, _value);\n    }\n}  ",
  "compiler": {
    "name": "solc",
    "version": "0.5.4+commit.9549d8ff.Emscripten.clang"
  },
  "schemaVersion": "3.0.6",
  "updatedAt": "2019-04-17T23:37:10.023Z",
  "devdoc": {
    "details": "Governance contract provides a democratic voting mechanism that will control   parameters and actions that govern the XYO Network",
    "methods": {
      "canBeSet(bytes32)": {
        "params": {
          "_propID": "The proposal ID for which to determine whether its application stage passed without a challenge"
        }
      },
      "challengeCanBeResolved(bytes32)": {
        "params": {
          "_propID": "The proposal ID whose challenge to inspect"
        }
      },
      "challengeReparameterization(bytes32)": {
        "params": {
          "_propID": "the proposal ID to challenge"
        }
      },
      "challengeWinnerReward(uint256)": {
        "params": {
          "_challengeID": "The challengeID to determine a reward for"
        }
      },
      "claimReward(uint256)": {
        "params": {
          "_challengeID": "the challenge ID to claim tokens for"
        }
      },
      "claimRewards(uint256[])": {
        "details": "Called by a voter to claim their rewards for each completed vote. Someone must call updateStatus() before this can be called.",
        "params": {
          "_challengeIDs": "The PLCR pollIDs of the challenges rewards are being claimed for"
        }
      },
      "get(string)": {
        "params": {
          "_name": "the key whose value is to be determined"
        }
      },
      "ownerSet(string,uint256)": {
        "details": "While this contract is owned any param can be written by owner",
        "params": {
          "_name": "the name of the param to be set",
          "_value": "the value to set the param to be set"
        }
      },
      "processProposal(bytes32)": {
        "params": {
          "_propID": "the proposal ID to make a determination and state transition for"
        }
      },
      "propExists(bytes32)": {
        "params": {
          "_propID": "The proposal ID whose existance is to be determined"
        }
      },
      "proposeNewAction(address,uint256,uint8)": {
        "params": {
          "penaltyPct": "the penalty to enforce on stakers",
          "stakee": "the stakee to propose action on"
        }
      },
      "proposeReparameterization(string,uint256)": {
        "params": {
          "_name": "the name of the proposed param to be set",
          "_value": "the proposed value to set the param to be set"
        }
      },
      "tokenClaims(uint256,address)": {
        "details": "Getter for Challenge tokenClaims mappings",
        "params": {
          "_challengeID": "The challengeID to query",
          "_voter": "The voter whose claim status to query for the provided challengeID"
        }
      },
      "voterReward(address,uint256)": {
        "details": "Calculates the provided voter's token reward for the given poll.",
        "params": {
          "_challengeID": "The ID of the challenge the voter's reward is being calculated for",
          "_voter": "The address of the voter whose reward balance is to be returned"
        },
        "return": "The uint indicating the voter's reward"
      }
    }
  },
  "userdoc": {
    "methods": {
      "canBeSet(bytes32)": {
        "notice": "Determines whether a proposal passed its application stage without a challenge"
      },
      "challengeCanBeResolved(bytes32)": {
        "notice": "Determines whether the provided proposal ID has a challenge which can be resolved"
      },
      "challengeReparameterization(bytes32)": {
        "notice": "challenge the provided proposal ID, and put tokens at stake to do so."
      },
      "challengeWinnerReward(uint256)": {
        "notice": "Determines the number of tokens to awarded to the winning party in a challenge"
      },
      "claimReward(uint256)": {
        "notice": "Claim the tokens owed for the msg.sender in the provided challenge"
      },
      "get(string)": {
        "notice": "gets the parameter keyed by the provided name value from the params mapping"
      },
      "processProposal(bytes32)": {
        "notice": "for the provided proposal ID, set it, resolve its challenge, or delete it depending on whether it can be set, has a challenge which can be resolved, or if its \"process by\" date has passed"
      },
      "propExists(bytes32)": {
        "notice": "Determines whether a proposal exists for the provided proposal ID"
      },
      "proposeNewAction(address,uint256,uint8)": {
        "notice": "Any staker with over challenge cost can challenge a stakee."
      },
      "proposeReparameterization(string,uint256)": {
        "notice": "propose a reparamaterization of the key _name's value to _value."
      },
      "renounceOwnership()": {
        "notice": "Can only be called by owner and will remove centralization  once governance is established"
      },
      "resolveAction(address)": {
        "notice": "Can only be called by resolver after resolution is complete "
      }
    }
  }
}