{
  "contractName": "XyStakingConsensus",
  "abi": [
    {
      "constant": true,
      "inputs": [
        {
          "name": "",
          "type": "address"
        },
        {
          "name": "",
          "type": "uint256"
        }
      ],
      "name": "stakeeToStakingIds",
      "outputs": [
        {
          "name": "",
          "type": "bytes32"
        }
      ],
      "payable": false,
      "stateMutability": "view",
      "type": "function"
    },
    {
      "constant": true,
      "inputs": [],
      "name": "xyoToken",
      "outputs": [
        {
          "name": "",
          "type": "address"
        }
      ],
      "payable": false,
      "stateMutability": "view",
      "type": "function"
    },
    {
      "constant": true,
      "inputs": [
        {
          "name": "",
          "type": "bytes32"
        }
      ],
      "name": "bondedStake",
      "outputs": [
        {
          "name": "",
          "type": "bytes32"
        }
      ],
      "payable": false,
      "stateMutability": "view",
      "type": "function"
    },
    {
      "constant": true,
      "inputs": [],
      "name": "totalActiveStake",
      "outputs": [
        {
          "name": "",
          "type": "uint256"
        }
      ],
      "payable": false,
      "stateMutability": "view",
      "type": "function"
    },
    {
      "constant": true,
      "inputs": [],
      "name": "govContract",
      "outputs": [
        {
          "name": "",
          "type": "address"
        }
      ],
      "payable": false,
      "stateMutability": "view",
      "type": "function"
    },
    {
      "constant": true,
      "inputs": [
        {
          "name": "",
          "type": "address"
        }
      ],
      "name": "stakerStake",
      "outputs": [
        {
          "name": "totalStake",
          "type": "uint256"
        },
        {
          "name": "activeStake",
          "type": "uint256"
        },
        {
          "name": "cooldownStake",
          "type": "uint256"
        },
        {
          "name": "totalUnstake",
          "type": "uint256"
        }
      ],
      "payable": false,
      "stateMutability": "view",
      "type": "function"
    },
    {
      "constant": true,
      "inputs": [
        {
          "name": "actionType",
          "type": "uint8"
        }
      ],
      "name": "isUnstakeAction",
      "outputs": [
        {
          "name": "",
          "type": "bool"
        }
      ],
      "payable": false,
      "stateMutability": "pure",
      "type": "function"
    },
    {
      "constant": true,
      "inputs": [],
      "name": "totalVotingStake",
      "outputs": [
        {
          "name": "",
          "type": "uint256"
        }
      ],
      "payable": false,
      "stateMutability": "view",
      "type": "function"
    },
    {
      "constant": false,
      "inputs": [
        {
          "name": "stakingId",
          "type": "bytes32"
        }
      ],
      "name": "cooldownStake",
      "outputs": [],
      "payable": false,
      "stateMutability": "nonpayable",
      "type": "function"
    },
    {
      "constant": false,
      "inputs": [
        {
          "name": "stakingId",
          "type": "bytes32"
        }
      ],
      "name": "activateStake",
      "outputs": [],
      "payable": false,
      "stateMutability": "nonpayable",
      "type": "function"
    },
    {
      "constant": true,
      "inputs": [
        {
          "name": "",
          "type": "bytes32"
        }
      ],
      "name": "stakingStakerIndex",
      "outputs": [
        {
          "name": "",
          "type": "uint256"
        }
      ],
      "payable": false,
      "stateMutability": "view",
      "type": "function"
    },
    {
      "constant": true,
      "inputs": [
        {
          "name": "",
          "type": "bytes32"
        }
      ],
      "name": "stakeData",
      "outputs": [
        {
          "name": "amount",
          "type": "uint256"
        },
        {
          "name": "stakeBlock",
          "type": "uint256"
        },
        {
          "name": "unstakeBlock",
          "type": "uint256"
        },
        {
          "name": "stakee",
          "type": "address"
        },
        {
          "name": "staker",
          "type": "address"
        },
        {
          "name": "isActivated",
          "type": "bool"
        },
        {
          "name": "isCooledDown",
          "type": "bool"
        }
      ],
      "payable": false,
      "stateMutability": "view",
      "type": "function"
    },
    {
      "constant": true,
      "inputs": [
        {
          "name": "staker",
          "type": "address"
        }
      ],
      "name": "getAvailableStakerUnstake",
      "outputs": [
        {
          "name": "",
          "type": "uint256"
        }
      ],
      "payable": false,
      "stateMutability": "view",
      "type": "function"
    },
    {
      "constant": false,
      "inputs": [
        {
          "name": "stakingIds",
          "type": "bytes32[]"
        }
      ],
      "name": "withdrawManyStake",
      "outputs": [],
      "payable": false,
      "stateMutability": "nonpayable",
      "type": "function"
    },
    {
      "constant": true,
      "inputs": [],
      "name": "totalCooldownStake",
      "outputs": [
        {
          "name": "",
          "type": "uint256"
        }
      ],
      "payable": false,
      "stateMutability": "view",
      "type": "function"
    },
    {
      "constant": false,
      "inputs": [
        {
          "name": "stakingId",
          "type": "bytes32"
        }
      ],
      "name": "unstake",
      "outputs": [],
      "payable": false,
      "stateMutability": "nonpayable",
      "type": "function"
    },
    {
      "constant": true,
      "inputs": [
        {
          "name": "staker",
          "type": "address"
        }
      ],
      "name": "totalStakeAndUnstake",
      "outputs": [
        {
          "name": "",
          "type": "uint256"
        }
      ],
      "payable": false,
      "stateMutability": "view",
      "type": "function"
    },
    {
      "constant": false,
      "inputs": [
        {
          "name": "stakee",
          "type": "address"
        },
        {
          "name": "startIndex",
          "type": "uint256"
        },
        {
          "name": "batchSize",
          "type": "uint256"
        }
      ],
      "name": "resolveGovernanceAction",
      "outputs": [],
      "payable": false,
      "stateMutability": "nonpayable",
      "type": "function"
    },
    {
      "constant": true,
      "inputs": [
        {
          "name": "",
          "type": "address"
        },
        {
          "name": "",
          "type": "uint256"
        }
      ],
      "name": "stakerToStakingIds",
      "outputs": [
        {
          "name": "",
          "type": "bytes32"
        }
      ],
      "payable": false,
      "stateMutability": "view",
      "type": "function"
    },
    {
      "constant": true,
      "inputs": [],
      "name": "blockProducerContract",
      "outputs": [
        {
          "name": "",
          "type": "address"
        }
      ],
      "payable": false,
      "stateMutability": "view",
      "type": "function"
    },
    {
      "constant": false,
      "inputs": [
        {
          "name": "stakee",
          "type": "address"
        },
        {
          "name": "amount",
          "type": "uint256"
        }
      ],
      "name": "stake",
      "outputs": [
        {
          "name": "",
          "type": "bytes32"
        }
      ],
      "payable": false,
      "stateMutability": "nonpayable",
      "type": "function"
    },
    {
      "constant": true,
      "inputs": [
        {
          "name": "",
          "type": "uint256"
        }
      ],
      "name": "requestChain",
      "outputs": [
        {
          "name": "",
          "type": "bytes32"
        }
      ],
      "payable": false,
      "stateMutability": "view",
      "type": "function"
    },
    {
      "constant": true,
      "inputs": [
        {
          "name": "",
          "type": "uint256"
        }
      ],
      "name": "blockChain",
      "outputs": [
        {
          "name": "",
          "type": "bytes32"
        }
      ],
      "payable": false,
      "stateMutability": "view",
      "type": "function"
    },
    {
      "constant": true,
      "inputs": [
        {
          "name": "",
          "type": "bytes32"
        }
      ],
      "name": "stakingStakeeIndex",
      "outputs": [
        {
          "name": "",
          "type": "uint256"
        }
      ],
      "payable": false,
      "stateMutability": "view",
      "type": "function"
    },
    {
      "constant": false,
      "inputs": [
        {
          "name": "stakingId",
          "type": "bytes32"
        }
      ],
      "name": "withdrawStake",
      "outputs": [],
      "payable": false,
      "stateMutability": "nonpayable",
      "type": "function"
    },
    {
      "constant": true,
      "inputs": [],
      "name": "penaltyStake",
      "outputs": [
        {
          "name": "",
          "type": "uint256"
        }
      ],
      "payable": false,
      "stateMutability": "view",
      "type": "function"
    },
    {
      "constant": true,
      "inputs": [
        {
          "name": "stakee",
          "type": "address"
        }
      ],
      "name": "numStakeeStakes",
      "outputs": [
        {
          "name": "",
          "type": "uint256"
        }
      ],
      "payable": false,
      "stateMutability": "view",
      "type": "function"
    },
    {
      "constant": true,
      "inputs": [
        {
          "name": "",
          "type": "bytes32"
        }
      ],
      "name": "requestsById",
      "outputs": [
        {
          "name": "xyoBounty",
          "type": "uint256"
        },
        {
          "name": "weiMining",
          "type": "uint256"
        },
        {
          "name": "createdAt",
          "type": "uint256"
        },
        {
          "name": "responseBlockNumber",
          "type": "uint256"
        },
        {
          "name": "requestSender",
          "type": "address"
        },
        {
          "name": "requestType",
          "type": "uint8"
        }
      ],
      "payable": false,
      "stateMutability": "view",
      "type": "function"
    },
    {
      "constant": true,
      "inputs": [
        {
          "name": "staker",
          "type": "address"
        }
      ],
      "name": "numStakerStakes",
      "outputs": [
        {
          "name": "",
          "type": "uint256"
        }
      ],
      "payable": false,
      "stateMutability": "view",
      "type": "function"
    },
    {
      "constant": true,
      "inputs": [
        {
          "name": "stakee",
          "type": "address"
        }
      ],
      "name": "getAvailableStakeeUnstake",
      "outputs": [
        {
          "name": "",
          "type": "uint256"
        }
      ],
      "payable": false,
      "stateMutability": "view",
      "type": "function"
    },
    {
      "constant": true,
      "inputs": [
        {
          "name": "",
          "type": "bytes32"
        }
      ],
      "name": "blocks",
      "outputs": [
        {
          "name": "previousBlock",
          "type": "bytes32"
        },
        {
          "name": "supportingData",
          "type": "bytes32"
        },
        {
          "name": "stakingBlock",
          "type": "uint256"
        },
        {
          "name": "createdAt",
          "type": "uint256"
        },
        {
          "name": "creator",
          "type": "address"
        }
      ],
      "payable": false,
      "stateMutability": "view",
      "type": "function"
    },
    {
      "constant": true,
      "inputs": [
        {
          "name": "",
          "type": "address"
        }
      ],
      "name": "stakeeStake",
      "outputs": [
        {
          "name": "totalStake",
          "type": "uint256"
        },
        {
          "name": "activeStake",
          "type": "uint256"
        },
        {
          "name": "cooldownStake",
          "type": "uint256"
        },
        {
          "name": "totalUnstake",
          "type": "uint256"
        }
      ],
      "payable": false,
      "stateMutability": "view",
      "type": "function"
    },
    {
      "anonymous": false,
      "inputs": [
        {
          "indexed": false,
          "name": "request",
          "type": "bytes32"
        },
        {
          "indexed": false,
          "name": "xyoBounty",
          "type": "uint256"
        },
        {
          "indexed": false,
          "name": "weiMining",
          "type": "uint256"
        },
        {
          "indexed": false,
          "name": "requester",
          "type": "address"
        },
        {
          "indexed": false,
          "name": "xyoSender",
          "type": "address"
        },
        {
          "indexed": false,
          "name": "requestType",
          "type": "uint8"
        }
      ],
      "name": "RequestSubmitted",
      "type": "event"
    },
    {
      "anonymous": false,
      "inputs": [
        {
          "indexed": false,
          "name": "blockHash",
          "type": "bytes32"
        },
        {
          "indexed": false,
          "name": "previousBlock",
          "type": "bytes32"
        },
        {
          "indexed": false,
          "name": "supportingData",
          "type": "bytes32"
        },
        {
          "indexed": false,
          "name": "createdAtBlock",
          "type": "uint256"
        },
        {
          "indexed": false,
          "name": "blockProducer",
          "type": "address"
        }
      ],
      "name": "BlockCreated",
      "type": "event"
    },
    {
      "anonymous": false,
      "inputs": [
        {
          "indexed": false,
          "name": "beneficiary",
          "type": "address"
        },
        {
          "indexed": false,
          "name": "amount",
          "type": "uint256"
        },
        {
          "indexed": false,
          "name": "stakerStake",
          "type": "uint256"
        }
      ],
      "name": "WithdrawClaimed",
      "type": "event"
    },
    {
      "anonymous": false,
      "inputs": [
        {
          "indexed": false,
          "name": "request",
          "type": "bytes32"
        },
        {
          "indexed": false,
          "name": "responseBlock",
          "type": "uint256"
        },
        {
          "indexed": false,
          "name": "result",
          "type": "uint256"
        },
        {
          "indexed": false,
          "name": "responseType",
          "type": "uint8"
        }
      ],
      "name": "Response",
      "type": "event"
    },
    {
      "anonymous": false,
      "inputs": [
        {
          "indexed": false,
          "name": "stakingId",
          "type": "bytes32"
        },
        {
          "indexed": false,
          "name": "amount",
          "type": "uint256"
        },
        {
          "indexed": false,
          "name": "staker",
          "type": "address"
        },
        {
          "indexed": false,
          "name": "stakee",
          "type": "address"
        },
        {
          "indexed": false,
          "name": "transition",
          "type": "uint8"
        }
      ],
      "name": "StakeEvent",
      "type": "event"
    },
    {
      "constant": false,
      "inputs": [
        {
          "name": "_token",
          "type": "address"
        },
        {
          "name": "_blockProducerContract",
          "type": "address"
        },
        {
          "name": "_governanceContract",
          "type": "address"
        }
      ],
      "name": "initialize",
      "outputs": [],
      "payable": false,
      "stateMutability": "nonpayable",
      "type": "function"
    },
    {
      "constant": true,
      "inputs": [],
      "name": "getLatestBlock",
      "outputs": [
        {
          "name": "",
          "type": "bytes32"
        }
      ],
      "payable": false,
      "stateMutability": "view",
      "type": "function"
    },
    {
      "constant": false,
      "inputs": [
        {
          "name": "xyoBounty",
          "type": "uint256"
        }
      ],
      "name": "withdrawRewardsRequest",
      "outputs": [
        {
          "name": "",
          "type": "bytes32"
        }
      ],
      "payable": true,
      "stateMutability": "payable",
      "type": "function"
    },
    {
      "constant": false,
      "inputs": [
        {
          "name": "_spender",
          "type": "address"
        },
        {
          "name": "_value",
          "type": "uint256"
        },
        {
          "name": "",
          "type": "address"
        },
        {
          "name": "_extraData",
          "type": "bytes"
        }
      ],
      "name": "receiveApproval",
      "outputs": [],
      "payable": false,
      "stateMutability": "nonpayable",
      "type": "function"
    },
    {
      "constant": false,
      "inputs": [
        {
          "name": "request",
          "type": "bytes32"
        },
        {
          "name": "xyoBounty",
          "type": "uint256"
        },
        {
          "name": "xyoSender",
          "type": "address"
        },
        {
          "name": "requestType",
          "type": "uint8"
        }
      ],
      "name": "submitRequest",
      "outputs": [],
      "payable": true,
      "stateMutability": "payable",
      "type": "function"
    },
    {
      "constant": false,
      "inputs": [
        {
          "name": "from",
          "type": "address"
        },
        {
          "name": "request",
          "type": "bytes32"
        },
        {
          "name": "xyoBounty",
          "type": "uint256"
        },
        {
          "name": "xyoSender",
          "type": "address"
        },
        {
          "name": "requestType",
          "type": "uint8"
        }
      ],
      "name": "submitRequestFrom",
      "outputs": [],
      "payable": true,
      "stateMutability": "payable",
      "type": "function"
    },
    {
      "constant": false,
      "inputs": [
        {
          "name": "previousBlock",
          "type": "bytes32"
        },
        {
          "name": "stakingBlock",
          "type": "uint256"
        },
        {
          "name": "_requests",
          "type": "bytes32[]"
        },
        {
          "name": "supportingData",
          "type": "bytes32"
        },
        {
          "name": "responses",
          "type": "bytes"
        },
        {
          "name": "signers",
          "type": "address[]"
        },
        {
          "name": "sigR",
          "type": "bytes32[]"
        },
        {
          "name": "sigS",
          "type": "bytes32[]"
        },
        {
          "name": "sigV",
          "type": "uint8[]"
        }
      ],
      "name": "submitBlock",
      "outputs": [
        {
          "name": "",
          "type": "bytes32"
        }
      ],
      "payable": false,
      "stateMutability": "nonpayable",
      "type": "function"
    },
    {
      "constant": true,
      "inputs": [
        {
          "name": "requestId",
          "type": "bytes32"
        }
      ],
      "name": "blockForRequest",
      "outputs": [
        {
          "name": "previousBlock",
          "type": "bytes32"
        },
        {
          "name": "supportingData",
          "type": "bytes32"
        },
        {
          "name": "stakingBlock",
          "type": "uint256"
        },
        {
          "name": "createdAt",
          "type": "uint256"
        },
        {
          "name": "creator",
          "type": "address"
        }
      ],
      "payable": false,
      "stateMutability": "view",
      "type": "function"
    },
    {
      "constant": true,
      "inputs": [
        {
          "name": "requestId",
          "type": "bytes32"
        }
      ],
      "name": "supportingDataForRequest",
      "outputs": [
        {
          "name": "supportingData",
          "type": "bytes32"
        }
      ],
      "payable": false,
      "stateMutability": "view",
      "type": "function"
    },
    {
      "constant": true,
      "inputs": [],
      "name": "numRequests",
      "outputs": [
        {
          "name": "",
          "type": "uint256"
        }
      ],
      "payable": false,
      "stateMutability": "view",
      "type": "function"
    },
    {
      "constant": true,
      "inputs": [],
      "name": "numBlocks",
      "outputs": [
        {
          "name": "",
          "type": "uint256"
        }
      ],
      "payable": false,
      "stateMutability": "view",
      "type": "function"
    },
    {
      "constant": false,
      "inputs": [
        {
          "name": "bondId",
          "type": "bytes32"
        },
        {
          "name": "stakingId",
          "type": "bytes32"
        }
      ],
      "name": "unstakeBonded",
      "outputs": [],
      "payable": false,
      "stateMutability": "nonpayable",
      "type": "function"
    }
  ],
  "bytecode": "0x608060405234801561001057600080fd5b5061573d80620000216000396000f3fe6080604052600436106102c4576000357c0100000000000000000000000000000000000000000000000000000000900480638f4ffcb111610181578063c0c53b8b116100e3578063dfdb61c9116100a7578063f588a96a11610081578063f588a96a14610eba578063f666ad7114610ee4578063fd36117b14610f0e576102c4565b8063dfdb61c914610e19578063e4f5425d14610e54578063edf2165b14610e87576102c4565b8063c0c53b8b14610cf3578063c1ae3cd214610d38578063c2e4e2a914610d4d578063d734389714610d80578063d78b37ed14610de9576102c4565b8063adc9772e11610145578063b4f5052b1161011f578063b4f5052b14610c59578063b95ff68914610c83578063be98dc0a14610cad576102c4565b8063adc9772e14610bcc578063b1ff471514610c05578063b35af56f14610c2f576102c4565b80638f4ffcb114610ad45780639170c1ab14610b70578063930fc21614610b855780639fb42b1f14610b9a578063a17a43bf14610baf576102c4565b80634fba18381161022a5780636bb28918116101ee5780637cd44a8a116101c85780637cd44a8a14610a29578063867c933214610a5c5780638ccc354414610a9b576102c4565b80636bb289181461098c5780636d697dd0146109a157806371ed5d1a146109ff576102c4565b80634fba1838146107fa5780635652c52f1461082457806361d6f78a146108945780636762b2f1146108a957806367717f3a146108dc576102c4565b80632fa4d12b1161028c5780634317d00b116102665780634317d00b1461078f57806345441d17146107a45780634ce0e438146107d0576102c4565b80632fa4d12b146106e057806336032486146106f557806338c226ac1461074e576102c4565b80630b70bc49146102c95780631242b1941461063757806314fa8a25146106705780631e23f2f9146106a157806328f73148146106cb575b600080fd5b3480156102d557600080fd5b5061062560048036036101208110156102ed57600080fd5b81359160208101359181019060608101604082013564010000000081111561031457600080fd5b82018360208201111561032657600080fd5b8035906020019184602083028401116401000000008311171561034857600080fd5b919080806020026020016040519081016040528093929190818152602001838360200280828437600092019190915250929584359590949093506040810192506020013590506401000000008111156103a057600080fd5b8201836020820111156103b257600080fd5b803590602001918460018302840111640100000000831117156103d457600080fd5b91908080601f016020809104026020016040519081016040528093929190818152602001838380828437600092019190915250929594936020810193503591505064010000000081111561042757600080fd5b82018360208201111561043957600080fd5b8035906020019184602083028401116401000000008311171561045b57600080fd5b91908080602002602001604051908101604052809392919081815260200183836020028082843760009201919091525092959493602081019350359150506401000000008111156104ab57600080fd5b8201836020820111156104bd57600080fd5b803590602001918460208302840111640100000000831117156104df57600080fd5b919080806020026020016040519081016040528093929190818152602001838360200280828437600092019190915250929594936020810193503591505064010000000081111561052f57600080fd5b82018360208201111561054157600080fd5b8035906020019184602083028401116401000000008311171561056357600080fd5b91908080602002602001604051908101604052809392919081815260200183836020028082843760009201919091525092959493602081019350359150506401000000008111156105b357600080fd5b8201836020820111156105c557600080fd5b803590602001918460208302840111640100000000831117156105e757600080fd5b919080806020026020016040519081016040528093929190818152602001838360200280828437600092019190915250929550610f41945050505050565b60408051918252519081900360200190f35b34801561064357600080fd5b506106256004803603604081101561065a57600080fd5b50600160a060020a0381351690602001356111ff565b34801561067c57600080fd5b5061068561122f565b60408051600160a060020a039092168252519081900360200190f35b3480156106ad57600080fd5b50610625600480360360208110156106c457600080fd5b503561123e565b3480156106d757600080fd5b50610625611250565b3480156106ec57600080fd5b50610685611256565b34801561070157600080fd5b506107286004803603602081101561071857600080fd5b5035600160a060020a0316611265565b604080519485526020850193909352838301919091526060830152519081900360800190f35b34801561075a57600080fd5b5061077b6004803603602081101561077157600080fd5b503560ff1661128c565b604080519115158252519081900360200190f35b34801561079b57600080fd5b506106256112b8565b3480156107b057600080fd5b506107ce600480360360208110156107c757600080fd5b50356112d7565b005b3480156107dc57600080fd5b506107ce600480360360208110156107f357600080fd5b50356112e5565b34801561080657600080fd5b506106256004803603602081101561081d57600080fd5b50356112f0565b34801561083057600080fd5b5061084e6004803603602081101561084757600080fd5b5035611302565b60408051978852602088019690965286860194909452600160a060020a03928316606087015291166080850152151560a0840152151560c0830152519081900360e00190f35b3480156108a057600080fd5b50610625611366565b3480156108b557600080fd5b50610625600480360360208110156108cc57600080fd5b5035600160a060020a031661139c565b3480156108e857600080fd5b506107ce600480360360208110156108ff57600080fd5b81019060208101813564010000000081111561091a57600080fd5b82018360208201111561092c57600080fd5b8035906020019184602083028401116401000000008311171561094e57600080fd5b91908080602002602001604051908101604052809392919081815260200183836020028082843760009201919091525092955061155a945050505050565b34801561099857600080fd5b50610625611692565b3480156109ad57600080fd5b506109cb600480360360208110156109c457600080fd5b5035611698565b604080519586526020860194909452848401929092526060840152600160a060020a03166080830152519081900360a00190f35b348015610a0b57600080fd5b506107ce60048036036020811015610a2257600080fd5b5035611798565b348015610a3557600080fd5b5061062560048036036020811015610a4c57600080fd5b5035600160a060020a0316611b1a565b348015610a6857600080fd5b506107ce60048036036060811015610a7f57600080fd5b50600160a060020a038135169060208101359060400135611b3d565b348015610aa757600080fd5b5061062560048036036040811015610abe57600080fd5b50600160a060020a038135169060200135611ede565b348015610ae057600080fd5b506107ce60048036036080811015610af757600080fd5b600160a060020a038235811692602081013592604082013590921691810190608081016060820135640100000000811115610b3157600080fd5b820183602082011115610b4357600080fd5b80359060200191846001830284011164010000000083111715610b6557600080fd5b509092509050611ef9565b348015610b7c57600080fd5b506106856122ae565b348015610b9157600080fd5b506106256122bd565b348015610ba657600080fd5b506106256122c3565b61062560048036036020811015610bc557600080fd5b50356122c9565b348015610bd857600080fd5b5061062560048036036040811015610bef57600080fd5b50600160a060020a038135169060200135612323565b348015610c1157600080fd5b5061062560048036036020811015610c2857600080fd5b5035612435565b348015610c3b57600080fd5b5061062560048036036020811015610c5257600080fd5b5035612454565b348015610c6557600080fd5b5061062560048036036020811015610c7c57600080fd5b5035612462565b348015610c8f57600080fd5b506107ce60048036036020811015610ca657600080fd5b5035612474565b6107ce600480360360a0811015610cc357600080fd5b508035600160a060020a03908116916020810135916040820135916060810135909116906080013560ff1661283a565b348015610cff57600080fd5b506107ce60048036036060811015610d1657600080fd5b50600160a060020a038135811691602081013582169160409091013516612a3a565b348015610d4457600080fd5b50610625612ae9565b348015610d5957600080fd5b5061062560048036036020811015610d7057600080fd5b5035600160a060020a0316612aef565b348015610d8c57600080fd5b50610daa60048036036020811015610da357600080fd5b5035612b0a565b604080519687526020870195909552858501939093526060850191909152600160a060020a0316608084015260ff1660a0830152519081900360c00190f35b348015610df557600080fd5b506107ce60048036036040811015610e0c57600080fd5b5080359060200135612b4e565b6107ce60048036036080811015610e2f57600080fd5b508035906020810135906040810135600160a060020a0316906060013560ff16612d6f565b348015610e6057600080fd5b5061062560048036036020811015610e7757600080fd5b5035600160a060020a0316612d82565b348015610e9357600080fd5b5061062560048036036020811015610eaa57600080fd5b5035600160a060020a0316612d9d565b348015610ec657600080fd5b506109cb60048036036020811015610edd57600080fd5b5035612f9e565b348015610ef057600080fd5b5061062560048036036020811015610f0757600080fd5b5035612fd6565b348015610f1a57600080fd5b5061072860048036036020811015610f3157600080fd5b5035600160a060020a0316612fec565b603454604080517ff6a3d24e0000000000000000000000000000000000000000000000000000000081523360048201529051600092600160a060020a03169163f6a3d24e916024808301926020929190829003018186803b158015610fa557600080fd5b505afa158015610fb9573d6000803e3d6000fd5b505050506040513d6020811015610fcf57600080fd5b50511515611027576040805160e560020a62461bcd02815260206004820152601b60248201527f4f6e6c7920617070726f7665642042502063616e207375626d69740000000000604482015290519081900360640190fd5b61102f611366565b8a14611085576040805160e560020a62461bcd02815260206004820152601860248201527f496e636f72726563742070726576696f757320626c6f636b0000000000000000604482015290519081900360640190fd5b87516000106110de576040805160e560020a62461bcd02815260206004820152601460248201527f4e6f20726571756573747320696e20626c6f636b000000000000000000000000604482015290519081900360640190fd5b60008a8a8a8a8a60405160200180868152602001858152602001848051906020019060200280838360005b83811015611121578181015183820152602001611109565b5050505090500183815260200182805190602001908083835b602083106111595780518252601f19909201916020918201910161113a565b6001836020036101000a0380198251168184511680821785525050505050509050019550505050505060405160208183030381529060405280519060200120905060006111a68a89613013565b604051909150339082156108fc029083906000818181858888f193505050501580156111d6573d6000803e3d6000fd5b506111e482888888886134e0565b6111f08c838b8e61386d565b509a9950505050505050505050565b603a6020528160005260406000208181548110151561121a57fe5b90600052602060002001600091509150505481565b603354600160a060020a031681565b60446020526000908152604090205481565b60365481565b603554600160a060020a031681565b603f6020526000908152604090208054600182015460028301546003909301549192909184565b60008082600281111561129b57fe5b14806112b2575060028260028111156112b057fe5b145b92915050565b60006112d16036546037546139b090919063ffffffff16565b90505b90565b6112e28160016139bd565b50565b6112e28160006139bd565b603d6020526000908152604090205481565b60396020526000908152604090208054600182015460028301546003840154600490940154929391929091600160a060020a03908116919081169060ff60a060020a8204811691750100000000000000000000000000000000000000000090041687565b604254600090151561137a575060006112d4565b60428054600019810190811061138c57fe5b9060005260206000200154905090565b600080806113a984612d82565b905060005b81811015611551576113be61551a565b600160a060020a0386166000908152603b6020526040812080546039929190859081106113e757fe5b600091825260208083209091015483528281019390935260409182018120825160e0810184528154815260018201549481019490945260028101549284018390526003810154600160a060020a039081166060860152600490910154908116608085015260ff60a060020a82048116151560a0860152750100000000000000000000000000000000000000000090910416151560c084015291925011801561153b5750603554604080516000805160206156f28339815191528152602060048201819052601160248301527f7879556e7374616b65436f6f6c646f776e000000000000000000000000000000604483015291514393600160a060020a03169263693ec85e9260648082019391829003018186803b15801561150757600080fd5b505afa15801561151b573d6000803e3d6000fd5b505050506040513d602081101561153157600080fd5b5051604083015101105b1561154857805193909301925b506001016113ae565b50909392505050565b603554604080516000805160206156f28339815191528152602060048201819052600860248301527f787950617573656400000000000000000000000000000000000000000000000060448301529151600160a060020a039093169263693ec85e92606480840193919291829003018186803b1580156115d957600080fd5b505afa1580156115ed573d6000803e3d6000fd5b505050506040513d602081101561160357600080fd5b50511561165a576040805160e560020a62461bcd02815260206004820152601160248201527f5374616b696e6720697320506175736564000000000000000000000000000000604482015290519081900360640190fd5b60005b815181101561168e57611686828281518110151561167757fe5b90602001906020020151612474565b60010161165d565b5050565b60375481565b60008060008060006116a8615556565b506000868152604160209081526040808320815160c08101835281548152600182015493810193909352600281015491830191909152600381015460608301819052600490910154600160a060020a038116608084015260a060020a900460ff1660a08301529091101561178e576000604261173260018460600151613dc290919063ffffffff16565b8154811061173c57fe5b6000918252602090912001549050801561178c5760008181526043602052604090208054600182015460028301546003840154600490940154929a509098509650909450600160a060020a031692505b505b5091939590929450565b603554604080516000805160206156f28339815191528152602060048201819052600860248301527f787950617573656400000000000000000000000000000000000000000000000060448301529151600160a060020a039093169263693ec85e92606480840193919291829003018186803b15801561181757600080fd5b505afa15801561182b573d6000803e3d6000fd5b505050506040513d602081101561184157600080fd5b505115611898576040805160e560020a62461bcd02815260206004820152601160248201527f5374616b696e6720697320506175736564000000000000000000000000000000604482015290519081900360640190fd5b60008181526039602052604090206118af82613dd4565b156118ee5760405160e560020a62461bcd0281526004018080602001828103825260248152602001806156a06024913960400191505060405180910390fd5b6004810154600160a060020a0316331461193c5760405160e560020a62461bcd02815260040180806020018281038252602381526020018061567d6023913960400191505060405180910390fd5b603554604080516000805160206156f28339815191528152602060048201819052600f60248301527f78795374616b65436f6f6c646f776e00000000000000000000000000000000006044830152915143936119fc93600160a060020a039091169263693ec85e9260648083019392829003018186803b1580156119bf57600080fd5b505afa1580156119d3573d6000803e3d6000fd5b505050506040513d60208110156119e957600080fd5b505160018401549063ffffffff6139b016565b10611a51576040805160e560020a62461bcd02815260206004820152601960248201527f5374616b696e67206e6565647320746f20636f6f6c646f776e00000000000000604482015290519081900360640190fd5b600281015415611aab576040805160e560020a62461bcd02815260206004820152601160248201527f43616e6e6f742072652d756e7374616b65000000000000000000000000000000604482015290519081900360640190fd5b611ab481613de8565b80546004820154600380840154604080518781526020810195909552600160a060020a0393841685820152921660608401526080830152517f7ab7e8e11949eaafd5e2ea7bac9bba6e3beabc6a6615bd6757d10434e5afd2f49181900360a00190a15050565b600160a060020a03166000908152603f6020526040902080546003909101540190565b603554604080517fb776f569000000000000000000000000000000000000000000000000000000008152600160a060020a03868116600483015291516000938493849391169163b776f56991602480820192608092909190829003018186803b158015611ba957600080fd5b505afa158015611bbd573d6000803e3d6000fd5b505050506040513d6080811015611bd357600080fd5b50602081015160408201516060909201519094509092509050600181151514611c46576040805160e560020a62461bcd02815260206004820152601760248201527f616374696f6e206d757374206265206163636570746564000000000000000000604482015290519081900360640190fd5b6000826002811115611c5457fe5b1415611c6b57611c6686868686613f33565b611e23565b6002826002811115611c7957fe5b1415611d1057611c8c8686866000613f33565b603454604080517f29092d0e000000000000000000000000000000000000000000000000000000008152600160a060020a038981166004830152915191909216916329092d0e91602480830192600092919082900301818387803b158015611cf357600080fd5b505af1158015611d07573d6000803e3d6000fd5b50505050611e23565b6001826002811115611d1e57fe5b1415611e2357603454604080517f9ed93318000000000000000000000000000000000000000000000000000000008152600160a060020a03898116600483015291519190921691639ed9331891602480830192600092919082900301818387803b158015611d8b57600080fd5b505af1158015611d9f573d6000803e3d6000fd5b5050603554604080517f8400657e000000000000000000000000000000000000000000000000000000008152600160a060020a038b811660048301529151919092169350638400657e9250602480830192600092919082900301818387803b158015611e0a57600080fd5b505af1158015611e1e573d6000803e3d6000fd5b505050505b611e2c8261128c565b8015611e515750600160a060020a0386166000908152603e6020526040902060010154155b15611ed657603554604080517f8400657e000000000000000000000000000000000000000000000000000000008152600160a060020a03898116600483015291519190921691638400657e91602480830192600092919082900301818387803b158015611ebd57600080fd5b505af1158015611ed1573d6000803e3d6000fd5b505050505b505050505050565b603b6020528160005260406000208181548110151561121a57fe5b603354600160a060020a03163314611f5b576040805160e560020a62461bcd02815260206004820152601460248201527f73656e646572206d75737420626520746f6b656e000000000000000000000000604482015290519081900360640190fd5b6000606083836040811015611f6f57600080fd5b81359190810190604081016020820135640100000000811115611f9157600080fd5b820183602082011115611fa357600080fd5b80359060200191846001830284011164010000000083111715611fc557600080fd5b91908080601f016020809104026020016040519081016040528093929190818152602001838380828437600092019190915250969850919650505060018614159350612049925050505760008082806020019051604081101561202757600080fd5b50805160209091015190925090506120418983838b6140ce565b5050506122a5565b81600214156120a05760008060008084806020019051608081101561206d57600080fd5b50805160208201516040830151606090930151919650945090925090506120978b8585858561283a565b505050506122a5565b81600314156121bd5760608060608380602001905160608110156120c357600080fd5b8101908080516401000000008111156120db57600080fd5b820160208101848111156120ee57600080fd5b815185602082028301116401000000008211171561210b57600080fd5b5050929190602001805164010000000081111561212757600080fd5b8201602081018481111561213a57600080fd5b815185602082028301116401000000008211171561215757600080fd5b5050929190602001805164010000000081111561217357600080fd5b8201602081018481111561218657600080fd5b81518560208202830111640100000000821117156121a357600080fd5b50509291905050509250925092506120418a8484846143f2565b81600414156122a5576000806060808480602001905160808110156121e157600080fd5b815160208301516040840180519294919382019264010000000081111561220757600080fd5b8201602081018481111561221a57600080fd5b815185602082028301116401000000008211171561223757600080fd5b5050929190602001805164010000000081111561225357600080fd5b8201602081018481111561226657600080fd5b815185602082028301116401000000008211171561228357600080fd5b505092919050505093509350935093506122a0848c858585614458565b505050505b50505050505050565b603454600160a060020a031681565b60425490565b60405490565b60408051336c0100000000000000000000000081026020808401919091526034830185905243605480850191909152845180850390910181526074909301909352815191909201206000916112b290829085906003612d6f565b603554604080516000805160206156f28339815191528152602060048201819052600860248301527f787950617573656400000000000000000000000000000000000000000000000060448301529151600093600160a060020a03169263693ec85e9260648082019391829003018186803b1580156123a157600080fd5b505afa1580156123b5573d6000803e3d6000fd5b505050506040513d60208110156123cb57600080fd5b505115612422576040805160e560020a62461bcd02815260206004820152601160248201527f5374616b696e6720697320506175736564000000000000000000000000000000604482015290519081900360640190fd5b61242e333385856140ce565b9392505050565b604080548290811061244357fe5b600091825260209091200154905081565b604280548290811061244357fe5b603c6020526000908152604090205481565b603554604080516000805160206156f28339815191528152602060048201819052600860248301527f787950617573656400000000000000000000000000000000000000000000000060448301529151600160a060020a039093169263693ec85e92606480840193919291829003018186803b1580156124f357600080fd5b505afa158015612507573d6000803e3d6000fd5b505050506040513d602081101561251d57600080fd5b505115612574576040805160e560020a62461bcd02815260206004820152601160248201527f5374616b696e6720697320506175736564000000000000000000000000000000604482015290519081900360640190fd5b600081815260396020526040902061258b82613dd4565b156125e0576040805160e560020a62461bcd02815260206004820152601c60248201527f43616e6e6f7420776974686472617720626f6e646564207374616b6500000000604482015290519081900360640190fd5b6035546003820154604080517f4348f5cd000000000000000000000000000000000000000000000000000000008152600160a060020a03928316600482015290519190921691634348f5cd916024808301926020929190829003018186803b15801561264b57600080fd5b505afa15801561265f573d6000803e3d6000fd5b505050506040513d602081101561267557600080fd5b5051156126b65760405160e560020a62461bcd0281526004018080602001828103825260268152602001806156056026913960400191505060405180910390fd5b600081600201541180156127765750603554604080516000805160206156f28339815191528152602060048201819052601160248301527f7879556e7374616b65436f6f6c646f776e000000000000000000000000000000604483015291514393600160a060020a03169263693ec85e9260648082019391829003018186803b15801561274257600080fd5b505afa158015612756573d6000803e3d6000fd5b505050506040513d602081101561276c57600080fd5b5051600283015401105b15156127cc576040805160e560020a62461bcd02815260206004820152601660248201527f4e6f7420726561647920666f7220776974686472617700000000000000000000604482015290519081900360640190fd5b6004810154600160a060020a03163314612830576040805160e560020a62461bcd02815260206004820152601760248201527f4f6e6c79206f776e65722063616e207769746864726177000000000000000000604482015290519081900360640190fd5b61168e82826145d1565b600084815260416020526040902060020154156128a1576040805160e560020a62461bcd02815260206004820152601b60248201527f4475706c69636174652072657175657374207375626d69747465640000000000604482015290519081900360640190fd5b6128ab8284614747565b6128b3615556565b60c0604051908101604052808581526020013481526020014381526020016000815260200187600160a060020a031681526020018360ff16815250905080604160008781526020019081526020016000206000820151816000015560208201518160010155604082015181600201556060820151816003015560808201518160040160006101000a815481600160a060020a030219169083600160a060020a0316021790555060a08201518160040160146101000a81548160ff021916908360ff16021790555090505060408590806001815401808255809150509060018203906000526020600020016000909192909190915055507ffe6124b23e2b09739c63840fae4e7d9bd8f30eb25c008affee4439bc9974d1a48585348987876040518087815260200186815260200185815260200184600160a060020a0316600160a060020a0316815260200183600160a060020a0316600160a060020a031681526020018260ff1660ff168152602001965050505050505060405180910390a1505050505050565b600054610100900460ff1680612a535750612a53614989565b80612a61575060005460ff16155b1515612aa15760405160e560020a62461bcd02815260040180806020018281038252602e8152602001806156c4602e913960400191505060405180910390fd5b60008054600161010061ff00198316811760ff1916919091179092550460ff16612acc84848461498f565b600080549115156101000261ff0019909216919091179055505050565b60385481565b600160a060020a03166000908152603a602052604090205490565b6041602052600090815260409020805460018201546002830154600384015460049094015492939192909190600160a060020a0381169060a060020a900460ff1686565b603554604080516000805160206156f28339815191528152602060048201819052600e60248301527f5879426f6e64436f6e747261637400000000000000000000000000000000000060448301529151600093600160a060020a03169263693ec85e9260648082019391829003018186803b158015612bcc57600080fd5b505afa158015612be0573d6000803e3d6000fd5b505050506040513d6020811015612bf657600080fd5b5051905033600160a060020a03821614612c5a576040805160e560020a62461bcd02815260206004820152601760248201527f6f6e6c792066726f6d20626f6e6420636f6e7472616374000000000000000000604482015290519081900360640190fd5b8215801590612c76575060008281526044602052604090205483145b1515612ccc576040805160e560020a62461bcd02815260206004820152601d60248201527f5374616b65206e6f7420626f6e64656420746f207468697320626f6e64000000604482015290519081900360640190fd5b600082815260396020526040902060028101541515612d5157612cee81613de8565b80546004820154600380840154604080518881526020810195909552600160a060020a0393841685820152921660608401526080830152517f7ab7e8e11949eaafd5e2ea7bac9bba6e3beabc6a6615bd6757d10434e5afd2f49181900360a00190a15b612d5b83826145d1565b505060009081526044602052604081205550565b612d7c338585858561283a565b50505050565b600160a060020a03166000908152603b602052604090205490565b600160a060020a0381166000908152603a602090815260408083208054825181850281018501909352808352606093830182828015612dfb57602002820191906000526020600020905b815481526020019060010190808311612de7575b509394506000935083925050505b8251811015612f9657612e1a61551a565b603960008584815181101515612e2c57fe5b602090810290910181015182528181019290925260409081016000908120825160e0810184528154815260018201549481019490945260028101549284018390526003810154600160a060020a039081166060860152600490910154908116608085015260ff60a060020a82048116151560a0860152750100000000000000000000000000000000000000000090910416151560c0840152919250118015612f805750603554604080516000805160206156f28339815191528152602060048201819052601160248301527f7879556e7374616b65436f6f6c646f776e000000000000000000000000000000604483015291514393600160a060020a03169263693ec85e9260648082019391829003018186803b158015612f4c57600080fd5b505afa158015612f60573d6000803e3d6000fd5b505050506040513d6020811015612f7657600080fd5b5051604083015101105b15612f8d57805192909201915b50600101612e09565b509392505050565b6043602052600090815260409020805460018201546002830154600384015460049094015492939192909190600160a060020a031685565b6000612fe182611698565b509195945050505050565b603e6020526000908152604090208054600182015460028301546003909301549192909184565b60008080805b85518110156134d757600060416000888481518110151561303657fe5b9060200190602002015181526020019081526020016000209050600081600201541115156130985760405160e560020a62461bcd02815260040180806020018281038252602481526020018061562b6024913960400191505060405180910390fd5b600481015460009060ff60a060020a90910416600114806130c6575060048281015460a060020a900460ff16145b6130d15760206130d4565b60015b60ff1690506130f260016130e66122bd565b9063ffffffff6139b016565b6003830155600182015461310d90859063ffffffff6139b016565b600483015490945060ff60a060020a90910416600314156132165760006131358887846149db565b600484015490915061314f90600160a060020a0316611b1a565b8111156131905760405160e560020a62461bcd02815260040180806020018281038252602e81526020018061564f602e913960400191505060405180910390fd5b60048301547f5b9b0bc34c7f6a61889ce3382d8697cc823f00d6e619362ae6b156bc8ee3ad4690600160a060020a0316826131ca82611b1a565b60408051600160a060020a039094168452602084019290925282820152519081900360600190a1603354600484015461321091600160a060020a039081169116836149f9565b506134c9565b6060816040519080825280601f01601f191660200182016040528015613243576020820181803883390190505b50905060005b828110156132f2578881880181518110151561326157fe5b9060200101517f010000000000000000000000000000000000000000000000000000000000000090047f01000000000000000000000000000000000000000000000000000000000000000282828151811015156132ba57fe5b9060200101907effffffffffffffffffffffffffffffffffffffffffffffffffffffffffffff1916908160001a905350600101613249565b50600483015460ff60a060020a90910416600114806133205750600483015460ff60a060020a909104166002145b156134485760048301548951600160a060020a0390911690637e663238908b908790811061334a57fe5b906020019060200201518560040160149054906101000a900460ff16846040518463ffffffff167c0100000000000000000000000000000000000000000000000000000000028152600401808481526020018360ff1660ff16815260200180602001828103825283818151815260200191508051906020019080838360005b838110156133e15781810151838201526020016133c9565b50505050905090810190601f16801561340e5780820380516001836020036101000a031916815260200191505b50945050505050600060405180830381600087803b15801561342f57600080fd5b505af1158015613443573d6000803e3d6000fd5b505050505b7fed534ef810cf0b4ca5a86d09f252615f3613687938a15c734176eedaec90800e898581518110151561347757fe5b906020019060200201518460030154613492846000876149db565b60048701546040805194855260208501939093528383019190915260ff60a060020a909104166060830152519081900360800190a1505b939093019250600101613019565b50949350505050565b604080517f19457468657265756d205369676e6564204d6573736167653a0a333200000000602080830191909152603c80830189905283518084039091018152605c9092019092528051910120600080805b875181101561373d576000600185878481518110151561354e57fe5b906020019060200201518a8581518110151561356657fe5b906020019060200201518a8681518110151561357e57fe5b9060200190602002015160405160008152602001604052604051808581526020018460ff1660ff1681526020018381526020018281526020019450505050506020604051602081039080840390855afa1580156135df573d6000803e3d6000fd5b50505060206040510351905083600160a060020a0316898381518110151561360357fe5b60209081029091010151600160a060020a03161161366b576040805160e560020a62461bcd02815260206004820152601f60248201527f5369676e657273206172726179206d75737420626520617363656e64696e6700604482015290519081900360640190fd5b888281518110151561367957fe5b90602001906020020151935080600160a060020a0316898381518110151561369d57fe5b60209081029091010151600160a060020a031614613705576040805160e560020a62461bcd02815260206004820152601360248201527f5369676e6174757265206d69732d6d6174636800000000000000000000000000604482015290519081900360640190fd5b600160a060020a0384166000908152603e602052604090206001015461373290849063ffffffff6139b016565b925050600101613532565b50603554604080516000805160206156f28339815191528152602060048201819052601160248301527f78795374616b65537563636573735063740000000000000000000000000000006044830152915161380d9360649361380193600160a060020a039092169263693ec85e9280870192919081900387018186803b1580156137c657600080fd5b505afa1580156137da573d6000803e3d6000fd5b505050506040513d60208110156137f057600080fd5b50516036549063ffffffff614af016565b9063ffffffff614b1916565b8111613863576040805160e560020a62461bcd02815260206004820152601060248201527f4e6f7420656e6f756768207374616b6500000000000000000000000000000000604482015290519081900360640190fd5b5050505050505050565b613875615599565b60a06040519081016040528086815260200184815260200183815260200143815260200133600160a060020a03168152509050604284908060018154018082558091505090600182039060005260206000200160009091929091909150555080604360008681526020019081526020016000206000820151816000015560208201518160010155604082015181600201556060820151816003015560808201518160040160006101000a815481600160a060020a030219169083600160a060020a031602179055509050507f82fc50e339180bcc315d917fbc4224d406c0a8185ad1f9e522a403a3814dca0f84868543336040518086815260200185815260200184815260200183815260200182600160a060020a0316600160a060020a031681526020019550505050505060405180910390a15050505050565b818101828110156112b257fe5b603554604080516000805160206156f28339815191528152602060048201819052600860248301527f787950617573656400000000000000000000000000000000000000000000000060448301529151600160a060020a039093169263693ec85e92606480840193919291829003018186803b158015613a3c57600080fd5b505afa158015613a50573d6000803e3d6000fd5b505050506040513d6020811015613a6657600080fd5b505115613abd576040805160e560020a62461bcd02815260206004820152601160248201527f5374616b696e6720697320506175736564000000000000000000000000000000604482015290519081900360640190fd5b6000613ac883614b2e565b60048101549091507501000000000000000000000000000000000000000000900460ff16158015613b055750600481015460a060020a900460ff16155b1515613b5b576040805160e560020a62461bcd02815260206004820152601860248201527f63616e6e6f742072652d6163746976617465207374616b650000000000000000604482015290519081900360640190fd5b6034546003820154604080517ff6a3d24e000000000000000000000000000000000000000000000000000000008152600160a060020a039283166004820152905185151593929092169163f6a3d24e91602480820192602092909190829003018186803b158015613bcb57600080fd5b505afa158015613bdf573d6000803e3d6000fd5b505050506040513d6020811015613bf557600080fd5b505115151415613c4f576040805160e560020a62461bcd02815260206004820152601260248201527f4f6e6c7920425073206163746976617465640000000000000000000000000000604482015290519081900360640190fd5b60048101805475ff000000000000000000000000000000000000000000191675010000000000000000000000000000000000000000008415801582029290921774ff0000000000000000000000000000000000000000191660a060020a92830217928390556040805160e08101825285548152600186015460208201526002860154918101919091526003850154600160a060020a0390811660608301528416608082015260ff9284048316151560a0820152920416151560c0820152613d1590614d0d565b805460038201547f7ab7e8e11949eaafd5e2ea7bac9bba6e3beabc6a6615bd6757d10434e5afd2f49185913390600160a060020a031686613d57576001613d5a565b60025b6040518086815260200185815260200184600160a060020a0316600160a060020a0316815260200183600160a060020a0316600160a060020a03168152602001826004811115613da657fe5b60ff1681526020019550505050505060405180910390a1505050565b600082821115613dce57fe5b50900390565b600090815260446020526040902054151590565b6040805160e0810182528254808252600184015460208301526002840154928201929092526003830154600160a060020a0390811660608301526004840154908116608083015260ff60a060020a82048116151560a0840152750100000000000000000000000000000000000000000090910416151560c0820152613e6c91614e8f565b8054600380830154600160a060020a03166000908152603e602052604090200154613e9c9163ffffffff6139b016565b600380830154600160a060020a039081166000908152603e60209081526040808320850195909555855460048701549093168252603f9052929092200154613ee99163ffffffff6139b016565b600482018054600160a060020a03166000908152603f6020526040902060030191909155805475ffff00000000000000000000000000000000000000001916905543600290910155565b825b8383018110156140c757600160a060020a0385166000908152603a60205260408120805483908110613f6357fe5b60009182526020808320909101548083526039909152604090912060028101549192509015156140bd576000841115614051576000613fb46064613801846000015488614af090919063ffffffff16565b6040805160e08101825284548152600185015460208201526002850154918101919091526003840154600160a060020a0390811660608301526004850154908116608083015260ff60a060020a82048116151560a0840152750100000000000000000000000000000000000000000090910416151560c082015290915061403b9082614e8f565b60385461404e908263ffffffff6139b016565b50505b61405a81613de8565b80546004820154600380840154604080518781526020810195909552600160a060020a0393841685820152921660608401526080830152517f7ab7e8e11949eaafd5e2ea7bac9bba6e3beabc6a6615bd6757d10434e5afd2f49181900360a00190a15b5050600101613f35565b5050505050565b6033546000906140e990600160a060020a031686308561509e565b603554604080517f4348f5cd000000000000000000000000000000000000000000000000000000008152600160a060020a03868116600483015291519190921691634348f5cd916024808301926020929190829003018186803b15801561414f57600080fd5b505afa158015614163573d6000803e3d6000fd5b505050506040513d602081101561417957600080fd5b5051156141ba5760405160e560020a62461bcd0281526004018080602001828103825260268152602001806156056026913960400191505060405180910390fd5b60408051600160a060020a038581166c0100000000000000000000000090810260208085019190915291881602603483015243604880840191909152835180840390910181526068909201909252805191012061421561551a565b506040805160e0810182528481524360208201526000918101829052600160a060020a0380871660608301528716608082015260a0810182905260c081019190915261426081615187565b600160a060020a038581166000818152603a602090815260408083208054888552603c845282852081905560018082018355918552838520018890558b8616808552603b845282852080548a8752603d865284872081905580840182559086528486200189905588855260398452828520885181558885015192810192909255878301516002830155606080890151600384018054918a1673ffffffffffffffffffffffffffffffffffffffff199283161790556080808b01516004909501805460a0808e015160c08f0151151575010000000000000000000000000000000000000000000275ff0000000000000000000000000000000000000000001991151560a060020a0274ff0000000000000000000000000000000000000000199a909f169390961692909217979097169b909b179a909a169190911790985583518a81529485018c9052848401919091528301949094529381019190915291517f7ab7e8e11949eaafd5e2ea7bac9bba6e3beabc6a6615bd6757d10434e5afd2f49281900390910190a15095945050505050565b60005b82518110156140c75761444f85858381518110151561441057fe5b90602001906020020151858481518110151561442857fe5b90602001906020020151858581518110151561444057fe5b906020019060200201516140ce565b506001016143f5565b80518251146144b1576040805160e560020a62461bcd02815260206004820152600a60248201527f62616420696e7075747300000000000000000000000000000000000000000000604482015290519081900360640190fd5b60005b8251811015611ed65760006144ea868686858151811015156144d257fe5b90602001906020020151868681518110151561444057fe5b600081815260446020526040902088905560345485519192506145c8918391600160a060020a03169063f6a3d24e9088908790811061452557fe5b906020019060200201516040518263ffffffff167c01000000000000000000000000000000000000000000000000000000000281526004018082600160a060020a0316600160a060020a0316815260200191505060206040518083038186803b15801561459157600080fd5b505afa1580156145a5573d6000803e3d6000fd5b505050506040513d60208110156145bb57600080fd5b50511515600114156139bd565b506001016144b4565b6040805160e08101825282548152600183015460208201526002830154918101919091526003820154600160a060020a0390811660608301526004830154908116608083015260ff60a060020a82048116151560a0840152750100000000000000000000000000000000000000000090910416151560c08201526146549061521e565b603354815461466e91600160a060020a03169033906149f9565b80546004808301546003840154604080518781526020810195909552600160a060020a0392831685820152911660608401526080830191909152517f7ab7e8e11949eaafd5e2ea7bac9bba6e3beabc6a6615bd6757d10434e5afd2f49181900360a00190a16146dc826152c2565b6146e5826153d4565b50600090815260396020526040812081815560018101829055600281019190915560038101805473ffffffffffffffffffffffffffffffffffffffff19169055600401805475ffffffffffffffffffffffffffffffffffffffffffff19169055565b603554604080516000805160206156f28339815191528152602060048201819052600e60248301527f78795765694d696e696e674d696e00000000000000000000000000000000000060448301529151600093600160a060020a03169263693ec85e9260648082019391829003018186803b1580156147c557600080fd5b505afa1580156147d9573d6000803e3d6000fd5b505050506040513d60208110156147ef57600080fd5b5051603554604080516000805160206156f28339815191528152602060048201819052601560248301527f787958594f52657175657374426f756e74794d696e000000000000000000000060448301529151939450600093600160a060020a039093169263693ec85e92606480840193919291829003018186803b15801561487657600080fd5b505afa15801561488a573d6000803e3d6000fd5b505050506040513d60208110156148a057600080fd5b5051905060008211156149055734821115614905576040805160e560020a62461bcd02815260206004820152601e60248201527f4e6f7420656e6f7567682077656920746f20636f766572206d696e696e670000604482015290519081900360640190fd5b60008311806149145750600081115b15612d7c5780831015614971576040805160e560020a62461bcd02815260206004820152601c60248201527f58594f20426f756e7479206c657373207468616e206d696e696d756d00000000604482015290519081900360640190fd5b603354612d7c90600160a060020a031685308661509e565b303b1590565b60338054600160a060020a0394851673ffffffffffffffffffffffffffffffffffffffff1991821617909155603480549385169382169390931790925560358054919093169116179055565b60008183018451101515156149ef57600080fd5b5050016020015190565b82600160a060020a031663a9059cbb83836040518363ffffffff167c01000000000000000000000000000000000000000000000000000000000281526004018083600160a060020a0316600160a060020a0316815260200182815260200192505050600060405180830381600087803b158015614a7557600080fd5b505af1158015614a89573d6000803e3d6000fd5b50505050614a956154e6565b1515614aeb576040805160e560020a62461bcd02815260206004820152600d60248201527f7472616e73666572206661696c00000000000000000000000000000000000000604482015290519081900360640190fd5b505050565b6000821515614b01575060006112b2565b50818102818382811515614b1157fe5b04146112b257fe5b60008183811515614b2657fe5b049392505050565b6000818152603960205260408120614b4583613dd4565b1515614cb3576004810154600160a060020a03163314614baf576040805160e560020a62461bcd02815260206004820152601c60248201527f4f6e6c7920746865207374616b65722063616e20616374697661746500000000604482015290519081900360640190fd5b603554604080516000805160206156f28339815191528152602060048201819052600f60248301527f78795374616b65436f6f6c646f776e0000000000000000000000000000000000604483015291514393600160a060020a03169263693ec85e9260648082019391829003018186803b158015614c2c57600080fd5b505afa158015614c40573d6000803e3d6000fd5b505050506040513d6020811015614c5657600080fd5b505160018301540110614cb3576040805160e560020a62461bcd02815260206004820152601f60248201527f4e6f7420726561647920746f206163746976617465207374616b652079657400604482015290519081900360640190fd5b6002810154156112b2576040805160e560020a62461bcd02815260206004820152601760248201527f43616e6e6f7420616374697661746520756e7374616b65000000000000000000604482015290519081900360640190fd5b8060c0015115614dd45780516060820151600160a060020a03166000908152603e6020526040902060020154614d489163ffffffff6139b016565b6060820151600160a060020a039081166000908152603e60209081526040808320600290810195909555855160808701519094168352603f909152902090910154614d989163ffffffff6139b016565b6080820151600160a060020a03166000908152603f60205260409020600201558051603754614dcc9163ffffffff6139b016565b6037556112e2565b80516060820151600160a060020a03166000908152603e6020526040902060010154614e059163ffffffff6139b016565b6060820151600160a060020a039081166000908152603e60209081526040808320600190810195909555855160808701519094168352603f909152902090910154614e559163ffffffff6139b016565b6080820151600160a060020a03166000908152603f60205260409020600101558051603654614e899163ffffffff6139b016565b60365550565b6060820151600160a060020a03166000908152603e6020526040902054614ebc908263ffffffff613dc216565b6060830151600160a060020a039081166000908152603e602090815260408083209490945560808601519092168152603f9091522054614f02908263ffffffff613dc216565b6080830151600160a060020a03166000908152603f602052604090205560a082015115614fdf576060820151600160a060020a03166000908152603e6020526040902060010154614f59908263ffffffff613dc216565b6060830151600160a060020a039081166000908152603e6020908152604080832060019081019590955560808701519093168252603f9052200154614fa4908263ffffffff613dc216565b6080830151600160a060020a03166000908152603f6020526040902060010155603654614fd7908263ffffffff613dc216565b60365561168e565b8160c001511561168e576060820151600160a060020a03166000908152603e6020526040902060020154615019908263ffffffff613dc216565b6060830151600160a060020a039081166000908152603e6020908152604080832060029081019590955560808701519093168252603f9052200154615064908263ffffffff613dc216565b6080830151600160a060020a03166000908152603f6020526040902060020155603754615097908263ffffffff613dc216565b6037555050565b604080517f23b872dd000000000000000000000000000000000000000000000000000000008152600160a060020a0385811660048301528481166024830152604482018490529151918616916323b872dd9160648082019260009290919082900301818387803b15801561511157600080fd5b505af1158015615125573d6000803e3d6000fd5b505050506151316154e6565b1515612d7c576040805160e560020a62461bcd02815260206004820152601160248201527f7472616e7366657246726f6d206661696c000000000000000000000000000000604482015290519081900360640190fd5b80516060820151600160a060020a03166000908152603e60205260409020546151b59163ffffffff6139b016565b6060820151600160a060020a039081166000908152603e6020908152604080832094909455845160808601519093168252603f905291909120546151fe9163ffffffff6139b016565b608090910151600160a060020a03166000908152603f6020526040902055565b80516060820151600160a060020a03166000908152603e602052604090206003015461524f9163ffffffff613dc216565b6060820151600160a060020a039081166000908152603e60209081526040808320600390810195909555855160808701519094168352603f90915290209091015461529f9163ffffffff613dc216565b608090910151600160a060020a03166000908152603f6020526040902060030155565b600081815260396020908152604080832060030154603c835281842054600160a060020a03909116808552603a90935290832080549293919260001981019291908390811061530d57fe5b9060005260206000200154905080603a600086600160a060020a0316600160a060020a031681526020019081526020016000208481548110151561534d57fe5b6000918252602080832090910192909255600160a060020a0386168152603a9091526040812080548490811061537f57fe5b6000918252602080832090910192909255600160a060020a0386168152603a909152604090208054906153b69060001983016155c7565b506000948552603c6020526040808620869055908552909320555050565b600081815260396020908152604080832060040154603d835281842054600160a060020a03909116808552603b90935290832080549293919260001981019291908390811061541f57fe5b9060005260206000200154905080603b600086600160a060020a0316600160a060020a031681526020019081526020016000208481548110151561545f57fe5b6000918252602080832090910192909255600160a060020a0386168152603b9091526040812080548490811061549157fe5b6000918252602080832090910192909255600160a060020a0386168152603b909152604090208054906154c89060001983016155c7565b506000948552603d6020526040808620869055908552909320555050565b6000803d80156154fd576020811461550657615512565b60019150615512565b60206000803e60005191505b501515905090565b6040805160e081018252600080825260208201819052918101829052606081018290526080810182905260a0810182905260c081019190915290565b60c060405190810160405280600081526020016000815260200160008152602001600081526020016000600160a060020a03168152602001600060ff1681525090565b6040805160a08101825260008082526020820181905291810182905260608101829052608081019190915290565b815481835581811115614aeb57600083815260209020614aeb9181019083016112d491905b8082111561560057600081556001016155ec565b509056fe416c6c20616374696f6e73206f6e207374616b6565206d757374206265207265736f6c76656450617373656420612072657175657374207468617420646f6573206e6f74206578697374576974686472617720616d6f756e74206d6f7265207468616e20746f74616c207374616b65722773207374616b654f6e6c7920746865207374616b65722063616e20756e7374616b652061207374616b654f6e6c7920756e7374616b6520626f6e6465642d7374616b652076696120706172656e74436f6e747261637420696e7374616e63652068617320616c7265616479206265656e20696e697469616c697a6564693ec85e00000000000000000000000000000000000000000000000000000000a165627a7a72305820762100d0e972fcbed388f58b752244280569e9ff69d35b74f1ac53a2b30c8cd50029",
  "source": "pragma solidity >=0.5.0 <0.6.0;\n\nimport \"../utils/Initializable.sol\";\nimport \"./XyStakingModel.sol\";\nimport \"../IXyRequester.sol\";\n\n /**\n    @title XyStakingConsensus\n    @dev Manages the Stake for multiple clients in a decentralized consensus \n    system to trustlessly answer requests\n  */\ncontract XyStakingConsensus is Initializable, XyStakingModel {\n    using SafeMath for uint;\n    \n    /** STRUCTS */\n    struct Block {\n        bytes32 previousBlock;\n        bytes32 supportingData;\n        uint stakingBlock;\n        uint createdAt;\n        address creator;\n    }\n\n    struct Request {\n        uint xyoBounty;\n        uint weiMining;\n        uint createdAt;\n        uint responseBlockNumber;\n        address requestSender;\n        uint8 requestType;\n    }\n\n    // the array of request ids\n    bytes32[] public requestChain;\n    // the requests in the requestChain\n    mapping(bytes32 => Request) public requestsById; \n    // the array of block ids\n    bytes32[] public blockChain; \n    // The blocks in the blockChain\n    mapping(bytes32 => Block) public blocks; \n\n    /** EVENTS */\n    event RequestSubmitted(\n        bytes32 request,\n        uint xyoBounty,\n        uint weiMining,\n        address requester,\n        address xyoSender,\n        uint8 requestType\n    );\n\n    event BlockCreated(\n        bytes32 blockHash,\n        bytes32 previousBlock,\n        bytes32 supportingData,\n        uint createdAtBlock,\n        address blockProducer\n    );\n\n    event WithdrawClaimed(\n        address beneficiary,\n        uint amount,\n        uint stakerStake\n    );\n\n    event Response (\n        bytes32 request,\n        uint responseBlock,\n        uint result,\n        uint8 responseType\n    );\n\n    // mapping from stake id to bond id\n    mapping (bytes32 => bytes32) public bondedStake;\n\n    /**\n        @param _token - The ERC20 token to stake with \n        @param _blockProducerContract - The block producers \n        @param _governanceContract - The contract that governs the blockProducer and actions of the system\n    */\n    function initialize(\n        address _token,\n        address _blockProducerContract,\n        address _governanceContract\n    )\n        initializer public\n    {\n        init(_token, _blockProducerContract, _governanceContract);\n    }\n\n    /** \n        @return the latest block submitted to the blockChain \n    */\n    function getLatestBlock() \n        public \n        view \n        returns (bytes32) \n    {\n        if (blockChain.length == 0) {\n            return 0x0;\n        }\n        return blockChain[blockChain.length-1];\n    }\n\n    /**\n        @dev Withdraw reward balance can post same params via raw\n        @param xyoBounty bounty for request\n    */\n    function withdrawRewardsRequest \n    (\n        uint xyoBounty\n    ) \n        public\n        payable\n        returns (bytes32)\n    {\n        bytes32 requestId = keccak256(abi.encodePacked(msg.sender, xyoBounty, block.number));\n        submitRequest(requestId, xyoBounty, msg.sender, uint8(IXyRequester.RequestType.WITHDRAW));\n        return requestId;\n    }\n\n    /** \n        Implements IApprovalRecipient allows approveAndCall in one transaction\n    */\n    function receiveApproval(\n        address _spender, \n        uint256 _value, \n        address,\n        bytes calldata _extraData\n    ) \n        external \n    {\n        require (msg.sender == xyoToken, \"sender must be token\");\n        (uint method, bytes memory data) = abi.decode(_extraData, (uint, bytes));\n        \n        if (method == 1) {\n            (address staker, address stakee) = abi.decode(data, (address, address));\n            stakeFrom(_spender, staker, stakee, _value);\n        } else if (method == 2) {\n            ( bytes32 request, uint xyoBounty, address xyoSender, uint8 requestType) = abi.decode(data, (bytes32, uint, address, uint8));\n            submitRequestFrom(_spender, request, xyoBounty, xyoSender, requestType);\n        } else if (method == 3) {\n            (address[] memory stakers, address[] memory stakees, uint[] memory amounts) = abi.decode(data, (address[], address[], uint[]));\n            stakeMultiple(_spender, stakers, stakees, amounts);\n        } else if (method == 4) {\n            (bytes32 bondId, address staker, address[] memory stakees, uint[] memory amounts) = abi.decode(data, (bytes32, address, address[], uint[]));\n            _stakeAndBond(bondId, _spender, staker, stakees, amounts);\n        }\n    }\n\n    /**\n        @dev Escrow eth and xyo, making sure it covers the answer mining cost\n        Stores new request in request pool\n        @param request How to uniquely identify a request\n        @param xyoBounty bounty for request\n        @param xyoSender who to deduct the xyo from for mining cost\n        @param requestType based on the type we know which callback to call (string or bool)\n    */\n    function submitRequest\n    (\n        bytes32 request, \n        uint xyoBounty,\n        address xyoSender, \n        uint8 requestType\n    ) \n        public\n        payable\n    {\n        submitRequestFrom(msg.sender, request, xyoBounty, xyoSender, requestType);\n    }\n\n    function submitRequestFrom\n    (   \n        address from,\n        bytes32 request, \n        uint xyoBounty,\n        address xyoSender, \n        uint8 requestType\n    )\n        public \n        payable\n    {\n        require (requestsById[request].createdAt == 0, \"Duplicate request submitted\");\n\n        _requireFeesAndTransfer(xyoSender, xyoBounty);\n\n        Request memory q = Request (\n            xyoBounty,      // bounty\n            msg.value,      // wei for mining\n            block.number,   // created at\n            0,              // response block num           \n            from,           // requestSender (receives response cb)\n            requestType     // type of request\n        );\n\n        requestsById[request] = q;\n        requestChain.push(request);\n\n        emit RequestSubmitted(request, xyoBounty, msg.value, from, xyoSender, requestType);\n    }\n\n    /**\n        Will verify proper mining fees have been applied\n        @param xyoSender who to transfer the fees from (must have approved this contract)\n        @param xyoBounty the amount the xyoSender is paying for this request\n    */\n    function _requireFeesAndTransfer(address xyoSender, uint xyoBounty) \n        private \n    {\n        uint weiMiningMin = govContract.get(\"xyWeiMiningMin\");\n        uint bountyMin = govContract.get(\"xyXYORequestBountyMin\");\n        if (weiMiningMin > 0) {\n            require (msg.value >= weiMiningMin, \"Not enough wei to cover mining\");\n        }\n        if (xyoBounty > 0 || bountyMin > 0) {\n            require (xyoBounty >= bountyMin, \"XYO Bounty less than minimum\");\n            SafeERC20.transferFrom(xyoToken, xyoSender, address(this), xyoBounty);\n        }\n    }\n\n    /**\n        Requires the length of bytes is more than starting point + 32\n        returns 32 bytes memory (reversed to uint) at start + 32 to memory[start]\n        @param _bytes the bytes passed to pull uint from\n        @param _start index in bytes to return uint\n     */\n    function _toUintFromBytes(bytes memory _bytes, uint _start, uint bytesLen) private pure returns (uint256) {\n        require(_bytes.length >= (_start + bytesLen));\n        uint256 tempUint;\n\n        assembly {\n            tempUint := mload(add(add(_bytes, 0x20), _start))\n        }\n\n        return tempUint;\n    }\n\n    /** \n        @dev Calls Request interface submitResponse function for each answer.\n        Use for estimating gas of a request\n        @param _requests the requests queried\n        @param responses the response data of all the requests\n        @return The weiMining for submitting the new block\n        Will revert if the request does not exist, or the withdraw request is more htna the staker stake\n    */\n    function handleResponses\n    (\n        bytes32[] memory _requests, \n        bytes memory responses\n    )\n        internal \n        returns (uint)\n    {\n        uint byteOffset = 0;\n        uint weiMining = 0;\n        for (uint i = 0; i < _requests.length; i++) {\n            Request storage q = requestsById[_requests[i]];\n            require (q.createdAt > 0, \"Passed a request that does not exist\");\n            uint numBytes = q.requestType == uint8(IXyRequester.RequestType.BOOL_CALLBACK)\n                         || q.requestType == uint8(IXyRequester.RequestType.BOOL) ? 1 : 32;\n\n            q.responseBlockNumber = numBlocks().add(1);\n            weiMining = weiMining.add(q.weiMining);\n\n            if (q.requestType == uint8(IXyRequester.RequestType.WITHDRAW)) {\n                uint amount = _toUintFromBytes(responses, byteOffset, numBytes);\n                require (amount <= totalStakeAndUnstake(q.requestSender), \"Withdraw amount more than total staker's stake\");\n                emit WithdrawClaimed(q.requestSender, amount, totalStakeAndUnstake(q.requestSender));\n                SafeERC20.transfer(xyoToken, q.requestSender, amount);\n            } else {\n                bytes memory result = new bytes(numBytes);\n                for (uint j = 0; j < numBytes; j++) {\n                    result[j] = responses[byteOffset + j];\n                }\n                if (q.requestType == uint8(IXyRequester.RequestType.BOOL_CALLBACK) \n                    || q.requestType == uint8(IXyRequester.RequestType.UINT_CALLBACK)) {\n                    IXyRequester(q.requestSender).submitResponse(_requests[i], q.requestType, result);\n                } \n                emit Response(_requests[i], q.responseBlockNumber, _toUintFromBytes(result, 0, numBytes), q.requestType);\n            }\n            byteOffset += numBytes;\n        }\n        \n        return weiMining;\n    }\n\n    /** \n        @dev checks a message hash was signed by a list of signers via their sigs\n        @param messageHash The hash of the message that was signed\n        @param signers The in-order list of signers of the message\n        @param sigR R values in signatures\n        @param sigS S values in signatures\n        @param sigV V values in signatures\n    */\n    function checkSigsAndStakes\n    (\n        bytes32 messageHash,\n        address[] memory signers,\n        bytes32[] memory sigR,\n        bytes32[] memory sigS,\n        uint8[] memory sigV\n    )\n        view\n        internal \n    {\n        bytes32 prefixedHash = keccak256(abi.encodePacked(\"\\x19Ethereum Signed Message:\\n32\", messageHash));\n        address lastStakee = address(0);\n        uint stake = 0;\n        for (uint i = 0; i < signers.length; i++) {\n            address signer = ecrecover(prefixedHash, sigV[i], sigR[i], sigS[i]);\n            require(signers[i] > lastStakee , \"Signers array must be ascending\");\n            lastStakee = signers[i];\n            require(signers[i] == signer, \"Signature mis-match\");\n            stake = stake.add(stakeeStake[lastStakee].activeStake);\n        }\n        // check sufficient stake by stakees subitted\n        require (stake > totalActiveStake.mul(govContract.get(\"xyStakeSuccessPct\")).div(100), \"Not enough stake\");\n    }\n\n    function _createBlock(bytes32 previousBlock, bytes32 newBlock, bytes32 supportingData, uint stakingBlock) private {\n        Block memory b = Block(previousBlock, supportingData, stakingBlock, block.number,  msg.sender);\n        blockChain.push(newBlock);\n        blocks[newBlock] = b;\n        emit BlockCreated(newBlock, previousBlock, supportingData, block.number, msg.sender);\n    }\n\n    /**\n        Submit a new block to the consensus blockChain. Verifies stake in consensus is over 51% of the network. \n        calls requests' callbacks with responses.  Creates new block and returns weiMining for successful creation.\n        @param previousBlock the prior block to maintain the \n        @param stakingBlock the block number diviners get staking data for\n        @param _requests list of the request ids (minus first 2 bytes)\n        @param supportingData the hash of the supporting block data\n        @param responses byte array of responses\n        @param signers Stakees, aka diviners and must be passed in ascending order to check for dups\n        @param sigR R values in signatures\n        @param sigS S values in signatures\n        @param sigV V values in signatures\n        @return The hash of the new block\n    */\n    function submitBlock\n    (\n        bytes32 previousBlock,\n        uint stakingBlock,\n        bytes32[] memory _requests,\n        bytes32 supportingData,\n        bytes memory responses,\n        address[] memory signers,\n        bytes32[] memory sigR,\n        bytes32[] memory sigS,\n        uint8[] memory sigV\n    ) \n        public \n        returns (bytes32)\n    {\n        require (blockProducerContract.exists(msg.sender), \"Only approved BP can submit\");\n        require (previousBlock == getLatestBlock(), \"Incorrect previous block\");\n        require (_requests.length > 0, \"No requests in block\");\n        \n        bytes32 newBlock = keccak256(abi.encodePacked(previousBlock, stakingBlock, _requests, supportingData, responses));\n        uint weiMining = handleResponses(_requests, responses);\n        msg.sender.transfer(weiMining);\n\n        checkSigsAndStakes(newBlock, signers, sigR, sigS, sigV);\n        _createBlock(previousBlock, newBlock, supportingData, stakingBlock);\n\n        return newBlock;\n    }\n\n    /**\n        Returns a block for a given request id or a undefined block\n        @param requestId the block this request was responded on\n    */\n    function blockForRequest(bytes32 requestId) \n        public view \n        returns (\n            bytes32 previousBlock,\n            bytes32 supportingData,\n            uint stakingBlock,\n            uint createdAt,\n            address creator\n        ) \n    {\n        Request memory r = requestsById[requestId];\n        if (r.responseBlockNumber > 0) {\n            bytes32 blockId = blockChain[r.responseBlockNumber.sub(1)];\n            if (blockId != 0) {\n                previousBlock = blocks[blockId].previousBlock;\n                supportingData = blocks[blockId].supportingData;\n                stakingBlock = blocks[blockId].stakingBlock;\n                createdAt = blocks[blockId].createdAt;\n                creator = blocks[blockId].creator;\n            }\n        }\n    }\n\n    /**\n        Returns supporting data for a given request id\n        @param requestId the block this request was responded on\n        @return content addressable hash of the data\n    */\n    function supportingDataForRequest(bytes32 requestId) public view returns (bytes32 supportingData) {\n        (,supportingData,,,) = blockForRequest(requestId);\n    }\n\n    function numRequests() public view returns (uint) {\n        return requestChain.length;\n    }\n    \n    function numBlocks() public view returns (uint) {\n        return blockChain.length;\n    }\n\n    /* Network Staking Support */\n\n    /**\n        Called from StakingModel base class to see if this is bonded stake\n    */\n    function isBondedStake(bytes32 stakingId) internal view returns (bool) {\n        return bondedStake[stakingId] != 0;\n    }\n\n    /**\n        stakes a bonded stake\n        @param bondId - the bond id to ensure the correct stake\n        @param issuer - Who provides the xyo\n        @param staker - the beneficiary of the stake\n        @param stakees - the stakees to stake\n        @param amounts - the amounts to stake by stakee\n    */\n    function _stakeAndBond (\n        bytes32 bondId, \n        address issuer, \n        address staker, \n        address[] memory stakees, \n        uint[] memory amounts\n    ) \n        private \n    {\n        require(stakees.length == amounts.length, \"bad inputs\");\n        for (uint i = 0; i < stakees.length; i++) {\n            bytes32 stakingId = stakeFrom(issuer, staker, stakees[i], amounts[i]);\n            bondedStake[stakingId] = bondId;\n            _activateStake(stakingId, blockProducerContract.exists(stakees[i]) != true);\n        }\n    } \n\n    /**\n        Unstakes/withdraws to bonded stake\n        @param bondId - the bond id to ensure the correct stake\n        @param stakingId - the id of the stake to withdraw to bond contract\n    */\n    function unstakeBonded (\n        bytes32 bondId, \n        bytes32 stakingId\n    ) \n        external \n    {\n        address bondContract = address(govContract.get('XyBondContract'));\n        require(msg.sender == bondContract, \"only from bond contract\");\n        require(bondId != 0 && bondId == bondedStake[stakingId], \"Stake not bonded to this bond\");\n        Stake storage data = stakeData[stakingId];\n        if (data.unstakeBlock==0) {\n            updateCacheOnUnstake(data);\n            emit StakeEvent(stakingId, data.amount, data.staker, data.stakee, StakeTransition.UNSTAKED);\n        }\n        _withdrawStakeData(stakingId, data);\n        bondedStake[stakingId] = 0;\n    }\n}",
  "compiler": {
    "name": "solc",
    "version": "0.5.4+commit.9549d8ff.Emscripten.clang"
  },
  "schemaVersion": "3.0.8",
  "updatedAt": "2019-04-30T21:56:57.471Z",
  "devdoc": {
    "details": "Manages the Stake for multiple clients in a decentralized consensus  system to trustlessly answer requests",
    "methods": {
      "blockForRequest(bytes32)": {
        "params": {
          "requestId": "the block this request was responded on"
        }
      },
      "cooldownStake(bytes32)": {
        "details": "Mark stake as cooled down or activated cooled down stake is for non-block producers only",
        "params": {
          "stakingId": "- the tokenId of the staking token"
        }
      },
      "getLatestBlock()": {
        "return": "the latest block submitted to the blockChain "
      },
      "initialize(address,address,address)": {
        "params": {
          "_blockProducerContract": "- The block producers ",
          "_governanceContract": "- The contract that governs the blockProducer and actions of the system",
          "_token": "- The ERC20 token to stake with "
        }
      },
      "resolveGovernanceAction(address,uint256,uint256)": {
        "params": {
          "batchSize": "if batchable action, batchSize",
          "stakee": "the staked item receiving action",
          "startIndex": "if a batchable action, where to start"
        }
      },
      "stake(address,uint256)": {
        "details": "This contract must be approved to transfers by holder",
        "params": {
          "amount": "- the amount to stake",
          "stakee": "- the stakable address "
        }
      },
      "submitBlock(bytes32,uint256,bytes32[],bytes32,bytes,address[],bytes32[],bytes32[],uint8[])": {
        "params": {
          "_requests": "list of the request ids (minus first 2 bytes)",
          "previousBlock": "the prior block to maintain the ",
          "responses": "byte array of responses",
          "sigR": "R values in signatures",
          "sigS": "S values in signatures",
          "sigV": "V values in signatures",
          "signers": "Stakees, aka diviners and must be passed in ascending order to check for dups",
          "stakingBlock": "the block number diviners get staking data for",
          "supportingData": "the hash of the supporting block data"
        },
        "return": "The hash of the new block"
      },
      "submitRequest(bytes32,uint256,address,uint8)": {
        "details": "Escrow eth and xyo, making sure it covers the answer mining cost Stores new request in request pool",
        "params": {
          "request": "How to uniquely identify a request",
          "requestType": "based on the type we know which callback to call (string or bool)",
          "xyoBounty": "bounty for request",
          "xyoSender": "who to deduct the xyo from for mining cost"
        }
      },
      "supportingDataForRequest(bytes32)": {
        "params": {
          "requestId": "the block this request was responded on"
        },
        "return": "content addressable hash of the data"
      },
      "unstake(bytes32)": {
        "params": {
          "stakingId": "- the tokenId of the staking token"
        }
      },
      "unstakeBonded(bytes32,bytes32)": {
        "params": {
          "bondId": "- the bond id to ensure the correct stake",
          "stakingId": "- the id of the stake to withdraw to bond contract"
        }
      },
      "withdrawManyStake(bytes32[])": {
        "params": {
          "stakingIds": "- Ids to withdraw"
        }
      },
      "withdrawRewardsRequest(uint256)": {
        "details": "Withdraw reward balance can post same params via raw",
        "params": {
          "xyoBounty": "bounty for request"
        }
      },
      "withdrawStake(bytes32)": {
        "params": {
          "stakingId": "- the id of the stake to remove"
        }
      }
    },
    "title": "XyStakingConsensus"
  },
  "userdoc": {
    "methods": {
      "blockForRequest(bytes32)": {
        "notice": "Returns a block for a given request id or a undefined block"
      },
      "getAvailableStakeeUnstake(address)": {
        "notice": "Get the available unstake, counting only stakes that can be withdrawn "
      },
      "getAvailableStakerUnstake(address)": {
        "notice": "Get the available unstake, counting only stakes that can be withdrawn "
      },
      "numStakerStakes(address)": {
        "notice": "Public getters "
      },
      "receiveApproval(address,uint256,address,bytes)": {
        "notice": "Implements IApprovalRecipient allows approveAndCall in one transaction"
      },
      "resolveGovernanceAction(address,uint256,uint256)": {
        "notice": "Call this when it's time to resolve a passed governance action"
      },
      "stake(address,uint256)": {
        "notice": "Create new stake on a stakee"
      },
      "submitBlock(bytes32,uint256,bytes32[],bytes32,bytes,address[],bytes32[],bytes32[],uint8[])": {
        "notice": "Submit a new block to the consensus blockChain. Verifies stake in consensus is over 51% of the network.  calls requests' callbacks with responses.  Creates new block and returns weiMining for successful creation."
      },
      "supportingDataForRequest(bytes32)": {
        "notice": "Returns supporting data for a given request id"
      },
      "unstake(bytes32)": {
        "notice": "unstake a specific previous stake "
      },
      "unstakeBonded(bytes32,bytes32)": {
        "notice": "Unstakes/withdraws to bonded stake"
      },
      "withdrawManyStake(bytes32[])": {
        "notice": "Withdraw a batch of passed stake"
      },
      "withdrawStake(bytes32)": {
        "notice": "Withdraw a single stake by stakingId, removes stake"
      }
    }
  }
}