{
  "contractName": "DLL",
  "abi": [
    {
      "constant": true,
      "inputs": [
        {
          "name": "self",
          "type": "DLL.Data storage"
        }
      ],
      "name": "isEmpty",
      "outputs": [
        {
          "name": "",
          "type": "bool"
        }
      ],
      "payable": false,
      "stateMutability": "view",
      "type": "function"
    },
    {
      "constant": true,
      "inputs": [
        {
          "name": "self",
          "type": "DLL.Data storage"
        },
        {
          "name": "_curr",
          "type": "uint256"
        }
      ],
      "name": "contains",
      "outputs": [
        {
          "name": "",
          "type": "bool"
        }
      ],
      "payable": false,
      "stateMutability": "view",
      "type": "function"
    },
    {
      "constant": true,
      "inputs": [
        {
          "name": "self",
          "type": "DLL.Data storage"
        },
        {
          "name": "_curr",
          "type": "uint256"
        }
      ],
      "name": "getNext",
      "outputs": [
        {
          "name": "",
          "type": "uint256"
        }
      ],
      "payable": false,
      "stateMutability": "view",
      "type": "function"
    },
    {
      "constant": true,
      "inputs": [
        {
          "name": "self",
          "type": "DLL.Data storage"
        },
        {
          "name": "_curr",
          "type": "uint256"
        }
      ],
      "name": "getPrev",
      "outputs": [
        {
          "name": "",
          "type": "uint256"
        }
      ],
      "payable": false,
      "stateMutability": "view",
      "type": "function"
    },
    {
      "constant": true,
      "inputs": [
        {
          "name": "self",
          "type": "DLL.Data storage"
        }
      ],
      "name": "getStart",
      "outputs": [
        {
          "name": "",
          "type": "uint256"
        }
      ],
      "payable": false,
      "stateMutability": "view",
      "type": "function"
    },
    {
      "constant": true,
      "inputs": [
        {
          "name": "self",
          "type": "DLL.Data storage"
        }
      ],
      "name": "getEnd",
      "outputs": [
        {
          "name": "",
          "type": "uint256"
        }
      ],
      "payable": false,
      "stateMutability": "view",
      "type": "function"
    },
    {
      "constant": false,
      "inputs": [
        {
          "name": "self",
          "type": "DLL.Data storage"
        },
        {
          "name": "_prev",
          "type": "uint256"
        },
        {
          "name": "_curr",
          "type": "uint256"
        },
        {
          "name": "_next",
          "type": "uint256"
        }
      ],
      "name": "insert",
      "outputs": [],
      "payable": false,
      "stateMutability": "nonpayable",
      "type": "function"
    },
    {
      "constant": false,
      "inputs": [
        {
          "name": "self",
          "type": "DLL.Data storage"
        },
        {
          "name": "_curr",
          "type": "uint256"
        }
      ],
      "name": "remove",
      "outputs": [],
      "payable": false,
      "stateMutability": "nonpayable",
      "type": "function"
    }
  ],
  "bytecode": "0x6105ff610030600b82828239805160001a6073146000811461002057610022565bfe5b5030600052607381538281f3fe73000000000000000000000000000000000000000030146080604052600436106100af576000357c0100000000000000000000000000000000000000000000000000000000900480637c11cf64116100825780637c11cf64146101755780639735c51b14610192578063c426b006146101ce578063ee4f1ac4146101eb576100af565b806307d29ac9146100b457806330fe0a0a146100e9578063366a5ba21461010c5780636d900ed014610143575b600080fd5b6100d7600480360360408110156100ca57600080fd5b5080359060200135610208565b60408051918252519081900360200190f35b6100d7600480360360408110156100ff57600080fd5b508035906020013561021e565b61012f6004803603604081101561012257600080fd5b5080359060200135610234565b604080519115158252519081900360200190f35b81801561014f57600080fd5b506101736004803603604081101561016657600080fd5b50803590602001356102af565b005b6100d76004803603602081101561018b57600080fd5b5035610313565b81801561019e57600080fd5b50610173600480360360808110156101b557600080fd5b5080359060208101359060408101359060600135610320565b61012f600480360360208110156101e457600080fd5b50356105b3565b6100d76004803603602081101561020157600080fd5b50356105c6565b6000818152602083905260409020545b92915050565b6000908152602091909152604090206001015490565b600061023f836105b3565b80610248575081155b1561025557506000610218565b600082610261856105c6565b14801561027557508261027385610313565b145b90506000806102848686610208565b14801561029a57506000610298868661021e565b145b905081806102a6575080155b95945050505050565b6102b98282610234565b15156102c45761030f565b60006102d08383610208565b905060006102de848461021e565b6000838152602086905260408082206001908101849055928252808220949094558481529283208381550191909155505b5050565b600061021882600061021e565b81151561038e57604080517f08c379a000000000000000000000000000000000000000000000000000000000815260206004820152600a60248201527f646c6c7265766572743100000000000000000000000000000000000000000000604482015290519081900360640190fd5b61039884836102af565b8215806103aa57506103aa8484610234565b151561041757604080517f08c379a000000000000000000000000000000000000000000000000000000000815260206004820152600a60248201527f646c6c7265766572743200000000000000000000000000000000000000000000604482015290519081900360640190fd5b80158061042957506104298482610234565b151561049657604080517f08c379a000000000000000000000000000000000000000000000000000000000815260206004820152600a60248201527f646c6c7265766572743300000000000000000000000000000000000000000000604482015290519081900360640190fd5b806104a18585610208565b1461050d57604080517f08c379a000000000000000000000000000000000000000000000000000000000815260206004820152600a60248201527f646c6c7265766572743400000000000000000000000000000000000000000000604482015290519081900360640190fd5b82610518858361021e565b1461058457604080517f08c379a000000000000000000000000000000000000000000000000000000000815260206004820152600a60248201527f646c6c7265766572743500000000000000000000000000000000000000000000604482015290519081900360640190fd5b600082815260209490945260408085206001808201869055908390559385528085208390559084529092200155565b6000806105bf836105c6565b1492915050565b600061021882600061020856fea165627a7a72305820c08c50f80a85324b6afd9dbf113494a23b2c8a28de0f008f0088d14ae23f30da0029",
  "source": "pragma solidity >=0.5.0 <0.6.0;\n\nlibrary DLL {\n\n  uint constant NULL_NODE_ID = 0;\n\n  struct Node {\n    uint next;\n    uint prev;\n  }\n\n  struct Data {\n    mapping(uint => Node) dll;\n  }\n\n  function isEmpty(Data storage self) public view returns (bool) {\n    return getStart(self) == NULL_NODE_ID;\n  }\n\n  function contains(Data storage self, uint _curr) public view returns (bool) {\n    if (isEmpty(self) || _curr == NULL_NODE_ID) {\n      return false;\n    } \n\n    bool isSingleNode = (getStart(self) == _curr) && (getEnd(self) == _curr);\n    bool isNullNode = (getNext(self, _curr) == NULL_NODE_ID) && (getPrev(self, _curr) == NULL_NODE_ID);\n    return isSingleNode || !isNullNode;\n  }\n\n  function getNext(Data storage self, uint _curr) public view returns (uint) {\n    return self.dll[_curr].next;\n  }\n\n  function getPrev(Data storage self, uint _curr) public view returns (uint) {\n    return self.dll[_curr].prev;\n  }\n\n  function getStart(Data storage self) public view returns (uint) {\n    return getNext(self, NULL_NODE_ID);\n  }\n\n  function getEnd(Data storage self) public view returns (uint) {\n    return getPrev(self, NULL_NODE_ID);\n  }\n\n  /**\n  @dev Inserts a new node between _prev and _next. When inserting a node already existing in \n  the list it will be automatically removed from the old position.\n  @param _prev the node which _new will be inserted after\n  @param _curr the id of the new node being inserted\n  @param _next the node which _new will be inserted before\n  */\n  function insert(Data storage self, uint _prev, uint _curr, uint _next) public {\n    require(_curr != NULL_NODE_ID, \"dllrevert1\");\n\n    remove(self, _curr);\n\n    require(_prev == NULL_NODE_ID || contains(self, _prev), \"dllrevert2\");\n    require(_next == NULL_NODE_ID || contains(self, _next), \"dllrevert3\");\n\n    require(getNext(self, _prev) == _next, \"dllrevert4\");\n    require(getPrev(self, _next) == _prev, \"dllrevert5\");\n\n    self.dll[_curr].prev = _prev;\n    self.dll[_curr].next = _next;\n\n    self.dll[_prev].next = _curr;\n    self.dll[_next].prev = _curr;\n  }\n\n  function remove(Data storage self, uint _curr) public {\n    if (!contains(self, _curr)) {\n      return;\n    }\n\n    uint next = getNext(self, _curr);\n    uint prev = getPrev(self, _curr);\n\n    self.dll[next].prev = prev;\n    self.dll[prev].next = next;\n\n    delete self.dll[_curr];\n  }\n}\n",
  "sourcePath": "/Users/kevin/GitHub/dapp-scsc-solidity/contracts/PLCR/dll/DLL.sol",
  "compiler": {
    "name": "solc",
    "version": "0.5.4+commit.9549d8ff.Emscripten.clang"
  },
  "schemaVersion": "3.0.1",
  "updatedAt": "2019-03-26T23:13:24.235Z",
  "devdoc": {
    "methods": {
      "insert(DLL.Data storage,uint256,uint256,uint256)": {
        "details": "Inserts a new node between _prev and _next. When inserting a node already existing in  the list it will be automatically removed from the old position.",
        "params": {
          "_curr": "the id of the new node being inserted",
          "_next": "the node which _new will be inserted before",
          "_prev": "the node which _new will be inserted after"
        }
      }
    }
  },
  "userdoc": {
    "methods": {}
  }
}