{
  "contractName": "XyFaucet",
  "abi": [
    {
      "constant": true,
      "inputs": [],
      "name": "name",
      "outputs": [
        {
          "name": "",
          "type": "string"
        }
      ],
      "payable": false,
      "stateMutability": "view",
      "type": "function"
    },
    {
      "constant": false,
      "inputs": [
        {
          "name": "_spender",
          "type": "address"
        },
        {
          "name": "_value",
          "type": "uint256"
        }
      ],
      "name": "approve",
      "outputs": [
        {
          "name": "success",
          "type": "bool"
        }
      ],
      "payable": false,
      "stateMutability": "nonpayable",
      "type": "function"
    },
    {
      "constant": true,
      "inputs": [],
      "name": "totalSupply",
      "outputs": [
        {
          "name": "",
          "type": "uint256"
        }
      ],
      "payable": false,
      "stateMutability": "view",
      "type": "function"
    },
    {
      "constant": false,
      "inputs": [
        {
          "name": "_from",
          "type": "address"
        },
        {
          "name": "_to",
          "type": "address"
        },
        {
          "name": "_value",
          "type": "uint256"
        }
      ],
      "name": "transferFrom",
      "outputs": [
        {
          "name": "success",
          "type": "bool"
        }
      ],
      "payable": false,
      "stateMutability": "nonpayable",
      "type": "function"
    },
    {
      "constant": true,
      "inputs": [],
      "name": "decimals",
      "outputs": [
        {
          "name": "",
          "type": "uint8"
        }
      ],
      "payable": false,
      "stateMutability": "view",
      "type": "function"
    },
    {
      "constant": false,
      "inputs": [
        {
          "name": "_value",
          "type": "uint256"
        }
      ],
      "name": "burn",
      "outputs": [
        {
          "name": "success",
          "type": "bool"
        }
      ],
      "payable": false,
      "stateMutability": "nonpayable",
      "type": "function"
    },
    {
      "constant": true,
      "inputs": [
        {
          "name": "",
          "type": "address"
        }
      ],
      "name": "balanceOf",
      "outputs": [
        {
          "name": "",
          "type": "uint256"
        }
      ],
      "payable": false,
      "stateMutability": "view",
      "type": "function"
    },
    {
      "constant": false,
      "inputs": [
        {
          "name": "_from",
          "type": "address"
        },
        {
          "name": "_value",
          "type": "uint256"
        }
      ],
      "name": "burnFrom",
      "outputs": [
        {
          "name": "success",
          "type": "bool"
        }
      ],
      "payable": false,
      "stateMutability": "nonpayable",
      "type": "function"
    },
    {
      "constant": true,
      "inputs": [],
      "name": "symbol",
      "outputs": [
        {
          "name": "",
          "type": "string"
        }
      ],
      "payable": false,
      "stateMutability": "view",
      "type": "function"
    },
    {
      "constant": false,
      "inputs": [
        {
          "name": "_to",
          "type": "address"
        },
        {
          "name": "_value",
          "type": "uint256"
        }
      ],
      "name": "transfer",
      "outputs": [],
      "payable": false,
      "stateMutability": "nonpayable",
      "type": "function"
    },
    {
      "constant": false,
      "inputs": [
        {
          "name": "_spender",
          "type": "address"
        },
        {
          "name": "_value",
          "type": "uint256"
        },
        {
          "name": "_extraData",
          "type": "bytes"
        }
      ],
      "name": "approveAndCall",
      "outputs": [
        {
          "name": "success",
          "type": "bool"
        }
      ],
      "payable": false,
      "stateMutability": "nonpayable",
      "type": "function"
    },
    {
      "constant": true,
      "inputs": [
        {
          "name": "",
          "type": "address"
        },
        {
          "name": "",
          "type": "address"
        }
      ],
      "name": "allowance",
      "outputs": [
        {
          "name": "",
          "type": "uint256"
        }
      ],
      "payable": false,
      "stateMutability": "view",
      "type": "function"
    },
    {
      "inputs": [
        {
          "name": "initialSupply",
          "type": "uint256"
        },
        {
          "name": "tokenName",
          "type": "string"
        },
        {
          "name": "tokenSymbol",
          "type": "string"
        }
      ],
      "payable": false,
      "stateMutability": "nonpayable",
      "type": "constructor"
    },
    {
      "anonymous": false,
      "inputs": [
        {
          "indexed": false,
          "name": "recipient",
          "type": "address"
        }
      ],
      "name": "NewDrip",
      "type": "event"
    },
    {
      "anonymous": false,
      "inputs": [
        {
          "indexed": true,
          "name": "from",
          "type": "address"
        },
        {
          "indexed": true,
          "name": "to",
          "type": "address"
        },
        {
          "indexed": false,
          "name": "value",
          "type": "uint256"
        }
      ],
      "name": "Transfer",
      "type": "event"
    },
    {
      "anonymous": false,
      "inputs": [
        {
          "indexed": true,
          "name": "from",
          "type": "address"
        },
        {
          "indexed": false,
          "name": "value",
          "type": "uint256"
        }
      ],
      "name": "Burn",
      "type": "event"
    },
    {
      "constant": false,
      "inputs": [],
      "name": "mint",
      "outputs": [],
      "payable": false,
      "stateMutability": "nonpayable",
      "type": "function"
    }
  ],
  "bytecode": "0x60806040526002805460ff19166012179055686c6b935b8bbd4000006006556101e06007553480156200003157600080fd5b5060405162000d9738038062000d97833981018060405260608110156200005757600080fd5b8151602083018051919392830192916401000000008111156200007957600080fd5b820160208101848111156200008d57600080fd5b8151640100000000811182820187101715620000a857600080fd5b50509291906020018051640100000000811115620000c557600080fd5b82016020810184811115620000d957600080fd5b8151640100000000811182820187101715620000f457600080fd5b505060025460ff16600a0a860260038190553360009081526004602090815260408220929092558651929550879450869350859262000136928501906200016c565b5080516200014c9060019060208401906200016c565b505060088054600160a060020a0319163317905550620002119350505050565b828054600181600116156101000203166002900490600052602060002090601f016020900481019282601f10620001af57805160ff1916838001178555620001df565b82800160010185558215620001df579182015b82811115620001df578251825591602001919060010190620001c2565b50620001ed929150620001f1565b5090565b6200020e91905b80821115620001ed5760008155600101620001f8565b90565b610b7680620002216000396000f3fe608060405234801561001057600080fd5b50600436106100fc576000357c01000000000000000000000000000000000000000000000000000000009004806342966c68116100a957806395d89b411161008357806395d89b41146102a5578063a9059cbb146102ad578063cae9ca51146102d9578063dd62ed3e14610394576100fc565b806342966c681461023657806370a082311461025357806379cc679014610279576100fc565b806318160ddd116100da57806318160ddd146101c857806323b872dd146101e2578063313ce56714610218576100fc565b806306fdde0314610101578063095ea7b31461017e5780631249c58b146101be575b600080fd5b6101096103c2565b6040805160208082528351818301528351919283929083019185019080838360005b8381101561014357818101518382015260200161012b565b50505050905090810190601f1680156101705780820380516001836020036101000a031916815260200191505b509250505060405180910390f35b6101aa6004803603604081101561019457600080fd5b50600160a060020a038135169060200135610450565b604080519115158252519081900360200190f35b6101c661047d565b005b6101d061058b565b60408051918252519081900360200190f35b6101aa600480360360608110156101f857600080fd5b50600160a060020a03813581169160208101359091169060400135610591565b610220610663565b6040805160ff9092168252519081900360200190f35b6101aa6004803603602081101561024c57600080fd5b503561066c565b6101d06004803603602081101561026957600080fd5b5035600160a060020a03166106e4565b6101aa6004803603604081101561028f57600080fd5b50600160a060020a0381351690602001356106f6565b6101096107c7565b6101c6600480360360408110156102c357600080fd5b50600160a060020a038135169060200135610821565b6101aa600480360360608110156102ef57600080fd5b600160a060020a038235169160208101359181019060608101604082013564010000000081111561031f57600080fd5b82018360208201111561033157600080fd5b8035906020019184600183028401116401000000008311171561035357600080fd5b91908080601f016020809104026020016040519081016040528093929190818152602001838380828437600092019190915250929550610830945050505050565b6101d0600480360360408110156103aa57600080fd5b50600160a060020a038135811691602001351661094e565b6000805460408051602060026001851615610100026000190190941693909304601f810184900484028201840190925281815292918301828280156104485780601f1061041d57610100808354040283529160200191610448565b820191906000526020600020905b81548152906001019060200180831161042b57829003601f168201915b505050505081565b336000908152600560209081526040808320600160a060020a039590951683529390529190912055600190565b3360009081526009602052604090205415806104bb57506007543360009081526009602052604090205443916104b9919063ffffffff61096b16565b105b151561052857604080517f08c379a000000000000000000000000000000000000000000000000000000000815260206004820152600c60248201527f436f6f6c696e6720646f776e0000000000000000000000000000000000000000604482015290519081900360640190fd5b33600081815260096020526040902043905560085460065461055692600160a060020a03909216919061097e565b6040805133815290517ff287402cf0d4e2e859cc9862e499acc127990d2f3e604402adf731110c90f0c19181900360200190a1565b60035481565b600160a060020a038316600090815260056020908152604080832033845290915281205482111561062357604080517f08c379a000000000000000000000000000000000000000000000000000000000815260206004820152601660248201527f496e73756666696369656e7420416c6c6f77616e636500000000000000000000604482015290519081900360640190fd5b600160a060020a038416600090815260056020908152604080832033845290915290208054839003905561065884848461097e565b5060015b9392505050565b60025460ff1681565b3360009081526004602052604081205482111561068857600080fd5b3360008181526004602090815260409182902080548690039055600380548690039055815185815291517fcc16f5dbb4873280815c1ee09dbd06736cffcc184412cf7a71a0fdb75d397ca59281900390910190a2506001919050565b60046020526000908152604090205481565b600160a060020a03821660009081526004602052604081205482111561071b57600080fd5b600160a060020a038316600090815260056020908152604080832033845290915290205482111561074b57600080fd5b600160a060020a0383166000818152600460209081526040808320805487900390556005825280832033845282529182902080548690039055600380548690039055815185815291517fcc16f5dbb4873280815c1ee09dbd06736cffcc184412cf7a71a0fdb75d397ca59281900390910190a250600192915050565b60018054604080516020600284861615610100026000190190941693909304601f810184900484028201840190925281815292918301828280156104485780601f1061041d57610100808354040283529160200191610448565b61082c33838361097e565b5050565b60008361083d8185610450565b15610946576040517f8f4ffcb10000000000000000000000000000000000000000000000000000000081523360048201818152602483018790523060448401819052608060648501908152875160848601528751600160a060020a03871695638f4ffcb195948b94938b939192909160a490910190602085019080838360005b838110156108d55781810151838201526020016108bd565b50505050905090810190601f1680156109025780820380516001836020036101000a031916815260200191505b5095505050505050600060405180830381600087803b15801561092457600080fd5b505af1158015610938573d6000803e3d6000fd5b50505050600191505061065c565b509392505050565b600560209081526000928352604080842090915290825290205481565b8181018281101561097857fe5b92915050565b600160a060020a03821615156109f557604080517f08c379a000000000000000000000000000000000000000000000000000000000815260206004820152600660248201527f42616420544f0000000000000000000000000000000000000000000000000000604482015290519081900360640190fd5b600160a060020a038316600090815260046020526040902054811115610a7c57604080517f08c379a000000000000000000000000000000000000000000000000000000000815260206004820152600e60248201527f4261642046726f6d2056616c7565000000000000000000000000000000000000604482015290519081900360640190fd5b600160a060020a03821660009081526004602052604090205481810111610b0457604080517f08c379a000000000000000000000000000000000000000000000000000000000815260206004820152600b60248201527f4f766572666c6f7720546f000000000000000000000000000000000000000000604482015290519081900360640190fd5b600160a060020a038281166000908152600460205260408082208054938716835291208054848103825582548501928390559054920191018114610b4457fe5b5050505056fea165627a7a72305820d2bb2e51d5aa1fce5b47e09463588b6aac181fdfe6f99f5e19ea21cf4d4292cc0029",
  "source": "pragma solidity ^0.5.0;\n\nimport \"./XyERC20Token.sol\";\nimport \"../../utils/SafeMath.sol\";\n\n/**\n * @title ERC20Mintable\n * @dev ERC20 minting logic\n */\ncontract XyFaucet is XyERC20Token {\n    using SafeMath for uint256;\n    uint256 faucetDrip = 2000 ether;\n    uint256 faucetCooldown = 480; // 2 hours\n    address vault;\n    mapping (address=>uint256) lastDripBlock;\n    event NewDrip(address recipient);\n\n    constructor(\n        uint256 initialSupply,\n        string memory tokenName,\n        string memory tokenSymbol\n    ) \n    XyERC20Token(initialSupply, tokenName, tokenSymbol)\n    public\n    {\n        vault = msg.sender;\n    }\n\n    /**\n     * @dev Faucet will mint tokens\n     */\n    function mint() public {\n        require (lastDripBlock[msg.sender] == 0 || lastDripBlock[msg.sender].add(faucetCooldown) < block.number, \"Cooling down\");\n        lastDripBlock[msg.sender] = block.number;\n        _transfer(vault, msg.sender, faucetDrip);\n        emit NewDrip(msg.sender);\n    }\n}\n",
  "sourcePath": "/Users/kevin/GitHub/dapp-scsc-solidity/contracts/token/ERC20/XyFaucet.sol",
  "compiler": {
    "name": "solc",
    "version": "0.5.4+commit.9549d8ff.Emscripten.clang"
  },
  "schemaVersion": "3.0.1",
  "updatedAt": "2019-03-26T23:13:24.209Z",
  "devdoc": {
    "details": "ERC20 minting logic",
    "methods": {
      "approve(address,uint256)": {
        "params": {
          "_spender": "The address authorized to spend",
          "_value": "the max amount they can spend"
        }
      },
      "approveAndCall(address,uint256,bytes)": {
        "params": {
          "_extraData": "some extra information to send to the approved contract",
          "_spender": "The address authorized to spend",
          "_value": "the max amount they can spend"
        }
      },
      "burn(uint256)": {
        "params": {
          "_value": "the amount of money to burn"
        }
      },
      "burnFrom(address,uint256)": {
        "params": {
          "_from": "the address of the sender",
          "_value": "the amount of money to burn"
        }
      },
      "mint()": {
        "details": "Faucet will mint tokens"
      },
      "transfer(address,uint256)": {
        "params": {
          "_to": "The address of the recipient",
          "_value": "the amount to send"
        }
      },
      "transferFrom(address,address,uint256)": {
        "params": {
          "_from": "The address of the sender",
          "_to": "The address of the recipient",
          "_value": "the amount to send"
        }
      }
    },
    "title": "ERC20Mintable"
  },
  "userdoc": {
    "methods": {
      "approve(address,uint256)": {
        "notice": "Set allowance for other address     * Allows `_spender` to spend no more than `_value` tokens in your behalf"
      },
      "approveAndCall(address,uint256,bytes)": {
        "notice": "Set allowance for other address and notify     * Allows `_spender` to spend no more than `_value` tokens in your behalf, and then ping the contract about it"
      },
      "burn(uint256)": {
        "notice": "Destroy tokens     * Remove `_value` tokens from the system irreversibly"
      },
      "burnFrom(address,uint256)": {
        "notice": "Destroy tokens from other account     * Remove `_value` tokens from the system irreversibly on behalf of `_from`."
      },
      "transfer(address,uint256)": {
        "notice": "Transfer tokens     * Send `_value` tokens to `_to` from your account"
      },
      "transferFrom(address,address,uint256)": {
        "notice": "Transfer tokens from other address     * Send `_value` tokens to `_to` in behalf of `_from`"
      }
    }
  }
}