{
  "contractName": "XyParameterizer",
  "abi": [
    {
      "constant": true,
      "inputs": [],
      "name": "governorAddress",
      "outputs": [
        {
          "name": "",
          "type": "address"
        }
      ],
      "payable": false,
      "stateMutability": "view",
      "type": "function"
    },
    {
      "constant": true,
      "inputs": [
        {
          "name": "",
          "type": "bytes32"
        }
      ],
      "name": "proposals",
      "outputs": [
        {
          "name": "appExpiry",
          "type": "uint256"
        },
        {
          "name": "challengeID",
          "type": "uint256"
        },
        {
          "name": "deposit",
          "type": "uint256"
        },
        {
          "name": "name",
          "type": "string"
        },
        {
          "name": "owner",
          "type": "address"
        },
        {
          "name": "processBy",
          "type": "uint256"
        },
        {
          "name": "value",
          "type": "uint256"
        }
      ],
      "payable": false,
      "stateMutability": "view",
      "type": "function"
    },
    {
      "constant": true,
      "inputs": [
        {
          "name": "",
          "type": "uint256"
        }
      ],
      "name": "challenges",
      "outputs": [
        {
          "name": "rewardPool",
          "type": "uint256"
        },
        {
          "name": "challenger",
          "type": "address"
        },
        {
          "name": "resolved",
          "type": "bool"
        },
        {
          "name": "stake",
          "type": "uint256"
        },
        {
          "name": "winningTokens",
          "type": "uint256"
        }
      ],
      "payable": false,
      "stateMutability": "view",
      "type": "function"
    },
    {
      "constant": true,
      "inputs": [],
      "name": "stageBlockLen",
      "outputs": [
        {
          "name": "",
          "type": "uint256"
        }
      ],
      "payable": false,
      "stateMutability": "view",
      "type": "function"
    },
    {
      "constant": true,
      "inputs": [
        {
          "name": "",
          "type": "bytes32"
        }
      ],
      "name": "params",
      "outputs": [
        {
          "name": "",
          "type": "uint256"
        }
      ],
      "payable": false,
      "stateMutability": "view",
      "type": "function"
    },
    {
      "constant": true,
      "inputs": [],
      "name": "token",
      "outputs": [
        {
          "name": "",
          "type": "address"
        }
      ],
      "payable": false,
      "stateMutability": "view",
      "type": "function"
    },
    {
      "constant": true,
      "inputs": [],
      "name": "voting",
      "outputs": [
        {
          "name": "",
          "type": "address"
        }
      ],
      "payable": false,
      "stateMutability": "view",
      "type": "function"
    },
    {
      "anonymous": false,
      "inputs": [
        {
          "indexed": false,
          "name": "name",
          "type": "string"
        },
        {
          "indexed": false,
          "name": "value",
          "type": "uint256"
        },
        {
          "indexed": false,
          "name": "propID",
          "type": "bytes32"
        },
        {
          "indexed": false,
          "name": "deposit",
          "type": "uint256"
        },
        {
          "indexed": false,
          "name": "appEndDate",
          "type": "uint256"
        },
        {
          "indexed": true,
          "name": "proposer",
          "type": "address"
        }
      ],
      "name": "_ReparameterizationProposal",
      "type": "event"
    },
    {
      "anonymous": false,
      "inputs": [
        {
          "indexed": true,
          "name": "propID",
          "type": "bytes32"
        },
        {
          "indexed": false,
          "name": "challengeID",
          "type": "uint256"
        },
        {
          "indexed": false,
          "name": "commitEndDate",
          "type": "uint256"
        },
        {
          "indexed": false,
          "name": "revealEndDate",
          "type": "uint256"
        },
        {
          "indexed": true,
          "name": "challenger",
          "type": "address"
        }
      ],
      "name": "_NewChallenge",
      "type": "event"
    },
    {
      "anonymous": false,
      "inputs": [
        {
          "indexed": true,
          "name": "propID",
          "type": "bytes32"
        },
        {
          "indexed": false,
          "name": "name",
          "type": "string"
        },
        {
          "indexed": false,
          "name": "value",
          "type": "uint256"
        }
      ],
      "name": "_ProposalAccepted",
      "type": "event"
    },
    {
      "anonymous": false,
      "inputs": [
        {
          "indexed": true,
          "name": "propID",
          "type": "bytes32"
        }
      ],
      "name": "_ProposalExpired",
      "type": "event"
    },
    {
      "anonymous": false,
      "inputs": [
        {
          "indexed": true,
          "name": "propID",
          "type": "bytes32"
        },
        {
          "indexed": true,
          "name": "challengeID",
          "type": "uint256"
        },
        {
          "indexed": false,
          "name": "rewardPool",
          "type": "uint256"
        },
        {
          "indexed": false,
          "name": "totalTokens",
          "type": "uint256"
        }
      ],
      "name": "_ChallengeSucceeded",
      "type": "event"
    },
    {
      "anonymous": false,
      "inputs": [
        {
          "indexed": true,
          "name": "propID",
          "type": "bytes32"
        },
        {
          "indexed": true,
          "name": "challengeID",
          "type": "uint256"
        },
        {
          "indexed": false,
          "name": "rewardPool",
          "type": "uint256"
        },
        {
          "indexed": false,
          "name": "totalTokens",
          "type": "uint256"
        }
      ],
      "name": "_ChallengeFailed",
      "type": "event"
    },
    {
      "anonymous": false,
      "inputs": [
        {
          "indexed": true,
          "name": "challengeID",
          "type": "uint256"
        },
        {
          "indexed": false,
          "name": "reward",
          "type": "uint256"
        },
        {
          "indexed": true,
          "name": "voter",
          "type": "address"
        }
      ],
      "name": "_RewardClaimed",
      "type": "event"
    },
    {
      "constant": false,
      "inputs": [
        {
          "name": "_governorAddress",
          "type": "address"
        }
      ],
      "name": "initializeGovernor",
      "outputs": [],
      "payable": false,
      "stateMutability": "nonpayable",
      "type": "function"
    },
    {
      "constant": false,
      "inputs": [
        {
          "name": "newGov",
          "type": "address"
        }
      ],
      "name": "transferGovernor",
      "outputs": [],
      "payable": false,
      "stateMutability": "nonpayable",
      "type": "function"
    },
    {
      "constant": false,
      "inputs": [
        {
          "name": "_name",
          "type": "string"
        },
        {
          "name": "_value",
          "type": "uint256"
        }
      ],
      "name": "proposeReparameterization",
      "outputs": [
        {
          "name": "",
          "type": "bytes32"
        }
      ],
      "payable": false,
      "stateMutability": "nonpayable",
      "type": "function"
    },
    {
      "constant": false,
      "inputs": [
        {
          "name": "_propID",
          "type": "bytes32"
        }
      ],
      "name": "challengeReparameterization",
      "outputs": [
        {
          "name": "challengeID",
          "type": "uint256"
        }
      ],
      "payable": false,
      "stateMutability": "nonpayable",
      "type": "function"
    },
    {
      "constant": false,
      "inputs": [
        {
          "name": "_propID",
          "type": "bytes32"
        }
      ],
      "name": "processProposal",
      "outputs": [],
      "payable": false,
      "stateMutability": "nonpayable",
      "type": "function"
    },
    {
      "constant": false,
      "inputs": [
        {
          "name": "_challengeID",
          "type": "uint256"
        }
      ],
      "name": "claimReward",
      "outputs": [],
      "payable": false,
      "stateMutability": "nonpayable",
      "type": "function"
    },
    {
      "constant": false,
      "inputs": [
        {
          "name": "_challengeIDs",
          "type": "uint256[]"
        }
      ],
      "name": "claimRewards",
      "outputs": [],
      "payable": false,
      "stateMutability": "nonpayable",
      "type": "function"
    },
    {
      "constant": true,
      "inputs": [
        {
          "name": "_voter",
          "type": "address"
        },
        {
          "name": "_challengeID",
          "type": "uint256"
        }
      ],
      "name": "voterReward",
      "outputs": [
        {
          "name": "",
          "type": "uint256"
        }
      ],
      "payable": false,
      "stateMutability": "view",
      "type": "function"
    },
    {
      "constant": true,
      "inputs": [
        {
          "name": "_propID",
          "type": "bytes32"
        }
      ],
      "name": "canBeSet",
      "outputs": [
        {
          "name": "",
          "type": "bool"
        }
      ],
      "payable": false,
      "stateMutability": "view",
      "type": "function"
    },
    {
      "constant": true,
      "inputs": [
        {
          "name": "_propID",
          "type": "bytes32"
        }
      ],
      "name": "propExists",
      "outputs": [
        {
          "name": "",
          "type": "bool"
        }
      ],
      "payable": false,
      "stateMutability": "view",
      "type": "function"
    },
    {
      "constant": true,
      "inputs": [
        {
          "name": "_propID",
          "type": "bytes32"
        }
      ],
      "name": "challengeCanBeResolved",
      "outputs": [
        {
          "name": "",
          "type": "bool"
        }
      ],
      "payable": false,
      "stateMutability": "view",
      "type": "function"
    },
    {
      "constant": true,
      "inputs": [
        {
          "name": "_challengeID",
          "type": "uint256"
        }
      ],
      "name": "challengeWinnerReward",
      "outputs": [
        {
          "name": "",
          "type": "uint256"
        }
      ],
      "payable": false,
      "stateMutability": "view",
      "type": "function"
    },
    {
      "constant": true,
      "inputs": [
        {
          "name": "_name",
          "type": "string"
        }
      ],
      "name": "get",
      "outputs": [
        {
          "name": "value",
          "type": "uint256"
        }
      ],
      "payable": false,
      "stateMutability": "view",
      "type": "function"
    },
    {
      "constant": true,
      "inputs": [
        {
          "name": "_challengeID",
          "type": "uint256"
        },
        {
          "name": "_voter",
          "type": "address"
        }
      ],
      "name": "tokenClaims",
      "outputs": [
        {
          "name": "",
          "type": "bool"
        }
      ],
      "payable": false,
      "stateMutability": "view",
      "type": "function"
    },
    {
      "constant": true,
      "inputs": [
        {
          "name": "_pollId",
          "type": "uint256"
        }
      ],
      "name": "isPassed",
      "outputs": [
        {
          "name": "",
          "type": "bool"
        }
      ],
      "payable": false,
      "stateMutability": "view",
      "type": "function"
    }
  ],
  "bytecode": "0x608060405234801561001057600080fd5b50612a4c806100206000396000f3fe608060405234801561001057600080fd5b506004361061017f576000357c0100000000000000000000000000000000000000000000000000000000900480638f1d3776116100e5578063bc806d0b116100a9578063dc6ab52711610083578063dc6ab52714610676578063fc0c546a14610693578063fce1ccca1461069b5761017f565b8063bc806d0b14610625578063bd0ae4051461062d578063c51131fb146106595761017f565b80638f1d3776146104be578063a5ba3b1e1461050e578063ae169a501461053a578063b8cc9ce614610557578063bade1c541461057d5761017f565b80634940318311610147578063693ec85e11610121578063693ec85e146103de57806377609a41146104845780638240ae4b146104a15761017f565b806349403183146102ef578063504115521461030c5780635eac62391461033b5761017f565b80631607e28a14610184578063276f1c41146101ac57806330490e91146101d057806332ed5b12146101ed57806335300990146102be575b600080fd5b6101aa6004803603602081101561019a57600080fd5b5035600160a060020a03166106a3565b005b6101b461074a565b60408051600160a060020a039092168252519081900360200190f35b6101aa600480360360208110156101e657600080fd5b5035610759565b61020a6004803603602081101561020357600080fd5b5035610b6d565b604051808881526020018781526020018681526020018060200185600160a060020a0316600160a060020a03168152602001848152602001838152602001828103825286818151815260200191508051906020019080838360005b8381101561027d578181015183820152602001610265565b50505050905090810190601f1680156102aa5780820380516001836020036101000a031916815260200191505b509850505050505050505060405180910390f35b6102db600480360360208110156102d457600080fd5b5035610c39565b604080519115158252519081900360200190f35b6102db6004803603602081101561030557600080fd5b5035610c52565b6103296004803603602081101561032257600080fd5b5035610e6c565b60408051918252519081900360200190f35b6101aa6004803603602081101561035157600080fd5b81019060208101813564010000000081111561036c57600080fd5b82018360208201111561037e57600080fd5b803590602001918460208302840111640100000000831117156103a057600080fd5b919080806020026020016040519081016040528093929190818152602001838360200280828437600092019190915250929550610f3d945050505050565b610329600480360360208110156103f457600080fd5b81019060208101813564010000000081111561040f57600080fd5b82018360208201111561042157600080fd5b8035906020019184600183028401116401000000008311171561044357600080fd5b91908080601f016020809104026020016040519081016040528093929190818152602001838380828437600092019190915250929550610f75945050505050565b6102db6004803603602081101561049a57600080fd5b5035610ffe565b610329600480360360208110156104b757600080fd5b503561121e565b6104db600480360360208110156104d457600080fd5b50356116d3565b60408051958652600160a060020a0390941660208601529115158484015260608401526080830152519081900360a00190f35b6102db6004803603604081101561052457600080fd5b5080359060200135600160a060020a0316611721565b6101aa6004803603602081101561055057600080fd5b5035611751565b6101aa6004803603602081101561056d57600080fd5b5035600160a060020a03166118d8565b6103296004803603604081101561059357600080fd5b8101906020810181356401000000008111156105ae57600080fd5b8201836020820111156105c057600080fd5b803590602001918460018302840111640100000000831117156105e257600080fd5b91908080601f0160208091040260200160405190810160405280939291908181526020018383808284376000920191909152509295505091359250611951915050565b610329611f5b565b6103296004803603604081101561064357600080fd5b50600160a060020a038135169060200135611f61565b6102db6004803603602081101561066f57600080fd5b503561202e565b6103296004803603602081101561068c57600080fd5b503561214e565b6101b4612160565b6101b461216f565b600654600160a060020a03161561071b57604080517f08c379a000000000000000000000000000000000000000000000000000000000815260206004820152601360248201527f616c726561647920696e697469616c697a656400000000000000000000000000604482015290519081900360640190fd5b6006805473ffffffffffffffffffffffffffffffffffffffff1916600160a060020a0392909216919091179055565b600654600160a060020a031681565b60008181526002602081905260409091206004810154918101549091600160a060020a0316906107888461202e565b1561096357600383018054604080516020601f6002600019610100600188161502019095169490940493840181900481028201810190925282815261082b939092909183018282801561081c5780601f106107f15761010080835404028352916020019161081c565b820191906000526020600020905b8154815290600101906020018083116107ff57829003601f168201915b5050505050846006015461217e565b600683015460408051602081018390528181526003860180546002600019610100600184161502019091160492820183905287937f37f3986c71e1aa2c470cfc4a92af70820610c3065589d35ef1664ea27f3e73a5939192909181906060820190859080156108db5780601f106108b0576101008083540402835291602001916108db565b820191906000526020600020905b8154815290600101906020018083116108be57829003601f168201915b5050935050505060405180910390a260008481526002602081905260408220828155600181018390559081018290559061091860038301826128bf565b5060048101805473ffffffffffffffffffffffffffffffffffffffff1916905560006005820181905560069091015560035461095e90600160a060020a03168383612206565b6109df565b61096c84610ffe565b1561097a5761095e84612314565b826005015442111561017f5760405184907f29026cb2acebe6d0a4b6d593ccadf76e3fc6d0a02254e078b0c4a619608089d790600090a260008481526002602081905260408220828155600181018390559081018290559061091860038301826128bf565b6064610a1f6040805190810160405280601081526020017f7044697370656e736174696f6e50637400000000000000000000000000000000815250610f75565b1115610a2757fe5b610b09600554610afd610a6e6040805190810160405280600f81526020017f7052657665616c53746167655365630000000000000000000000000000000000815250610f75565b610afd610aaf6040805190810160405280600f81526020017f70436f6d6d697453746167655365630000000000000000000000000000000000815250610f75565b610afd610af06040805190810160405280600e81526020017f704170706c795374616765536563000000000000000000000000000000000000815250610f75565b429063ffffffff61261916565b9063ffffffff61261916565b50600084815260026020819052604082208281556001810183905590810182905590610b3860038301826128bf565b5060048101805473ffffffffffffffffffffffffffffffffffffffff1916905560006005820181905560069091015550505050565b60026020818152600092835260409283902080546001808301548386015460038501805489519481161561010002600019011697909704601f8101879004870284018701909852878352929690959294919291830182828015610c115780601f10610be657610100808354040283529160200191610c11565b820191906000526020600020905b815481529060010190602001808311610bf457829003601f168201915b50505050600483015460058401546006909401549293600160a060020a039091169290915087565b600081815260026020526040812060050154115b919050565b60048054604080517f49403183000000000000000000000000000000000000000000000000000000008152928301849052516000928392600160a060020a031691634940318391602480820192602092909190829003018186803b158015610cb957600080fd5b505afa158015610ccd573d6000803e3d6000fd5b505050506040513d6020811015610ce357600080fd5b5051600654604080517f4317d00b0000000000000000000000000000000000000000000000000000000081529051929350600092600160a060020a0390921691634317d00b91600480820192602092909190829003018186803b158015610d4957600080fd5b505afa158015610d5d573d6000803e3d6000fd5b505050506040513d6020811015610d7357600080fd5b505160408051808201909152600b81527f70566f746551756f72756d0000000000000000000000000000000000000000006020820152610db290610f75565b02600460009054906101000a9004600160a060020a0316600160a060020a0316632ce35e11866040518263ffffffff167c01000000000000000000000000000000000000000000000000000000000281526004018082815260200191505060206040518083038186803b158015610e2857600080fd5b505afa158015610e3c573d6000803e3d6000fd5b505050506040513d6020811015610e5257600080fd5b5051606402119050818015610e645750805b949350505050565b60048054604080517f053e71a600000000000000000000000000000000000000000000000000000000815292830184905251600092600160a060020a039092169163053e71a6916024808301926020929190829003018186803b158015610ed257600080fd5b505afa158015610ee6573d6000803e3d6000fd5b505050506040513d6020811015610efc57600080fd5b50511515610f1f5750600081815260016020526040902060029081015402610c4d565b50600090815260016020526040902080546002918201549091020390565b60005b8151811015610f7157610f698282815181101515610f5a57fe5b90602001906020020151611751565b600101610f40565b5050565b6000806000836040516020018082805190602001908083835b60208310610fad5780518252601f199092019160209182019101610f8e565b6001836020036101000a038019825116818451168082178552505050505050905001915050604051602081830303815290604052805190602001208152602001908152602001600020549050919050565b6000611008612906565b600083815260026020818152604092839020835160e0810185528154815260018083015482850152828501548287015260038301805487519281161561010002600019011695909504601f8101859004850282018501909652858152909491936060860193919290918301828280156110c25780601f10611097576101008083540402835291602001916110c2565b820191906000526020600020905b8154815290600101906020018083116110a557829003601f168201915b50505091835250506004820154600160a060020a031660208201526005820154604082015260069091015460609091015290506110fd61294d565b5060208181018051600090815260018084526040808320815160a0810183528154815292810154600160a060020a038116968401969096527401000000000000000000000000000000000000000090950460ff16151590820152600284015460608201526003909301546080840152905111801561117d57506040810151155b8015610e64575060048054602080850151604080517fee6848300000000000000000000000000000000000000000000000000000000081529485019190915251600160a060020a039092169263ee6848309260248083019392829003018186803b1580156111ea57600080fd5b505afa1580156111fe573d6000803e3d6000fd5b505050506040513d602081101561121457600080fd5b5051949350505050565b6000611228612906565b600083815260026020818152604092839020835160e0810185528154815260018083015482850152828501548287015260038301805487519281161561010002600019011695909504601f8101859004850282018501909652858152909491936060860193919290918301828280156112e25780601f106112b7576101008083540402835291602001916112e2565b820191906000526020600020905b8154815290600101906020018083116112c557829003601f168201915b50505091835250506004820154600160a060020a03166020820152600582015460408083019190915260069092015460609091015281015190915061132684610c39565b801561133457506020820151155b151561133f57600080fd5b60045460408051808201909152601081527f70566f74655375636365737352617465000000000000000000000000000000006020820152600091600160a060020a0316906332ed3d609061139290610f75565b6113d06040805190810160405280600f81526020017f70436f6d6d697453746167655365630000000000000000000000000000000000815250610f75565b61140e6040805190810160405280600f81526020017f7052657665616c53746167655365630000000000000000000000000000000000815250610f75565b6040518463ffffffff167c0100000000000000000000000000000000000000000000000000000000028152600401808481526020018381526020018281526020019350505050602060405180830381600087803b15801561146e57600080fd5b505af1158015611482573d6000803e3d6000fd5b505050506040513d602081101561149857600080fd5b50516040805160e08101909152601060a082019081527f7044697370656e736174696f6e5063740000000000000000000000000000000060c0830152919250908190611513906064906115079087906114fb9084906114f690610f75565b612626565b9063ffffffff61263816565b9063ffffffff61266116565b815233602080830182905260006040808501829052606080860189905260809586018390528783526001808552828420885181558886015181830180548b87015173ffffffffffffffffffffffffffffffffffffffff19909116600160a060020a039384161774ff0000000000000000000000000000000000000000191674010000000000000000000000000000000000000000911515919091021790559289015160028083019190915598909701516003978801558c845296909352902090930184905590546115e79216903085612676565b60048054604080517f6148fed5000000000000000000000000000000000000000000000000000000008152928301849052516000928392600160a060020a031691636148fed59160248082019260a092909190829003018186803b15801561164e57600080fd5b505afa158015611662573d6000803e3d6000fd5b505050506040513d60a081101561167857600080fd5b50805160209182015160408051878152938401839052838101829052519194509250339189917fe94e3086c4bfe84acba4437b85a80fca3721dfc419d1f7afe4fa4e470e670b489181900360600190a3509095945050505050565b60016020819052600091825260409091208054918101546002820154600390920154600160a060020a038216927401000000000000000000000000000000000000000090920460ff16919085565b6000828152600160209081526040808320600160a060020a038516845260040190915290205460ff165b92915050565b6000818152600160209081526040808320338452600481019092529091205460ff161561177d57600080fd5b60018181015474010000000000000000000000000000000000000000900460ff161515146117aa57600080fd5b60048054604080517f0c03fbd700000000000000000000000000000000000000000000000000000000815233938101939093526024830185905251600092600160a060020a0390921691630c03fbd7916044808301926020929190829003018186803b15801561181957600080fd5b505afa15801561182d573d6000803e3d6000fd5b505050506040513d602081101561184357600080fd5b5051905060006118533385611f61565b600384018054849003905583548190038455336000818152600486016020908152604091829020805460ff1916600117905581518481529151939450919287927f6f4c982acc31b0af2cf1dc1556f21c0325d893782d65e83c68a5534a33f59957928290030190a36003546118d290600160a060020a03163383612206565b50505050565b600654600160a060020a0316331461071b57604080517f08c379a000000000000000000000000000000000000000000000000000000000815260206004820152601d60248201527f6f6e6c792063757272656e7420676f762063616e207472616e73666572000000604482015290519081900360640190fd5b60006119916040805190810160405280601281526020017f787950726f706f73616c73456e61626c65640000000000000000000000000000815250610f75565b15156119fe57604080517f08c379a000000000000000000000000000000000000000000000000000000000815260206004820152601960248201527f50726f706f73616c73206e6f742079657420656e61626c656400000000000000604482015290519081900360640190fd5b611a426040805190810160405280601081526020017f7044697370656e736174696f6e50637400000000000000000000000000000000815250848460646000612776565b611a866040805190810160405280601181526020017f78795374616b65537563636573735063740000000000000000000000000000008152508484605a600a612776565b611aca6040805190810160405280601881526020017f7879426c6f636b50726f6475636572526577617264506374000000000000000081525084846032600a612776565b611b116040805190810160405280600f81526020017f78795374616b65436f6f6c646f776e0000000000000000000000000000000000815250848462013b00612d00612776565b611b586040805190810160405280601181526020017f7879556e7374616b65436f6f6c646f776e000000000000000000000000000000815250848462013b00612d00612776565b611ba06040805190810160405280600e81526020017f704170706c7953746167655365630000000000000000000000000000000000008152508484621275006202a300612776565b611be86040805190810160405280600f81526020017f70436f6d6d6974537461676553656300000000000000000000000000000000008152508484621275006202a300612776565b611c306040805190810160405280600f81526020017f7052657665616c537461676553656300000000000000000000000000000000008152508484621275006202a300612776565b6000611c706040805190810160405280600b81526020017f704d696e4465706f736974000000000000000000000000000000000000000000815250610f75565b9050600084846040516020018083805190602001908083835b60208310611ca85780518252601f199092019160209182019101611c89565b51815160209384036101000a6000190180199092169116179052920193845250604080518085038152938201905282519201919091209250611ced9150829050610c39565b15611cf757600080fd5b83611d0186610f75565b1415611d0c57600080fd5b604080516101208101909152600e60e082019081527f704170706c7953746167655365630000000000000000000000000000000000006101008301528190611d5790610af090610f75565b81526020016000815260200183815260200186815260200133600160a060020a03168152602001611dc5600554610afd610a6e6040805190810160405280600f81526020017f7052657665616c53746167655365630000000000000000000000000000000000815250610f75565b8152602090810186905260008381526002808352604091829020845181558484015160018201559184015190820155606083015180519192611e0f92600385019290910190612988565b50608082015160048201805473ffffffffffffffffffffffffffffffffffffffff1916600160a060020a0390921691909117905560a0820151600582015560c0909101516006909101556000821115611e7a57600354611e7a90600160a060020a0316333085612676565b33600160a060020a03167fb25bdef16105f099e5c185f9c7fd969571e8e0caa3f7bd75409512fe0a41a60b8686848660026000888152602001908152602001600020600001546040518080602001868152602001858152602001848152602001838152602001828103825287818151815260200191508051906020019080838360005b83811015611f15578181015183820152602001611efd565b50505050905090810190601f168015611f425780820380516001836020036101000a031916815260200191505b50965050505050505060405180910390a2949350505050565b60055481565b6000818152600160209081526040808320600381015490546004805484517f0c03fbd7000000000000000000000000000000000000000000000000000000008152600160a060020a038a8116938201939093526024810189905294519395929487949290911692630c03fbd792604480840193829003018186803b158015611fe857600080fd5b505afa158015611ffc573d6000803e3d6000fd5b505050506040513d602081101561201257600080fd5b505190508282820281151561202357fe5b049695505050505050565b6000612038612906565b600083815260026020818152604092839020835160e0810185528154815260018083015482850152828501548287015260038301805487519281161561010002600019011695909504601f8101859004850282018501909652858152909491936060860193919290918301828280156120f25780601f106120c7576101008083540402835291602001916120f2565b820191906000526020600020905b8154815290600101906020018083116120d557829003601f168201915b50505091835250506004820154600160a060020a031660208201526005820154604082015260069091015460609091015280519091504211801561213957508060a0015142105b801561214757506020810151155b9392505050565b60006020819052908152604090205481565b600354600160a060020a031681565b600454600160a060020a031681565b80600080846040516020018082805190602001908083835b602083106121b55780518252601f199092019160209182019101612196565b6001836020036101000a038019825116818451168082178552505050505050905001915050604051602081830303815290604052805190602001208152602001908152602001600020819055505050565b82600160a060020a031663a9059cbb83836040518363ffffffff167c01000000000000000000000000000000000000000000000000000000000281526004018083600160a060020a0316600160a060020a0316815260200182815260200192505050600060405180830381600087803b15801561228257600080fd5b505af1158015612296573d6000803e3d6000fd5b505050506122a261288a565b151561230f57604080517f08c379a000000000000000000000000000000000000000000000000000000000815260206004820152600d60248201527f7472616e73666572206661696c00000000000000000000000000000000000000604482015290519081900360640190fd5b505050565b61231c612906565b600082815260026020818152604092839020835160e0810185528154815260018083015482850152828501548287015260038301805487519281161561010002600019011695909504601f8101859004850282018501909652858152909491936060860193919290918301828280156123d65780601f106123ab576101008083540402835291602001916123d6565b820191906000526020600020905b8154815290600101906020018083116123b957829003601f168201915b50505091835250506004820154600160a060020a031660208083019190915260058301546040808401919091526006909301546060909201919091528281018051600090815260019092529181209151929350909161243490610e6c565b60048054602080870151604080517f053e71a60000000000000000000000000000000000000000000000000000000081529485019190915251939450600160a060020a039091169263053e71a6926024808201939291829003018186803b15801561249e57600080fd5b505afa1580156124b2573d6000803e3d6000fd5b505050506040513d60208110156124c857600080fd5b5051600383015560018201805474ff0000000000000000000000000000000000000000191674010000000000000000000000000000000000000000179055602083015161251490610c52565b156125a057428360a0015111156125375761253783606001518460c0015161217e565b6020808401518354600385015460408051928352938201528251919287927fc4497224aa78dd50c9b3e344aab02596201ca1e6dca4057a91a6c02f83f4f6c19281900390910190a3600354608084015161259b91600160a060020a03169083612206565b6118d2565b6020808401518354600385015460408051928352938201528251919287927f362a12431f779a2baff4f77f75ba7960ae993a5c41b425df11f7fd0af2b9cbe69281900390910190a360035460208085015160009081526001918290526040902001546118d291600160a060020a03908116911683612206565b8181018281101561174b57fe5b60008282111561263257fe5b50900390565b60008215156126495750600061174b565b5081810281838281151561265957fe5b041461174b57fe5b6000818381151561266e57fe5b049392505050565b604080517f23b872dd000000000000000000000000000000000000000000000000000000008152600160a060020a0385811660048301528481166024830152604482018490529151918616916323b872dd9160648082019260009290919082900301818387803b1580156126e957600080fd5b505af11580156126fd573d6000803e3d6000fd5b5050505061270961288a565b15156118d257604080517f08c379a000000000000000000000000000000000000000000000000000000000815260206004820152601160248201527f7472616e7366657246726f6d206661696c000000000000000000000000000000604482015290519081900360640190fd5b836040516020018082805190602001908083835b602083106127a95780518252601f19909201916020918201910161278a565b6001836020036101000a03801982511681845116808217855250505050505090500191505060405160208183030381529060405280519060200120856040516020018082805190602001908083835b602083106128175780518252601f1990920191602091820191016127f8565b6001836020036101000a038019825116818451168082178552505050505050905001915050604051602081830303815290604052805190602001201415612883576000821115612883578183111561286e57600080fd5b60008111156128835780831161288357600080fd5b5050505050565b6000803d80156128a157602081146128aa576128b6565b600191506128b6565b60206000803e60005191505b50151590505b90565b50805460018160011615610100020316600290046000825580601f106128e55750612903565b601f0160209004906000526020600020908101906129039190612a06565b50565b60e060405190810160405280600081526020016000815260200160008152602001606081526020016000600160a060020a0316815260200160008152602001600081525090565b60a060405190810160405280600081526020016000600160a060020a0316815260200160001515815260200160008152602001600081525090565b828054600181600116156101000203166002900490600052602060002090601f016020900481019282601f106129c957805160ff19168380011785556129f6565b828001600101855582156129f6579182015b828111156129f65782518255916020019190600101906129db565b50612a02929150612a06565b5090565b6128bc91905b80821115612a025760008155600101612a0c56fea165627a7a72305820edd4e446c8ca76327d5c1cecf2c2deabe6657f20ad0b653da57779b428f58b880029",
  "source": "pragma solidity ^0.5.0;\n\nimport \"./PLCR/PLCRVoting.sol\";\nimport \"./token/ERC20/SafeERC20.sol\";\nimport \"./utils/SafeMath.sol\";\n\ninterface IXyVotingData {\n    function totalVotingStake() external view returns (uint);\n}\n\ncontract XyParameterizer {\n\n    // ------\n    // EVENTS\n    // ------\n\n    event _ReparameterizationProposal(string name, uint value, bytes32 propID, uint deposit, uint appEndDate, address indexed proposer);\n    event _NewChallenge(bytes32 indexed propID, uint challengeID, uint commitEndDate, uint revealEndDate, address indexed challenger);\n    event _ProposalAccepted(bytes32 indexed propID, string name, uint value);\n    event _ProposalExpired(bytes32 indexed propID);\n    event _ChallengeSucceeded(bytes32 indexed propID, uint indexed challengeID, uint rewardPool, uint totalTokens);\n    event _ChallengeFailed(bytes32 indexed propID, uint indexed challengeID, uint rewardPool, uint totalTokens);\n    event _RewardClaimed(uint indexed challengeID, uint reward, address indexed voter);\n\n\n    // ------\n    // DATA STRUCTURES\n    // ------\n\n    using SafeMath for uint;\n\n    struct ParamProposal {\n        uint appExpiry;\n        uint challengeID;\n        uint deposit;\n        string name;\n        address owner;\n        uint processBy;\n        uint value;\n    }\n\n    struct Challenge {\n        uint rewardPool;        // (remaining) pool of tokens distributed amongst winning voters\n        address challenger;     // owner of Challenge\n        bool resolved;          // indication of if challenge is resolved\n        uint stake;             // number of tokens at risk for either party during challenge\n        uint winningTokens;     // (remaining) amount of tokens used for voting by the winning side\n        mapping(address => bool) tokenClaims;\n    }\n\n    // ------\n    // STATE\n    // ------\n\n    mapping(bytes32 => uint) public params;\n\n    // maps challengeIDs to associated challenge data\n    mapping(uint => Challenge) public challenges;\n\n    // maps pollIDs to intended data change if poll passes\n    mapping(bytes32 => ParamProposal) public proposals;\n\n    // Global Variables\n    address public token;\n    PLCRVoting public voting;\n    uint public stageBlockLen; // 7 days\n    address public governorAddress;\n\n    /**\n    @dev Initializer        Can only be called once\n    @param _token           The address where the ERC20 token contract is deployed\n    @param _plcr            address of a PLCR voting contract for the provided token\n    @notice _parameters     array of canonical parameters\n    */\n    function init(\n        address _token,\n        address _plcr,\n        uint[] memory _parameters\n    ) internal {\n        stageBlockLen = 40320;\n        token = _token;\n        voting = PLCRVoting(_plcr);\n\n        // minimum deposit to propose a reparameterization\n        set(\"pMinDeposit\", _parameters[0]);\n        // period over which reparmeterization proposals wait to be processed\n        set(\"pApplyStageSec\", _parameters[1]);\n        // length of commit period for voting in parameterizer\n        set(\"pCommitStageSec\", _parameters[2]);\n        // length of reveal period for voting in parameterizer\n        set(\"pRevealStageSec\", _parameters[3]);\n        // percentage of losing party's deposit distributed to winning party in parameterizer\n        set(\"pDispensationPct\", _parameters[4]);\n        // majority for proposal success in parameterizer\n        set(\"pVoteSuccessRate\", _parameters[5]);\n        // percentage stake present for challenge success\n        set(\"pVoteQuorum\", _parameters[6]);\n        // percentage active stake to produce a block\n        set(\"xyStakeSuccessPct\", _parameters[7]);\n        // minimum mining cost for request\n        set(\"xyWeiMiningMin\", _parameters[8]);\n        // minimum bounty cost for request\n        set(\"xyXYORequestBountyMin\", _parameters[9]);\n        // blocks to pass before cooldown stake\n        set(\"xyStakeCooldown\", _parameters[10]);\n        // blocks to pass before cooldown unstake\n        set(\"xyUnstakeCooldown\", _parameters[11]);\n        // enable voting on reparameterization\n        set(\"xyProposalsEnabled\", _parameters[12]);\n        // Block producers get percent of XYO bounty based on their stake\n        set(\"xyBlockProducerRewardPct\", _parameters[13]); \n        // Temporary owner of the governance contract\n        set(\"pOwner\", uint(msg.sender)); \n    }\n\n    function initializeGovernor(address _governorAddress) public {\n        require(governorAddress == address(0), \"already initialized\");\n        governorAddress = _governorAddress;\n    }\n\n    function transferGovernor(address newGov) public {\n        require(governorAddress == msg.sender, \"only current gov can transfer\");\n        governorAddress = newGov;\n    }\n\n    function _constrainParam(string memory _name, string memory _check, uint _value, uint _lte, uint _gt) private pure {\n        if (keccak256(abi.encodePacked(_name)) == keccak256(abi.encodePacked(_check))) {\n            if (_lte > 0) {\n                require(_value <= _lte); \n            if (_gt > 0)\n                require(_value > _gt);\n            }\n        }\n    }\n\n    // -----------------------\n    // TOKEN HOLDER INTERFACE\n    // -----------------------\n\n    /**\n    @notice propose a reparamaterization of the key _name's value to _value.\n    @param _name the name of the proposed param to be set\n    @param _value the proposed value to set the param to be set\n    */\n    function proposeReparameterization(string memory _name, uint _value) public returns (bytes32) {\n        require(get(\"xyProposalsEnabled\") != 0, \"Proposals not yet enabled\");\n\n        _constrainParam(\"pDispensationPct\", _name, _value, 100, 0);\n        _constrainParam(\"xyStakeSuccessPct\", _name, _value, 90, 10);\n        _constrainParam(\"xyBlockProducerRewardPct\", _name, _value, 50, 10);\n\n        // Min of two days max 2 weeks (blocks)\n        _constrainParam(\"xyStakeCooldown\", _name, _value, 80640, 11520);\n        _constrainParam(\"xyUnstakeCooldown\", _name, _value, 80640, 11520);\n\n        // Min of two days max 2 weeks (seconds)\n        _constrainParam(\"pApplyStageSec\", _name, _value, 1209600, 172800);\n        _constrainParam(\"pCommitStageSec\", _name, _value, 1209600, 172800);\n        _constrainParam(\"pRevealStageSec\", _name, _value, 1209600, 172800);\n\n        uint deposit = get(\"pMinDeposit\");\n        bytes32 propID = keccak256(abi.encodePacked(_name, _value));\n        require(!propExists(propID)); // Forbid duplicate proposals\n        require(get(_name) != _value); // Forbid NOOP reparameterizations\n\n        // attach name and value to pollID\n        proposals[propID] = ParamProposal({\n            appExpiry: now.add(get(\"pApplyStageSec\")),\n            challengeID: 0,\n            deposit: deposit,\n            name: _name,\n            owner: msg.sender,\n            processBy: now.add(get(\"pApplyStageSec\"))\n                .add(get(\"pCommitStageSec\"))\n                .add(get(\"pRevealStageSec\"))\n                .add(stageBlockLen),\n            value: _value\n        });\n\n        if (deposit > 0) {\n            SafeERC20.transferFrom(token, msg.sender, address(this), deposit); // escrow tokens (deposit amt)\n        }\n\n        emit _ReparameterizationProposal(_name, _value, propID, deposit, proposals[propID].appExpiry, msg.sender);\n        return propID;\n    }\n\n    /**\n    @notice challenge the provided proposal ID, and put tokens at stake to do so.\n    @param _propID the proposal ID to challenge\n    */\n    function challengeReparameterization(bytes32 _propID) public returns (uint challengeID) {\n        ParamProposal memory prop = proposals[_propID];\n        uint deposit = prop.deposit;\n\n        require(propExists(_propID) && prop.challengeID == 0);\n\n        // start poll\n        uint pollID = voting.startPoll(\n            get(\"pVoteSuccessRate\"),\n            get(\"pCommitStageSec\"),\n            get(\"pRevealStageSec\")\n        );\n\n        challenges[pollID] = Challenge({\n            challenger: msg.sender,\n            rewardPool: SafeMath.sub(100, get(\"pDispensationPct\")).mul(deposit).div(100),\n            stake: deposit,\n            resolved: false,\n            winningTokens: 0\n        });\n\n        proposals[_propID].challengeID = pollID; // update listing to store most recent challenge\n\n        //take tokens from challenger\n        SafeERC20.transferFrom(token, msg.sender, address(this), deposit);\n\n        (uint commitEndDate, uint revealEndDate,,,) = voting.pollMap(pollID);\n\n        emit _NewChallenge(_propID, pollID, commitEndDate, revealEndDate, msg.sender);\n        return pollID;\n    }\n\n    /**\n    @notice             for the provided proposal ID, set it, resolve its challenge, or delete it depending on whether it can be set, has a challenge which can be resolved, or if its \"process by\" date has passed\n    @param _propID      the proposal ID to make a determination and state transition for\n    */\n    function processProposal(bytes32 _propID) public {\n        ParamProposal storage prop = proposals[_propID];\n        address propOwner = prop.owner;\n        uint propDeposit = prop.deposit;\n        \n        // Before any token transfers, deleting the proposal will ensure that if reentrancy occurs the\n        // prop.owner and prop.deposit will be 0, thereby preventing theft\n        if (canBeSet(_propID)) {\n            // There is no challenge against the proposal. The processBy date for the proposal has not\n            // passed, but the proposal's appExpirty date has passed.\n            set(prop.name, prop.value);\n            emit _ProposalAccepted(_propID, prop.name, prop.value);\n            delete proposals[_propID];\n            SafeERC20.transfer(token, propOwner, propDeposit);\n        } else if (challengeCanBeResolved(_propID)) {\n            // There is a challenge against the proposal.\n            resolveChallenge(_propID);\n        } else if (now > prop.processBy) {\n            // There is no challenge against the proposal, but the processBy date has passed.\n            emit _ProposalExpired(_propID);\n            delete proposals[_propID];\n            SafeERC20.transfer(token, propOwner, propDeposit);\n        } else {\n            // There is no challenge against the proposal, and neither the appExpiry date nor the\n            // processBy date has passed.\n            revert();\n        }\n\n        assert(get(\"pDispensationPct\") <= 100);\n\n        // verify that future proposal appExpiry and processBy times will not overflow\n        now.add(get(\"pApplyStageSec\"))\n            .add(get(\"pCommitStageSec\"))\n            .add(get(\"pRevealStageSec\"))\n            .add(stageBlockLen);\n\n        delete proposals[_propID];\n    }\n\n    /**\n    @notice                 Claim the tokens owed for the msg.sender in the provided challenge\n    @param _challengeID     the challenge ID to claim tokens for\n    */\n    function claimReward(uint _challengeID) public {\n        Challenge storage challenge = challenges[_challengeID];\n        // ensure voter has not already claimed tokens and challenge results have been processed\n        require(challenge.tokenClaims[msg.sender] == false);\n        require(challenge.resolved == true);\n\n        uint voterTokens = voting.getNumPassingTokens(msg.sender, _challengeID);\n        uint reward = voterReward(msg.sender, _challengeID);\n\n        // subtract voter's information to preserve the participation ratios of other voters\n        // compared to the remaining pool of rewards\n        challenge.winningTokens -= voterTokens;\n        challenge.rewardPool -= reward;\n\n        // ensures a voter cannot claim tokens again\n        challenge.tokenClaims[msg.sender] = true;\n\n        emit _RewardClaimed(_challengeID, reward, msg.sender);\n        SafeERC20.transfer(token, msg.sender, reward);\n    }\n\n    /**\n    @dev                    Called by a voter to claim their rewards for each completed vote.\n                            Someone must call updateStatus() before this can be called.\n    @param _challengeIDs    The PLCR pollIDs of the challenges rewards are being claimed for\n    */\n    function claimRewards(uint[] memory _challengeIDs) public {\n        // loop through arrays, claiming each individual vote reward\n        for (uint i = 0; i < _challengeIDs.length; i++) {\n            claimReward(_challengeIDs[i]);\n        }\n    }\n\n    // --------\n    // GETTERS\n    // --------\n\n    /**\n    @dev                Calculates the provided voter's token reward for the given poll.\n    @param _voter       The address of the voter whose reward balance is to be returned\n    @param _challengeID The ID of the challenge the voter's reward is being calculated for\n    @return             The uint indicating the voter's reward\n    */\n    function voterReward(address _voter, uint _challengeID)\n    public view returns (uint) {\n        uint winningTokens = challenges[_challengeID].winningTokens;\n        uint rewardPool = challenges[_challengeID].rewardPool;\n        uint voterTokens = voting.getNumPassingTokens(_voter, _challengeID);\n        return (voterTokens * rewardPool) / winningTokens;\n    }\n\n    /**\n    @notice Determines whether a proposal passed its application stage without a challenge\n    @param _propID The proposal ID for which to determine whether its application stage passed without a challenge\n    */\n    function canBeSet(bytes32 _propID) view public returns (bool) {\n        ParamProposal memory prop = proposals[_propID];\n\n        return (now > prop.appExpiry && now < prop.processBy && prop.challengeID == 0);\n    }\n\n    /**\n    @notice Determines whether a proposal exists for the provided proposal ID\n    @param _propID The proposal ID whose existance is to be determined\n    */\n    function propExists(bytes32 _propID) view public returns (bool) {\n        return proposals[_propID].processBy > 0;\n    }\n\n    /**\n    @notice Determines whether the provided proposal ID has a challenge which can be resolved\n    @param _propID The proposal ID whose challenge to inspect\n    */\n    function challengeCanBeResolved(bytes32 _propID) view public returns (bool) {\n        ParamProposal memory prop = proposals[_propID];\n        Challenge memory challenge = challenges[prop.challengeID];\n\n        return (prop.challengeID > 0 && challenge.resolved == false && voting.pollEnded(prop.challengeID));\n    }\n\n    /**\n    @notice Determines the number of tokens to awarded to the winning party in a challenge\n    @param _challengeID The challengeID to determine a reward for\n    */\n    function challengeWinnerReward(uint _challengeID) public view returns (uint) {\n        if(voting.getTotalNumberOfTokensForWinningOption(_challengeID) == 0) {\n            // Edge case, nobody voted, give all tokens to the challenger.\n            return 2 * challenges[_challengeID].stake;\n        }\n\n        return (2 * challenges[_challengeID].stake) - challenges[_challengeID].rewardPool;\n    }\n\n    /**\n    @notice gets the parameter keyed by the provided name value from the params mapping\n    @param _name the key whose value is to be determined\n    */\n    function get(string memory _name) public view returns (uint value) {\n        return params[keccak256(abi.encodePacked(_name))];\n    }\n\n    /**\n    @dev                Getter for Challenge tokenClaims mappings\n    @param _challengeID The challengeID to query\n    @param _voter       The voter whose claim status to query for the provided challengeID\n    */\n    function tokenClaims(uint _challengeID, address _voter) public view returns (bool) {\n        return challenges[_challengeID].tokenClaims[_voter];\n    }\n\n    function isPassed(uint _pollId) public view returns (bool) {\n        // success pct fullfilled\n        bool voteSuccess = voting.isPassed(_pollId);\n        bool quorumMet = (100 * voting.getTotalVotes(_pollId)) > (get(\"pVoteQuorum\") * IXyVotingData(governorAddress).totalVotingStake());\n\n        // check also if meets poll quorum (true def of quorum)\n        return voteSuccess && quorumMet;\n    }\n    // ----------------\n    // PRIVATE FUNCTIONS\n    // ----------------\n\n    /**\n    @dev resolves a challenge for the provided _propID. It must be checked in advance whether the _propID has a challenge on it\n    @param _propID the proposal ID whose challenge is to be resolved.\n    */\n    function resolveChallenge(bytes32 _propID) private {\n        ParamProposal memory prop = proposals[_propID];\n        Challenge storage challenge = challenges[prop.challengeID];\n\n        // winner gets back their full staked deposit, and dispensationPct*loser's stake\n        uint reward = challengeWinnerReward(prop.challengeID);\n\n        challenge.winningTokens = voting.getTotalNumberOfTokensForWinningOption(prop.challengeID);\n        challenge.resolved = true;\n\n        if (isPassed(prop.challengeID)) { // The challenge failed\n            if(prop.processBy > now) {\n                set(prop.name, prop.value);\n            }\n            emit _ChallengeFailed(_propID, prop.challengeID, challenge.rewardPool, challenge.winningTokens);\n            SafeERC20.transfer(token, prop.owner, reward);\n        }\n        else { // The challenge succeeded or nobody voted\n            emit _ChallengeSucceeded(_propID, prop.challengeID, challenge.rewardPool, challenge.winningTokens);\n            SafeERC20.transfer(token, challenges[prop.challengeID].challenger, reward);\n        }\n    }\n\n    /**\n    @dev sets the param keted by the provided name to the provided value\n    @param _name the name of the param to be set\n    @param _value the value to set the param to be set\n    */\n    function set(string memory _name, uint _value) internal {\n        params[keccak256(abi.encodePacked(_name))] = _value;\n    }\n\n\n}\n\n",
  "sourcePath": "/Users/kevin/GitHub/dapp-scsc-solidity/contracts/XyParameterizer.sol",
  "compiler": {
    "name": "solc",
    "version": "0.5.4+commit.9549d8ff.Emscripten.clang"
  },
  "schemaVersion": "3.0.1",
  "updatedAt": "2019-03-26T23:13:24.358Z",
  "devdoc": {
    "methods": {
      "canBeSet(bytes32)": {
        "params": {
          "_propID": "The proposal ID for which to determine whether its application stage passed without a challenge"
        }
      },
      "challengeCanBeResolved(bytes32)": {
        "params": {
          "_propID": "The proposal ID whose challenge to inspect"
        }
      },
      "challengeReparameterization(bytes32)": {
        "params": {
          "_propID": "the proposal ID to challenge"
        }
      },
      "challengeWinnerReward(uint256)": {
        "params": {
          "_challengeID": "The challengeID to determine a reward for"
        }
      },
      "claimReward(uint256)": {
        "params": {
          "_challengeID": "the challenge ID to claim tokens for"
        }
      },
      "claimRewards(uint256[])": {
        "details": "Called by a voter to claim their rewards for each completed vote. Someone must call updateStatus() before this can be called.",
        "params": {
          "_challengeIDs": "The PLCR pollIDs of the challenges rewards are being claimed for"
        }
      },
      "get(string)": {
        "params": {
          "_name": "the key whose value is to be determined"
        }
      },
      "processProposal(bytes32)": {
        "params": {
          "_propID": "the proposal ID to make a determination and state transition for"
        }
      },
      "propExists(bytes32)": {
        "params": {
          "_propID": "The proposal ID whose existance is to be determined"
        }
      },
      "proposeReparameterization(string,uint256)": {
        "params": {
          "_name": "the name of the proposed param to be set",
          "_value": "the proposed value to set the param to be set"
        }
      },
      "tokenClaims(uint256,address)": {
        "details": "Getter for Challenge tokenClaims mappings",
        "params": {
          "_challengeID": "The challengeID to query",
          "_voter": "The voter whose claim status to query for the provided challengeID"
        }
      },
      "voterReward(address,uint256)": {
        "details": "Calculates the provided voter's token reward for the given poll.",
        "params": {
          "_challengeID": "The ID of the challenge the voter's reward is being calculated for",
          "_voter": "The address of the voter whose reward balance is to be returned"
        },
        "return": "The uint indicating the voter's reward"
      }
    }
  },
  "userdoc": {
    "methods": {
      "canBeSet(bytes32)": {
        "notice": "Determines whether a proposal passed its application stage without a challenge"
      },
      "challengeCanBeResolved(bytes32)": {
        "notice": "Determines whether the provided proposal ID has a challenge which can be resolved"
      },
      "challengeReparameterization(bytes32)": {
        "notice": "challenge the provided proposal ID, and put tokens at stake to do so."
      },
      "challengeWinnerReward(uint256)": {
        "notice": "Determines the number of tokens to awarded to the winning party in a challenge"
      },
      "claimReward(uint256)": {
        "notice": "Claim the tokens owed for the msg.sender in the provided challenge"
      },
      "get(string)": {
        "notice": "gets the parameter keyed by the provided name value from the params mapping"
      },
      "processProposal(bytes32)": {
        "notice": "for the provided proposal ID, set it, resolve its challenge, or delete it depending on whether it can be set, has a challenge which can be resolved, or if its \"process by\" date has passed"
      },
      "propExists(bytes32)": {
        "notice": "Determines whether a proposal exists for the provided proposal ID"
      },
      "proposeReparameterization(string,uint256)": {
        "notice": "propose a reparamaterization of the key _name's value to _value."
      }
    }
  }
}