{
  "contractName": "XyPayOnDelivery",
  "abi": [
    {
      "constant": true,
      "inputs": [],
      "name": "scsc",
      "outputs": [
        {
          "name": "",
          "type": "address"
        }
      ],
      "payable": false,
      "stateMutability": "view",
      "type": "function"
    },
    {
      "constant": true,
      "inputs": [],
      "name": "xyoToken",
      "outputs": [
        {
          "name": "",
          "type": "address"
        }
      ],
      "payable": false,
      "stateMutability": "view",
      "type": "function"
    },
    {
      "constant": true,
      "inputs": [
        {
          "name": "",
          "type": "uint256"
        }
      ],
      "name": "requests",
      "outputs": [
        {
          "name": "requestId",
          "type": "bytes32"
        },
        {
          "name": "weiPayment",
          "type": "uint256"
        },
        {
          "name": "xyoPayment",
          "type": "uint256"
        },
        {
          "name": "createdAt",
          "type": "uint256"
        },
        {
          "name": "responseAt",
          "type": "uint256"
        },
        {
          "name": "beneficiary",
          "type": "address"
        },
        {
          "name": "asker",
          "type": "address"
        }
      ],
      "payable": false,
      "stateMutability": "view",
      "type": "function"
    },
    {
      "constant": true,
      "inputs": [
        {
          "name": "",
          "type": "bytes32"
        }
      ],
      "name": "requestIndex",
      "outputs": [
        {
          "name": "",
          "type": "uint256"
        }
      ],
      "payable": false,
      "stateMutability": "view",
      "type": "function"
    },
    {
      "constant": true,
      "inputs": [
        {
          "name": "",
          "type": "bytes32"
        }
      ],
      "name": "didIntersect",
      "outputs": [
        {
          "name": "",
          "type": "bool"
        }
      ],
      "payable": false,
      "stateMutability": "view",
      "type": "function"
    },
    {
      "anonymous": false,
      "inputs": [
        {
          "indexed": false,
          "name": "requestId",
          "type": "bytes32"
        },
        {
          "indexed": false,
          "name": "weiPayment",
          "type": "uint256"
        },
        {
          "indexed": false,
          "name": "xyoPayment",
          "type": "uint256"
        },
        {
          "indexed": false,
          "name": "beneficiary",
          "type": "address"
        },
        {
          "indexed": false,
          "name": "didIntersect",
          "type": "bool"
        }
      ],
      "name": "IntersectResponse",
      "type": "event"
    },
    {
      "anonymous": false,
      "inputs": [
        {
          "indexed": false,
          "name": "requestId",
          "type": "bytes32"
        },
        {
          "indexed": false,
          "name": "requester",
          "type": "address"
        },
        {
          "indexed": false,
          "name": "weiPayment",
          "type": "uint256"
        },
        {
          "indexed": false,
          "name": "xyoPayment",
          "type": "uint256"
        },
        {
          "indexed": false,
          "name": "beneficiary",
          "type": "address"
        }
      ],
      "name": "NewPayOnDeliveryRequest",
      "type": "event"
    },
    {
      "constant": false,
      "inputs": [
        {
          "name": "stakingConsensus",
          "type": "address"
        },
        {
          "name": "_xyoToken",
          "type": "address"
        }
      ],
      "name": "initialize",
      "outputs": [],
      "payable": false,
      "stateMutability": "nonpayable",
      "type": "function"
    },
    {
      "constant": false,
      "inputs": [
        {
          "name": "requestId",
          "type": "bytes32"
        },
        {
          "name": "xyoBounty",
          "type": "uint256"
        },
        {
          "name": "xyoPayOnDelivery",
          "type": "uint256"
        },
        {
          "name": "weiPayOnDelivery",
          "type": "uint256"
        },
        {
          "name": "beneficiary",
          "type": "address"
        }
      ],
      "name": "requestPayOnDelivery",
      "outputs": [],
      "payable": true,
      "stateMutability": "payable",
      "type": "function"
    },
    {
      "constant": false,
      "inputs": [
        {
          "name": "requestId",
          "type": "bytes32"
        },
        {
          "name": "",
          "type": "uint8"
        },
        {
          "name": "responseData",
          "type": "bytes"
        }
      ],
      "name": "submitResponse",
      "outputs": [],
      "payable": false,
      "stateMutability": "nonpayable",
      "type": "function"
    },
    {
      "constant": true,
      "inputs": [],
      "name": "numRequests",
      "outputs": [
        {
          "name": "",
          "type": "uint256"
        }
      ],
      "payable": false,
      "stateMutability": "view",
      "type": "function"
    }
  ],
  "bytecode": "0x608060405234801561001057600080fd5b50610e0d806100206000396000f3fe6080604052600436106100a3576000357c01000000000000000000000000000000000000000000000000000000009004806381d12c581161007657806381d12c58146101ed5780639fb42b1f1461025b578063df490b7c14610282578063f71b6473146102c0578063ff9d855b146102ea576100a3565b80630460fb7d146100a857806314fa8a25146100d9578063485cc955146100ee5780637e6632381461012b575b600080fd5b3480156100b457600080fd5b506100bd610328565b60408051600160a060020a039092168252519081900360200190f35b3480156100e557600080fd5b506100bd610337565b3480156100fa57600080fd5b506101296004803603604081101561011157600080fd5b50600160a060020a0381358116916020013516610346565b005b34801561013757600080fd5b506101296004803603606081101561014e57600080fd5b81359160ff6020820135169181019060608101604082013564010000000081111561017857600080fd5b82018360208201111561018a57600080fd5b803590602001918460018302840111640100000000831117156101ac57600080fd5b91908080601f01602080910402602001604051908101604052809392919081815260200183838082843760009201919091525092955061042c945050505050565b3480156101f957600080fd5b506102176004803603602081101561021057600080fd5b503561062e565b6040805197885260208801969096528686019490945260608601929092526080850152600160a060020a0390811660a08501521660c0830152519081900360e00190f35b34801561026757600080fd5b50610270610687565b60408051918252519081900360200190f35b610129600480360360a081101561029857600080fd5b5080359060208101359060408101359060608101359060800135600160a060020a031661068d565b3480156102cc57600080fd5b50610270600480360360208110156102e357600080fd5b50356109f0565b3480156102f657600080fd5b506103146004803603602081101561030d57600080fd5b5035610a02565b604080519115158252519081900360200190f35b603354600160a060020a031681565b603454600160a060020a031681565b600054610100900460ff168061035f575061035f610a17565b8061036d575060005460ff16155b15156103c4576040517f08c379a000000000000000000000000000000000000000000000000000000000815260040180806020018281038252602e815260200180610db4602e913960400191505060405180910390fd5b600080546033805473ffffffffffffffffffffffffffffffffffffffff19908116600160a060020a039687161790915560348054909116939094169290921790925561ff001980821661010090811760ff19166001179091169181900460ff16151502179055565b603354600160a060020a031633146104a557604080517f08c379a000000000000000000000000000000000000000000000000000000000815260206004820152601f60248201527f6f6e6c7920736373632063616e20636f6d706c65746520726571756573747300604482015290519081900360640190fd5b6000808251118015610532575081516000908390829081106104c357fe5b9060200101517f010000000000000000000000000000000000000000000000000000000000000090047f0100000000000000000000000000000000000000000000000000000000000000027effffffffffffffffffffffffffffffffffffffffffffffffffffffffffffff1916115b6000858152603560209081526040808320805460ff19168515151790556036909152812054603780549394509192811061056857fe5b9060005260206000209060070201905043816004018190555081156105a55760058101546105a0908690600160a060020a0316610a1d565b6105be565b60068101546105be908690600160a060020a0316610a1d565b80546001808301546002840154600585015460408051958652602086019390935284830191909152600160a060020a031660608401526080830191909152517f70625d24b59b5c67bfac7d9a2078e99cb3f546e39941a80fdf8dfb39873aa1889181900360a00190a15050505050565b603780548290811061063c57fe5b6000918252602090912060079091020180546001820154600283015460038401546004850154600586015460069096015494965092949193909291600160a060020a03908116911687565b60375490565b6000858152603660205260409020541561070857604080517f08c379a000000000000000000000000000000000000000000000000000000000815260206004820152601b60248201527f4475706c69636174652072657175657374207375626d69747465640000000000604482015290519081900360640190fd5b3482111561077757604080517f08c379a000000000000000000000000000000000000000000000000000000000815260206004820152601b60248201527f4e6f7420656e6f756768207061796d656e742070726f76696465640000000000604482015290519081900360640190fd5b6000610789348463ffffffff610b2216565b603354604080517fdfdb61c9000000000000000000000000000000000000000000000000000000008152600481018a905260248101899052336044820152600160648201529051929350600160a060020a039091169163dfdb61c9918491608480830192600092919082900301818588803b15801561080757600080fd5b505af115801561081b573d6000803e3d6000fd5b505050505060008411156108415760345461084190600160a060020a0316333087610b34565b610849610d77565b60e0604051908101604052808881526020018581526020018681526020014381526020016000815260200184600160a060020a0316815260200133600160a060020a03168152509050603780549050603660008981526020019081526020016000208190555060378190806001815401808255809150509060018203906000526020600020906007020160009091929091909150600082015181600001556020820151816001015560408201518160020155606082015181600301556080820151816004015560a08201518160050160006101000a815481600160a060020a030219169083600160a060020a0316021790555060c08201518160060160006101000a815481600160a060020a030219169083600160a060020a031602179055505050507f7fa61f261138ffe31d0fa612836cf8a094dbc793de16238fb00563cbf05059b687338688876040518086815260200185600160a060020a0316600160a060020a0316815260200184815260200183815260200182600160a060020a0316600160a060020a031681526020019550505050505060405180910390a150505050505050565b60366020526000908152604090205481565b60356020526000908152604090205460ff1681565b303b1590565b610a25610d77565b600083815260366020526040902054603780549091908110610a4357fe5b600091825260208083206040805160e081018252600790940290910180548452600181015492840183905260028101549184019190915260038101546060840152600481015460808401526005810154600160a060020a0390811660a08501526006909101541660c08301529092501115610af3576020810151604051600160a060020a0384169180156108fc02916000818181858888f19350505050158015610af1573d6000803e3d6000fd5b505b600081604001511115610b1d576034546040820151610b1d91600160a060020a0316908490610c3a565b505050565b600082821115610b2e57fe5b50900390565b604080517f23b872dd000000000000000000000000000000000000000000000000000000008152600160a060020a0385811660048301528481166024830152604482018490529151918616916323b872dd9160648082019260009290919082900301818387803b158015610ba757600080fd5b505af1158015610bbb573d6000803e3d6000fd5b50505050610bc7610d43565b1515610c3457604080517f08c379a000000000000000000000000000000000000000000000000000000000815260206004820152601160248201527f7472616e7366657246726f6d206661696c000000000000000000000000000000604482015290519081900360640190fd5b50505050565b82600160a060020a031663a9059cbb83836040518363ffffffff167c01000000000000000000000000000000000000000000000000000000000281526004018083600160a060020a0316600160a060020a0316815260200182815260200192505050600060405180830381600087803b158015610cb657600080fd5b505af1158015610cca573d6000803e3d6000fd5b50505050610cd6610d43565b1515610b1d57604080517f08c379a000000000000000000000000000000000000000000000000000000000815260206004820152600d60248201527f7472616e73666572206661696c00000000000000000000000000000000000000604482015290519081900360640190fd5b6000803d8015610d5a5760208114610d6357610d6f565b60019150610d6f565b60206000803e60005191505b501515905090565b6040805160e081018252600080825260208201819052918101829052606081018290526080810182905260a0810182905260c08101919091529056fe436f6e747261637420696e7374616e63652068617320616c7265616479206265656e20696e697469616c697a6564a165627a7a723058206350e6856212744a2cc3471605cb476587f159dfce4359a58fdc43cb3d447cc20029",
  "source": "pragma solidity >=0.5.0 <0.6.0;\n\nimport \"./utils/Initializable.sol\";\nimport \"./utils/SafeMath.sol\";\nimport \"./XyStakingConsensus.sol\";\nimport \"./IXyRequester.sol\";\nimport \"./token/ERC20/SafeERC20.sol\";\n\n\n/**\n * @title A Payment on delivery contract\n * @dev Will escrow funds until an item is marked as delivered .\n */\ncontract XyPayOnDelivery is Initializable, IXyRequester {\n    using SafeMath for uint;\n\n    XyStakingConsensus public scsc;\n    address public xyoToken;\n\n    event IntersectResponse(bytes32 requestId, uint weiPayment, uint xyoPayment, address payable beneficiary, bool didIntersect);\n    event NewPayOnDeliveryRequest(bytes32 requestId, address requester, uint weiPayment, uint xyoPayment, address payable beneficiary);\n\n    // Check that \n    mapping (bytes32 => bool) public didIntersect;\n    mapping (bytes32 => uint) public requestIndex;\n    IPFSRequest[] public requests;\n\n    /* \n        Construct a Pay Delivery contract\n    */\n    function initialize (\n        address stakingConsensus, \n        address _xyoToken\n    )\n        initializer public \n    {\n        scsc = XyStakingConsensus(stakingConsensus);\n        xyoToken = _xyoToken;\n    }\n\n    /**\n        @dev Called by PonD client.  API for client to request an intersection question\n        @param requestId - the hash of the request (first 2 bytes stripped)\n        @param xyoBounty - the xyo bounty for the request (approve scsc for this amount)\n        @param xyoPayOnDelivery - the amount of XYO to pay on delivery\n        @param weiPayOnDelivery - the amount of eth to pay on delivery\n        @param beneficiary The destination address of the funds.\n    */\n    function requestPayOnDelivery(\n        bytes32 requestId, \n        uint xyoBounty, \n        uint xyoPayOnDelivery, \n        uint weiPayOnDelivery, \n        address payable beneficiary\n    ) \n        public \n        payable \n    {\n        require (requestIndex[requestId] == 0, \"Duplicate request submitted\");\n        require (msg.value >= weiPayOnDelivery, \"Not enough payment provided\");\n        \n        uint miningGas = msg.value.sub(weiPayOnDelivery);\n        scsc.submitRequest.value(miningGas)(requestId, xyoBounty, msg.sender, uint8(IXyRequester.RequestType.BOOL_CALLBACK));\n        \n        if (xyoPayOnDelivery > 0) {\n            SafeERC20.transferFrom(xyoToken, msg.sender, address(this), xyoPayOnDelivery);\n        }\n\n        IPFSRequest memory q = IPFSRequest(\n            requestId, weiPayOnDelivery, xyoPayOnDelivery, block.number, 0, beneficiary, msg.sender\n        );\n        requestIndex[requestId] = requests.length;\n        requests.push(q);\n        emit NewPayOnDeliveryRequest(requestId, msg.sender, weiPayOnDelivery, xyoPayOnDelivery, beneficiary);\n    }\n\n    /**\n        @dev Called by SCSC. If intersection, transfer pay on delivery to beneficiary, delete request\n        @param requestId - the hash of the request (first 2 bytes stripped)\n        @param responseData Response data from scsc\n    */\n    function submitResponse(bytes32 requestId, uint8, bytes memory responseData) public {\n        require (msg.sender == address(scsc), \"only scsc can complete requests\");\n        bool intersection = responseData.length > 0 && responseData[0] > 0;\n        didIntersect[requestId] = intersection;\n        IPFSRequest storage q = requests[requestIndex[requestId]];\n        q.responseAt = block.number;\n\n        if (intersection) {\n            payOnDelivery(requestId, q.beneficiary);\n        } else {\n            payOnDelivery(requestId, q.asker);\n        }\n        emit IntersectResponse(q.requestId, q.weiPayment, q.xyoPayment, q.beneficiary, true);\n    }\n\n    /** \n        Will refund the asker prior to deleting the request\n        @param requestId - the requestId hash to be deleted\n        @param payee - who to pay\n    */\n    function payOnDelivery(bytes32 requestId, address payable payee) internal {\n        IPFSRequest memory q = requests[requestIndex[requestId]];\n        if (q.weiPayment > 0) {\n            payee.transfer(q.weiPayment);\n        }\n        if (q.xyoPayment > 0) {\n            SafeERC20.transfer(xyoToken, payee, q.xyoPayment);\n        }\n    }\n\n    /** \n        Will refund the asker prior to deleting the request\n        @param requestId - the requestId hash to be deleted\n        @param refundee Who to pay the escrow balance too\n    */\n    function deleteRequestAndRefund(bytes32 requestId, address payable refundee) internal {\n        payOnDelivery(requestId, refundee);\n        _deleteRequest(requestId);\n    }\n\n    /** \n        Will delete the request and remove the request index\n        @param requestId - the requestId hash to be deleted\n    */\n    function _deleteRequest(bytes32 requestId) private {\n        uint qIndex = requestIndex[requestId];\n        uint lastQIndex = requests.length.sub(1);\n        IPFSRequest memory lastRequest = requests[lastQIndex];\n\n        requests[qIndex] = lastRequest;\n        delete requests[lastQIndex];\n\n        requests.length--;\n        requestIndex[requestId] = 0;\n        requestIndex[lastRequest.requestId] = qIndex;\n    }\n\n    /** Public array length getters */\n    function numRequests() public view returns (uint) {\n        return requests.length;\n    }\n}",
  "sourcePath": "/Users/kevin/GitHub/dapp-scsc-solidity/contracts/XyPayonDelivery.sol",
  "compiler": {
    "name": "solc",
    "version": "0.5.4+commit.9549d8ff.Emscripten.clang"
  },
  "schemaVersion": "3.0.1",
  "updatedAt": "2019-03-26T23:13:24.254Z",
  "devdoc": {
    "details": "Will escrow funds until an item is marked as delivered .",
    "methods": {
      "requestPayOnDelivery(bytes32,uint256,uint256,uint256,address)": {
        "details": "Called by PonD client.  API for client to request an intersection question",
        "params": {
          "beneficiary": "The destination address of the funds.",
          "requestId": "- the hash of the request (first 2 bytes stripped)",
          "weiPayOnDelivery": "- the amount of eth to pay on delivery",
          "xyoBounty": "- the xyo bounty for the request (approve scsc for this amount)",
          "xyoPayOnDelivery": "- the amount of XYO to pay on delivery"
        }
      },
      "submitResponse(bytes32,uint8,bytes)": {
        "details": "Called by SCSC. If intersection, transfer pay on delivery to beneficiary, delete request",
        "params": {
          "requestId": "- the hash of the request (first 2 bytes stripped)",
          "responseData": "Response data from scsc"
        }
      }
    },
    "title": "A Payment on delivery contract"
  },
  "userdoc": {
    "methods": {
      "numRequests()": {
        "notice": "Public array length getters "
      }
    }
  }
}