{
  "contractName": "XyStakingModel",
  "abi": [
    {
      "constant": true,
      "inputs": [
        {
          "name": "",
          "type": "address"
        },
        {
          "name": "",
          "type": "uint256"
        }
      ],
      "name": "stakeeToStakingIds",
      "outputs": [
        {
          "name": "",
          "type": "bytes32"
        }
      ],
      "payable": false,
      "stateMutability": "view",
      "type": "function"
    },
    {
      "constant": true,
      "inputs": [],
      "name": "xyoToken",
      "outputs": [
        {
          "name": "",
          "type": "address"
        }
      ],
      "payable": false,
      "stateMutability": "view",
      "type": "function"
    },
    {
      "constant": true,
      "inputs": [],
      "name": "totalActiveStake",
      "outputs": [
        {
          "name": "",
          "type": "uint256"
        }
      ],
      "payable": false,
      "stateMutability": "view",
      "type": "function"
    },
    {
      "constant": true,
      "inputs": [],
      "name": "govContract",
      "outputs": [
        {
          "name": "",
          "type": "address"
        }
      ],
      "payable": false,
      "stateMutability": "view",
      "type": "function"
    },
    {
      "constant": true,
      "inputs": [
        {
          "name": "",
          "type": "address"
        }
      ],
      "name": "stakerStake",
      "outputs": [
        {
          "name": "totalStake",
          "type": "uint256"
        },
        {
          "name": "activeStake",
          "type": "uint256"
        },
        {
          "name": "cooldownStake",
          "type": "uint256"
        },
        {
          "name": "totalUnstake",
          "type": "uint256"
        }
      ],
      "payable": false,
      "stateMutability": "view",
      "type": "function"
    },
    {
      "constant": true,
      "inputs": [
        {
          "name": "",
          "type": "bytes32"
        }
      ],
      "name": "stakingStakerIndex",
      "outputs": [
        {
          "name": "",
          "type": "uint256"
        }
      ],
      "payable": false,
      "stateMutability": "view",
      "type": "function"
    },
    {
      "constant": true,
      "inputs": [
        {
          "name": "",
          "type": "bytes32"
        }
      ],
      "name": "stakeData",
      "outputs": [
        {
          "name": "amount",
          "type": "uint256"
        },
        {
          "name": "stakeBlock",
          "type": "uint256"
        },
        {
          "name": "unstakeBlock",
          "type": "uint256"
        },
        {
          "name": "stakee",
          "type": "address"
        },
        {
          "name": "staker",
          "type": "address"
        },
        {
          "name": "isActivated",
          "type": "bool"
        },
        {
          "name": "isCooledDown",
          "type": "bool"
        }
      ],
      "payable": false,
      "stateMutability": "view",
      "type": "function"
    },
    {
      "constant": true,
      "inputs": [],
      "name": "totalCooldownStake",
      "outputs": [
        {
          "name": "",
          "type": "uint256"
        }
      ],
      "payable": false,
      "stateMutability": "view",
      "type": "function"
    },
    {
      "constant": true,
      "inputs": [
        {
          "name": "",
          "type": "address"
        },
        {
          "name": "",
          "type": "uint256"
        }
      ],
      "name": "stakerToStakingIds",
      "outputs": [
        {
          "name": "",
          "type": "bytes32"
        }
      ],
      "payable": false,
      "stateMutability": "view",
      "type": "function"
    },
    {
      "constant": true,
      "inputs": [],
      "name": "blockProducerContract",
      "outputs": [
        {
          "name": "",
          "type": "address"
        }
      ],
      "payable": false,
      "stateMutability": "view",
      "type": "function"
    },
    {
      "constant": true,
      "inputs": [
        {
          "name": "",
          "type": "bytes32"
        }
      ],
      "name": "stakingStakeeIndex",
      "outputs": [
        {
          "name": "",
          "type": "uint256"
        }
      ],
      "payable": false,
      "stateMutability": "view",
      "type": "function"
    },
    {
      "constant": true,
      "inputs": [],
      "name": "penaltyStake",
      "outputs": [
        {
          "name": "",
          "type": "uint256"
        }
      ],
      "payable": false,
      "stateMutability": "view",
      "type": "function"
    },
    {
      "constant": true,
      "inputs": [
        {
          "name": "",
          "type": "address"
        }
      ],
      "name": "stakeeStake",
      "outputs": [
        {
          "name": "totalStake",
          "type": "uint256"
        },
        {
          "name": "activeStake",
          "type": "uint256"
        },
        {
          "name": "cooldownStake",
          "type": "uint256"
        },
        {
          "name": "totalUnstake",
          "type": "uint256"
        }
      ],
      "payable": false,
      "stateMutability": "view",
      "type": "function"
    },
    {
      "anonymous": false,
      "inputs": [
        {
          "indexed": false,
          "name": "stakingId",
          "type": "bytes32"
        },
        {
          "indexed": false,
          "name": "amount",
          "type": "uint256"
        },
        {
          "indexed": false,
          "name": "staker",
          "type": "address"
        },
        {
          "indexed": false,
          "name": "stakee",
          "type": "address"
        },
        {
          "indexed": false,
          "name": "transition",
          "type": "uint8"
        }
      ],
      "name": "StakeEvent",
      "type": "event"
    },
    {
      "constant": true,
      "inputs": [
        {
          "name": "actionType",
          "type": "uint8"
        }
      ],
      "name": "isUnstakeAction",
      "outputs": [
        {
          "name": "",
          "type": "bool"
        }
      ],
      "payable": false,
      "stateMutability": "pure",
      "type": "function"
    },
    {
      "constant": false,
      "inputs": [
        {
          "name": "stakee",
          "type": "address"
        },
        {
          "name": "startIndex",
          "type": "uint256"
        },
        {
          "name": "batchSize",
          "type": "uint256"
        }
      ],
      "name": "resolveGovernanceAction",
      "outputs": [],
      "payable": false,
      "stateMutability": "nonpayable",
      "type": "function"
    },
    {
      "constant": false,
      "inputs": [
        {
          "name": "stakee",
          "type": "address"
        },
        {
          "name": "amount",
          "type": "uint256"
        }
      ],
      "name": "stake",
      "outputs": [
        {
          "name": "",
          "type": "bytes32"
        }
      ],
      "payable": false,
      "stateMutability": "nonpayable",
      "type": "function"
    },
    {
      "constant": false,
      "inputs": [
        {
          "name": "stakingId",
          "type": "bytes32"
        }
      ],
      "name": "cooldownStake",
      "outputs": [],
      "payable": false,
      "stateMutability": "nonpayable",
      "type": "function"
    },
    {
      "constant": false,
      "inputs": [
        {
          "name": "stakingId",
          "type": "bytes32"
        }
      ],
      "name": "activateStake",
      "outputs": [],
      "payable": false,
      "stateMutability": "nonpayable",
      "type": "function"
    },
    {
      "constant": false,
      "inputs": [
        {
          "name": "stakingId",
          "type": "bytes32"
        }
      ],
      "name": "unstake",
      "outputs": [],
      "payable": false,
      "stateMutability": "nonpayable",
      "type": "function"
    },
    {
      "constant": false,
      "inputs": [
        {
          "name": "stakingId",
          "type": "bytes32"
        }
      ],
      "name": "withdrawStake",
      "outputs": [],
      "payable": false,
      "stateMutability": "nonpayable",
      "type": "function"
    },
    {
      "constant": false,
      "inputs": [
        {
          "name": "batchLimit",
          "type": "uint256"
        }
      ],
      "name": "withdrawManyStake",
      "outputs": [],
      "payable": false,
      "stateMutability": "nonpayable",
      "type": "function"
    },
    {
      "constant": true,
      "inputs": [
        {
          "name": "staker",
          "type": "address"
        }
      ],
      "name": "getAvailableStakerUnstake",
      "outputs": [
        {
          "name": "",
          "type": "uint256"
        }
      ],
      "payable": false,
      "stateMutability": "view",
      "type": "function"
    },
    {
      "constant": true,
      "inputs": [
        {
          "name": "stakee",
          "type": "address"
        }
      ],
      "name": "getAvailableStakeeUnstake",
      "outputs": [
        {
          "name": "",
          "type": "uint256"
        }
      ],
      "payable": false,
      "stateMutability": "view",
      "type": "function"
    },
    {
      "constant": true,
      "inputs": [
        {
          "name": "staker",
          "type": "address"
        }
      ],
      "name": "numStakerStakes",
      "outputs": [
        {
          "name": "",
          "type": "uint256"
        }
      ],
      "payable": false,
      "stateMutability": "view",
      "type": "function"
    },
    {
      "constant": true,
      "inputs": [
        {
          "name": "stakee",
          "type": "address"
        }
      ],
      "name": "numStakeeStakes",
      "outputs": [
        {
          "name": "",
          "type": "uint256"
        }
      ],
      "payable": false,
      "stateMutability": "view",
      "type": "function"
    },
    {
      "constant": true,
      "inputs": [
        {
          "name": "staker",
          "type": "address"
        }
      ],
      "name": "totalStakeAndUnstake",
      "outputs": [
        {
          "name": "",
          "type": "uint256"
        }
      ],
      "payable": false,
      "stateMutability": "view",
      "type": "function"
    },
    {
      "constant": true,
      "inputs": [],
      "name": "totalVotingStake",
      "outputs": [
        {
          "name": "",
          "type": "uint256"
        }
      ],
      "payable": false,
      "stateMutability": "view",
      "type": "function"
    }
  ],
  "bytecode": "0x608060405234801561001057600080fd5b506134a5806100206000396000f3fe608060405234801561001057600080fd5b50600436106101d6576000357c01000000000000000000000000000000000000000000000000000000009004806371ed5d1a11610116578063b4f5052b116100b4578063c2e4e2a91161008e578063c2e4e2a9146104f3578063e4f5425d14610519578063edf2165b1461053f578063fd36117b14610565576101d6565b8063b4f5052b146104b1578063b95ff689146104ce578063c1ae3cd2146104eb576101d6565b80638ccc3544116100f05780638ccc3544146104345780639170c1ab14610460578063adc9772e14610468578063b0c25dfc14610494576101d6565b806371ed5d1a146103bf5780637cd44a8a146103dc578063867c933214610402576101d6565b80634317d00b116101835780634fba18381161015d5780634fba1838146103115780635652c52f1461032e5780636762b2f1146103915780636bb28918146103b7576101d6565b80634317d00b146102cd57806345441d17146102d55780634ce0e438146102f4576101d6565b80632fa4d12b116101b45780632fa4d12b14610245578063360324861461024d57806338c226ac14610299576101d6565b80631242b194146101db57806314fa8a251461021957806328f731481461023d575b600080fd5b610207600480360360408110156101f157600080fd5b50600160a060020a03813516906020013561058b565b60408051918252519081900360200190f35b6102216105bb565b60408051600160a060020a039092168252519081900360200190f35b6102076105ca565b6102216105d0565b6102736004803603602081101561026357600080fd5b5035600160a060020a03166105df565b604080519485526020850193909352838301919091526060830152519081900360800190f35b6102b9600480360360208110156102af57600080fd5b503560ff16610606565b604080519115158252519081900360200190f35b610207610632565b6102f2600480360360208110156102eb57600080fd5b5035610651565b005b6102f26004803603602081101561030a57600080fd5b503561096a565b6102076004803603602081101561032757600080fd5b5035610c6f565b61034b6004803603602081101561034457600080fd5b5035610c81565b60408051978852602088019690965286860194909452600160a060020a03928316606087015291166080850152151560a0840152151560c0830152519081900360e00190f35b610207600480360360208110156103a757600080fd5b5035600160a060020a0316610cd3565b610207610e7f565b6102f2600480360360208110156103d557600080fd5b5035610e85565b610207600480360360208110156103f257600080fd5b5035600160a060020a031661123b565b6102f26004803603606081101561041857600080fd5b50600160a060020a03813516906020810135906040013561125e565b6102076004803603604081101561044a57600080fd5b50600160a060020a0381351690602001356115ff565b61022161161a565b6102076004803603604081101561047e57600080fd5b50600160a060020a038135169060200135611629565b6102f2600480360360208110156104aa57600080fd5b5035611a16565b610207600480360360208110156104c757600080fd5b5035611fb4565b6102f2600480360360208110156104e457600080fd5b5035611fc6565b610207612459565b6102076004803603602081101561050957600080fd5b5035600160a060020a031661245f565b6102076004803603602081101561052f57600080fd5b5035600160a060020a031661247a565b6102076004803603602081101561055557600080fd5b5035600160a060020a0316612495565b6102736004803603602081101561057b57600080fd5b5035600160a060020a0316612684565b6007602052816000526040600020818154811015156105a657fe5b90600052602060002001600091509150505481565b600054600160a060020a031681565b60035481565b600254600160a060020a031681565b600c6020526000908152604090208054600182015460028301546003909301549192909184565b60008082600281111561061557fe5b148061062c5750600282600281111561062a57fe5b145b92915050565b600061064b6003546004546126ab90919063ffffffff16565b90505b90565b6002546040805160008051602061345a8339815191528152602060048201819052600860248301527f787950617573656400000000000000000000000000000000000000000000000060448301529151600160a060020a039093169263693ec85e92606480840193919291829003018186803b1580156106d057600080fd5b505afa1580156106e4573d6000803e3d6000fd5b505050506040513d60208110156106fa57600080fd5b505115610751576040805160e560020a62461bcd02815260206004820152601160248201527f5374616b696e6720697320506175736564000000000000000000000000000000604482015290519081900360640190fd5b600061075c826126b8565b600481015490915060a860020a900460ff16156107c3576040805160e560020a62461bcd02815260206004820152601860248201527f63616e6e6f742072652d636f6f6c646f776e207374616b650000000000000000604482015290519081900360640190fd5b6001546003820154604080517ff6a3d24e000000000000000000000000000000000000000000000000000000008152600160a060020a0392831660048201529051919092169163f6a3d24e916024808301926020929190829003018186803b15801561082e57600080fd5b505afa158015610842573d6000803e3d6000fd5b505050506040513d602081101561085857600080fd5b5051156108af576040805160e560020a62461bcd02815260206004820152601f60248201527f4f6e6c79206e6f6e204250732063616e20626520636f6f6c656420646f776e00604482015290519081900360640190fd5b60048101805475ff000000000000000000000000000000000000000000191660a860020a179055805460038201546108f09190600160a060020a0316612888565b80546003820154604080518581526020810184905233918101829052600160a060020a03909216606083018190527f7ab7e8e11949eaafd5e2ea7bac9bba6e3beabc6a6615bd6757d10434e5afd2f49386939092919060029060808101825b60ff1681526020019550505050505060405180910390a15050565b6002546040805160008051602061345a8339815191528152602060048201819052600860248301527f787950617573656400000000000000000000000000000000000000000000000060448301529151600160a060020a039093169263693ec85e92606480840193919291829003018186803b1580156109e957600080fd5b505afa1580156109fd573d6000803e3d6000fd5b505050506040513d6020811015610a1357600080fd5b505115610a6a576040805160e560020a62461bcd02815260206004820152601160248201527f5374616b696e6720697320506175736564000000000000000000000000000000604482015290519081900360640190fd5b6000610a75826126b8565b600481015490915060a060020a900460ff1615610adc576040805160e560020a62461bcd02815260206004820152601860248201527f63616e6e6f742072652d6163746976617465207374616b650000000000000000604482015290519081900360640190fd5b6001546003820154604080517ff6a3d24e000000000000000000000000000000000000000000000000000000008152600160a060020a0392831660048201529051919092169163f6a3d24e916024808301926020929190829003018186803b158015610b4757600080fd5b505afa158015610b5b573d6000803e3d6000fd5b505050506040513d6020811015610b7157600080fd5b50511515600114610bcc576040805160e560020a62461bcd02815260206004820152601960248201527f4f6e6c79204250732063616e2062652061637469766174656400000000000000604482015290519081900360640190fd5b60048101805474ff0000000000000000000000000000000000000000191660a060020a17905580546003820154610c0c9190600160a060020a0316612921565b80546003820154604080518581526020810184905233918101829052600160a060020a03909216606083018190527f7ab7e8e11949eaafd5e2ea7bac9bba6e3beabc6a6615bd6757d10434e5afd2f493869390929190600190608081018261094f565b600a6020526000908152604090205481565b60066020526000908152604090208054600182015460028301546003840154600490940154929391929091600160a060020a03908116919081169060ff60a060020a820481169160a860020a90041687565b60008080610ce08461247a565b905060005b81811015610e7657610cf5613397565b600160a060020a03861660009081526008602052604081208054600692919085908110610d1e57fe5b600091825260208083209091015483528281019390935260409182018120825160e0810184528154815260018201549481019490945260028101549284018390526003810154600160a060020a039081166060860152600490910154908116608085015260ff60a060020a82048116151560a086015260a860020a90910416151560c0840152919250118015610e6057506002546040805160008051602061345a8339815191528152602060048201819052601160248301527f7879556e7374616b65436f6f6c646f776e000000000000000000000000000000604483015291514393600160a060020a03169263693ec85e9260648082019391829003018186803b158015610e2c57600080fd5b505afa158015610e40573d6000803e3d6000fd5b505050506040513d6020811015610e5657600080fd5b5051604083015101105b15610e6d57805193909301925b50600101610ce5565b50909392505050565b60045481565b6002546040805160008051602061345a8339815191528152602060048201819052600860248301527f787950617573656400000000000000000000000000000000000000000000000060448301529151600160a060020a039093169263693ec85e92606480840193919291829003018186803b158015610f0457600080fd5b505afa158015610f18573d6000803e3d6000fd5b505050506040513d6020811015610f2e57600080fd5b505115610f85576040805160e560020a62461bcd02815260206004820152601160248201527f5374616b696e6720697320506175736564000000000000000000000000000000604482015290519081900360640190fd5b60008181526006602052604090206004810154600160a060020a03163314610fe15760405160e560020a62461bcd0281526004018080602001828103825260238152602001806134376023913960400191505060405180910390fd5b6002546040805160008051602061345a8339815191528152602060048201819052600f60248301527f78795374616b65436f6f6c646f776e0000000000000000000000000000000000604483015291514393600160a060020a03169263693ec85e9260648082019391829003018186803b15801561105e57600080fd5b505afa158015611072573d6000803e3d6000fd5b505050506040513d602081101561108857600080fd5b5051600183015401106110e5576040805160e560020a62461bcd02815260206004820152601960248201527f5374616b696e67206e6565647320746f20636f6f6c646f776e00000000000000604482015290519081900360640190fd5b60028101541561113f576040805160e560020a62461bcd02815260206004820152601160248201527f43616e6e6f742072652d756e7374616b65000000000000000000000000000000604482015290519081900360640190fd5b6040805160e08101825282548152600183015460208201526002830154918101919091526003820154600160a060020a0390811660608301526004830154908116608083015260ff60a060020a82048116151560a084015260a860020a90910416151560c08201526111b0906129ba565b60048101805475ffff000000000000000000000000000000000000000019811690915543600283015581546003808401546040805187815260208101859052600160a060020a0395861691810182905294909116606085018190527f7ab7e8e11949eaafd5e2ea7bac9bba6e3beabc6a6615bd6757d10434e5afd2f49487949390608081018261094f565b600160a060020a03166000908152600c6020526040902080546003909101540190565b600254604080517fb776f569000000000000000000000000000000000000000000000000000000008152600160a060020a03868116600483015291516000938493849391169163b776f56991602480820192608092909190829003018186803b1580156112ca57600080fd5b505afa1580156112de573d6000803e3d6000fd5b505050506040513d60808110156112f457600080fd5b50602081015160408201516060909201519094509092509050600181151514611367576040805160e560020a62461bcd02815260206004820152601760248201527f616374696f6e206d757374206265206163636570746564000000000000000000604482015290519081900360640190fd5b600082600281111561137557fe5b141561138c5761138786868686612a6c565b611544565b600282600281111561139a57fe5b1415611431576113ad8686866000612a6c565b600154604080517f29092d0e000000000000000000000000000000000000000000000000000000008152600160a060020a038981166004830152915191909216916329092d0e91602480830192600092919082900301818387803b15801561141457600080fd5b505af1158015611428573d6000803e3d6000fd5b50505050611544565b600182600281111561143f57fe5b141561154457600154604080517f9ed93318000000000000000000000000000000000000000000000000000000008152600160a060020a03898116600483015291519190921691639ed9331891602480830192600092919082900301818387803b1580156114ac57600080fd5b505af11580156114c0573d6000803e3d6000fd5b5050600254604080517f8400657e000000000000000000000000000000000000000000000000000000008152600160a060020a038b811660048301529151919092169350638400657e9250602480830192600092919082900301818387803b15801561152b57600080fd5b505af115801561153f573d6000803e3d6000fd5b505050505b61154d82610606565b80156115725750600160a060020a0386166000908152600b6020526040902060010154155b156115f757600254604080517f8400657e000000000000000000000000000000000000000000000000000000008152600160a060020a03898116600483015291519190921691638400657e91602480830192600092919082900301818387803b1580156115de57600080fd5b505af11580156115f2573d6000803e3d6000fd5b505050505b505050505050565b6008602052816000526040600020818154811015156105a657fe5b600154600160a060020a031681565b6002546040805160008051602061345a8339815191528152602060048201819052600860248301527f787950617573656400000000000000000000000000000000000000000000000060448301529151600093600160a060020a03169263693ec85e9260648082019391829003018186803b1580156116a757600080fd5b505afa1580156116bb573d6000803e3d6000fd5b505050506040513d60208110156116d157600080fd5b505115611728576040805160e560020a62461bcd02815260206004820152601160248201527f5374616b696e6720697320506175736564000000000000000000000000000000604482015290519081900360640190fd5b600254604080517f4348f5cd000000000000000000000000000000000000000000000000000000008152600160a060020a03868116600483015291519190921691634348f5cd916024808301926020929190829003018186803b15801561178e57600080fd5b505afa1580156117a2573d6000803e3d6000fd5b505050506040513d60208110156117b857600080fd5b5051156117f95760405160e560020a62461bcd0281526004018080602001828103825260268152602001806134116026913960400191505060405180910390fd5b6118038284612c0d565b604080516c01000000000000000000000000600160a060020a03861681026020808401919091523391909102603483015243604880840191909152835180840390910181526068909201909252805191012061185d613397565b506040805160e0810182528481524360208083019182526000838501818152600160a060020a03808b1660608701818152336080890181815260a08a0187815260c08b01888152948852600789528b882080548e8a5260098b528d8a2081905560018181018355918a528a8a20018e905583895260088a528c892080548f8b52600a8c528e8b208190558083018255908a528a8a20018e90558d895260069099529a87208a518155985197890197909755935160028801555160038701805491841673ffffffffffffffffffffffffffffffffffffffff1992831617905594516004909601805498519151151560a860020a0275ff0000000000000000000000000000000000000000001992151560a060020a0274ff0000000000000000000000000000000000000000199885169a9097169990991796909616949094179390931695909517909255905491926119b992909116903087612c82565b60408051838152602081018690523381830152600160a060020a03871660608201526000608082015290517f7ab7e8e11949eaafd5e2ea7bac9bba6e3beabc6a6615bd6757d10434e5afd2f49181900360a00190a1509392505050565b6002546040805160008051602061345a8339815191528152602060048201819052600860248301527f787950617573656400000000000000000000000000000000000000000000000060448301529151600160a060020a039093169263693ec85e92606480840193919291829003018186803b158015611a9557600080fd5b505afa158015611aa9573d6000803e3d6000fd5b505050506040513d6020811015611abf57600080fd5b505115611b16576040805160e560020a62461bcd02815260206004820152601160248201527f5374616b696e6720697320506175736564000000000000000000000000000000604482015290519081900360640190fd5b6000611b213361247a565b90506000808311611b325781611b34565b825b90506000809050606082604051908082528060200260200182016040528015611b67578160200160208202803883390190505b5090506000805b8581108015611b7c57508481105b15611dde57611b89613397565b3360009081526008602052604081208054600692919085908110611ba957fe5b600091825260208083209091015483528281019390935260409182018120825160e0810184528154815260018201549481019490945260028101549284018390526003810154600160a060020a039081166060860152600490910154908116608085015260ff60a060020a82048116151560a086015260a860020a90910416151560c0840152919250118015611ceb57506002546040805160008051602061345a8339815191528152602060048201819052601160248301527f7879556e7374616b65436f6f6c646f776e000000000000000000000000000000604483015291514393600160a060020a03169263693ec85e9260648082019391829003018186803b158015611cb757600080fd5b505afa158015611ccb573d6000803e3d6000fd5b505050506040513d6020811015611ce157600080fd5b5051604083015101105b8015611d8b57506002546060820151604080517f4348f5cd000000000000000000000000000000000000000000000000000000008152600160a060020a03928316600482015290519190921691634348f5cd916024808301926020929190829003018186803b158015611d5d57600080fd5b505afa158015611d71573d6000803e3d6000fd5b505050506040513d6020811015611d8757600080fd5b5051155b15611dd557336000908152600860205260409020805483908110611dab57fe5b90600052602060002001548484815181101515611dc457fe5b602090810290910101526001909201915b50600101611b6e565b5060005b81811015611f9357611e0a8382815181101515611dfb57fe5b90602001906020020151612d71565b611e2a8382815181101515611e1b57fe5b90602001906020020151612e83565b611e32613397565b600660008584815181101515611e4457fe5b60209081029091018101518252818101929092526040908101600020815160e08101835281548082526001830154948201949094526002820154928101929092526003810154600160a060020a0390811660608401819052600490920154908116608084015260ff60a060020a82048116151560a085015260a860020a90910416151560c083015296820196909250611edd9190612f95565b7f7ab7e8e11949eaafd5e2ea7bac9bba6e3beabc6a6615bd6757d10434e5afd2f48483815181101515611f0c57fe5b9060200190602002015182600001518360800151846060015160046040518086815260200185815260200184600160a060020a0316600160a060020a0316815260200183600160a060020a0316600160a060020a03168152602001826004811115611f7357fe5b60ff1681526020019550505050505060405180910390a150600101611de2565b5060008311156115f7576000546115f790600160a060020a03163385613018565b60096020526000908152604090205481565b6002546040805160008051602061345a8339815191528152602060048201819052600860248301527f787950617573656400000000000000000000000000000000000000000000000060448301529151600160a060020a039093169263693ec85e92606480840193919291829003018186803b15801561204557600080fd5b505afa158015612059573d6000803e3d6000fd5b505050506040513d602081101561206f57600080fd5b5051156120c6576040805160e560020a62461bcd02815260206004820152601160248201527f5374616b696e6720697320506175736564000000000000000000000000000000604482015290519081900360640190fd5b6120ce613397565b50600081815260066020908152604091829020825160e08101845281548152600182015481840152600280830154828601526003830154600160a060020a0390811660608401819052600494850154808316608086015260ff60a060020a82048116151560a087015260a860020a90910416151560c0850152915486517f4348f5cd00000000000000000000000000000000000000000000000000000000815294850192909252945191941692634348f5cd9260248082019391829003018186803b15801561219c57600080fd5b505afa1580156121b0573d6000803e3d6000fd5b505050506040513d60208110156121c657600080fd5b5051156122075760405160e560020a62461bcd0281526004018080602001828103825260268152602001806134116026913960400191505060405180910390fd5b6080810151600160a060020a0316331461226b576040805160e560020a62461bcd02815260206004820152601760248201527f4f6e6c79206f776e65722063616e207769746864726177000000000000000000604482015290519081900360640190fd5b6000816040015111801561232b57506002546040805160008051602061345a8339815191528152602060048201819052601160248301527f7879556e7374616b65436f6f6c646f776e000000000000000000000000000000604483015291514393600160a060020a03169263693ec85e9260648082019391829003018186803b1580156122f757600080fd5b505afa15801561230b573d6000803e3d6000fd5b505050506040513d602081101561232157600080fd5b5051604083015101105b1515612381576040805160e560020a62461bcd02815260206004820152601660248201527f4e6f7420726561647920666f7220776974686472617700000000000000000000604482015290519081900360640190fd5b7f7ab7e8e11949eaafd5e2ea7bac9bba6e3beabc6a6615bd6757d10434e5afd2f48282600001518360800151846060015160046040518086815260200185815260200184600160a060020a0316600160a060020a0316815260200183600160a060020a0316600160a060020a0316815260200182600481111561240057fe5b60ff1681526020019550505050505060405180910390a161242082612d71565b61242982612e83565b61243b81600001518260600151612f95565b600054815161245591600160a060020a0316903390613018565b5050565b60055481565b600160a060020a031660009081526007602052604090205490565b600160a060020a031660009081526008602052604090205490565b600160a060020a038116600090815260076020908152604080832080548251818502810185019093528083526060938301828280156124f357602002820191906000526020600020905b8154815260200190600101908083116124df575b509394506000935083925050505b825181101561267c57612512613397565b60066000858481518110151561252457fe5b602090810290910181015182528181019290925260409081016000908120825160e0810184528154815260018201549481019490945260028101549284018390526003810154600160a060020a039081166060860152600490910154908116608085015260ff60a060020a82048116151560a086015260a860020a90910416151560c084015291925011801561266657506002546040805160008051602061345a8339815191528152602060048201819052601160248301527f7879556e7374616b65436f6f6c646f776e000000000000000000000000000000604483015291514393600160a060020a03169263693ec85e9260648082019391829003018186803b15801561263257600080fd5b505afa158015612646573d6000803e3d6000fd5b505050506040513d602081101561265c57600080fd5b5051604083015101105b1561267357805192909201915b50600101612501565b509392505050565b600b6020526000908152604090208054600182015460028301546003909301549192909184565b8181018281101561062c57fe5b60008181526006602052604081206004810154600160a060020a0316331461272a576040805160e560020a62461bcd02815260206004820152601c60248201527f4f6e6c7920746865207374616b65722063616e20616374697661746500000000604482015290519081900360640190fd5b6002546040805160008051602061345a8339815191528152602060048201819052600f60248301527f78795374616b65436f6f6c646f776e0000000000000000000000000000000000604483015291514393600160a060020a03169263693ec85e9260648082019391829003018186803b1580156127a757600080fd5b505afa1580156127bb573d6000803e3d6000fd5b505050506040513d60208110156127d157600080fd5b50516001830154011061282e576040805160e560020a62461bcd02815260206004820152601f60248201527f4e6f7420726561647920746f206163746976617465207374616b652079657400604482015290519081900360640190fd5b60028101541561062c576040805160e560020a62461bcd02815260206004820152601760248201527f43616e6e6f7420616374697661746520756e7374616b65000000000000000000604482015290519081900360640190fd5b600160a060020a0381166000908152600b60205260409020600201546128b4908363ffffffff6126ab16565b600160a060020a0382166000908152600b60209081526040808320600290810194909455338352600c909152902001546128f4908363ffffffff6126ab16565b336000908152600c602052604090206002015560045461291a908363ffffffff6126ab16565b6004555050565b600160a060020a0381166000908152600b602052604090206001015461294d908363ffffffff6126ab16565b600160a060020a0382166000908152600b60209081526040808320600190810194909455338352600c9091529020015461298d908363ffffffff6126ab16565b336000908152600c60205260409020600101556003546129b3908363ffffffff6126ab16565b6003555050565b6129c881826000015161310f565b80516060820151600160a060020a03166000908152600b60205260409020600301546129f99163ffffffff6126ab16565b6060820151600160a060020a039081166000908152600b60209081526040808320600390810195909555855160808701519094168352600c909152902090910154612a499163ffffffff6126ab16565b608090910151600160a060020a03166000908152600c6020526040902060030155565b825b838301811015612c0657600160a060020a0385166000908152600760205260408120805483908110612a9c57fe5b6000918252602080832090910154808352600690915260409091206002810154919250901515612bfc576000841115612b84576000612af96064612aed84600001548861331390919063ffffffff16565b9063ffffffff61333c16565b6040805160e08101825284548152600185015460208201526002850154918101919091526003840154600160a060020a0390811660608301526004850154908116608083015260ff60a060020a82048116151560a084015260a860020a90910416151560c0820152909150612b6e908261310f565b600554612b81908263ffffffff6126ab16565b50505b6040805160e08101825282548152600183015460208201526002830154918101919091526003820154600160a060020a0390811660608301526004830154908116608083015260ff60a060020a82048116151560a084015260a860020a90910416151560c0820152612bf5906129ba565b4360028201555b5050600101612a6e565b5050505050565b600160a060020a0381166000908152600b6020526040902054612c36908363ffffffff6126ab16565b600160a060020a0382166000908152600b6020908152604080832093909355338252600c90522054612c6e908363ffffffff6126ab16565b336000908152600c60205260409020555050565b604080517f23b872dd000000000000000000000000000000000000000000000000000000008152600160a060020a0385811660048301528481166024830152604482018490529151918616916323b872dd9160648082019260009290919082900301818387803b158015612cf557600080fd5b505af1158015612d09573d6000803e3d6000fd5b50505050612d15613351565b1515612d6b576040805160e560020a62461bcd02815260206004820152601160248201527f7472616e7366657246726f6d206661696c000000000000000000000000000000604482015290519081900360640190fd5b50505050565b6000818152600660209081526040808320600301546009835281842054600160a060020a039091168085526007909352908320805492939192600019810192919083908110612dbc57fe5b90600052602060002001549050806007600086600160a060020a0316600160a060020a0316815260200190815260200160002084815481101515612dfc57fe5b6000918252602080832090910192909255600160a060020a0386168152600790915260408120805484908110612e2e57fe5b6000918252602080832090910192909255600160a060020a0386168152600790915260409020805490612e659060001983016133d3565b50600094855260096020526040808620869055908552909320555050565b600081815260066020908152604080832060040154600a835281842054600160a060020a039091168085526008909352908320805492939192600019810192919083908110612ece57fe5b90600052602060002001549050806008600086600160a060020a0316600160a060020a0316815260200190815260200160002084815481101515612f0e57fe5b6000918252602080832090910192909255600160a060020a0386168152600890915260408120805484908110612f4057fe5b6000918252602080832090910192909255600160a060020a0386168152600890915260409020805490612f779060001983016133d3565b506000948552600a6020526040808620869055908552909320555050565b600160a060020a0381166000908152600b6020526040902060030154612fc1908363ffffffff61338516565b600160a060020a0382166000908152600b60209081526040808320600390810194909455338352600c90915290200154613001908363ffffffff61338516565b336000908152600c60205260409020600301555050565b82600160a060020a031663a9059cbb83836040518363ffffffff167c01000000000000000000000000000000000000000000000000000000000281526004018083600160a060020a0316600160a060020a0316815260200182815260200192505050600060405180830381600087803b15801561309457600080fd5b505af11580156130a8573d6000803e3d6000fd5b505050506130b4613351565b151561310a576040805160e560020a62461bcd02815260206004820152600d60248201527f7472616e73666572206661696c00000000000000000000000000000000000000604482015290519081900360640190fd5b505050565b6060820151600160a060020a03166000908152600b602052604090205461313c908263ffffffff61338516565b6060830151600160a060020a039081166000908152600b602090815260408083209490945560808601519092168152600c9091522054613182908263ffffffff61338516565b6080830151600160a060020a03166000908152600c602052604090205560a08201511561325b576060820151600160a060020a03166000908152600b60205260409020600101546131d9908263ffffffff61338516565b6060830151600160a060020a039081166000908152600b6020908152604080832060019081019590955560808701519093168252600c9052200154613224908263ffffffff61338516565b6080830151600160a060020a03166000908152600c6020526040902060010155600354613257908263ffffffff61338516565b6003555b8160c0015115612455576060820151600160a060020a03166000908152600b6020526040902060020154613295908263ffffffff61338516565b6060830151600160a060020a039081166000908152600b6020908152604080832060029081019590955560808701519093168252600c90522001546132e0908263ffffffff61338516565b6080830151600160a060020a03166000908152600c602052604090206002015560045461291a908263ffffffff61338516565b60008215156133245750600061062c565b5081810281838281151561333457fe5b041461062c57fe5b6000818381151561334957fe5b049392505050565b6000803d801561336857602081146133715761337d565b6001915061337d565b60206000803e60005191505b501515905090565b60008282111561339157fe5b50900390565b6040805160e081018252600080825260208201819052918101829052606081018290526080810182905260a0810182905260c081019190915290565b81548183558181111561310a5760008381526020902061310a91810190830161064e91905b8082111561340c57600081556001016133f8565b509056fe416c6c20616374696f6e73206f6e207374616b6565206d757374206265207265736f6c7665644f6e6c7920746865207374616b65722063616e20756e7374616b652061207374616b65693ec85e00000000000000000000000000000000000000000000000000000000a165627a7a72305820db45b1dd73d8ee74cc61e21041043e5d13116fe970448b5abf4eaf5c7b63e33d0029",
  "source": "pragma solidity >=0.5.0 <0.6.0;\n\nimport \"./XyBlockProducer.sol\";\nimport \"./token/ERC20/SafeERC20.sol\";\nimport \"./XyGovernance.sol\";\nimport \"./utils/SafeMath.sol\";\n\ncontract XyStakingModel is IXyVotingData {\n\n    using SafeMath for uint;\n    // SafeERC20 wrapped token contract for stake denomination\n    address public xyoToken;\n    // 721 contract that we reference for all things staked\n    XyBlockProducer public blockProducerContract;\n    // Contract that governs parameters and actions that affect staking\n    XyGovernance public govContract;\n    // Active stake is total block producer stake for consensus and voting\n    uint public totalActiveStake;\n    // Cooldown stake is total non-block producer stake for voting\n    uint public totalCooldownStake;\n    // The stake taken from holders due to penalizing actions\n    uint public penaltyStake;\n    // Mapping from staking model id to stake metadata     \n    mapping (bytes32 => Stake) public stakeData;\n    // The staking token id arrays by staker/stakee\n    mapping (address => bytes32[]) public stakeeToStakingIds;\n    mapping (address => bytes32[]) public stakerToStakingIds;\n    // holds staking token index into staking arrays by staker/stakee\n    mapping (bytes32 => uint) public stakingStakeeIndex;\n    mapping (bytes32 => uint) public stakingStakerIndex;\n    // Cached total stake amounts by staker/stakee\n    mapping (address => StakeAmounts) public stakeeStake;\n    mapping (address => StakeAmounts) public stakerStake;\n\n    // Stake data associated with all staking tokens\n    struct Stake {\n        uint amount;\n        uint stakeBlock;\n        uint unstakeBlock;\n        address stakee; \n        address staker;\n        bool isActivated;\n        bool isCooledDown;\n    } \n\n    // Cached Total/Active stake amounts\n    struct StakeAmounts {\n        uint totalStake;\n        uint activeStake;\n        uint cooldownStake;\n        uint totalUnstake;\n    }\n    \n    /** EVENTS */\n    enum StakeTransition { STAKED, ACTIVATED, COOLED, UNSTAKED, WITHDREW }\n    \n    event StakeEvent(\n        bytes32 stakingId,\n        uint amount,\n        address staker,\n        address stakee,\n        StakeTransition transition\n    );\n\n    /**\n    * @dev Throws if called by any account other than the owner.\n    */\n    modifier whenActive() {\n        require(govContract.get(\"xyPaused\") == 0, \"Staking is Paused\");\n        _;\n    }\n\n    /** Creates a Staking token contract \n        @param _token - The ERC20 token to stake with \n        @param _blockProducers - The block producer list\n        @param _governanceContract - The contract that governs the govContract and actions of the system\n    */\n    function init(\n        address _token,\n        address _blockProducers,\n        address _governanceContract\n    )\n        internal\n    {\n        xyoToken = _token;\n        blockProducerContract = XyBlockProducer(_blockProducers);\n        govContract = XyGovernance(_governanceContract);\n    }\n\n    /** Increase and decrease cached stake amounts */\n    function updateCacheOnStake(uint amount, address stakee) internal {\n        stakeeStake[stakee].totalStake = stakeeStake[stakee].totalStake.add(amount);\n        stakerStake[msg.sender].totalStake = stakerStake[msg.sender].totalStake.add(amount);\n    }\n    function updateCacheOnActivate(uint amount, address stakee) internal {\n        stakeeStake[stakee].activeStake = stakeeStake[stakee].activeStake.add(amount);\n        stakerStake[msg.sender].activeStake = stakerStake[msg.sender].activeStake.add(amount);\n        totalActiveStake = totalActiveStake.add(amount);\n    }\n    function updateCacheOnCoolDown(uint amount, address stakee) internal {\n        stakeeStake[stakee].cooldownStake = stakeeStake[stakee].cooldownStake.add(amount);\n        stakerStake[msg.sender].cooldownStake = stakerStake[msg.sender].cooldownStake.add(amount);\n        totalCooldownStake = totalCooldownStake.add(amount);\n    }\n    function updateCacheOnUnstake(Stake memory data) internal {\n        reduceStake(data, data.amount);\n        stakeeStake[data.stakee].totalUnstake = stakeeStake[data.stakee].totalUnstake.add(data.amount);\n        stakerStake[data.staker].totalUnstake = stakerStake[data.staker].totalUnstake.add(data.amount);\n    }\n    function updateCacheOnWithdraw(uint amount, address stakee) internal {\n        stakeeStake[stakee].totalUnstake = stakeeStake[stakee].totalUnstake.sub(amount);\n        stakerStake[msg.sender].totalUnstake = stakerStake[msg.sender].totalUnstake.sub(amount);\n    }\n\n    function reduceStake(Stake memory data, uint quantity) internal {\n        stakeeStake[data.stakee].totalStake = stakeeStake[data.stakee].totalStake.sub(quantity);\n        stakerStake[data.staker].totalStake = stakerStake[data.staker].totalStake.sub(quantity);\n        if (data.isActivated) {\n            stakeeStake[data.stakee].activeStake = stakeeStake[data.stakee].activeStake.sub(quantity);\n            stakerStake[data.staker].activeStake = stakerStake[data.staker].activeStake.sub(quantity);\n            totalActiveStake = totalActiveStake.sub(quantity);\n        }\n        if (data.isCooledDown) {\n            stakeeStake[data.stakee].cooldownStake = stakeeStake[data.stakee].cooldownStake.sub(quantity);\n            stakerStake[data.staker].cooldownStake = stakerStake[data.staker].cooldownStake.sub(quantity);\n            totalCooldownStake = totalCooldownStake.sub(quantity);\n        }\n    }\n\n    function _unstakeGovernanceAction(address stakee, uint startIndex, uint batchSize, uint penalty) private {\n        for (uint i = startIndex; i < batchSize + startIndex; i++) {\n            bytes32 token = stakeeToStakingIds[stakee][i];\n            Stake storage data = stakeData[token];\n            if (data.unstakeBlock == 0) {\n                if (penalty > 0) {\n                    uint penaltyAmount = penalty.mul(data.amount).div(100);\n                    reduceStake(data, penaltyAmount);\n                    penaltyStake.add(penaltyAmount);\n                }\n                updateCacheOnUnstake(data);\n                data.unstakeBlock = block.number;\n            }\n        }\n    }\n\n    function isUnstakeAction(XyGovernance.ActionType actionType) pure public returns (bool) {\n        return (actionType == XyGovernance.ActionType.UNSTAKE  || actionType == XyGovernance.ActionType.REMOVE_BP);\n    }\n\n    /** \n        Call this when it's time to resolve a passed governance action\n        @param stakee the staked item receiving action\n        @param startIndex if a batchable action, where to start\n        @param batchSize if batchable action, batchSize\n    */\n    function resolveGovernanceAction(address stakee, uint startIndex, uint batchSize) public {\n        (,uint penalty,XyGovernance.ActionType actionType,bool accepted) = govContract.actions(stakee);\n        require(accepted == true, \"action must be accepted\");\n        // unstake action\n        if (actionType == XyGovernance.ActionType.UNSTAKE) {\n            _unstakeGovernanceAction(stakee, startIndex, batchSize, penalty);\n        } else if (actionType == XyGovernance.ActionType.REMOVE_BP) {\n            // unstake all with no penalty\n            _unstakeGovernanceAction(stakee, startIndex, batchSize, 0);\n            // burn stakee 721\n            blockProducerContract.remove(stakee);\n        } else if (actionType == XyGovernance.ActionType.ADD_BP) {\n            blockProducerContract.create(stakee);\n            govContract.resolveAction(stakee);\n        } \n\n        if (isUnstakeAction(actionType) && stakeeStake[stakee].activeStake == 0) {\n            govContract.resolveAction(stakee);\n        }\n    }\n\n    /** \n        Adds stake to a stakable token id\n        @dev This contract must be approved to transfer tokens by token holder\n        @param stakee - the stakable address \n        @param amount - the amount to stake\n    */\n    function stake(address stakee, uint amount)\n        whenActive \n        public\n        returns (bytes32)\n    {\n        require(govContract.hasUnresolvedAction(stakee) == false, \"All actions on stakee must be resolved\");\n        updateCacheOnStake(amount, stakee);\n\n        // random generated token id\n        bytes32 newToken = keccak256(abi.encodePacked(stakee, msg.sender, block.number));\n        Stake memory data = Stake(\n            amount,         // amount\n            block.number,   // stakeBlock\n            0,              // unstakeBlock\n            stakee,         // stakee \n            msg.sender,     // staker\n            false,          // isActivated\n            false           // isCooledDown\n        );\n\n        // Store the staking data\n        stakingStakeeIndex[newToken] = stakeeToStakingIds[stakee].length;\n        stakeeToStakingIds[stakee].push(newToken);\n        stakingStakerIndex[newToken] = stakerToStakingIds[msg.sender].length;\n        stakerToStakingIds[msg.sender].push(newToken);\n        stakeData[newToken] = data;\n\n        // Escrow the ERC20\n        SafeERC20.transferFrom(xyoToken, msg.sender, address(this), amount);\n\n        emit StakeEvent(newToken, amount, msg.sender, stakee, StakeTransition.STAKED);\n        return newToken;\n    }\n    \n    function _requireStakeCooledDown(bytes32 stakingId)\n        private view\n        returns (Stake storage)\n    {\n        Stake storage data = stakeData[stakingId];\n        require(data.staker == msg.sender, \"Only the staker can activate\");\n        require(data.stakeBlock + govContract.get(\"xyStakeCooldown\") < block.number, \"Not ready to activate stake yet\");\n        require(data.unstakeBlock == 0, \"Cannot activate unstake\");\n\n        return data;\n    }\n\n    /**\n        @dev Mark stake as cooled down so we can cache totals for voting\n        @param stakingId - the tokenId of the staking token\n    */\n    function cooldownStake(bytes32 stakingId) \n        whenActive\n        public\n    {\n        Stake storage data = _requireStakeCooledDown(stakingId);\n        require(data.isCooledDown == false, \"cannot re-cooldown stake\");\n        require(blockProducerContract.exists(data.stakee) == false, \"Only non BPs can be cooled down\");\n        data.isCooledDown = true;\n        updateCacheOnCoolDown(data.amount, data.stakee);\n        emit StakeEvent(stakingId, data.amount, msg.sender, data.stakee, StakeTransition.COOLED);\n    }\n\n    /**\n        @dev Activate stake on a block producer\n        @param stakingId - the tokenId of the staking token\n    */\n    function activateStake(bytes32 stakingId) \n        whenActive\n        public \n    {\n        Stake storage data = _requireStakeCooledDown(stakingId);\n        require(data.isActivated == false, \"cannot re-activate stake\");\n        require(blockProducerContract.exists(data.stakee) == true, \"Only BPs can be activated\");\n        data.isActivated = true;\n        updateCacheOnActivate(data.amount, data.stakee);\n        emit StakeEvent(stakingId, data.amount, msg.sender, data.stakee, StakeTransition.ACTIVATED);\n    }\n\n    /** \n        unstake a specific previous stake \n        @param stakingId - the tokenId of the staking token\n    */\n    function unstake(bytes32 stakingId)\n        whenActive\n        public\n    {\n        Stake storage data = stakeData[stakingId];\n        require(data.staker == msg.sender, \"Only the staker can unstake a stake\");\n        require(data.stakeBlock + govContract.get(\"xyStakeCooldown\") < block.number, \"Staking needs to cooldown\");\n        require(data.unstakeBlock == 0, \"Cannot re-unstake\");\n        updateCacheOnUnstake(data);\n        data.isActivated = false;\n        data.isCooledDown = false;\n        data.unstakeBlock = block.number;\n        emit StakeEvent(stakingId, data.amount, data.staker, data.stakee, StakeTransition.UNSTAKED);\n    }\n\n    /** \n        Internally used to remove token and adjust state array with no iterating \n        @param stakingId - the stakingId to remove\n    */\n    function removeStakeeData(bytes32 stakingId) \n        internal \n    {\n        address stakee = stakeData[stakingId].stakee;\n\n        uint stakeeIndex = stakingStakeeIndex[stakingId];\n\n        uint lastStakeeIndex = stakeeToStakingIds[stakee].length - 1;\n        bytes32 lastStakeeId = stakeeToStakingIds[stakee][lastStakeeIndex];\n            \n        stakeeToStakingIds[stakee][stakeeIndex] = lastStakeeId;\n        stakeeToStakingIds[stakee][lastStakeeIndex] = 0;\n\n        stakeeToStakingIds[stakee].length--;\n        delete stakingStakeeIndex[stakingId];\n        stakingStakeeIndex[lastStakeeId] = stakeeIndex;\n    }\n\n    /** \n        Internally used to remove token and adjust state array with no iterating \n        @param stakingId - the stakingId to remove\n    */\n    function removeStakerData(bytes32 stakingId) \n        internal \n    {\n        address staker = stakeData[stakingId].staker;\n\n        uint stakerIndex = stakingStakerIndex[stakingId];\n\n        uint lastStakerIndex = stakerToStakingIds[staker].length - 1;\n        bytes32 lastStakerId = stakerToStakingIds[staker][lastStakerIndex];\n            \n        stakerToStakingIds[staker][stakerIndex] = lastStakerId;\n        stakerToStakingIds[staker][lastStakerIndex] = 0;\n\n        stakerToStakingIds[staker].length--;\n        delete stakingStakerIndex[stakingId];\n        stakingStakerIndex[lastStakerId] = stakerIndex;\n    }\n\n    /** \n        Withdraw a single token's stake by token id, removes staking token\n        @param stakingId - the tokenId of the staking token to remove\n    */\n    function withdrawStake(bytes32 stakingId)\n      whenActive\n      public \n    {\n        Stake memory data = stakeData[stakingId];\n        require(govContract.hasUnresolvedAction(data.stakee) == false, \"All actions on stakee must be resolved\");\n        require(data.staker == msg.sender, \"Only owner can withdraw\");\n        require(data.unstakeBlock > 0 && (data.unstakeBlock + govContract.get(\"xyUnstakeCooldown\")) < block.number, \"Not ready for withdraw\");\n        emit StakeEvent(stakingId, data.amount, data.staker, data.stakee, StakeTransition.WITHDREW);\n        removeStakeeData(stakingId);\n        removeStakerData(stakingId);\n        updateCacheOnWithdraw(data.amount, data.stakee);\n        SafeERC20.transfer(xyoToken, msg.sender, data.amount);\n    }\n\n    /** \n        Withdraw a batch of first avaliable staking tokens\n        @param batchLimit - Allows iterating over withdrawing due to gas limits\n        if batchlimit is 0, try withdrawing all available tokens (be prepared for out of gas if you've got > 50 tokens)\n    */\n    function withdrawManyStake(uint batchLimit)\n        whenActive\n        public\n    {\n        uint balance = numStakerStakes(msg.sender);\n        uint limit = batchLimit > 0 ? batchLimit : balance;\n        uint withdrawAmt = 0;\n        bytes32[] memory removeArr = new bytes32[](limit);\n        uint numremove = 0;\n        for (uint i = 0; i < balance && i < limit; i++) {\n            Stake memory data = stakeData[stakerToStakingIds[msg.sender][i]];\n\n            if (data.unstakeBlock > 0 && (data.unstakeBlock + govContract.get(\"xyUnstakeCooldown\")) < block.number && govContract.hasUnresolvedAction(data.stakee) == false) {\n                removeArr[numremove] = stakerToStakingIds[msg.sender][i];      \n                numremove++;\n            }      \n        }\n        for (uint b = 0; b < numremove; b++) {\n            removeStakeeData(removeArr[b]);\n            removeStakerData(removeArr[b]);\n            Stake memory data = stakeData[removeArr[b]];\n            withdrawAmt += data.amount;\n            updateCacheOnWithdraw(data.amount, data.stakee);\n            emit StakeEvent(removeArr[b], data.amount, data.staker, data.stakee, StakeTransition.WITHDREW);\n        }\n\n        if (withdrawAmt > 0) {\n            SafeERC20.transfer(xyoToken, msg.sender, withdrawAmt);\n        }\n    }\n\n    /** Get the available unstake, counting only stakes that can be withdrawn */    \n    function getAvailableStakerUnstake(address staker)\n        external\n        view\n        returns(uint)\n    {\n        uint stakeTotal = 0;\n        uint num = numStakerStakes(staker);\n        for (uint i = 0; i < num; i++) {\n            Stake memory data = stakeData[stakerToStakingIds[staker][i]];\n            if (data.unstakeBlock > 0 && (data.unstakeBlock + govContract.get(\"xyUnstakeCooldown\")) < block.number) {\n                stakeTotal += data.amount;\n            }\n        }\n        return stakeTotal;\n    }\n\n    /** Get the available unstake, counting only stakes that can be withdrawn */    \n    function getAvailableStakeeUnstake(address stakee)\n        external\n        view\n        returns(uint)\n    {\n        bytes32[] memory stakeList = stakeeToStakingIds[stakee];\n        uint stakeTotal = 0;\n        for (uint i = 0; i < stakeList.length; i++) {\n            Stake memory data = stakeData[stakeList[i]];\n            if (data.unstakeBlock > 0 && (data.unstakeBlock + govContract.get(\"xyUnstakeCooldown\")) < block.number) {\n                stakeTotal += data.amount;\n            }\n        }\n        return stakeTotal;\n    }\n\n    /** Public getters */\n    function numStakerStakes(address staker) public view returns (uint) {\n        return stakerToStakingIds[staker].length;\n    }\n    function numStakeeStakes(address stakee) public view returns (uint) {\n        return stakeeToStakingIds[stakee].length;\n    }\n    function totalStakeAndUnstake(address staker) public view returns (uint) {\n        return stakerStake[staker].totalUnstake + stakerStake[staker].totalStake;\n    }\n    function totalVotingStake() external view returns (uint) {\n        return totalCooldownStake.add(totalActiveStake);\n    }\n}",
  "sourcePath": "/Users/kevin/GitHub/dapp-scsc-solidity/contracts/XyStakingModel.sol",
  "compiler": {
    "name": "solc",
    "version": "0.5.4+commit.9549d8ff.Emscripten.clang"
  },
  "schemaVersion": "3.0.1",
  "updatedAt": "2019-03-26T23:13:24.413Z",
  "devdoc": {
    "methods": {
      "activateStake(bytes32)": {
        "details": "Activate stake on a block producer",
        "params": {
          "stakingId": "- the tokenId of the staking token"
        }
      },
      "cooldownStake(bytes32)": {
        "details": "Mark stake as cooled down so we can cache totals for voting",
        "params": {
          "stakingId": "- the tokenId of the staking token"
        }
      },
      "resolveGovernanceAction(address,uint256,uint256)": {
        "params": {
          "batchSize": "if batchable action, batchSize",
          "stakee": "the staked item receiving action",
          "startIndex": "if a batchable action, where to start"
        }
      },
      "stake(address,uint256)": {
        "details": "This contract must be approved to transfer tokens by token holder",
        "params": {
          "amount": "- the amount to stake",
          "stakee": "- the stakable address "
        }
      },
      "unstake(bytes32)": {
        "params": {
          "stakingId": "- the tokenId of the staking token"
        }
      },
      "withdrawManyStake(uint256)": {
        "params": {
          "batchLimit": "- Allows iterating over withdrawing due to gas limits if batchlimit is 0, try withdrawing all available tokens (be prepared for out of gas if you've got > 50 tokens)"
        }
      },
      "withdrawStake(bytes32)": {
        "params": {
          "stakingId": "- the tokenId of the staking token to remove"
        }
      }
    }
  },
  "userdoc": {
    "methods": {
      "getAvailableStakeeUnstake(address)": {
        "notice": "Get the available unstake, counting only stakes that can be withdrawn "
      },
      "getAvailableStakerUnstake(address)": {
        "notice": "Get the available unstake, counting only stakes that can be withdrawn "
      },
      "numStakerStakes(address)": {
        "notice": "Public getters "
      },
      "resolveGovernanceAction(address,uint256,uint256)": {
        "notice": "Call this when it's time to resolve a passed governance action"
      },
      "stake(address,uint256)": {
        "notice": "Adds stake to a stakable token id"
      },
      "unstake(bytes32)": {
        "notice": "unstake a specific previous stake "
      },
      "withdrawManyStake(uint256)": {
        "notice": "Withdraw a batch of first avaliable staking tokens"
      },
      "withdrawStake(bytes32)": {
        "notice": "Withdraw a single token's stake by token id, removes staking token"
      }
    }
  }
}