{
  "contractName": "BasicToken",
  "abi": [
    {
      "inputs": [
        {
          "name": "initialSupply",
          "type": "uint256"
        }
      ],
      "payable": false,
      "stateMutability": "nonpayable",
      "type": "constructor"
    },
    {
      "anonymous": false,
      "inputs": [
        {
          "indexed": true,
          "name": "from",
          "type": "address"
        },
        {
          "indexed": true,
          "name": "to",
          "type": "address"
        },
        {
          "indexed": false,
          "name": "value",
          "type": "uint256"
        }
      ],
      "name": "Transfer",
      "type": "event"
    },
    {
      "constant": true,
      "inputs": [],
      "name": "totalSupply",
      "outputs": [
        {
          "name": "",
          "type": "uint256"
        }
      ],
      "payable": false,
      "stateMutability": "view",
      "type": "function"
    },
    {
      "constant": false,
      "inputs": [
        {
          "name": "_to",
          "type": "address"
        },
        {
          "name": "_value",
          "type": "uint256"
        }
      ],
      "name": "transfer",
      "outputs": [
        {
          "name": "",
          "type": "bool"
        }
      ],
      "payable": false,
      "stateMutability": "nonpayable",
      "type": "function"
    },
    {
      "constant": true,
      "inputs": [
        {
          "name": "_owner",
          "type": "address"
        }
      ],
      "name": "balanceOf",
      "outputs": [
        {
          "name": "",
          "type": "uint256"
        }
      ],
      "payable": false,
      "stateMutability": "view",
      "type": "function"
    }
  ],
  "bytecode": "0x608060405234801561001057600080fd5b506040516020806102be83398101604090815290513360009081526020819052919091205561027a806100446000396000f3006080604052600436106100565763ffffffff7c010000000000000000000000000000000000000000000000000000000060003504166318160ddd811461005b57806370a0823114610082578063a9059cbb146100b0575b600080fd5b34801561006757600080fd5b506100706100f5565b60408051918252519081900360200190f35b34801561008e57600080fd5b5061007073ffffffffffffffffffffffffffffffffffffffff600435166100fb565b3480156100bc57600080fd5b506100e173ffffffffffffffffffffffffffffffffffffffff60043516602435610123565b604080519115158252519081900360200190f35b60015490565b73ffffffffffffffffffffffffffffffffffffffff1660009081526020819052604090205490565b3360009081526020819052604081205482111561013f57600080fd5b73ffffffffffffffffffffffffffffffffffffffff8316151561016157600080fd5b33600090815260208190526040902054610181908363ffffffff61022916565b336000908152602081905260408082209290925573ffffffffffffffffffffffffffffffffffffffff8516815220546101c0908363ffffffff61023b16565b73ffffffffffffffffffffffffffffffffffffffff8416600081815260208181526040918290209390935580518581529051919233927fddf252ad1be2c89b69c2b068fc378daa952ba7f163c4a11628f55a4df523b3ef9281900390910190a350600192915050565b60008282111561023557fe5b50900390565b8181018281101561024857fe5b929150505600a165627a7a7230582086551b6c6ea4731129d22a62924d7223a44bd12c2b101ddd7b2e0ab60e990be80029",
  "source": "pragma solidity >=0.5.0 <0.6.0;\n\n\nimport \"./ERC20Basic.sol\";\nimport \"./SafeMath.sol\";\n\n\n/**\n * @title Basic token\n * @dev Basic version of StandardToken, with no allowances.\n */\ncontract BasicToken is ERC20Basic {\n    using SafeMath for uint256;\n\n    constructor(uint initialSupply) public {\n        balances[msg.sender] = initialSupply;\n    }\n\n    mapping(address => uint256) internal balances;\n\n    uint256 internal totalSupply_;\n\n    /**\n    * @dev Total number of tokens in existence\n    */\n    function totalSupply() public view returns (uint256) {\n        return totalSupply_;\n    }\n\n    /**\n    * @dev Transfer token for a specified address\n    * @param _to The address to transfer to.\n    * @param _value The amount to be transferred.\n    */\n    function transfer(address _to, uint256 _value) public returns (bool) {\n        require(_value <= balances[msg.sender]);\n        require(_to != address(0));\n\n        balances[msg.sender] = balances[msg.sender].sub(_value);\n        balances[_to] = balances[_to].add(_value);\n        emit Transfer(msg.sender, _to, _value);\n        return true;\n    }\n\n    /**\n    * @dev Gets the balance of the specified address.\n    * @param _owner The address to query the the balance of.\n    * @return An uint256 representing the amount owned by the passed address.\n    */\n    function balanceOf(address _owner) public view returns (uint256) {\n        return balances[_owner];\n    }\n\n}\n",
  "sourcePath": "/Users/arietrouw/GitHub/dapp-scsc-solidity/contracts/BasicToken.sol",
  "compiler": {
    "name": "solc",
    "version": "0.4.24+commit.e67f0147.Emscripten.clang"
  },
  "schemaVersion": "2.0.1",
  "updatedAt": "2018-10-30T19:19:29.414Z"
}