{
  "contractName": "XyBond",
  "abi": [
    {
      "constant": false,
      "inputs": [
        {
          "name": "account",
          "type": "address"
        }
      ],
      "name": "addGovernor",
      "outputs": [],
      "payable": false,
      "stateMutability": "nonpayable",
      "type": "function"
    },
    {
      "constant": true,
      "inputs": [
        {
          "name": "",
          "type": "uint256"
        }
      ],
      "name": "bonds",
      "outputs": [
        {
          "name": "",
          "type": "bytes32"
        }
      ],
      "payable": false,
      "stateMutability": "view",
      "type": "function"
    },
    {
      "constant": true,
      "inputs": [],
      "name": "erc20",
      "outputs": [
        {
          "name": "",
          "type": "address"
        }
      ],
      "payable": false,
      "stateMutability": "view",
      "type": "function"
    },
    {
      "constant": true,
      "inputs": [
        {
          "name": "",
          "type": "address"
        },
        {
          "name": "",
          "type": "uint256"
        }
      ],
      "name": "ownerBonds",
      "outputs": [
        {
          "name": "",
          "type": "bytes32"
        }
      ],
      "payable": false,
      "stateMutability": "view",
      "type": "function"
    },
    {
      "constant": true,
      "inputs": [],
      "name": "governablePeriod",
      "outputs": [
        {
          "name": "",
          "type": "uint256"
        }
      ],
      "payable": false,
      "stateMutability": "view",
      "type": "function"
    },
    {
      "constant": true,
      "inputs": [
        {
          "name": "",
          "type": "bytes32"
        }
      ],
      "name": "bond",
      "outputs": [
        {
          "name": "value",
          "type": "uint256"
        },
        {
          "name": "expirationSec",
          "type": "uint256"
        },
        {
          "name": "creationSec",
          "type": "uint256"
        },
        {
          "name": "allocated",
          "type": "uint256"
        },
        {
          "name": "owner",
          "type": "address"
        },
        {
          "name": "interest",
          "type": "uint8"
        }
      ],
      "payable": false,
      "stateMutability": "view",
      "type": "function"
    },
    {
      "constant": true,
      "inputs": [],
      "name": "consensus",
      "outputs": [
        {
          "name": "",
          "type": "address"
        }
      ],
      "payable": false,
      "stateMutability": "view",
      "type": "function"
    },
    {
      "constant": true,
      "inputs": [
        {
          "name": "",
          "type": "bytes32"
        }
      ],
      "name": "stakeIdManager",
      "outputs": [
        {
          "name": "",
          "type": "address"
        }
      ],
      "payable": false,
      "stateMutability": "view",
      "type": "function"
    },
    {
      "constant": true,
      "inputs": [
        {
          "name": "",
          "type": "bytes32"
        }
      ],
      "name": "bondIndex",
      "outputs": [
        {
          "name": "",
          "type": "uint256"
        }
      ],
      "payable": false,
      "stateMutability": "view",
      "type": "function"
    },
    {
      "constant": false,
      "inputs": [],
      "name": "renounceGovernor",
      "outputs": [],
      "payable": false,
      "stateMutability": "nonpayable",
      "type": "function"
    },
    {
      "constant": true,
      "inputs": [
        {
          "name": "account",
          "type": "address"
        }
      ],
      "name": "isGovernor",
      "outputs": [
        {
          "name": "",
          "type": "bool"
        }
      ],
      "payable": false,
      "stateMutability": "view",
      "type": "function"
    },
    {
      "anonymous": false,
      "inputs": [
        {
          "indexed": false,
          "name": "bondId",
          "type": "bytes32"
        },
        {
          "indexed": false,
          "name": "beneficiary",
          "type": "address"
        },
        {
          "indexed": false,
          "name": "amount",
          "type": "uint256"
        },
        {
          "indexed": false,
          "name": "expiration",
          "type": "uint256"
        }
      ],
      "name": "BondDeposit",
      "type": "event"
    },
    {
      "anonymous": false,
      "inputs": [
        {
          "indexed": false,
          "name": "bondId",
          "type": "bytes32"
        },
        {
          "indexed": false,
          "name": "beneficiary",
          "type": "address"
        },
        {
          "indexed": false,
          "name": "amount",
          "type": "uint256"
        }
      ],
      "name": "BondWithdraw",
      "type": "event"
    },
    {
      "anonymous": false,
      "inputs": [
        {
          "indexed": false,
          "name": "bondId",
          "type": "bytes32"
        },
        {
          "indexed": false,
          "name": "sender",
          "type": "address"
        },
        {
          "indexed": false,
          "name": "beneficiary",
          "type": "address"
        },
        {
          "indexed": false,
          "name": "amount",
          "type": "uint256"
        }
      ],
      "name": "BondStake",
      "type": "event"
    },
    {
      "anonymous": false,
      "inputs": [
        {
          "indexed": false,
          "name": "bondId",
          "type": "bytes32"
        },
        {
          "indexed": false,
          "name": "sender",
          "type": "address"
        },
        {
          "indexed": false,
          "name": "stakingId",
          "type": "bytes32"
        },
        {
          "indexed": false,
          "name": "amount",
          "type": "uint256"
        }
      ],
      "name": "BondUnstake",
      "type": "event"
    },
    {
      "anonymous": false,
      "inputs": [
        {
          "indexed": true,
          "name": "account",
          "type": "address"
        }
      ],
      "name": "GovernorAdded",
      "type": "event"
    },
    {
      "anonymous": false,
      "inputs": [
        {
          "indexed": true,
          "name": "account",
          "type": "address"
        }
      ],
      "name": "GovernorRemoved",
      "type": "event"
    },
    {
      "constant": false,
      "inputs": [
        {
          "name": "_token",
          "type": "address"
        },
        {
          "name": "_consensusContract",
          "type": "address"
        },
        {
          "name": "_governablePeriod",
          "type": "uint256"
        }
      ],
      "name": "initialize",
      "outputs": [],
      "payable": false,
      "stateMutability": "nonpayable",
      "type": "function"
    },
    {
      "constant": false,
      "inputs": [
        {
          "name": "newPeriod",
          "type": "uint256"
        }
      ],
      "name": "setGovernablePeriod",
      "outputs": [],
      "payable": false,
      "stateMutability": "nonpayable",
      "type": "function"
    },
    {
      "constant": false,
      "inputs": [
        {
          "name": "xyoAmount",
          "type": "uint256"
        },
        {
          "name": "expirationDate",
          "type": "uint256"
        }
      ],
      "name": "createBond",
      "outputs": [
        {
          "name": "",
          "type": "bytes32"
        }
      ],
      "payable": false,
      "stateMutability": "nonpayable",
      "type": "function"
    },
    {
      "constant": false,
      "inputs": [
        {
          "name": "_spender",
          "type": "address"
        },
        {
          "name": "_value",
          "type": "uint256"
        },
        {
          "name": "_token",
          "type": "address"
        },
        {
          "name": "_extraData",
          "type": "bytes"
        }
      ],
      "name": "receiveApproval",
      "outputs": [],
      "payable": false,
      "stateMutability": "nonpayable",
      "type": "function"
    },
    {
      "constant": false,
      "inputs": [
        {
          "name": "bondId",
          "type": "bytes32"
        },
        {
          "name": "to",
          "type": "address"
        }
      ],
      "name": "withdrawTo",
      "outputs": [],
      "payable": false,
      "stateMutability": "nonpayable",
      "type": "function"
    },
    {
      "constant": false,
      "inputs": [
        {
          "name": "bondId",
          "type": "bytes32"
        },
        {
          "name": "beneficiary",
          "type": "address"
        },
        {
          "name": "stakees",
          "type": "address[]"
        },
        {
          "name": "amounts",
          "type": "uint256[]"
        }
      ],
      "name": "stake",
      "outputs": [],
      "payable": false,
      "stateMutability": "nonpayable",
      "type": "function"
    },
    {
      "constant": false,
      "inputs": [
        {
          "name": "bondId",
          "type": "bytes32"
        },
        {
          "name": "beneficiary",
          "type": "address"
        },
        {
          "name": "stakees",
          "type": "address[]"
        },
        {
          "name": "amounts",
          "type": "uint256[]"
        }
      ],
      "name": "sendEthAndStake",
      "outputs": [],
      "payable": true,
      "stateMutability": "payable",
      "type": "function"
    },
    {
      "constant": false,
      "inputs": [
        {
          "name": "bondId",
          "type": "bytes32"
        },
        {
          "name": "stakingId",
          "type": "bytes32"
        }
      ],
      "name": "unstake",
      "outputs": [],
      "payable": false,
      "stateMutability": "nonpayable",
      "type": "function"
    },
    {
      "constant": true,
      "inputs": [
        {
          "name": "bondId",
          "type": "bytes32"
        }
      ],
      "name": "isExpired",
      "outputs": [
        {
          "name": "",
          "type": "bool"
        }
      ],
      "payable": false,
      "stateMutability": "view",
      "type": "function"
    },
    {
      "constant": true,
      "inputs": [],
      "name": "numBonds",
      "outputs": [
        {
          "name": "",
          "type": "uint256"
        }
      ],
      "payable": false,
      "stateMutability": "view",
      "type": "function"
    },
    {
      "constant": true,
      "inputs": [
        {
          "name": "owner",
          "type": "address"
        }
      ],
      "name": "numOwnerBonds",
      "outputs": [
        {
          "name": "",
          "type": "uint256"
        }
      ],
      "payable": false,
      "stateMutability": "view",
      "type": "function"
    }
  ],
  "bytecode": "0x608060405234801561001057600080fd5b50611ec4806100206000396000f3fe608060405260043610610172576000357c01000000000000000000000000000000000000000000000000000000009004806386015ff7116100d8578063b7a8b5111161009c578063dcf3994511610076578063dcf39945146106aa578063e026049c146107e6578063e43581b8146107fb57610172565b8063b7a8b5111461062c578063c3ab722314610656578063c472c4e01461068057610172565b806386015ff7146104cd5780638862eadb146104fd5780638b3ee973146105125780638ef3f7611461057b5780638f4ffcb11461059057610172565b80635f1c17c01161013a578063767e0e1011610114578063767e0e1014610433578063785e9e8614610463578063853394cf1461049457610172565b80635f1c17c0146102825780636db2feb2146102ac57806373194f02146102ea57610172565b80631794bb3c146101775780632e331e6a146101bc578063378088a6146101f55780633c4a25d01461023a578063586a80bf1461026d575b600080fd5b34801561018357600080fd5b506101ba6004803603606081101561019a57600080fd5b50600160a060020a0381358116916020810135909116906040013561082e565b005b3480156101c857600080fd5b506101ba600480360360408110156101df57600080fd5b5080359060200135600160a060020a031661091a565b34801561020157600080fd5b506102286004803603602081101561021857600080fd5b5035600160a060020a0316610b6c565b60408051918252519081900360200190f35b34801561024657600080fd5b506101ba6004803603602081101561025d57600080fd5b5035600160a060020a0316610b87565b34801561027957600080fd5b50610228610bf2565b34801561028e57600080fd5b50610228600480360360208110156102a557600080fd5b5035610bf8565b3480156102b857600080fd5b506102d6600480360360208110156102cf57600080fd5b5035610c17565b604080519115158252519081900360200190f35b3480156102f657600080fd5b506101ba6004803603608081101561030d57600080fd5b813591600160a060020a036020820135169181019060608101604082013564010000000081111561033d57600080fd5b82018360208201111561034f57600080fd5b8035906020019184602083028401116401000000008311171561037157600080fd5b91908080602002602001604051908101604052809392919081815260200183836020028082843760009201919091525092959493602081019350359150506401000000008111156103c157600080fd5b8201836020820111156103d357600080fd5b803590602001918460208302840111640100000000831117156103f557600080fd5b919080806020026020016040519081016040528093929190818152602001838360200280828437600092019190915250929550610c2e945050505050565b34801561043f57600080fd5b506101ba6004803603604081101561045657600080fd5b5080359060200135611088565b34801561046f57600080fd5b50610478611421565b60408051600160a060020a039092168252519081900360200190f35b3480156104a057600080fd5b50610228600480360360408110156104b757600080fd5b50600160a060020a038135169060200135611430565b3480156104d957600080fd5b50610228600480360360408110156104f057600080fd5b5080359060200135611460565b34801561050957600080fd5b50610228611474565b34801561051e57600080fd5b5061053c6004803603602081101561053557600080fd5b503561147a565b604080519687526020870195909552858501939093526060850191909152600160a060020a0316608084015260ff1660a0830152519081900360c00190f35b34801561058757600080fd5b506104786114cf565b34801561059c57600080fd5b506101ba600480360360808110156105b357600080fd5b600160a060020a0382358116926020810135926040820135909216918101906080810160608201356401000000008111156105ed57600080fd5b8201836020820111156105ff57600080fd5b8035906020019184600183028401116401000000008311171561062157600080fd5b5090925090506114de565b34801561063857600080fd5b506104786004803603602081101561064f57600080fd5b50356115cd565b34801561066257600080fd5b506101ba6004803603602081101561067957600080fd5b50356115e8565b34801561068c57600080fd5b50610228600480360360208110156106a357600080fd5b50356116a7565b6101ba600480360360808110156106c057600080fd5b813591600160a060020a03602082013516918101906060810160408201356401000000008111156106f057600080fd5b82018360208201111561070257600080fd5b8035906020019184602083028401116401000000008311171561072457600080fd5b919080806020026020016040519081016040528093929190818152602001838360200280828437600092019190915250929594936020810193503591505064010000000081111561077457600080fd5b82018360208201111561078657600080fd5b803590602001918460208302840111640100000000831117156107a857600080fd5b9190808060200260200160405190810160405280939291908181526020018383602002808284376000920191909152509295506116b9945050505050565b3480156107f257600080fd5b506101ba61170b565b34801561080757600080fd5b506102d66004803603602081101561081e57600080fd5b5035600160a060020a0316611716565b600154610100900460ff1680610847575061084761172e565b80610855575060015460ff16155b15156108955760405160e560020a62461bcd02815260040180806020018281038252602e815260200180611dfd602e913960400191505060405180910390fd5b6001805461010061ff00198216811760ff191683179092556034805473ffffffffffffffffffffffffffffffffffffffff19908116600160a060020a03888116919091179092556035805490911691861691909117905560368390550460ff166108fd611734565b600180549115156101000261ff0019909216919091179055505050565b6000828152603860205260408120805490918111610982576040805160e560020a62461bcd02815260206004820152601160248201527f426f6e6420686173206e6f2076616c7565000000000000000000000000000000604482015290519081900360640190fd5b6000825560048201546003830154600160a060020a03909116331490156109dd5760405160e560020a62461bcd028152600401808060200182810382526021815260200180611e786021913960400191505060405180910390fd5b8080610a4f57506040805160c0810182528454815260018501546020820152600285015491810191909152600384015460608201526004840154600160a060020a038116608083015274010000000000000000000000000000000000000000900460ff1660a0820152610a4f9061173d565b1515610aa5576040805160e560020a62461bcd02815260206004820181905260248201527f6f776e6572206f7220676f7665726e61626c652063616e207769746864726177604482015290519081900360640190fd5b8015610b065760018301544211610b06576040805160e560020a62461bcd02815260206004820152601460248201527f426f6e64206973207374696c6c20616374697665000000000000000000000000604482015290519081900360640190fd5b603454610b1d90600160a060020a0316858461177d565b60408051868152600160a060020a038616602082015280820184905290517fc15103656f6b64cd545b27cff5200a514f316fafe20fdbecfb7369781fcd14359181900360600190a15050505050565b600160a060020a03166000908152603a602052604090205490565b610b9033611716565b1515610be6576040805160e560020a62461bcd02815260206004820152601460248201527f4f6e6c7920476f7665726e6f7220416374696f6e000000000000000000000000604482015290519081900360640190fd5b610bef81611874565b50565b603b5490565b603b805482908110610c0657fe5b600091825260209091200154905081565b600090815260386020526040902060010154421190565b60008481526038602052604090206004810154600160a060020a031633148080610cbe57506040805160c0810182528354815260018401546020820152600284015491810191909152600383015460608201526004830154600160a060020a038116608083015274010000000000000000000000000000000000000000900460ff1660a0820152610cbe9061173d565b1515610d14576040805160e560020a62461bcd02815260206004820152601d60248201527f6f776e6572206f7220676f7665726e61626c652063616e207374616b65000000604482015290519081900360640190fd5b6000805b8451811015610d5357610d498582815181101515610d3257fe5b60209081029091010151839063ffffffff6118bc16565b9150600101610d18565b506003830154610d69908263ffffffff6118bc16565b6003840181905583541015610dc8576040805160e560020a62461bcd02815260206004820152601960248201527f496e73756666696369656e7420626f6e642062616c616e636500000000000000604482015290519081900360640190fd5b6060878787876040516020018085815260200184600160a060020a0316600160a060020a031681526020018060200180602001838103835285818151815260200191508051906020019060200280838360005b83811015610e33578181015183820152602001610e1b565b50505050905001838103825284818151815260200191508051906020019060200280838360005b83811015610e72578181015183820152602001610e5a565b50505050905001965050505050505060405160208183030381529060405290506060600482604051602001808360ff16815260200180602001828103825283818151815260200191508051906020019080838360005b83811015610ee0578181015183820152602001610ec8565b50505050905090810190601f168015610f0d5780820380516001836020036101000a031916815260200191505b5060408051601f19818403018152908290526034546035547fcae9ca51000000000000000000000000000000000000000000000000000000008452600160a060020a0390811660048501818152602486018d9052606060448701908152855160648801528551959b5092909316985063cae9ca51975095508a945088939192909160840190602085019080838360005b83811015610fb5578181015183820152602001610f9d565b50505050905090810190601f168015610fe25780820380516001836020036101000a031916815260200191505b50945050505050602060405180830381600087803b15801561100357600080fd5b505af1158015611017573d6000803e3d6000fd5b505050506040513d602081101561102d57600080fd5b5050604080518a8152336020820152600160a060020a038a16818301526060810185905290517f42e7044c4f07599463ab916896808dec08d53a4d63c09608065f9fa448d5ce829181900360800190a1505050505050505050565b603554604080517f1e23f2f9000000000000000000000000000000000000000000000000000000008152600481018490529051600092600160a060020a031691631e23f2f9916024808301926020929190829003018186803b1580156110ed57600080fd5b505afa158015611101573d6000803e3d6000fd5b505050506040513d602081101561111757600080fd5b5051603554604080517f5652c52f000000000000000000000000000000000000000000000000000000008152600481018690529051929350600092600160a060020a0390921691635652c52f9160248082019260e092909190829003018186803b15801561118457600080fd5b505afa158015611198573d6000803e3d6000fd5b505050506040513d60e08110156111ae57600080fd5b50519050818414611209576040805160e560020a62461bcd02815260206004820152601860248201527f5374616b65206e6565647320746f20626520626f6e6465640000000000000000604482015290519081900360640190fd5b60008481526038602052604090206004810154600160a060020a031633148061129857506040805160c0810182528254815260018301546020820152600283015491810191909152600382015460608201526004820154600160a060020a038116608083015274010000000000000000000000000000000000000000900460ff1660a08201526112989061173d565b15156112ee576040805160e560020a62461bcd02815260206004820152601f60248201527f6f776e6572206f7220676f7665726e61626c652063616e20756e7374616b6500604482015290519081900360640190fd5b60038101548211156113345760405160e560020a62461bcd028152600401808060200182810382526023815260200180611dda6023913960400191505060405180910390fd5b6003810154611349908363ffffffff6118c916565b6003820155603554604080517fd78b37ed00000000000000000000000000000000000000000000000000000000815260048101889052602481018790529051600160a060020a039092169163d78b37ed9160448082019260009290919082900301818387803b1580156113bb57600080fd5b505af11580156113cf573d6000803e3d6000fd5b5050604080518881523360208201528082018890526060810186905290517f687f705929669882a184d4123148de163cc23c02682e756263a0259955ea3e789350908190036080019150a15050505050565b603454600160a060020a031681565b603a6020528160005260406000208181548110151561144b57fe5b90600052602060002001600091509150505481565b600061146d3384846118db565b9392505050565b60365481565b6038602052600090815260409020805460018201546002830154600384015460049094015492939192909190600160a060020a0381169074010000000000000000000000000000000000000000900460ff1686565b603554600160a060020a031681565b603454600160a060020a03848116911614611543576040805160e560020a62461bcd02815260206004820152601b60248201527f43616c6c2066726f6d207468652063757272656e7420746f6b656e0000000000604482015290519081900360640190fd5b33600160a060020a038416146115a3576040805160e560020a62461bcd02815260206004820152601060248201527f53656e646572206e6f7420746f6b656e00000000000000000000000000000000604482015290519081900360640190fd5b6000828260208110156115b557600080fd5b503590506115c48686836118db565b50505050505050565b603760205260009081526040902054600160a060020a031681565b6115f133611716565b1515611647576040805160e560020a62461bcd02815260206004820152601460248201527f4f6e6c7920476f7665726e6f7220416374696f6e000000000000000000000000604482015290519081900360640190fd5b6301e1338081106116a2576040805160e560020a62461bcd02815260206004820152601c60248201527f4f76657220676f7665726e61626c6520706572696f64206c696d697400000000604482015290519081900360640190fd5b603655565b60396020526000908152604090205481565b60003411156116f957604051600160a060020a038416903480156108fc02916000818181858888f193505050501580156116f7573d6000803e3d6000fd5b505b61170584848484610c2e565b50505050565b61171433611b60565b565b6000611728818363ffffffff611ba816565b92915050565b303b1590565b61171433611874565b60008061174933611716565b9050600061176660365485604001516118bc90919063ffffffff16565b42111590508180156117755750805b949350505050565b82600160a060020a031663a9059cbb83836040518363ffffffff167c01000000000000000000000000000000000000000000000000000000000281526004018083600160a060020a0316600160a060020a0316815260200182815260200192505050600060405180830381600087803b1580156117f957600080fd5b505af115801561180d573d6000803e3d6000fd5b50505050611819611bdf565b151561186f576040805160e560020a62461bcd02815260206004820152600d60248201527f7472616e73666572206661696c00000000000000000000000000000000000000604482015290519081900360640190fd5b505050565b61188560008263ffffffff611c1316565b604051600160a060020a038216907fdc5a48d79e2e147530ff63ecdbed5a5a66adb9d5cf339384d5d076da197c40b590600090a250565b8181018281101561172857fe5b6000828211156118d557fe5b50900390565b60006118f142633864090063ffffffff6118bc16565b82106119315760405160e560020a62461bcd028152600401808060200182810382526021815260200180611e2b6021913960400191505060405180910390fd5b611944426202a30063ffffffff6118bc16565b82116119845760405160e560020a62461bcd02815260040180806020018281038252602c815260200180611e4c602c913960400191505060405180910390fd5b60408051600160a060020a03861660208083019190915281830186905260608201859052436080808401919091528351808403909101815260a090920190925280519101206119d1611d96565b506040805160c081018252858152602080820186815242838501908152600060608501818152600160a060020a03808d166080880181815260a08901858152603b80548d885260398b528c88205560388a528b87208b51815598516001808b0191909155975160028a015594516003890155905160049097018054915160ff16740100000000000000000000000000000000000000000274ff00000000000000000000000000000000000000001998851673ffffffffffffffffffffffffffffffffffffffff19909316929092179790971617909555938252603a85529581208054808401825590825293812090930186905584549081018555939091527fbbe3212124853f8b0084a66a2d057c2966e251e132af3691db153ab65f0d1a4d9092018390556034549091611b089116873088611c61565b60408051838152600160a060020a03881660208201528082018790526060810186905290517f3db8638351f2d0f91f71603c1096c8170b9c1af65d6d548492a3857ba71fd6f99181900360800190a150949350505050565b611b7160008263ffffffff611d4a16565b604051600160a060020a038216907f1ebe834e73d60a5fec822c1e1727d34bc79f2ad977ed504581cc1822fe20fb5b90600090a250565b6000600160a060020a0382161515611bbf57600080fd5b50600160a060020a03166000908152602091909152604090205460ff1690565b6000803d8015611bf65760208114611bff57611c0b565b60019150611c0b565b60206000803e60005191505b501515905090565b600160a060020a0381161515611c2857600080fd5b611c328282611ba8565b15611c3c57600080fd5b600160a060020a0316600090815260209190915260409020805460ff19166001179055565b604080517f23b872dd000000000000000000000000000000000000000000000000000000008152600160a060020a0385811660048301528481166024830152604482018490529151918616916323b872dd9160648082019260009290919082900301818387803b158015611cd457600080fd5b505af1158015611ce8573d6000803e3d6000fd5b50505050611cf4611bdf565b1515611705576040805160e560020a62461bcd02815260206004820152601160248201527f7472616e7366657246726f6d206661696c000000000000000000000000000000604482015290519081900360640190fd5b600160a060020a0381161515611d5f57600080fd5b611d698282611ba8565b1515611d7457600080fd5b600160a060020a0316600090815260209190915260409020805460ff19169055565b60c060405190810160405280600081526020016000815260200160008152602001600081526020016000600160a060020a03168152602001600060ff168152509056fe43616e6e6f7420756e7374616b65206f76657220626f6e6420616c6c6f636174696f6e436f6e747261637420696e7374616e63652068617320616c7265616479206265656e20696e697469616c697a6564457870697279206d757374206265206c657373207468616e203330207965617273457870697279206d757374206265206174206c656173742032206461797320696e2074686520667574757265426f6e64206d7573742068617665206e6f20616c6c6f6361746564207374616b65a165627a7a723058207926f40561dea302c74fa8b8b65fc9bf269125a67c607cd4417f4803e216b5ee0029",
  "source": "pragma solidity >=0.5.0 <0.6.0;\n\nimport \"./XyStakingConsensus.sol\";\nimport \"../utils/SafeMath.sol\";\nimport \"../token/ERC20/SafeERC20.sol\";\nimport \"../token/ERC20/IXYOERC20.sol\";\nimport \"../utils/Initializable.sol\";\nimport \"../access/GovernorRole.sol\";\n\ncontract XyBond is GovernorRole, Initializable {\n    using SafeMath for uint;\n\n    address public erc20;\n    address public consensus;\n    uint public governablePeriod; // seconds after bond creation it's governable\n    mapping (bytes32 => address) public stakeIdManager;\n\n    event BondDeposit(bytes32 bondId, address beneficiary, uint amount, uint expiration);\n    event BondWithdraw(bytes32 bondId, address beneficiary, uint amount);\n    event BondStake(bytes32 bondId, address sender, address beneficiary, uint amount);\n    event BondUnstake(bytes32 bondId, address sender, bytes32 stakingId, uint amount);\n\n    struct Bond {\n        uint value;             // amount staked\n        uint expirationSec;     // expiration date in seconds\n        uint creationSec;       // creation date in seconds\n        uint allocated;         // number allocated to node stake\n        address owner;          // who owns the stake\n        uint8 interest;         // possibly add interest or relationship here\n    }\n\n    mapping (bytes32 => Bond) public bond;\n    mapping (bytes32 => uint) public bondIndex;\n    mapping (address => bytes32[]) public ownerBonds;\n    bytes32[] public bonds;\n\n    function initialize (\n        address _token,\n        address _consensusContract,\n        uint _governablePeriod\n    )\n        initializer \n        public\n    {\n        erc20 = _token;\n        consensus = _consensusContract;\n        governablePeriod = _governablePeriod;\n        super.init();\n    }\n\n    function setGovernablePeriod(uint newPeriod) \n        public \n        onlyGovernor \n    {\n        // governable period must be less than a year\n        require (newPeriod < 31536000, \"Over governable period limit\");\n        governablePeriod = newPeriod;\n    }\n\n    /**\n        Must approve before deposit can transfer in token\n    */\n    function createBond (uint xyoAmount, uint expirationDate) \n        public \n        returns (bytes32)\n    {\n        return _createBond(msg.sender, xyoAmount, expirationDate);\n    }\n\n    function receiveApproval(\n        address _spender, \n        uint256 _value, \n        address _token,\n        bytes calldata _extraData\n    ) \n        external \n    {\n        require (_token == erc20, \"Call from the current token\");\n        require (msg.sender == _token, \"Sender not token\"); \n        (uint expireDate) = abi.decode(_extraData, (uint));\n\n        _createBond(_spender, _value, expireDate);\n    }\n\n    function _createBond (address to, uint xyoAmount, uint expirationDate) \n        private \n        returns (bytes32)\n    {\n        require (expirationDate < now.add(946080000), \"Expiry must be less than 30 years\");\n        require (expirationDate > now.add(172800), \"Expiry must be at least 2 days in the future\");\n        bytes32 bondId = keccak256(abi.encode(to, xyoAmount, expirationDate, block.number));\n        Bond memory ns = Bond(\n            xyoAmount,\n            expirationDate,\n            block.timestamp,\n            0,\n            to,\n            0\n        );\n        bondIndex[bondId] = bonds.length;\n        bond[bondId] = ns;\n        ownerBonds[to].push(bondId);\n        bonds.push(bondId);\n        \n        SafeERC20.transferFrom(erc20, to, address(this), xyoAmount);\n        emit BondDeposit(bondId, to, xyoAmount, expirationDate);\n        return bondId;\n    }\n\n    function withdrawTo (bytes32 bondId, address to) \n        public\n    {\n        Bond storage bs = bond[bondId];\n        uint withdrawAmount = bs.value;\n        require (withdrawAmount > 0, \"Bond has no value\");\n        bs.value = 0; // erase value of bond\n        bool isOwner = msg.sender == bs.owner;\n        require (bs.allocated == 0, \"Bond must have no allocated stake\");\n        require (isOwner || governable(bs), \"owner or governable can withdraw\");\n        if (isOwner) {\n            require (now > bs.expirationSec, \"Bond is still active\");\n        }\n        SafeERC20.transfer(erc20, to, withdrawAmount);\n\n        emit BondWithdraw(bondId, to, withdrawAmount);\n    }\n\n    function stake (bytes32 bondId, address payable beneficiary, address[] memory stakees, uint[] memory amounts)\n        public\n    {\n        Bond storage bs = bond[bondId];\n        bool isOwner = msg.sender == bs.owner;\n        require (isOwner || governable(bs), \"owner or governable can stake\");\n        \n        uint total = 0;\n        for (uint i = 0; i < amounts.length; i++) {\n            total = total.add(amounts[i]);\n        }\n        bs.allocated = bs.allocated.add(total);\n\n        require (bs.allocated <= bs.value, \"Insufficient bond balance\");\n\n        // stake stakees with amounts\n        bytes memory encoded = abi.encode(bondId, beneficiary, stakees, amounts);\n        bytes memory methodData = abi.encode(4, encoded);\n        \n        // stake bonded nodes\n        IXYOERC20(erc20).approveAndCall(consensus, total, methodData);\n\n        emit BondStake(bondId, msg.sender, beneficiary, total);\n    }\n\n    function sendEthAndStake(bytes32 bondId, address payable beneficiary, address[] memory stakees, uint[] memory amounts) \n        public\n        payable\n    {\n        if (msg.value > 0) {\n            beneficiary.transfer(msg.value);\n        }\n        stake(bondId, beneficiary, stakees, amounts);\n    }\n\n    function unstake (bytes32 bondId, bytes32 stakingId) \n        public  \n    {\n        bytes32 checkBondId = XyStakingConsensus(consensus).bondedStake(stakingId);\n        (uint amount,,,,,,) = XyStakingConsensus(consensus).stakeData(stakingId);\n        require(checkBondId == bondId, \"Stake needs to be bonded\");\n\n        Bond storage bs = bond[bondId];\n        require (msg.sender == bs.owner || governable(bs), \"owner or governable can unstake\");\n        \n        require(bs.allocated >= amount, \"Cannot unstake over bond allocation\");\n        bs.allocated = bs.allocated.sub(amount);\n\n        // will fail if already withdrew  \n        XyStakingConsensus(consensus).unstakeBonded(bondId, stakingId);\n\n        emit BondUnstake(bondId, msg.sender, stakingId, amount);\n    }\n\n    function isExpired(bytes32 bondId) \n        public \n        view \n        returns (bool)\n    {\n        return bond[bondId].expirationSec < now;\n    }\n\n    function governable(Bond memory bs) \n        private \n        view\n        returns (bool) \n    {\n        bool isGov = isGovernor(msg.sender);\n        bool govActive = now <= bs.creationSec.add(governablePeriod);\n        return isGov && govActive;\n    }\n\n    function numBonds() public view returns (uint) {\n        return bonds.length;\n    }\n\n    function numOwnerBonds(address owner) public view returns (uint) {\n        return ownerBonds[owner].length;\n    }\n}",
  "compiler": {
    "name": "solc",
    "version": "0.5.4+commit.9549d8ff.Emscripten.clang"
  },
  "schemaVersion": "3.0.6",
  "updatedAt": "2019-04-30T17:49:33.736Z",
  "devdoc": {
    "methods": {}
  },
  "userdoc": {
    "methods": {
      "deposit(uint256,uint256)": {
        "notice": "Must approve before deposit can transfer in token"
      },
      "createBond(uint256,uint256)": {
        "notice": "Must approve before deposit can transfer in token"
      }
    }
  }
}