{
  "contractName": "XyBond",
  "abi": [
    {
      "constant": false,
      "inputs": [
        {
          "name": "account",
          "type": "address"
        }
      ],
      "name": "addGovernor",
      "outputs": [],
      "payable": false,
      "stateMutability": "nonpayable",
      "type": "function"
    },
    {
      "constant": true,
      "inputs": [],
      "name": "staking",
      "outputs": [
        {
          "name": "",
          "type": "address"
        }
      ],
      "payable": false,
      "stateMutability": "view",
      "type": "function"
    },
    {
      "constant": true,
      "inputs": [
        {
          "name": "",
          "type": "uint256"
        }
      ],
      "name": "bonds",
      "outputs": [
        {
          "name": "",
          "type": "bytes32"
        }
      ],
      "payable": false,
      "stateMutability": "view",
      "type": "function"
    },
    {
      "constant": true,
      "inputs": [],
      "name": "erc20",
      "outputs": [
        {
          "name": "",
          "type": "address"
        }
      ],
      "payable": false,
      "stateMutability": "view",
      "type": "function"
    },
    {
      "constant": true,
      "inputs": [
        {
          "name": "",
          "type": "address"
        },
        {
          "name": "",
          "type": "uint256"
        }
      ],
      "name": "ownerBonds",
      "outputs": [
        {
          "name": "",
          "type": "bytes32"
        }
      ],
      "payable": false,
      "stateMutability": "view",
      "type": "function"
    },
    {
      "constant": true,
      "inputs": [],
      "name": "governablePeriod",
      "outputs": [
        {
          "name": "",
          "type": "uint256"
        }
      ],
      "payable": false,
      "stateMutability": "view",
      "type": "function"
    },
    {
      "constant": true,
      "inputs": [
        {
          "name": "",
          "type": "bytes32"
        }
      ],
      "name": "bond",
      "outputs": [
        {
          "name": "value",
          "type": "uint256"
        },
        {
          "name": "expirationSec",
          "type": "uint256"
        },
        {
          "name": "creationSec",
          "type": "uint256"
        },
        {
          "name": "allocated",
          "type": "uint256"
        },
        {
          "name": "owner",
          "type": "address"
        },
        {
          "name": "interest",
          "type": "uint8"
        }
      ],
      "payable": false,
      "stateMutability": "view",
      "type": "function"
    },
    {
      "constant": true,
      "inputs": [
        {
          "name": "",
          "type": "bytes32"
        }
      ],
      "name": "bondIndex",
      "outputs": [
        {
          "name": "",
          "type": "uint256"
        }
      ],
      "payable": false,
      "stateMutability": "view",
      "type": "function"
    },
    {
      "constant": false,
      "inputs": [],
      "name": "renounceGovernor",
      "outputs": [],
      "payable": false,
      "stateMutability": "nonpayable",
      "type": "function"
    },
    {
      "constant": true,
      "inputs": [
        {
          "name": "account",
          "type": "address"
        }
      ],
      "name": "isGovernor",
      "outputs": [
        {
          "name": "",
          "type": "bool"
        }
      ],
      "payable": false,
      "stateMutability": "view",
      "type": "function"
    },
    {
      "anonymous": false,
      "inputs": [
        {
          "indexed": false,
          "name": "bondId",
          "type": "bytes32"
        },
        {
          "indexed": false,
          "name": "beneficiary",
          "type": "address"
        },
        {
          "indexed": false,
          "name": "amount",
          "type": "uint256"
        },
        {
          "indexed": false,
          "name": "expiration",
          "type": "uint256"
        }
      ],
      "name": "BondDeposit",
      "type": "event"
    },
    {
      "anonymous": false,
      "inputs": [
        {
          "indexed": false,
          "name": "bondId",
          "type": "bytes32"
        },
        {
          "indexed": false,
          "name": "beneficiary",
          "type": "address"
        },
        {
          "indexed": false,
          "name": "amount",
          "type": "uint256"
        }
      ],
      "name": "BondWithdraw",
      "type": "event"
    },
    {
      "anonymous": false,
      "inputs": [
        {
          "indexed": false,
          "name": "bondId",
          "type": "bytes32"
        },
        {
          "indexed": false,
          "name": "sender",
          "type": "address"
        },
        {
          "indexed": false,
          "name": "beneficiary",
          "type": "address"
        },
        {
          "indexed": false,
          "name": "amount",
          "type": "uint256"
        }
      ],
      "name": "BondStake",
      "type": "event"
    },
    {
      "anonymous": false,
      "inputs": [
        {
          "indexed": false,
          "name": "bondId",
          "type": "bytes32"
        },
        {
          "indexed": false,
          "name": "sender",
          "type": "address"
        },
        {
          "indexed": false,
          "name": "stakingId",
          "type": "bytes32"
        },
        {
          "indexed": false,
          "name": "amount",
          "type": "uint256"
        }
      ],
      "name": "BondUnstake",
      "type": "event"
    },
    {
      "anonymous": false,
      "inputs": [
        {
          "indexed": false,
          "name": "sender",
          "type": "address"
        },
        {
          "indexed": false,
          "name": "beneficiary",
          "type": "address"
        },
        {
          "indexed": false,
          "name": "amount",
          "type": "uint256"
        }
      ],
      "name": "ReimburseBondEject",
      "type": "event"
    },
    {
      "anonymous": false,
      "inputs": [
        {
          "indexed": true,
          "name": "account",
          "type": "address"
        }
      ],
      "name": "GovernorAdded",
      "type": "event"
    },
    {
      "anonymous": false,
      "inputs": [
        {
          "indexed": true,
          "name": "account",
          "type": "address"
        }
      ],
      "name": "GovernorRemoved",
      "type": "event"
    },
    {
      "constant": false,
      "inputs": [
        {
          "name": "_token",
          "type": "address"
        },
        {
          "name": "_stakingContract",
          "type": "address"
        },
        {
          "name": "_governablePeriod",
          "type": "uint256"
        }
      ],
      "name": "initialize",
      "outputs": [],
      "payable": false,
      "stateMutability": "nonpayable",
      "type": "function"
    },
    {
      "constant": false,
      "inputs": [
        {
          "name": "newPeriod",
          "type": "uint256"
        }
      ],
      "name": "setGovernablePeriod",
      "outputs": [],
      "payable": false,
      "stateMutability": "nonpayable",
      "type": "function"
    },
    {
      "constant": false,
      "inputs": [
        {
          "name": "xyoAmount",
          "type": "uint256"
        },
        {
          "name": "expirationDate",
          "type": "uint256"
        }
      ],
      "name": "createBond",
      "outputs": [
        {
          "name": "",
          "type": "bytes32"
        }
      ],
      "payable": false,
      "stateMutability": "nonpayable",
      "type": "function"
    },
    {
      "constant": false,
      "inputs": [
        {
          "name": "_spender",
          "type": "address"
        },
        {
          "name": "_value",
          "type": "uint256"
        },
        {
          "name": "",
          "type": "address"
        },
        {
          "name": "_extraData",
          "type": "bytes"
        }
      ],
      "name": "receiveApproval",
      "outputs": [],
      "payable": false,
      "stateMutability": "nonpayable",
      "type": "function"
    },
    {
      "constant": false,
      "inputs": [
        {
          "name": "bondId",
          "type": "bytes32"
        },
        {
          "name": "beneficiary",
          "type": "address"
        },
        {
          "name": "stakees",
          "type": "address[]"
        },
        {
          "name": "amounts",
          "type": "uint256[]"
        }
      ],
      "name": "stake",
      "outputs": [],
      "payable": false,
      "stateMutability": "nonpayable",
      "type": "function"
    },
    {
      "constant": true,
      "inputs": [
        {
          "name": "bondId",
          "type": "bytes32"
        }
      ],
      "name": "isExpired",
      "outputs": [
        {
          "name": "",
          "type": "bool"
        }
      ],
      "payable": false,
      "stateMutability": "view",
      "type": "function"
    },
    {
      "constant": true,
      "inputs": [],
      "name": "numBonds",
      "outputs": [
        {
          "name": "",
          "type": "uint256"
        }
      ],
      "payable": false,
      "stateMutability": "view",
      "type": "function"
    },
    {
      "constant": true,
      "inputs": [
        {
          "name": "owner",
          "type": "address"
        }
      ],
      "name": "numOwnerBonds",
      "outputs": [
        {
          "name": "",
          "type": "uint256"
        }
      ],
      "payable": false,
      "stateMutability": "view",
      "type": "function"
    },
    {
      "constant": true,
      "inputs": [
        {
          "name": "beneficiary",
          "type": "address"
        }
      ],
      "name": "unallocatedBondStake",
      "outputs": [
        {
          "name": "",
          "type": "uint256"
        }
      ],
      "payable": false,
      "stateMutability": "view",
      "type": "function"
    },
    {
      "constant": false,
      "inputs": [
        {
          "name": "beneficiary",
          "type": "address"
        }
      ],
      "name": "reimburseUnallocatedBond",
      "outputs": [],
      "payable": false,
      "stateMutability": "nonpayable",
      "type": "function"
    },
    {
      "constant": false,
      "inputs": [
        {
          "name": "beneficiary",
          "type": "address"
        }
      ],
      "name": "reimburseAndEject",
      "outputs": [],
      "payable": false,
      "stateMutability": "nonpayable",
      "type": "function"
    }
  ],
  "bytecode": "0x608060405234801561001057600080fd5b506117f4806100206000396000f3fe608060405234801561001057600080fd5b5060043610610164576000357c01000000000000000000000000000000000000000000000000000000009004806373194f02116100e55780638b3ee973116100a9578063c472c4e011610083578063c472c4e01461058e578063e026049c146105ab578063e43581b8146105b357610164565b80638b3ee973146104865780638f4ffcb1146104e2578063c3ab72231461057157610164565b806373194f02146102eb578063785e9e8614610427578063853394cf1461042f57806386015ff71461045b5780638862eadb1461047e57610164565b80633c4a25d01161012c5780633c4a25d01461024b5780634cf088d914610271578063586a80bf146102955780635f1c17c01461029d5780636db2feb2146102ba57610164565b80631794bb3c14610169578063214e28ad146101a1578063330d67ff146101c7578063378088a6146101ed5780633786085d14610225575b600080fd5b61019f6004803603606081101561017f57600080fd5b50600160a060020a038135811691602081013590911690604001356105d9565b005b61019f600480360360208110156101b757600080fd5b5035600160a060020a03166106ca565b61019f600480360360208110156101dd57600080fd5b5035600160a060020a03166107c5565b6102136004803603602081101561020357600080fd5b5035600160a060020a0316610850565b60408051918252519081900360200190f35b6102136004803603602081101561023b57600080fd5b5035600160a060020a031661086b565b61019f6004803603602081101561026157600080fd5b5035600160a060020a03166108fc565b61027961096c565b60408051600160a060020a039092168252519081900360200190f35b61021361097b565b610213600480360360208110156102b357600080fd5b5035610981565b6102d7600480360360208110156102d057600080fd5b50356109a0565b604080519115158252519081900360200190f35b61019f6004803603608081101561030157600080fd5b813591600160a060020a036020820135169181019060608101604082013564010000000081111561033157600080fd5b82018360208201111561034357600080fd5b8035906020019184602083028401116401000000008311171561036557600080fd5b91908080602002602001604051908101604052809392919081815260200183836020028082843760009201919091525092959493602081019350359150506401000000008111156103b557600080fd5b8201836020820111156103c757600080fd5b803590602001918460208302840111640100000000831117156103e957600080fd5b9190808060200260200160405190810160405280939291908181526020018383602002808284376000920191909152509295506109b7945050505050565b610279610e1b565b6102136004803603604081101561044557600080fd5b50600160a060020a038135169060200135610e2a565b6102136004803603604081101561047157600080fd5b5080359060200135610e5a565b610213610e6f565b6104a36004803603602081101561049c57600080fd5b5035610e75565b604080519687526020870195909552858501939093526060850191909152600160a060020a0316608084015260ff1660a0830152519081900360c00190f35b61019f600480360360808110156104f857600080fd5b600160a060020a03823581169260208101359260408201359092169181019060808101606082013564010000000081111561053257600080fd5b82018360208201111561054457600080fd5b8035906020019184600183028401116401000000008311171561056657600080fd5b509092509050610eca565b61019f6004803603602081101561058757600080fd5b5035610f6e565b610213600480360360208110156105a457600080fd5b5035611037565b61019f611049565b6102d7600480360360208110156105c957600080fd5b5035600160a060020a0316611054565b600154610100900460ff16806105f257506105f261106c565b80610600575060015460ff16155b15156106455760405160008051602061172e833981519152815260040180806020018281038252602e81526020018061174e602e913960400191505060405180910390fd5b6001805461010061ff00198216811760ff191683179092556034805473ffffffffffffffffffffffffffffffffffffffff19908116600160a060020a03888116919091179092556035805490911691861691909117905560368390550460ff166106ad611072565b600180549115156101000261ff0019909216919091179055505050565b60006106d582610850565b90506000805b8281101561075657600160a060020a038416600090815260396020526040812080548390811061070757fe5b6000918252602080832090910154808352603790915260408220805491935091101561074c57600381015481546107439163ffffffff61107b16565b60008255909301925b50506001016106db565b5060008111156107c05760345461077790600160a060020a0316848361108d565b60408051338152600160a060020a038516602082015280820183905290517fd483890a207cafb2be400476c8c6d0af531e15af4deb4e4f83cf51afccc162069181900360600190a15b505050565b6107ce816106ca565b603554604080517f901d13e2000000000000000000000000000000000000000000000000000000008152600160a060020a0384811660048301529151919092169163901d13e291602480830192600092919082900301818387803b15801561083557600080fd5b505af1158015610849573d6000803e3d6000fd5b5050505050565b600160a060020a031660009081526039602052604090205490565b60008061087783610850565b90506000805b828110156108f457600160a060020a03851660009081526039602052604081208054839081106108a957fe5b600091825260208083209091015480835260379091526040822080549193509110156108ea57600381015481546108e59163ffffffff61107b16565b840193505b505060010161087d565b509392505050565b61090533611054565b1515610960576040805160008051602061172e833981519152815260206004820152601460248201527f4f6e6c7920476f7665726e6f7220416374696f6e000000000000000000000000604482015290519081900360640190fd5b61096981611184565b50565b603554600160a060020a031681565b603a5490565b603a80548290811061098f57fe5b600091825260209091200154905081565b600090815260376020526040902060010154421190565b60008481526037602052604090206004810154600160a060020a031633148080610a4757506040805160c0810182528354815260018401546020820152600284015491810191909152600383015460608201526004830154600160a060020a038116608083015274010000000000000000000000000000000000000000900460ff1660a0820152610a47906111cc565b1515610aa2576040805160008051602061172e833981519152815260206004820152601d60248201527f6f776e6572206f7220676f7665726e61626c652063616e207374616b65000000604482015290519081900360640190fd5b6000805b8451811015610ae157610ad78582815181101515610ac057fe5b60209081029091010151839063ffffffff61120c16565b9150600101610aa6565b506003830154610af7908263ffffffff61120c16565b6003840181905583541015610b5b576040805160008051602061172e833981519152815260206004820152601960248201527f496e73756666696369656e7420626f6e642062616c616e636500000000000000604482015290519081900360640190fd5b6060878787876040516020018085815260200184600160a060020a0316600160a060020a031681526020018060200180602001838103835285818151815260200191508051906020019060200280838360005b83811015610bc6578181015183820152602001610bae565b50505050905001838103825284818151815260200191508051906020019060200280838360005b83811015610c05578181015183820152602001610bed565b50505050905001965050505050505060405160208183030381529060405290506060600482604051602001808360ff16815260200180602001828103825283818151815260200191508051906020019080838360005b83811015610c73578181015183820152602001610c5b565b50505050905090810190601f168015610ca05780820380516001836020036101000a031916815260200191505b5060408051601f19818403018152908290526034546035547fcae9ca51000000000000000000000000000000000000000000000000000000008452600160a060020a0390811660048501818152602486018d9052606060448701908152855160648801528551959b5092909316985063cae9ca51975095508a945088939192909160840190602085019080838360005b83811015610d48578181015183820152602001610d30565b50505050905090810190601f168015610d755780820380516001836020036101000a031916815260200191505b50945050505050602060405180830381600087803b158015610d9657600080fd5b505af1158015610daa573d6000803e3d6000fd5b505050506040513d6020811015610dc057600080fd5b5050604080518a8152336020820152600160a060020a038a16818301526060810185905290517f42e7044c4f07599463ab916896808dec08d53a4d63c09608065f9fa448d5ce829181900360800190a1505050505050505050565b603454600160a060020a031681565b603960205281600052604060002081815481101515610e4557fe5b90600052602060002001600091509150505481565b6000610e6833338585611219565b9392505050565b60365481565b6037602052600090815260409020805460018201546002830154600384015460049094015492939192909190600160a060020a0381169074010000000000000000000000000000000000000000900460ff1686565b603454600160a060020a03163314610f31576040805160008051602061172e833981519152815260206004820152601b60248201527f43616c6c2066726f6d207468652063757272656e7420746f6b656e0000000000604482015290519081900360640190fd5b60008083836040811015610f4457600080fd5b50600160a060020a038135169250602001359050610f6487838884611219565b5050505050505050565b610f7733611054565b1515610fd2576040805160008051602061172e833981519152815260206004820152601460248201527f4f6e6c7920476f7665726e6f7220416374696f6e000000000000000000000000604482015290519081900360640190fd5b6301e133808110611032576040805160008051602061172e833981519152815260206004820152601560248201527f4d61782031207965617220676f7665726e61626c650000000000000000000000604482015290519081900360640190fd5b603655565b60386020526000908152604090205481565b611052336114a9565b565b6000611066818363ffffffff6114f116565b92915050565b303b1590565b61105233611184565b60008282111561108757fe5b50900390565b82600160a060020a031663a9059cbb83836040518363ffffffff167c01000000000000000000000000000000000000000000000000000000000281526004018083600160a060020a0316600160a060020a0316815260200182815260200192505050600060405180830381600087803b15801561110957600080fd5b505af115801561111d573d6000803e3d6000fd5b50505050611129611528565b15156107c0576040805160008051602061172e833981519152815260206004820152600d60248201527f7472616e73666572206661696c00000000000000000000000000000000000000604482015290519081900360640190fd5b61119560008263ffffffff61155c16565b604051600160a060020a038216907fdc5a48d79e2e147530ff63ecdbed5a5a66adb9d5cf339384d5d076da197c40b590600090a250565b6000806111d833611054565b905060006111f5603654856040015161120c90919063ffffffff16565b42111590508180156112045750805b949350505050565b8181018281101561106657fe5b600061122f42633864090063ffffffff61120c16565b82106112745760405160008051602061172e833981519152815260040180806020018281038252602181526020018061177c6021913960400191505060405180910390fd5b611287426202a30063ffffffff61120c16565b82116112cc5760405160008051602061172e833981519152815260040180806020018281038252602c81526020018061179d602c913960400191505060405180910390fd5b60408051600160a060020a03861660208083019190915281830186905260608201859052436080808401919091528351808403909101815260a090920190925280519101206113196116ea565b506040805160c081018252858152602080820186815242838501908152600060608501818152600160a060020a03808d166080880181815260a08901858152603a80548d885260388b528c88205560378a528b87208b51815598516001808b0191909155975160028a015594516003890155905160049097018054915160ff16740100000000000000000000000000000000000000000274ff00000000000000000000000000000000000000001998851673ffffffffffffffffffffffffffffffffffffffff19909316929092179790971617909555938252603985529581208054808401825590825293812090930186905584549081018555939091527fa2999d817b6757290b50e8ecf3fa939673403dd35c97de392fdb343b4015ce9e909201839055603454909161145091168830886115aa565b60408051838152600160a060020a03881660208201528082018790526060810186905290517f3db8638351f2d0f91f71603c1096c8170b9c1af65d6d548492a3857ba71fd6f99181900360800190a15095945050505050565b6114ba60008263ffffffff61169e16565b604051600160a060020a038216907f1ebe834e73d60a5fec822c1e1727d34bc79f2ad977ed504581cc1822fe20fb5b90600090a250565b6000600160a060020a038216151561150857600080fd5b50600160a060020a03166000908152602091909152604090205460ff1690565b6000803d801561153f576020811461154857611554565b60019150611554565b60206000803e60005191505b501515905090565b600160a060020a038116151561157157600080fd5b61157b82826114f1565b1561158557600080fd5b600160a060020a0316600090815260209190915260409020805460ff19166001179055565b604080517f23b872dd000000000000000000000000000000000000000000000000000000008152600160a060020a0385811660048301528481166024830152604482018490529151918616916323b872dd9160648082019260009290919082900301818387803b15801561161d57600080fd5b505af1158015611631573d6000803e3d6000fd5b5050505061163d611528565b1515611698576040805160008051602061172e833981519152815260206004820152601160248201527f7472616e7366657246726f6d206661696c000000000000000000000000000000604482015290519081900360640190fd5b50505050565b600160a060020a03811615156116b357600080fd5b6116bd82826114f1565b15156116c857600080fd5b600160a060020a0316600090815260209190915260409020805460ff19169055565b60c060405190810160405280600081526020016000815260200160008152602001600081526020016000600160a060020a03168152602001600060ff168152509056fe08c379a000000000000000000000000000000000000000000000000000000000436f6e747261637420696e7374616e63652068617320616c7265616479206265656e20696e697469616c697a6564457870697279206d757374206265206c657373207468616e203330207965617273457870697279206d757374206265206174206c656173742032206461797320696e2074686520667574757265a165627a7a7230582048760261c3e633122fe141b9c9cf47c868d3e11b0a14b2a1ff648e1ba30e53a90029",
  "source": "pragma solidity >=0.5.0 <0.6.0;\n\nimport \"./XyStakingConsensus.sol\";\nimport \"../utils/SafeMath.sol\";\nimport \"../token/ERC20/SafeERC20.sol\";\nimport \"../token/ERC20/IXYOERC20.sol\";\nimport \"../utils/Initializable.sol\";\nimport \"../access/GovernorRole.sol\";\n\ncontract XyBond is GovernorRole, Initializable {\n    using SafeMath for uint;\n\n    address public erc20;         // the token for staking\n    address public staking;       // node-staking contract\n    uint public governablePeriod; // seconds after bond creation it's governable\n\n    event BondDeposit(bytes32 bondId, address beneficiary, uint amount, uint expiration);\n    event BondWithdraw(bytes32 bondId, address beneficiary, uint amount);\n    event BondStake(bytes32 bondId, address sender, address beneficiary, uint amount);\n    event BondUnstake(bytes32 bondId, address sender, bytes32 stakingId, uint amount);\n\n    struct Bond {\n        uint value;             // amount staked\n        uint expirationSec;     // expiration date in seconds\n        uint creationSec;       // creation date in seconds\n        uint allocated;         // number allocated to node stake\n        address owner;          // who owns the stake\n        uint8 interest;         // possibly add interest or relationship here\n    }\n\n    mapping (bytes32 => Bond) public bond;              // bond id to bond data\n    mapping (bytes32 => uint) public bondIndex;         // bond id to bond index to owner bonds\n    mapping (address => bytes32[]) public ownerBonds;   // track ownership of bonds by id\n    bytes32[] public bonds;                             // list of bonds by id\n\n    event ReimburseBondEject(address sender, address beneficiary, uint amount);\n\n    /**\n        initializes upgradeable contract\n        @param _token the token to stake\n        @param _stakingContract the contract used for staking \n        @param _governablePeriod the period a governor can revoke bonded stake (chargeback avoidance)\n    */\n    function initialize (\n        address _token,\n        address _stakingContract,\n        uint _governablePeriod\n    )\n        initializer \n        public\n    {\n        erc20 = _token;\n        staking = _stakingContract;\n        governablePeriod = _governablePeriod;\n        super.init();\n    }\n\n    function setGovernablePeriod(uint newPeriod) \n        public \n        onlyGovernor \n    {\n        require (newPeriod < 31536000, \"Max 1 year governable\");\n        governablePeriod = newPeriod;\n    }\n\n    /**\n        Create a bonded (network stake)\n        Sender must approve before bond can be created\n        @param xyoAmount amount to bond\n        @param expirationDate date the bond expires\n    */\n    function createBond (uint xyoAmount, uint expirationDate) \n        public \n        returns (bytes32)\n    {\n        return _createBond(msg.sender, msg.sender, xyoAmount, expirationDate);\n    }\n\n    /**\n        Called from erc20 token that allows approval and calling function in a single call\n        @param _spender who approved the token\n        @param _value amount approved\n        @param _extraData contains expiration date\n    */\n    function receiveApproval(\n        address _spender, \n        uint256 _value, \n        address,\n        bytes calldata _extraData\n    ) \n        external \n    {\n        require (msg.sender == erc20, \"Call from the current token\");\n        (address beneficiary, uint expireDate) = abi.decode(_extraData, (address, uint));\n\n        _createBond(_spender, beneficiary, _value, expireDate);\n    }\n\n    /**\n        Creates a bond to 'to' for 'xyoAmount' until 'expirationDate'\n        @param to who receives bond\n        @param xyoAmount how much\n        @param expirationDate until when\n    */\n    function _createBond (address spender, address to, uint xyoAmount, uint expirationDate) \n        private \n        returns (bytes32)\n    {\n        require (expirationDate < now.add(946080000), \"Expiry must be less than 30 years\");\n        require (expirationDate > now.add(172800), \"Expiry must be at least 2 days in the future\");\n        bytes32 bondId = keccak256(abi.encode(to, xyoAmount, expirationDate, block.number));\n        Bond memory ns = Bond(\n            xyoAmount,\n            expirationDate,\n            block.timestamp,\n            0,\n            to,\n            0\n        );\n        bondIndex[bondId] = bonds.length;\n        bond[bondId] = ns;\n        ownerBonds[to].push(bondId);\n        bonds.push(bondId);\n        \n        SafeERC20.transferFrom(erc20, spender, address(this), xyoAmount);\n        emit BondDeposit(bondId, to, xyoAmount, expirationDate);\n        return bondId;\n    }\n\n    /**\n        Withdraws an expired or governed bond's value to 'to'\n        Prerequisites: Bond must be entirely unstaked. Sender is owner or bond is governable.  Bond cannot be already emptied\n        @param bondId the bond id\n        @param to who receives the withdrawl\n        sender - owner of bond or governor\n    */\n    // function withdrawTo (bytes32 bondId, address to) \n    //     public\n    // {\n    //     Bond storage bs = bond[bondId];\n    //     uint withdrawAmount = bs.value;\n    //     require (withdrawAmount > 0, \"Bond has no value\");\n    //     bs.value = 0; // erase value of bond\n    //     bool isOwner = msg.sender == bs.owner;\n    //     require (bs.allocated == 0, \"Bond must have no allocated stake\");\n    //     require (isOwner || _governable(bs), \"owner or governable can withdraw\");\n    //     if (isOwner) {\n    //         require (now > bs.expirationSec, \"Bond is still active\");\n    //     }\n    //     SafeERC20.transfer(erc20, to, withdrawAmount);\n\n    //     emit BondWithdraw(bondId, to, withdrawAmount);\n    // }\n\n    /**\n        Add node stakes associated from this bond.\n        @param bondId Id of the bond to use for node stake\n        @param beneficiary who will own the stakeid\n        @param stakees which stakees to create stake for\n        @param amounts which amounts to use for stakees\n    */\n    function stake (bytes32 bondId, address payable beneficiary, address[] memory stakees, uint[] memory amounts)\n        public\n    {\n        Bond storage bs = bond[bondId];\n        bool isOwner = msg.sender == bs.owner;\n        require (isOwner || _governable(bs), \"owner or governable can stake\");\n        \n        uint total = 0;\n        for (uint i = 0; i < amounts.length; i++) {\n            total = total.add(amounts[i]);\n        }\n        bs.allocated = bs.allocated.add(total);\n\n        require (bs.allocated <= bs.value, \"Insufficient bond balance\");\n\n        // stake stakees with amounts\n        bytes memory encoded = abi.encode(bondId, beneficiary, stakees, amounts);\n        bytes memory methodData = abi.encode(4, encoded);\n        \n        // stake bonded nodes\n        IXYOERC20(erc20).approveAndCall(staking, total, methodData);\n\n        emit BondStake(bondId, msg.sender, beneficiary, total);\n    }\n\n     /**\n        Helper for onboarding user with ETH and adding node stakes associated to their bond.\n        @param bondId Id of the bond to use for node stake\n        @param beneficiary who will own the stakeid\n        @param stakees which stakees to create stake for\n        @param amounts which amounts to use for stakees\n        msg.value send with some value to transfer eth to user in a single call\n    */\n    // function sendEthAndStake(bytes32 bondId, address payable beneficiary, address[] memory stakees, uint[] memory amounts) \n    //     public\n    //     payable\n    // {\n    //     if (msg.value > 0) {\n    //         beneficiary.transfer(msg.value);\n    //     }\n    //     stake(bondId, beneficiary, stakees, amounts);\n    // }\n\n    /**\n        Called by owner or governable to unstake bonded node-stake\n        @param bondId The bond to unstake\n        @param stakingId the id of the associated node-stake\n    */\n    // function unstake (bytes32 bondId, bytes32 stakingId) \n    //     public  \n    // {\n    //     bytes32 checkBondId = XyStakingConsensus(staking).bondedStake(stakingId);\n    //     require(checkBondId == bondId, \"Stake needs to be bonded\");\n\n    //     (uint amount,,,,,,) = XyStakingConsensus(staking).stakeData(stakingId);\n    //     Bond storage bs = bond[bondId];\n    //     require (msg.sender == bs.owner || _governable(bs), \"owner or governable can unstake\");\n        \n    //     require(bs.allocated >= amount, \"Cannot unstake over bond allocation\");\n    //     bs.allocated = bs.allocated.sub(amount);\n\n    //     // will fail if already withdrew  \n    //     XyStakingConsensus(staking).unstakeBonded(bondId, stakingId);\n\n    //     emit BondUnstake(bondId, msg.sender, stakingId, amount);\n    // }\n\n    /**\n        Helper to know if bond is expired\n        @param bondId which bond are we looking at\n    */\n    function isExpired(bytes32 bondId) \n        public \n        view \n        returns (bool)\n    {\n        return bond[bondId].expirationSec < now;\n    }\n\n    /** \n        True if the governable period has not elapsed since the bond creation\n        @param bs bond to check\n    */\n    function _governable(Bond memory bs) \n        private\n        view\n        returns (bool) \n    {\n        bool isGov = isGovernor(msg.sender);\n        bool govActive = now <= bs.creationSec.add(governablePeriod);\n        return isGov && govActive;\n    }\n\n\n    /** \n        Returns total count of bonds created\n    */\n    function numBonds() public view returns (uint) {\n        return bonds.length;\n    }\n\n    /** \n        Returns the total count of bonds created by owner\n        @param owner count bonds of this hodler\n    */\n    function numOwnerBonds(address owner) public view returns (uint) {\n        return ownerBonds[owner].length;\n    }\n\n    function unallocatedBondStake(address beneficiary) public view returns (uint) {\n        uint num = numOwnerBonds(beneficiary);\n        uint totalAmount = 0;\n        for (uint i = 0; i < num; i++) {\n            bytes32 bondId = ownerBonds[beneficiary][i];\n            Bond storage b = bond[bondId];\n            if (b.value > 0) {\n                totalAmount += b.value.sub(b.allocated);\n            }\n        }\n        return totalAmount;\n    }\n\n    /* \n        will kill bond value and return unallocated bond stake\n    */\n    function reimburseUnallocatedBond(address beneficiary) public {\n        uint num = numOwnerBonds(beneficiary);\n        uint totalAmount = 0;\n        for (uint i = 0; i< num; i++) {\n            bytes32 bondId = ownerBonds[beneficiary][i];\n            Bond storage b = bond[bondId];\n            if (b.value > 0) {\n                totalAmount += b.value.sub(b.allocated);\n                b.value = 0; \n            }\n        }\n        if (totalAmount > 0) {\n            SafeERC20.transfer(erc20, beneficiary, totalAmount);\n            emit ReimburseBondEject(msg.sender, beneficiary, totalAmount);\n        }\n    }\n\n    function reimburseAndEject(address beneficiary) public {\n        reimburseUnallocatedBond(beneficiary);\n        XyStakingConsensus(staking).eject(beneficiary);\n    }\n}",
  "sourcePath": "/Users/kevin/GitHub/xyo/dapp-scsc-solidity/contracts/staking/XyBond.sol",
  "compiler": {
    "name": "solc",
    "version": "0.5.4+commit.9549d8ff.Emscripten.clang"
  },
  "schemaVersion": "3.0.21",
  "updatedAt": "2020-03-25T16:49:23.636Z",
  "devdoc": {
    "methods": {
      "createBond(uint256,uint256)": {
        "params": {
          "expirationDate": "date the bond expires",
          "xyoAmount": "amount to bond"
        }
      },
      "initialize(address,address,uint256)": {
        "params": {
          "_governablePeriod": "the period a governor can revoke bonded stake (chargeback avoidance)",
          "_stakingContract": "the contract used for staking ",
          "_token": "the token to stake"
        }
      },
      "isExpired(bytes32)": {
        "params": {
          "bondId": "which bond are we looking at"
        }
      },
      "numOwnerBonds(address)": {
        "params": {
          "owner": "count bonds of this hodler"
        }
      },
      "receiveApproval(address,uint256,address,bytes)": {
        "params": {
          "_extraData": "contains expiration date",
          "_spender": "who approved the token",
          "_value": "amount approved"
        }
      },
      "stake(bytes32,address,address[],uint256[])": {
        "params": {
          "amounts": "which amounts to use for stakees",
          "beneficiary": "who will own the stakeid",
          "bondId": "Id of the bond to use for node stake",
          "stakees": "which stakees to create stake for"
        }
      }
    }
  },
  "userdoc": {
    "methods": {
      "createBond(uint256,uint256)": {
        "notice": "Create a bonded (network stake) Sender must approve before bond can be created"
      },
      "initialize(address,address,uint256)": {
        "notice": "initializes upgradeable contract"
      },
      "isExpired(bytes32)": {
        "notice": "Helper to know if bond is expired"
      },
      "numBonds()": {
        "notice": "Returns total count of bonds created"
      },
      "numOwnerBonds(address)": {
        "notice": "Returns the total count of bonds created by owner"
      },
      "receiveApproval(address,uint256,address,bytes)": {
        "notice": "Called from erc20 token that allows approval and calling function in a single call"
      },
      "stake(bytes32,address,address[],uint256[])": {
        "notice": "Add node stakes associated from this bond."
      }
    }
  }
}