{
  "contractName": "XyStakingConsensus",
  "abi": [
    {
      "constant": true,
      "inputs": [
        {
          "name": "",
          "type": "address"
        },
        {
          "name": "",
          "type": "uint256"
        }
      ],
      "name": "stakeeToStakingIds",
      "outputs": [
        {
          "name": "",
          "type": "bytes32"
        }
      ],
      "payable": false,
      "stateMutability": "view",
      "type": "function"
    },
    {
      "constant": true,
      "inputs": [],
      "name": "xyoToken",
      "outputs": [
        {
          "name": "",
          "type": "address"
        }
      ],
      "payable": false,
      "stateMutability": "view",
      "type": "function"
    },
    {
      "constant": true,
      "inputs": [
        {
          "name": "",
          "type": "bytes32"
        }
      ],
      "name": "bondedStake",
      "outputs": [
        {
          "name": "",
          "type": "bytes32"
        }
      ],
      "payable": false,
      "stateMutability": "view",
      "type": "function"
    },
    {
      "constant": true,
      "inputs": [],
      "name": "totalActiveStake",
      "outputs": [
        {
          "name": "",
          "type": "uint256"
        }
      ],
      "payable": false,
      "stateMutability": "view",
      "type": "function"
    },
    {
      "constant": true,
      "inputs": [],
      "name": "govContract",
      "outputs": [
        {
          "name": "",
          "type": "address"
        }
      ],
      "payable": false,
      "stateMutability": "view",
      "type": "function"
    },
    {
      "constant": true,
      "inputs": [
        {
          "name": "",
          "type": "address"
        }
      ],
      "name": "stakerStake",
      "outputs": [
        {
          "name": "totalStake",
          "type": "uint256"
        },
        {
          "name": "activeStake",
          "type": "uint256"
        },
        {
          "name": "cooldownStake",
          "type": "uint256"
        },
        {
          "name": "totalUnstake",
          "type": "uint256"
        }
      ],
      "payable": false,
      "stateMutability": "view",
      "type": "function"
    },
    {
      "constant": true,
      "inputs": [
        {
          "name": "actionType",
          "type": "uint8"
        }
      ],
      "name": "isUnstakeAction",
      "outputs": [
        {
          "name": "",
          "type": "bool"
        }
      ],
      "payable": false,
      "stateMutability": "pure",
      "type": "function"
    },
    {
      "constant": true,
      "inputs": [],
      "name": "totalVotingStake",
      "outputs": [
        {
          "name": "",
          "type": "uint256"
        }
      ],
      "payable": false,
      "stateMutability": "view",
      "type": "function"
    },
    {
      "constant": false,
      "inputs": [
        {
          "name": "stakingId",
          "type": "bytes32"
        }
      ],
      "name": "cooldownStake",
      "outputs": [],
      "payable": false,
      "stateMutability": "nonpayable",
      "type": "function"
    },
    {
      "constant": false,
      "inputs": [
        {
          "name": "stakingId",
          "type": "bytes32"
        }
      ],
      "name": "activateStake",
      "outputs": [],
      "payable": false,
      "stateMutability": "nonpayable",
      "type": "function"
    },
    {
      "constant": true,
      "inputs": [
        {
          "name": "",
          "type": "bytes32"
        }
      ],
      "name": "stakingStakerIndex",
      "outputs": [
        {
          "name": "",
          "type": "uint256"
        }
      ],
      "payable": false,
      "stateMutability": "view",
      "type": "function"
    },
    {
      "constant": true,
      "inputs": [
        {
          "name": "",
          "type": "bytes32"
        }
      ],
      "name": "stakeData",
      "outputs": [
        {
          "name": "amount",
          "type": "uint256"
        },
        {
          "name": "stakeBlock",
          "type": "uint256"
        },
        {
          "name": "unstakeBlock",
          "type": "uint256"
        },
        {
          "name": "stakee",
          "type": "address"
        },
        {
          "name": "staker",
          "type": "address"
        },
        {
          "name": "isActivated",
          "type": "bool"
        },
        {
          "name": "isCooledDown",
          "type": "bool"
        }
      ],
      "payable": false,
      "stateMutability": "view",
      "type": "function"
    },
    {
      "constant": false,
      "inputs": [
        {
          "name": "stakingIds",
          "type": "bytes32[]"
        }
      ],
      "name": "withdrawManyStake",
      "outputs": [],
      "payable": false,
      "stateMutability": "nonpayable",
      "type": "function"
    },
    {
      "constant": true,
      "inputs": [],
      "name": "totalCooldownStake",
      "outputs": [
        {
          "name": "",
          "type": "uint256"
        }
      ],
      "payable": false,
      "stateMutability": "view",
      "type": "function"
    },
    {
      "constant": false,
      "inputs": [
        {
          "name": "stakingId",
          "type": "bytes32"
        }
      ],
      "name": "unstake",
      "outputs": [],
      "payable": false,
      "stateMutability": "nonpayable",
      "type": "function"
    },
    {
      "constant": true,
      "inputs": [
        {
          "name": "staker",
          "type": "address"
        }
      ],
      "name": "totalStakeAndUnstake",
      "outputs": [
        {
          "name": "",
          "type": "uint256"
        }
      ],
      "payable": false,
      "stateMutability": "view",
      "type": "function"
    },
    {
      "constant": false,
      "inputs": [
        {
          "name": "stakee",
          "type": "address"
        },
        {
          "name": "startIndex",
          "type": "uint256"
        },
        {
          "name": "batchSize",
          "type": "uint256"
        }
      ],
      "name": "resolveGovernanceAction",
      "outputs": [],
      "payable": false,
      "stateMutability": "nonpayable",
      "type": "function"
    },
    {
      "constant": true,
      "inputs": [
        {
          "name": "",
          "type": "address"
        },
        {
          "name": "",
          "type": "uint256"
        }
      ],
      "name": "stakerToStakingIds",
      "outputs": [
        {
          "name": "",
          "type": "bytes32"
        }
      ],
      "payable": false,
      "stateMutability": "view",
      "type": "function"
    },
    {
      "constant": true,
      "inputs": [],
      "name": "blockProducerContract",
      "outputs": [
        {
          "name": "",
          "type": "address"
        }
      ],
      "payable": false,
      "stateMutability": "view",
      "type": "function"
    },
    {
      "constant": false,
      "inputs": [
        {
          "name": "stakee",
          "type": "address"
        },
        {
          "name": "amount",
          "type": "uint256"
        }
      ],
      "name": "stake",
      "outputs": [
        {
          "name": "",
          "type": "bytes32"
        }
      ],
      "payable": false,
      "stateMutability": "nonpayable",
      "type": "function"
    },
    {
      "constant": true,
      "inputs": [
        {
          "name": "",
          "type": "uint256"
        }
      ],
      "name": "requestChain",
      "outputs": [
        {
          "name": "",
          "type": "bytes32"
        }
      ],
      "payable": false,
      "stateMutability": "view",
      "type": "function"
    },
    {
      "constant": true,
      "inputs": [
        {
          "name": "",
          "type": "uint256"
        }
      ],
      "name": "blockChain",
      "outputs": [
        {
          "name": "",
          "type": "bytes32"
        }
      ],
      "payable": false,
      "stateMutability": "view",
      "type": "function"
    },
    {
      "constant": true,
      "inputs": [
        {
          "name": "",
          "type": "bytes32"
        }
      ],
      "name": "stakingStakeeIndex",
      "outputs": [
        {
          "name": "",
          "type": "uint256"
        }
      ],
      "payable": false,
      "stateMutability": "view",
      "type": "function"
    },
    {
      "constant": false,
      "inputs": [
        {
          "name": "stakingId",
          "type": "bytes32"
        }
      ],
      "name": "withdrawStake",
      "outputs": [],
      "payable": false,
      "stateMutability": "nonpayable",
      "type": "function"
    },
    {
      "constant": true,
      "inputs": [],
      "name": "penaltyStake",
      "outputs": [
        {
          "name": "",
          "type": "uint256"
        }
      ],
      "payable": false,
      "stateMutability": "view",
      "type": "function"
    },
    {
      "constant": true,
      "inputs": [
        {
          "name": "stakee",
          "type": "address"
        }
      ],
      "name": "numStakeeStakes",
      "outputs": [
        {
          "name": "",
          "type": "uint256"
        }
      ],
      "payable": false,
      "stateMutability": "view",
      "type": "function"
    },
    {
      "constant": true,
      "inputs": [
        {
          "name": "",
          "type": "bytes32"
        }
      ],
      "name": "bondStakeIndex",
      "outputs": [
        {
          "name": "",
          "type": "uint256"
        }
      ],
      "payable": false,
      "stateMutability": "view",
      "type": "function"
    },
    {
      "constant": true,
      "inputs": [
        {
          "name": "",
          "type": "bytes32"
        }
      ],
      "name": "requestsById",
      "outputs": [
        {
          "name": "xyoBounty",
          "type": "uint256"
        },
        {
          "name": "weiMining",
          "type": "uint256"
        },
        {
          "name": "createdAt",
          "type": "uint256"
        },
        {
          "name": "responseBlockNumber",
          "type": "uint256"
        },
        {
          "name": "requestSender",
          "type": "address"
        },
        {
          "name": "requestType",
          "type": "uint8"
        }
      ],
      "payable": false,
      "stateMutability": "view",
      "type": "function"
    },
    {
      "constant": true,
      "inputs": [
        {
          "name": "staker",
          "type": "address"
        }
      ],
      "name": "numStakerStakes",
      "outputs": [
        {
          "name": "",
          "type": "uint256"
        }
      ],
      "payable": false,
      "stateMutability": "view",
      "type": "function"
    },
    {
      "constant": true,
      "inputs": [
        {
          "name": "",
          "type": "bytes32"
        },
        {
          "name": "",
          "type": "uint256"
        }
      ],
      "name": "bondStakes",
      "outputs": [
        {
          "name": "",
          "type": "bytes32"
        }
      ],
      "payable": false,
      "stateMutability": "view",
      "type": "function"
    },
    {
      "constant": true,
      "inputs": [
        {
          "name": "",
          "type": "bytes32"
        }
      ],
      "name": "blocks",
      "outputs": [
        {
          "name": "previousBlock",
          "type": "bytes32"
        },
        {
          "name": "supportingData",
          "type": "bytes32"
        },
        {
          "name": "stakingBlock",
          "type": "uint256"
        },
        {
          "name": "createdAt",
          "type": "uint256"
        },
        {
          "name": "creator",
          "type": "address"
        }
      ],
      "payable": false,
      "stateMutability": "view",
      "type": "function"
    },
    {
      "constant": true,
      "inputs": [
        {
          "name": "",
          "type": "address"
        }
      ],
      "name": "stakeeStake",
      "outputs": [
        {
          "name": "totalStake",
          "type": "uint256"
        },
        {
          "name": "activeStake",
          "type": "uint256"
        },
        {
          "name": "cooldownStake",
          "type": "uint256"
        },
        {
          "name": "totalUnstake",
          "type": "uint256"
        }
      ],
      "payable": false,
      "stateMutability": "view",
      "type": "function"
    },
    {
      "anonymous": false,
      "inputs": [
        {
          "indexed": false,
          "name": "request",
          "type": "bytes32"
        },
        {
          "indexed": false,
          "name": "xyoBounty",
          "type": "uint256"
        },
        {
          "indexed": false,
          "name": "weiMining",
          "type": "uint256"
        },
        {
          "indexed": false,
          "name": "requester",
          "type": "address"
        },
        {
          "indexed": false,
          "name": "xyoSender",
          "type": "address"
        },
        {
          "indexed": false,
          "name": "requestType",
          "type": "uint8"
        }
      ],
      "name": "RequestSubmitted",
      "type": "event"
    },
    {
      "anonymous": false,
      "inputs": [
        {
          "indexed": false,
          "name": "blockHash",
          "type": "bytes32"
        },
        {
          "indexed": false,
          "name": "previousBlock",
          "type": "bytes32"
        },
        {
          "indexed": false,
          "name": "supportingData",
          "type": "bytes32"
        },
        {
          "indexed": false,
          "name": "createdAtBlock",
          "type": "uint256"
        },
        {
          "indexed": false,
          "name": "blockProducer",
          "type": "address"
        }
      ],
      "name": "BlockCreated",
      "type": "event"
    },
    {
      "anonymous": false,
      "inputs": [
        {
          "indexed": false,
          "name": "beneficiary",
          "type": "address"
        },
        {
          "indexed": false,
          "name": "amount",
          "type": "uint256"
        },
        {
          "indexed": false,
          "name": "stakerStake",
          "type": "uint256"
        }
      ],
      "name": "WithdrawClaimed",
      "type": "event"
    },
    {
      "anonymous": false,
      "inputs": [
        {
          "indexed": false,
          "name": "request",
          "type": "bytes32"
        },
        {
          "indexed": false,
          "name": "responseBlock",
          "type": "uint256"
        },
        {
          "indexed": false,
          "name": "result",
          "type": "uint256"
        },
        {
          "indexed": false,
          "name": "responseType",
          "type": "uint8"
        }
      ],
      "name": "Response",
      "type": "event"
    },
    {
      "anonymous": false,
      "inputs": [
        {
          "indexed": false,
          "name": "stakingId",
          "type": "bytes32"
        },
        {
          "indexed": false,
          "name": "amount",
          "type": "uint256"
        },
        {
          "indexed": false,
          "name": "staker",
          "type": "address"
        },
        {
          "indexed": false,
          "name": "stakee",
          "type": "address"
        },
        {
          "indexed": false,
          "name": "transition",
          "type": "uint8"
        }
      ],
      "name": "StakeEvent",
      "type": "event"
    },
    {
      "anonymous": false,
      "inputs": [
        {
          "indexed": false,
          "name": "beneficiary",
          "type": "address"
        },
        {
          "indexed": false,
          "name": "amount",
          "type": "uint256"
        },
        {
          "indexed": false,
          "name": "totalStake",
          "type": "uint256"
        },
        {
          "indexed": false,
          "name": "activeStake",
          "type": "uint256"
        },
        {
          "indexed": false,
          "name": "cooldownStake",
          "type": "uint256"
        },
        {
          "indexed": false,
          "name": "totalUnstake",
          "type": "uint256"
        }
      ],
      "name": "EjectEvent",
      "type": "event"
    },
    {
      "constant": false,
      "inputs": [
        {
          "name": "_token",
          "type": "address"
        },
        {
          "name": "_blockProducerContract",
          "type": "address"
        },
        {
          "name": "_governanceContract",
          "type": "address"
        }
      ],
      "name": "initialize",
      "outputs": [],
      "payable": false,
      "stateMutability": "nonpayable",
      "type": "function"
    },
    {
      "constant": true,
      "inputs": [],
      "name": "getLatestBlock",
      "outputs": [
        {
          "name": "",
          "type": "bytes32"
        }
      ],
      "payable": false,
      "stateMutability": "view",
      "type": "function"
    },
    {
      "constant": false,
      "inputs": [
        {
          "name": "xyoBounty",
          "type": "uint256"
        }
      ],
      "name": "withdrawRewardsRequest",
      "outputs": [
        {
          "name": "",
          "type": "bytes32"
        }
      ],
      "payable": true,
      "stateMutability": "payable",
      "type": "function"
    },
    {
      "constant": false,
      "inputs": [
        {
          "name": "_spender",
          "type": "address"
        },
        {
          "name": "_value",
          "type": "uint256"
        },
        {
          "name": "",
          "type": "address"
        },
        {
          "name": "_extraData",
          "type": "bytes"
        }
      ],
      "name": "receiveApproval",
      "outputs": [],
      "payable": false,
      "stateMutability": "nonpayable",
      "type": "function"
    },
    {
      "constant": false,
      "inputs": [
        {
          "name": "request",
          "type": "bytes32"
        },
        {
          "name": "xyoBounty",
          "type": "uint256"
        },
        {
          "name": "xyoSender",
          "type": "address"
        },
        {
          "name": "requestType",
          "type": "uint8"
        }
      ],
      "name": "submitRequest",
      "outputs": [],
      "payable": true,
      "stateMutability": "payable",
      "type": "function"
    },
    {
      "constant": false,
      "inputs": [
        {
          "name": "from",
          "type": "address"
        },
        {
          "name": "request",
          "type": "bytes32"
        },
        {
          "name": "xyoBounty",
          "type": "uint256"
        },
        {
          "name": "xyoSender",
          "type": "address"
        },
        {
          "name": "requestType",
          "type": "uint8"
        }
      ],
      "name": "submitRequestFrom",
      "outputs": [],
      "payable": true,
      "stateMutability": "payable",
      "type": "function"
    },
    {
      "constant": false,
      "inputs": [
        {
          "name": "previousBlock",
          "type": "bytes32"
        },
        {
          "name": "stakingBlock",
          "type": "uint256"
        },
        {
          "name": "_requests",
          "type": "bytes32[]"
        },
        {
          "name": "supportingData",
          "type": "bytes32"
        },
        {
          "name": "responses",
          "type": "bytes"
        },
        {
          "name": "signers",
          "type": "address[]"
        },
        {
          "name": "sigR",
          "type": "bytes32[]"
        },
        {
          "name": "sigS",
          "type": "bytes32[]"
        },
        {
          "name": "sigV",
          "type": "uint8[]"
        }
      ],
      "name": "submitBlock",
      "outputs": [
        {
          "name": "",
          "type": "bytes32"
        }
      ],
      "payable": false,
      "stateMutability": "nonpayable",
      "type": "function"
    },
    {
      "constant": true,
      "inputs": [
        {
          "name": "requestId",
          "type": "bytes32"
        }
      ],
      "name": "blockForRequest",
      "outputs": [
        {
          "name": "previousBlock",
          "type": "bytes32"
        },
        {
          "name": "supportingData",
          "type": "bytes32"
        },
        {
          "name": "stakingBlock",
          "type": "uint256"
        },
        {
          "name": "createdAt",
          "type": "uint256"
        },
        {
          "name": "creator",
          "type": "address"
        }
      ],
      "payable": false,
      "stateMutability": "view",
      "type": "function"
    },
    {
      "constant": true,
      "inputs": [
        {
          "name": "requestId",
          "type": "bytes32"
        }
      ],
      "name": "supportingDataForRequest",
      "outputs": [
        {
          "name": "supportingData",
          "type": "bytes32"
        }
      ],
      "payable": false,
      "stateMutability": "view",
      "type": "function"
    },
    {
      "constant": true,
      "inputs": [],
      "name": "numRequests",
      "outputs": [
        {
          "name": "",
          "type": "uint256"
        }
      ],
      "payable": false,
      "stateMutability": "view",
      "type": "function"
    },
    {
      "constant": true,
      "inputs": [],
      "name": "numBlocks",
      "outputs": [
        {
          "name": "",
          "type": "uint256"
        }
      ],
      "payable": false,
      "stateMutability": "view",
      "type": "function"
    },
    {
      "constant": false,
      "inputs": [
        {
          "name": "bondId",
          "type": "bytes32"
        },
        {
          "name": "stakingId",
          "type": "bytes32"
        }
      ],
      "name": "unstakeBonded",
      "outputs": [],
      "payable": false,
      "stateMutability": "nonpayable",
      "type": "function"
    },
    {
      "constant": true,
      "inputs": [
        {
          "name": "bondId",
          "type": "bytes32"
        }
      ],
      "name": "numBondStakes",
      "outputs": [
        {
          "name": "",
          "type": "uint256"
        }
      ],
      "payable": false,
      "stateMutability": "view",
      "type": "function"
    },
    {
      "constant": false,
      "inputs": [
        {
          "name": "beneficiary",
          "type": "address"
        }
      ],
      "name": "eject",
      "outputs": [],
      "payable": false,
      "stateMutability": "nonpayable",
      "type": "function"
    }
  ],
  "bytecode": "0x608060405234801561001057600080fd5b50615aa480620000216000396000f3fe6080604052600436106102fa576000357c0100000000000000000000000000000000000000000000000000000000900480639170c1ab1161019c578063c0c53b8b116100fe578063dfdb61c9116100a7578063f588a96a11610081578063f588a96a14610f41578063f666ad7114610f6b578063fd36117b14610f95576102fa565b8063dfdb61c914610ea3578063e4f5425d14610ede578063f0acc70714610f11576102fa565b8063d2e53903116100d8578063d2e5390314610de0578063d734389714610e0a578063d78b37ed14610e73576102fa565b8063c0c53b8b14610d53578063c1ae3cd214610d98578063c2e4e2a914610dad576102fa565b8063b1ff471511610160578063b5ee2f231161013a578063b5ee2f2314610cb9578063b95ff68914610ce3578063be98dc0a14610d0d576102fa565b8063b1ff471514610c3b578063b35af56f14610c65578063b4f5052b14610c8f576102fa565b80639170c1ab14610ba6578063930fc21614610bbb5780639fb42b1f14610bd0578063a17a43bf14610be5578063adc9772e14610c02576102fa565b80634fba18381161026057806371ed5d1a116102095780638ccc3544116101e35780638ccc354414610a9e5780638f4ffcb114610ad7578063901d13e214610b73576102fa565b806371ed5d1a14610a025780637cd44a8a14610a2c578063867c933214610a5f576102fa565b806367717f3a1161023a57806367717f3a146108df5780636bb289181461098f5780636d697dd0146109a4576102fa565b80634fba1838146108305780635652c52f1461085a57806361d6f78a146108ca576102fa565b80632fa4d12b116102c25780634317d00b1161029c5780634317d00b146107c557806345441d17146107da5780634ce0e43814610806576102fa565b80632fa4d12b14610716578063360324861461072b57806338c226ac14610784576102fa565b80630b70bc49146102ff5780631242b1941461066d57806314fa8a25146106a65780631e23f2f9146106d757806328f7314814610701575b600080fd5b34801561030b57600080fd5b5061065b600480360361012081101561032357600080fd5b81359160208101359181019060608101604082013564010000000081111561034a57600080fd5b82018360208201111561035c57600080fd5b8035906020019184602083028401116401000000008311171561037e57600080fd5b919080806020026020016040519081016040528093929190818152602001838360200280828437600092019190915250929584359590949093506040810192506020013590506401000000008111156103d657600080fd5b8201836020820111156103e857600080fd5b8035906020019184600183028401116401000000008311171561040a57600080fd5b91908080601f016020809104026020016040519081016040528093929190818152602001838380828437600092019190915250929594936020810193503591505064010000000081111561045d57600080fd5b82018360208201111561046f57600080fd5b8035906020019184602083028401116401000000008311171561049157600080fd5b91908080602002602001604051908101604052809392919081815260200183836020028082843760009201919091525092959493602081019350359150506401000000008111156104e157600080fd5b8201836020820111156104f357600080fd5b8035906020019184602083028401116401000000008311171561051557600080fd5b919080806020026020016040519081016040528093929190818152602001838360200280828437600092019190915250929594936020810193503591505064010000000081111561056557600080fd5b82018360208201111561057757600080fd5b8035906020019184602083028401116401000000008311171561059957600080fd5b91908080602002602001604051908101604052809392919081815260200183836020028082843760009201919091525092959493602081019350359150506401000000008111156105e957600080fd5b8201836020820111156105fb57600080fd5b8035906020019184602083028401116401000000008311171561061d57600080fd5b919080806020026020016040519081016040528093929190818152602001838360200280828437600092019190915250929550610fc8945050505050565b60408051918252519081900360200190f35b34801561067957600080fd5b5061065b6004803603604081101561069057600080fd5b50600160a060020a038135169060200135611286565b3480156106b257600080fd5b506106bb6112b6565b60408051600160a060020a039092168252519081900360200190f35b3480156106e357600080fd5b5061065b600480360360208110156106fa57600080fd5b50356112c5565b34801561070d57600080fd5b5061065b6112d7565b34801561072257600080fd5b506106bb6112dd565b34801561073757600080fd5b5061075e6004803603602081101561074e57600080fd5b5035600160a060020a03166112ec565b604080519485526020850193909352838301919091526060830152519081900360800190f35b34801561079057600080fd5b506107b1600480360360208110156107a757600080fd5b503560ff16611313565b604080519115158252519081900360200190f35b3480156107d157600080fd5b5061065b61133f565b3480156107e657600080fd5b50610804600480360360208110156107fd57600080fd5b503561135e565b005b34801561081257600080fd5b506108046004803603602081101561082957600080fd5b503561136c565b34801561083c57600080fd5b5061065b6004803603602081101561085357600080fd5b5035611377565b34801561086657600080fd5b506108846004803603602081101561087d57600080fd5b5035611389565b60408051978852602088019690965286860194909452600160a060020a03928316606087015291166080850152151560a0840152151560c0830152519081900360e00190f35b3480156108d657600080fd5b5061065b6113ed565b3480156108eb57600080fd5b506108046004803603602081101561090257600080fd5b81019060208101813564010000000081111561091d57600080fd5b82018360208201111561092f57600080fd5b8035906020019184602083028401116401000000008311171561095157600080fd5b919080806020026020016040519081016040528093929190818152602001838360200280828437600092019190915250929550611423945050505050565b34801561099b57600080fd5b5061065b611537565b3480156109b057600080fd5b506109ce600480360360208110156109c757600080fd5b503561153d565b604080519586526020860194909452848401929092526060840152600160a060020a03166080830152519081900360a00190f35b348015610a0e57600080fd5b5061080460048036036020811015610a2557600080fd5b503561163d565b348015610a3857600080fd5b5061065b60048036036020811015610a4f57600080fd5b5035600160a060020a031661199b565b348015610a6b57600080fd5b5061080460048036036060811015610a8257600080fd5b50600160a060020a0381351690602081013590604001356119be565b348015610aaa57600080fd5b5061065b60048036036040811015610ac157600080fd5b50600160a060020a038135169060200135611d5f565b348015610ae357600080fd5b5061080460048036036080811015610afa57600080fd5b600160a060020a038235811692602081013592604082013590921691810190608081016060820135640100000000811115610b3457600080fd5b820183602082011115610b4657600080fd5b80359060200191846001830284011164010000000083111715610b6857600080fd5b509092509050611d7a565b348015610b7f57600080fd5b5061080460048036036020811015610b9657600080fd5b5035600160a060020a031661220b565b348015610bb257600080fd5b506106bb6122dd565b348015610bc757600080fd5b5061065b6122ec565b348015610bdc57600080fd5b5061065b6122f2565b61065b60048036036020811015610bfb57600080fd5b50356122f8565b348015610c0e57600080fd5b5061065b60048036036040811015610c2557600080fd5b50600160a060020a03813516906020013561242b565b348015610c4757600080fd5b5061065b60048036036020811015610c5e57600080fd5b5035612519565b348015610c7157600080fd5b5061065b60048036036020811015610c8857600080fd5b5035612538565b348015610c9b57600080fd5b5061065b60048036036020811015610cb257600080fd5b5035612546565b348015610cc557600080fd5b5061065b60048036036020811015610cdc57600080fd5b5035612558565b348015610cef57600080fd5b5061080460048036036020811015610d0657600080fd5b503561256a565b610804600480360360a0811015610d2357600080fd5b508035600160a060020a03908116916020810135916040820135916060810135909116906080013560ff1661290c565b348015610d5f57600080fd5b5061080460048036036060811015610d7657600080fd5b50600160a060020a038135811691602081013582169160409091013516612b0c565b348015610da457600080fd5b5061065b612bbb565b348015610db957600080fd5b5061065b60048036036020811015610dd057600080fd5b5035600160a060020a0316612bc1565b348015610dec57600080fd5b5061065b60048036036020811015610e0357600080fd5b5035612bdc565b348015610e1657600080fd5b50610e3460048036036020811015610e2d57600080fd5b5035612bee565b604080519687526020870195909552858501939093526060850191909152600160a060020a0316608084015260ff1660a0830152519081900360c00190f35b348015610e7f57600080fd5b5061080460048036036040811015610e9657600080fd5b5080359060200135612c32565b61080460048036036080811015610eb957600080fd5b508035906020810135906040810135600160a060020a0316906060013560ff16612f2b565b348015610eea57600080fd5b5061065b60048036036020811015610f0157600080fd5b5035600160a060020a0316613014565b348015610f1d57600080fd5b5061065b60048036036040811015610f3457600080fd5b508035906020013561302f565b348015610f4d57600080fd5b506109ce60048036036020811015610f6457600080fd5b503561304a565b348015610f7757600080fd5b5061065b60048036036020811015610f8e57600080fd5b5035613082565b348015610fa157600080fd5b5061075e60048036036020811015610fb857600080fd5b5035600160a060020a0316613098565b603454604080517ff6a3d24e0000000000000000000000000000000000000000000000000000000081523360048201529051600092600160a060020a03169163f6a3d24e916024808301926020929190829003018186803b15801561102c57600080fd5b505afa158015611040573d6000803e3d6000fd5b505050506040513d602081101561105657600080fd5b505115156110ae576040805160e560020a62461bcd02815260206004820152601b60248201527f4f6e6c7920617070726f7665642042502063616e207375626d69740000000000604482015290519081900360640190fd5b6110b66113ed565b8a1461110c576040805160e560020a62461bcd02815260206004820152601860248201527f496e636f72726563742070726576696f757320626c6f636b0000000000000000604482015290519081900360640190fd5b8751600010611165576040805160e560020a62461bcd02815260206004820152601460248201527f4e6f20726571756573747320696e20626c6f636b000000000000000000000000604482015290519081900360640190fd5b60008a8a8a8a8a60405160200180868152602001858152602001848051906020019060200280838360005b838110156111a8578181015183820152602001611190565b5050505090500183815260200182805190602001908083835b602083106111e05780518252601f1990920191602091820191016111c1565b6001836020036101000a03801982511681845116808217855250505050505090500195505050505050604051602081830303815290604052805190602001209050600061122d8a896130bf565b604051909150339082156108fc029083906000818181858888f1935050505015801561125d573d6000803e3d6000fd5b5061126b82888888886135e6565b6112778c838b8e613973565b509a9950505050505050505050565b603a602052816000526040600020818154811015156112a157fe5b90600052602060002001600091509150505481565b603354600160a060020a031681565b60446020526000908152604090205481565b60365481565b603554600160a060020a031681565b603f6020526000908152604090208054600182015460028301546003909301549192909184565b60008082600281111561132257fe5b14806113395750600282600281111561133757fe5b145b92915050565b6000611358603654603754613ab690919063ffffffff16565b90505b90565b611369816001613ac3565b50565b611369816000613ac3565b603d6020526000908152604090205481565b60396020526000908152604090208054600182015460028301546003840154600490940154929391929091600160a060020a03908116919081169060ff60a060020a8204811691750100000000000000000000000000000000000000000090041687565b60425460009015156114015750600061135b565b60428054600019810190811061141357fe5b9060005260206000200154905090565b60355460408051600080516020615a5983398151915281526020600482018190526008602483015260008051602061592883398151915260448301529151600160a060020a039093169263693ec85e92606480840193919291829003018186803b15801561149057600080fd5b505afa1580156114a4573d6000803e3d6000fd5b505050506040513d60208110156114ba57600080fd5b5051156114ff576040805160e560020a62461bcd028152602060048201526011602482015260008051602061599a833981519152604482015290519081900360640190fd5b60005b81518110156115335761152b828281518110151561151c57fe5b9060200190602002015161256a565b600101611502565b5050565b60375481565b600080600080600061154d615817565b506000868152604160209081526040808320815160c08101835281548152600182015493810193909352600281015491830191909152600381015460608301819052600490910154600160a060020a038116608084015260a060020a900460ff1660a08301529091101561163357600060426115d760018460600151613ead90919063ffffffff16565b815481106115e157fe5b600091825260209091200154905080156116315760008181526043602052604090208054600182015460028301546003840154600490940154929a509098509650909450600160a060020a031692505b505b5091939590929450565b60355460408051600080516020615a5983398151915281526020600482018190526008602483015260008051602061592883398151915260448301529151600160a060020a039093169263693ec85e92606480840193919291829003018186803b1580156116aa57600080fd5b505afa1580156116be573d6000803e3d6000fd5b505050506040513d60208110156116d457600080fd5b505115611719576040805160e560020a62461bcd028152602060048201526011602482015260008051602061599a833981519152604482015290519081900360640190fd5b600081815260396020526040902061173082613ebf565b1561176f5760405160e560020a62461bcd028152600401808060200182810382526024815260200180615a076024913960400191505060405180910390fd5b6004810154600160a060020a031633146117bd5760405160e560020a62461bcd0281526004018080602001828103825260238152602001806159ba6023913960400191505060405180910390fd5b60355460408051600080516020615a598339815191528152602060048201819052600f60248301527f78795374616b65436f6f6c646f776e000000000000000000000000000000000060448301529151439361187d93600160a060020a039091169263693ec85e9260648083019392829003018186803b15801561184057600080fd5b505afa158015611854573d6000803e3d6000fd5b505050506040513d602081101561186a57600080fd5b505160018401549063ffffffff613ab616565b106118d2576040805160e560020a62461bcd02815260206004820152601960248201527f5374616b696e67206e6565647320746f20636f6f6c646f776e00000000000000604482015290519081900360640190fd5b60028101541561192c576040805160e560020a62461bcd02815260206004820152601160248201527f43616e6e6f742072652d756e7374616b65000000000000000000000000000000604482015290519081900360640190fd5b61193581613ed3565b80546004820154600380840154604080518781526020810195909552600160a060020a0393841685820152921660608401526080830152517f7ab7e8e11949eaafd5e2ea7bac9bba6e3beabc6a6615bd6757d10434e5afd2f49181900360a00190a15050565b600160a060020a03166000908152603f6020526040902080546003909101540190565b603554604080517fb776f569000000000000000000000000000000000000000000000000000000008152600160a060020a03868116600483015291516000938493849391169163b776f56991602480820192608092909190829003018186803b158015611a2a57600080fd5b505afa158015611a3e573d6000803e3d6000fd5b505050506040513d6080811015611a5457600080fd5b50602081015160408201516060909201519094509092509050600181151514611ac7576040805160e560020a62461bcd02815260206004820152601760248201527f616374696f6e206d757374206265206163636570746564000000000000000000604482015290519081900360640190fd5b6000826002811115611ad557fe5b1415611aec57611ae78686868661401e565b611ca4565b6002826002811115611afa57fe5b1415611b9157611b0d868686600061401e565b603454604080517f29092d0e000000000000000000000000000000000000000000000000000000008152600160a060020a038981166004830152915191909216916329092d0e91602480830192600092919082900301818387803b158015611b7457600080fd5b505af1158015611b88573d6000803e3d6000fd5b50505050611ca4565b6001826002811115611b9f57fe5b1415611ca457603454604080517f9ed93318000000000000000000000000000000000000000000000000000000008152600160a060020a03898116600483015291519190921691639ed9331891602480830192600092919082900301818387803b158015611c0c57600080fd5b505af1158015611c20573d6000803e3d6000fd5b5050603554604080517f8400657e000000000000000000000000000000000000000000000000000000008152600160a060020a038b811660048301529151919092169350638400657e9250602480830192600092919082900301818387803b158015611c8b57600080fd5b505af1158015611c9f573d6000803e3d6000fd5b505050505b611cad82611313565b8015611cd25750600160a060020a0386166000908152603e6020526040902060010154155b15611d5757603554604080517f8400657e000000000000000000000000000000000000000000000000000000008152600160a060020a03898116600483015291519190921691638400657e91602480830192600092919082900301818387803b158015611d3e57600080fd5b505af1158015611d52573d6000803e3d6000fd5b505050505b505050505050565b603b602052816000526040600020818154811015156112a157fe5b60355460408051600080516020615a5983398151915281526020600482018190526008602483015260008051602061592883398151915260448301529151600160a060020a039093169263693ec85e92606480840193919291829003018186803b158015611de757600080fd5b505afa158015611dfb573d6000803e3d6000fd5b505050506040513d6020811015611e1157600080fd5b505115611e56576040805160e560020a62461bcd028152602060048201526011602482015260008051602061599a833981519152604482015290519081900360640190fd5b603354600160a060020a03163314611eb8576040805160e560020a62461bcd02815260206004820152601460248201527f73656e646572206d75737420626520746f6b656e000000000000000000000000604482015290519081900360640190fd5b6000606083836040811015611ecc57600080fd5b81359190810190604081016020820135640100000000811115611eee57600080fd5b820183602082011115611f0057600080fd5b80359060200191846001830284011164010000000083111715611f2257600080fd5b91908080601f016020809104026020016040519081016040528093929190818152602001838380828437600092019190915250969850919650505060018614159350611fa69250505057600080828060200190516040811015611f8457600080fd5b5080516020909101519092509050611f9e8983838b6141b9565b505050612202565b8160021415611ffd57600080600080848060200190516080811015611fca57600080fd5b5080516020820151604083015160609093015191965094509092509050611ff48b8585858561290c565b50505050612202565b816003141561211a57606080606083806020019051606081101561202057600080fd5b81019080805164010000000081111561203857600080fd5b8201602081018481111561204b57600080fd5b815185602082028301116401000000008211171561206857600080fd5b5050929190602001805164010000000081111561208457600080fd5b8201602081018481111561209757600080fd5b81518560208202830111640100000000821117156120b457600080fd5b505092919060200180516401000000008111156120d057600080fd5b820160208101848111156120e357600080fd5b815185602082028301116401000000008211171561210057600080fd5b5050929190505050925092509250611f9e8a8484846144dd565b81600414156122025760008060608084806020019051608081101561213e57600080fd5b815160208301516040840180519294919382019264010000000081111561216457600080fd5b8201602081018481111561217757600080fd5b815185602082028301116401000000008211171561219457600080fd5b505092919060200180516401000000008111156121b057600080fd5b820160208101848111156121c357600080fd5b81518560208202830111640100000000821117156121e057600080fd5b505092919050505093509350935093506121fd848c8585856145c8565b505050505b50505050505050565b60006122168261199b565b600160a060020a0383166000908152603f602052604081208054600182018054600284018054600386018054888855948890559187905590869055959650929491938611156122025760335461227690600160a060020a031688886147f4565b60408051600160a060020a038916815260208101889052808201869052606081018590526080810184905260a0810183905290517f7b9f9473a5e2e67048a37f5f061aca0818c4cd0b2559e3b38ed9b5960566d1769181900360c00190a150505050505050565b603454600160a060020a031681565b60425490565b60405490565b60355460408051600080516020615a5983398151915281526020600482018190526008602483015260008051602061592883398151915260448301529151600093600160a060020a03169263693ec85e9260648082019391829003018186803b15801561236457600080fd5b505afa158015612378573d6000803e3d6000fd5b505050506040513d602081101561238e57600080fd5b5051156123d3576040805160e560020a62461bcd028152602060048201526011602482015260008051602061599a833981519152604482015290519081900360640190fd5b60408051336c0100000000000000000000000081026020808401919091526034830186905243605480850191909152845180850390910181526074909301909352815191909201209061133990829085906003612f2b565b60355460408051600080516020615a5983398151915281526020600482018190526008602483015260008051602061592883398151915260448301529151600093600160a060020a03169263693ec85e9260648082019391829003018186803b15801561249757600080fd5b505afa1580156124ab573d6000803e3d6000fd5b505050506040513d60208110156124c157600080fd5b505115612506576040805160e560020a62461bcd028152602060048201526011602482015260008051602061599a833981519152604482015290519081900360640190fd5b612512333385856141b9565b9392505050565b604080548290811061252757fe5b600091825260209091200154905081565b604280548290811061252757fe5b603c6020526000908152604090205481565b60009081526045602052604090205490565b60355460408051600080516020615a5983398151915281526020600482018190526008602483015260008051602061592883398151915260448301529151600160a060020a039093169263693ec85e92606480840193919291829003018186803b1580156125d757600080fd5b505afa1580156125eb573d6000803e3d6000fd5b505050506040513d602081101561260157600080fd5b505115612646576040805160e560020a62461bcd028152602060048201526011602482015260008051602061599a833981519152604482015290519081900360640190fd5b600081815260396020526040902061265d82613ebf565b156126b2576040805160e560020a62461bcd02815260206004820152601c60248201527f43616e6e6f7420776974686472617720626f6e646564207374616b6500000000604482015290519081900360640190fd5b6035546003820154604080517f4348f5cd000000000000000000000000000000000000000000000000000000008152600160a060020a03928316600482015290519190921691634348f5cd916024808301926020929190829003018186803b15801561271d57600080fd5b505afa158015612731573d6000803e3d6000fd5b505050506040513d602081101561274757600080fd5b5051156127885760405160e560020a62461bcd0281526004018080602001828103825260268152602001806159026026913960400191505060405180910390fd5b60008160020154118015612848575060355460408051600080516020615a598339815191528152602060048201819052601160248301527f7879556e7374616b65436f6f6c646f776e000000000000000000000000000000604483015291514393600160a060020a03169263693ec85e9260648082019391829003018186803b15801561281457600080fd5b505afa158015612828573d6000803e3d6000fd5b505050506040513d602081101561283e57600080fd5b5051600283015401105b151561289e576040805160e560020a62461bcd02815260206004820152601660248201527f4e6f7420726561647920666f7220776974686472617700000000000000000000604482015290519081900360640190fd5b6004810154600160a060020a03163314612902576040805160e560020a62461bcd02815260206004820152601760248201527f4f6e6c79206f776e65722063616e207769746864726177000000000000000000604482015290519081900360640190fd5b61153382826148eb565b60008481526041602052604090206002015415612973576040805160e560020a62461bcd02815260206004820152601b60248201527f4475706c69636174652072657175657374207375626d69747465640000000000604482015290519081900360640190fd5b61297d8284614a61565b612985615817565b60c0604051908101604052808581526020013481526020014381526020016000815260200187600160a060020a031681526020018360ff16815250905080604160008781526020019081526020016000206000820151816000015560208201518160010155604082015181600201556060820151816003015560808201518160040160006101000a815481600160a060020a030219169083600160a060020a0316021790555060a08201518160040160146101000a81548160ff021916908360ff16021790555090505060408590806001815401808255809150509060018203906000526020600020016000909192909190915055507ffe6124b23e2b09739c63840fae4e7d9bd8f30eb25c008affee4439bc9974d1a48585348987876040518087815260200186815260200185815260200184600160a060020a0316600160a060020a0316815260200183600160a060020a0316600160a060020a031681526020018260ff1660ff168152602001965050505050505060405180910390a1505050505050565b600054610100900460ff1680612b255750612b25614ca3565b80612b33575060005460ff16155b1515612b735760405160e560020a62461bcd02815260040180806020018281038252602e815260200180615a2b602e913960400191505060405180910390fd5b60008054600161010061ff00198316811760ff1916919091179092550460ff16612b9e848484614ca9565b600080549115156101000261ff0019909216919091179055505050565b60385481565b600160a060020a03166000908152603a602052604090205490565b60466020526000908152604090205481565b6041602052600090815260409020805460018201546002830154600384015460049094015492939192909190600160a060020a0381169060a060020a900460ff1686565b60355460408051600080516020615a5983398151915281526020600482018190526008602483015260008051602061592883398151915260448301529151600160a060020a039093169263693ec85e92606480840193919291829003018186803b158015612c9f57600080fd5b505afa158015612cb3573d6000803e3d6000fd5b505050506040513d6020811015612cc957600080fd5b505115612d0e576040805160e560020a62461bcd028152602060048201526011602482015260008051602061599a833981519152604482015290519081900360640190fd5b60355460408051600080516020615a598339815191528152602060048201819052600e60248301527f5879426f6e64436f6e747261637400000000000000000000000000000000000060448301529151600093600160a060020a03169263693ec85e9260648082019391829003018186803b158015612d8c57600080fd5b505afa158015612da0573d6000803e3d6000fd5b505050506040513d6020811015612db657600080fd5b5051905033600160a060020a03821614612e1a576040805160e560020a62461bcd02815260206004820152601760248201527f6f6e6c792066726f6d20626f6e6420636f6e7472616374000000000000000000604482015290519081900360640190fd5b8215801590612e36575060008281526044602052604090205483145b1515612e8c576040805160e560020a62461bcd02815260206004820152601d60248201527f5374616b65206e6f7420626f6e64656420746f207468697320626f6e64000000604482015290519081900360640190fd5b600082815260396020526040902060028101541515612f1157612eae81613ed3565b80546004820154600380840154604080518881526020810195909552600160a060020a0393841685820152921660608401526080830152517f7ab7e8e11949eaafd5e2ea7bac9bba6e3beabc6a6615bd6757d10434e5afd2f49181900360a00190a15b612f1b8484614cf5565b612f2583826148eb565b50505050565b60355460408051600080516020615a5983398151915281526020600482018190526008602483015260008051602061592883398151915260448301529151600160a060020a039093169263693ec85e92606480840193919291829003018186803b158015612f9857600080fd5b505afa158015612fac573d6000803e3d6000fd5b505050506040513d6020811015612fc257600080fd5b505115613007576040805160e560020a62461bcd028152602060048201526011602482015260008051602061599a833981519152604482015290519081900360640190fd5b612f25338585858561290c565b600160a060020a03166000908152603b602052604090205490565b6045602052816000526040600020818154811015156112a157fe5b6043602052600090815260409020805460018201546002830154600384015460049094015492939192909190600160a060020a031685565b600061308d8261153d565b509195945050505050565b603e6020526000908152604090208054600182015460028301546003909301549192909184565b60008080805b85518110156135dd5760006041600088848151811015156130e257fe5b9060200190602002015181526020019081526020016000209050600081600201541115156131445760405160e560020a62461bcd0281526004018080602001828103825260248152602001806159486024913960400191505060405180910390fd5b60038101541561319e576040805160e560020a62461bcd02815260206004820152601a60248201527f526573706f6e736520616c7265616479207375626d6974746564000000000000604482015290519081900360640190fd5b600481015460009060ff60a060020a90910416600114806131cc575060048281015460a060020a900460ff16145b6131d75760206131da565b60015b60ff1690506131f860016131ec6122ec565b9063ffffffff613ab616565b6003830155600182015461321390859063ffffffff613ab616565b600483015490945060ff60a060020a909104166003141561331c57600061323b888784614dcf565b600484015490915061325590600160a060020a031661199b565b8111156132965760405160e560020a62461bcd02815260040180806020018281038252602e81526020018061596c602e913960400191505060405180910390fd5b60048301547f5b9b0bc34c7f6a61889ce3382d8697cc823f00d6e619362ae6b156bc8ee3ad4690600160a060020a0316826132d08261199b565b60408051600160a060020a039094168452602084019290925282820152519081900360600190a1603354600484015461331691600160a060020a039081169116836147f4565b506135cf565b6060816040519080825280601f01601f191660200182016040528015613349576020820181803883390190505b50905060005b828110156133f8578881880181518110151561336757fe5b9060200101517f010000000000000000000000000000000000000000000000000000000000000090047f01000000000000000000000000000000000000000000000000000000000000000282828151811015156133c057fe5b9060200101907effffffffffffffffffffffffffffffffffffffffffffffffffffffffffffff1916908160001a90535060010161334f565b50600483015460ff60a060020a90910416600114806134265750600483015460ff60a060020a909104166002145b1561354e5760048301548951600160a060020a0390911690637e663238908b908790811061345057fe5b906020019060200201518560040160149054906101000a900460ff16846040518463ffffffff167c0100000000000000000000000000000000000000000000000000000000028152600401808481526020018360ff1660ff16815260200180602001828103825283818151815260200191508051906020019080838360005b838110156134e75781810151838201526020016134cf565b50505050905090810190601f1680156135145780820380516001836020036101000a031916815260200191505b50945050505050600060405180830381600087803b15801561353557600080fd5b505af1158015613549573d6000803e3d6000fd5b505050505b7fed534ef810cf0b4ca5a86d09f252615f3613687938a15c734176eedaec90800e898581518110151561357d57fe5b90602001906020020151846003015461359884600087614dcf565b60048701546040805194855260208501939093528383019190915260ff60a060020a909104166060830152519081900360800190a1505b9390930192506001016130c5565b50949350505050565b604080517f19457468657265756d205369676e6564204d6573736167653a0a333200000000602080830191909152603c80830189905283518084039091018152605c9092019092528051910120600080805b8751811015613843576000600185878481518110151561365457fe5b906020019060200201518a8581518110151561366c57fe5b906020019060200201518a8681518110151561368457fe5b9060200190602002015160405160008152602001604052604051808581526020018460ff1660ff1681526020018381526020018281526020019450505050506020604051602081039080840390855afa1580156136e5573d6000803e3d6000fd5b50505060206040510351905083600160a060020a0316898381518110151561370957fe5b60209081029091010151600160a060020a031611613771576040805160e560020a62461bcd02815260206004820152601f60248201527f5369676e657273206172726179206d75737420626520617363656e64696e6700604482015290519081900360640190fd5b888281518110151561377f57fe5b90602001906020020151935080600160a060020a031689838151811015156137a357fe5b60209081029091010151600160a060020a03161461380b576040805160e560020a62461bcd02815260206004820152601360248201527f5369676e6174757265206d69732d6d6174636800000000000000000000000000604482015290519081900360640190fd5b600160a060020a0384166000908152603e602052604090206001015461383890849063ffffffff613ab616565b925050600101613638565b5060355460408051600080516020615a598339815191528152602060048201819052601160248301527f78795374616b6553756363657373506374000000000000000000000000000000604483015291516139139360649361390793600160a060020a039092169263693ec85e9280870192919081900387018186803b1580156138cc57600080fd5b505afa1580156138e0573d6000803e3d6000fd5b505050506040513d60208110156138f657600080fd5b50516036549063ffffffff614ded16565b9063ffffffff614e1616565b8111613969576040805160e560020a62461bcd02815260206004820152601060248201527f4e6f7420656e6f756768207374616b6500000000000000000000000000000000604482015290519081900360640190fd5b5050505050505050565b61397b61585a565b60a06040519081016040528086815260200184815260200183815260200143815260200133600160a060020a03168152509050604284908060018154018082558091505090600182039060005260206000200160009091929091909150555080604360008681526020019081526020016000206000820151816000015560208201518160010155604082015181600201556060820151816003015560808201518160040160006101000a815481600160a060020a030219169083600160a060020a031602179055509050507f82fc50e339180bcc315d917fbc4224d406c0a8185ad1f9e522a403a3814dca0f84868543336040518086815260200185815260200184815260200183815260200182600160a060020a0316600160a060020a031681526020019550505050505060405180910390a15050505050565b8181018281101561133957fe5b60355460408051600080516020615a5983398151915281526020600482018190526008602483015260008051602061592883398151915260448301529151600160a060020a039093169263693ec85e92606480840193919291829003018186803b158015613b3057600080fd5b505afa158015613b44573d6000803e3d6000fd5b505050506040513d6020811015613b5a57600080fd5b505115613b9f576040805160e560020a62461bcd028152602060048201526011602482015260008051602061599a833981519152604482015290519081900360640190fd5b6000613baa83614e2b565b60048101549091507501000000000000000000000000000000000000000000900460ff16158015613be75750600481015460a060020a900460ff16155b1515613c3d576040805160e560020a62461bcd02815260206004820152601860248201527f63616e6e6f742072652d6163746976617465207374616b650000000000000000604482015290519081900360640190fd5b6034546003820154604080517ff6a3d24e000000000000000000000000000000000000000000000000000000008152600160a060020a039283166004820152905185151593929092169163f6a3d24e91602480820192602092909190829003018186803b158015613cad57600080fd5b505afa158015613cc1573d6000803e3d6000fd5b505050506040513d6020811015613cd757600080fd5b505115151415613d31576040805160e560020a62461bcd02815260206004820152601260248201527f4f6e6c7920425073206163746976617465640000000000000000000000000000604482015290519081900360640190fd5b60048101805475ff000000000000000000000000000000000000000000191675010000000000000000000000000000000000000000008415801582029290921774ff0000000000000000000000000000000000000000191660a060020a92830217928390556040805160e08101825285548152600186015460208201526002860154918101919091526003850154600160a060020a0390811660608301528416608082015260ff9284048316151560a0820152920416151560c0820152613df79061500a565b8054600482015460038301547f7ab7e8e11949eaafd5e2ea7bac9bba6e3beabc6a6615bd6757d10434e5afd2f49286929091600160a060020a03918216911686613e42576001613e45565b60025b6040518086815260200185815260200184600160a060020a0316600160a060020a0316815260200183600160a060020a0316600160a060020a03168152602001826004811115613e9157fe5b60ff1681526020019550505050505060405180910390a1505050565b600082821115613eb957fe5b50900390565b600090815260446020526040902054151590565b6040805160e0810182528254808252600184015460208301526002840154928201929092526003830154600160a060020a0390811660608301526004840154908116608083015260ff60a060020a82048116151560a0840152750100000000000000000000000000000000000000000090910416151560c0820152613f579161518c565b8054600380830154600160a060020a03166000908152603e602052604090200154613f879163ffffffff613ab616565b600380830154600160a060020a039081166000908152603e60209081526040808320850195909555855460048701549093168252603f9052929092200154613fd49163ffffffff613ab616565b600482018054600160a060020a03166000908152603f6020526040902060030191909155805475ffff00000000000000000000000000000000000000001916905543600290910155565b825b8383018110156141b257600160a060020a0385166000908152603a6020526040812080548390811061404e57fe5b60009182526020808320909101548083526039909152604090912060028101549192509015156141a857600084111561413c57600061409f6064613907846000015488614ded90919063ffffffff16565b6040805160e08101825284548152600185015460208201526002850154918101919091526003840154600160a060020a0390811660608301526004850154908116608083015260ff60a060020a82048116151560a0840152750100000000000000000000000000000000000000000090910416151560c0820152909150614126908261518c565b603854614139908263ffffffff613ab616565b50505b61414581613ed3565b80546004820154600380840154604080518781526020810195909552600160a060020a0393841685820152921660608401526080830152517f7ab7e8e11949eaafd5e2ea7bac9bba6e3beabc6a6615bd6757d10434e5afd2f49181900360a00190a15b5050600101614020565b5050505050565b6033546000906141d490600160a060020a031686308561539b565b603554604080517f4348f5cd000000000000000000000000000000000000000000000000000000008152600160a060020a03868116600483015291519190921691634348f5cd916024808301926020929190829003018186803b15801561423a57600080fd5b505afa15801561424e573d6000803e3d6000fd5b505050506040513d602081101561426457600080fd5b5051156142a55760405160e560020a62461bcd0281526004018080602001828103825260268152602001806159026026913960400191505060405180910390fd5b60408051600160a060020a038581166c01000000000000000000000000908102602080850191909152918816026034830152436048808401919091528351808403909101815260689092019092528051910120614300615888565b506040805160e0810182528481524360208201526000918101829052600160a060020a0380871660608301528716608082015260a0810182905260c081019190915261434b81615484565b600160a060020a038581166000818152603a602090815260408083208054888552603c845282852081905560018082018355918552838520018890558b8616808552603b845282852080548a8752603d865284872081905580840182559086528486200189905588855260398452828520885181558885015192810192909255878301516002830155606080890151600384018054918a1673ffffffffffffffffffffffffffffffffffffffff199283161790556080808b01516004909501805460a0808e015160c08f0151151575010000000000000000000000000000000000000000000275ff0000000000000000000000000000000000000000001991151560a060020a0274ff0000000000000000000000000000000000000000199a909f169390961692909217979097169b909b179a909a169190911790985583518a81529485018c9052848401919091528301949094529381019190915291517f7ab7e8e11949eaafd5e2ea7bac9bba6e3beabc6a6615bd6757d10434e5afd2f49281900390910190a15095945050505050565b6000805b8351811015611d575781600160a060020a0316848281518110151561450257fe5b60209081029091010151600160a060020a0316116145545760405160e560020a62461bcd02815260040180806020018281038252602a8152602001806159dd602a913960400191505060405180910390fd5b838181518110151561456257fe5b9060200190602002015191506145bf86868381518110151561458057fe5b90602001906020020151868481518110151561459857fe5b9060200190602002015186858151811015156145b057fe5b906020019060200201516141b9565b506001016144e1565b8051825114614621576040805160e560020a62461bcd02815260206004820152600a60248201527f62616420696e7075747300000000000000000000000000000000000000000000604482015290519081900360640190fd5b6000805b83518110156122025781600160a060020a0316848281518110151561464657fe5b60209081029091010151600160a060020a0316116146985760405160e560020a62461bcd02815260040180806020018281038252602a8152602001806159dd602a913960400191505060405180910390fd5b83818151811015156146a657fe5b90602001906020020151915060006146df878787858151811015156146c757fe5b9060200190602002015187868151811015156145b057fe5b60008181526044602090815260408083208c90558b83526045808352818420805486865260468552928520839055908352600182018155835291200181905560345486519192506147eb918391600160a060020a03169063f6a3d24e9089908790811061474857fe5b906020019060200201516040518263ffffffff167c01000000000000000000000000000000000000000000000000000000000281526004018082600160a060020a0316600160a060020a0316815260200191505060206040518083038186803b1580156147b457600080fd5b505afa1580156147c8573d6000803e3d6000fd5b505050506040513d60208110156147de57600080fd5b5051151560011415613ac3565b50600101614625565b82600160a060020a031663a9059cbb83836040518363ffffffff167c01000000000000000000000000000000000000000000000000000000000281526004018083600160a060020a0316600160a060020a0316815260200182815260200192505050600060405180830381600087803b15801561487057600080fd5b505af1158015614884573d6000803e3d6000fd5b5050505061489061551b565b15156148e6576040805160e560020a62461bcd02815260206004820152600d60248201527f7472616e73666572206661696c00000000000000000000000000000000000000604482015290519081900360640190fd5b505050565b6040805160e08101825282548152600183015460208201526002830154918101919091526003820154600160a060020a0390811660608301526004830154908116608083015260ff60a060020a82048116151560a0840152750100000000000000000000000000000000000000000090910416151560c082015261496e9061554f565b603354815461498891600160a060020a03169033906147f4565b80546004808301546003840154604080518781526020810195909552600160a060020a0392831685820152911660608401526080830191909152517f7ab7e8e11949eaafd5e2ea7bac9bba6e3beabc6a6615bd6757d10434e5afd2f49181900360a00190a16149f6826155f3565b6149ff82615705565b50600090815260396020526040812081815560018101829055600281019190915560038101805473ffffffffffffffffffffffffffffffffffffffff19169055600401805475ffffffffffffffffffffffffffffffffffffffffffff19169055565b60355460408051600080516020615a598339815191528152602060048201819052600e60248301527f78795765694d696e696e674d696e00000000000000000000000000000000000060448301529151600093600160a060020a03169263693ec85e9260648082019391829003018186803b158015614adf57600080fd5b505afa158015614af3573d6000803e3d6000fd5b505050506040513d6020811015614b0957600080fd5b505160355460408051600080516020615a598339815191528152602060048201819052601560248301527f787958594f52657175657374426f756e74794d696e000000000000000000000060448301529151939450600093600160a060020a039093169263693ec85e92606480840193919291829003018186803b158015614b9057600080fd5b505afa158015614ba4573d6000803e3d6000fd5b505050506040513d6020811015614bba57600080fd5b505190506000821115614c1f5734821115614c1f576040805160e560020a62461bcd02815260206004820152601e60248201527f4e6f7420656e6f7567682077656920746f20636f766572206d696e696e670000604482015290519081900360640190fd5b6000831180614c2e5750600081115b15612f255780831015614c8b576040805160e560020a62461bcd02815260206004820152601c60248201527f58594f20426f756e7479206c657373207468616e206d696e696d756d00000000604482015290519081900360640190fd5b603354612f2590600160a060020a031685308661539b565b303b1590565b60338054600160a060020a0394851673ffffffffffffffffffffffffffffffffffffffff1991821617909155603480549385169382169390931790925560358054919093169116179055565b600082815260456020526040812054614d1590600163ffffffff613ead16565b600083815260466020908152604080832054878452604590925282208054939450909284908110614d4257fe5b90600052602060002001549050806045600087815260200190815260200160002083815481101515614d7057fe5b6000918252602080832090910192909255868152604590915260409020805490614d9e9060001983016158c4565b5060008481526046602090815260408083208390559282528282209390935593845260449091528220919091555050565b6000818301845110151515614de357600080fd5b5050016020015190565b6000821515614dfe57506000611339565b50818102818382811515614e0e57fe5b041461133957fe5b60008183811515614e2357fe5b049392505050565b6000818152603960205260408120614e4283613ebf565b1515614fb0576004810154600160a060020a03163314614eac576040805160e560020a62461bcd02815260206004820152601c60248201527f4f6e6c7920746865207374616b65722063616e20616374697661746500000000604482015290519081900360640190fd5b60355460408051600080516020615a598339815191528152602060048201819052600f60248301527f78795374616b65436f6f6c646f776e0000000000000000000000000000000000604483015291514393600160a060020a03169263693ec85e9260648082019391829003018186803b158015614f2957600080fd5b505afa158015614f3d573d6000803e3d6000fd5b505050506040513d6020811015614f5357600080fd5b505160018301540110614fb0576040805160e560020a62461bcd02815260206004820152601f60248201527f4e6f7420726561647920746f206163746976617465207374616b652079657400604482015290519081900360640190fd5b600281015415611339576040805160e560020a62461bcd02815260206004820152601760248201527f43616e6e6f7420616374697661746520756e7374616b65000000000000000000604482015290519081900360640190fd5b8060c00151156150d15780516060820151600160a060020a03166000908152603e60205260409020600201546150459163ffffffff613ab616565b6060820151600160a060020a039081166000908152603e60209081526040808320600290810195909555855160808701519094168352603f9091529020909101546150959163ffffffff613ab616565b6080820151600160a060020a03166000908152603f602052604090206002015580516037546150c99163ffffffff613ab616565b603755611369565b80516060820151600160a060020a03166000908152603e60205260409020600101546151029163ffffffff613ab616565b6060820151600160a060020a039081166000908152603e60209081526040808320600190810195909555855160808701519094168352603f9091529020909101546151529163ffffffff613ab616565b6080820151600160a060020a03166000908152603f602052604090206001015580516036546151869163ffffffff613ab616565b60365550565b6060820151600160a060020a03166000908152603e60205260409020546151b9908263ffffffff613ead16565b6060830151600160a060020a039081166000908152603e602090815260408083209490945560808601519092168152603f90915220546151ff908263ffffffff613ead16565b6080830151600160a060020a03166000908152603f602052604090205560a0820151156152dc576060820151600160a060020a03166000908152603e6020526040902060010154615256908263ffffffff613ead16565b6060830151600160a060020a039081166000908152603e6020908152604080832060019081019590955560808701519093168252603f90522001546152a1908263ffffffff613ead16565b6080830151600160a060020a03166000908152603f60205260409020600101556036546152d4908263ffffffff613ead16565b603655611533565b8160c0015115611533576060820151600160a060020a03166000908152603e6020526040902060020154615316908263ffffffff613ead16565b6060830151600160a060020a039081166000908152603e6020908152604080832060029081019590955560808701519093168252603f9052200154615361908263ffffffff613ead16565b6080830151600160a060020a03166000908152603f6020526040902060020155603754615394908263ffffffff613ead16565b6037555050565b604080517f23b872dd000000000000000000000000000000000000000000000000000000008152600160a060020a0385811660048301528481166024830152604482018490529151918616916323b872dd9160648082019260009290919082900301818387803b15801561540e57600080fd5b505af1158015615422573d6000803e3d6000fd5b5050505061542e61551b565b1515612f25576040805160e560020a62461bcd02815260206004820152601160248201527f7472616e7366657246726f6d206661696c000000000000000000000000000000604482015290519081900360640190fd5b80516060820151600160a060020a03166000908152603e60205260409020546154b29163ffffffff613ab616565b6060820151600160a060020a039081166000908152603e6020908152604080832094909455845160808601519093168252603f905291909120546154fb9163ffffffff613ab616565b608090910151600160a060020a03166000908152603f6020526040902055565b6000803d8015615532576020811461553b57615547565b60019150615547565b60206000803e60005191505b501515905090565b80516060820151600160a060020a03166000908152603e60205260409020600301546155809163ffffffff613ead16565b6060820151600160a060020a039081166000908152603e60209081526040808320600390810195909555855160808701519094168352603f9091529020909101546155d09163ffffffff613ead16565b608090910151600160a060020a03166000908152603f6020526040902060030155565b600081815260396020908152604080832060030154603c835281842054600160a060020a03909116808552603a90935290832080549293919260001981019291908390811061563e57fe5b9060005260206000200154905080603a600086600160a060020a0316600160a060020a031681526020019081526020016000208481548110151561567e57fe5b6000918252602080832090910192909255600160a060020a0386168152603a909152604081208054849081106156b057fe5b6000918252602080832090910192909255600160a060020a0386168152603a909152604090208054906156e79060001983016158c4565b506000948552603c6020526040808620869055908552909320555050565b600081815260396020908152604080832060040154603d835281842054600160a060020a03909116808552603b90935290832080549293919260001981019291908390811061575057fe5b9060005260206000200154905080603b600086600160a060020a0316600160a060020a031681526020019081526020016000208481548110151561579057fe5b6000918252602080832090910192909255600160a060020a0386168152603b909152604081208054849081106157c257fe5b6000918252602080832090910192909255600160a060020a0386168152603b909152604090208054906157f99060001983016158c4565b506000948552603d6020526040808620869055908552909320555050565b60c060405190810160405280600081526020016000815260200160008152602001600081526020016000600160a060020a03168152602001600060ff1681525090565b6040805160a08101825260008082526020820181905291810182905260608101829052608081019190915290565b6040805160e081018252600080825260208201819052918101829052606081018290526080810182905260a0810182905260c081019190915290565b8154818355818111156148e6576000838152602090206148e691810190830161135b91905b808211156158fd57600081556001016158e9565b509056fe416c6c20616374696f6e73206f6e207374616b6565206d757374206265207265736f6c766564787950617573656400000000000000000000000000000000000000000000000050617373656420612072657175657374207468617420646f6573206e6f74206578697374576974686472617720616d6f756e74206d6f7265207468616e20746f74616c207374616b65722773207374616b655374616b696e67206973205061757365640000000000000000000000000000004f6e6c7920746865207374616b65722063616e20756e7374616b652061207374616b655374616b656573206172726179206d75737420626520756e6971756520616e6420617363656e64696e674f6e6c7920756e7374616b6520626f6e6465642d7374616b652076696120706172656e74436f6e747261637420696e7374616e63652068617320616c7265616479206265656e20696e697469616c697a6564693ec85e00000000000000000000000000000000000000000000000000000000a165627a7a72305820975746476067ba051c9bc7d2551802ad10db617eb63a24f95153a87004fa8d280029",
  "source": "pragma solidity >=0.5.0 <0.6.0;\n\nimport \"../utils/Initializable.sol\";\nimport \"./XyStakingModel.sol\";\nimport \"../IXyRequester.sol\";\n\n /**\n    @title XyStakingConsensus\n    @dev Manages the Stake for multiple clients in a decentralized consensus \n    system to trustlessly answer requests\n  */\ncontract XyStakingConsensus is Initializable, XyStakingModel {\n    using SafeMath for uint;\n    \n    /** STRUCTS */\n    struct Block {\n        bytes32 previousBlock;\n        bytes32 supportingData;\n        uint stakingBlock;\n        uint createdAt;\n        address creator;\n    }\n\n    struct Request {\n        uint xyoBounty;\n        uint weiMining;\n        uint createdAt;\n        uint responseBlockNumber;\n        address requestSender;\n        uint8 requestType;\n    }\n\n    // the array of request ids\n    bytes32[] public requestChain;\n    // the requests in the requestChain\n    mapping(bytes32 => Request) public requestsById; \n    // the array of block ids\n    bytes32[] public blockChain; \n    // The blocks in the blockChain\n    mapping(bytes32 => Block) public blocks; \n\n    /** EVENTS */\n    event RequestSubmitted(\n        bytes32 request,\n        uint xyoBounty,\n        uint weiMining,\n        address requester,\n        address xyoSender,\n        uint8 requestType\n    );\n\n    event BlockCreated(\n        bytes32 blockHash,\n        bytes32 previousBlock,\n        bytes32 supportingData,\n        uint createdAtBlock,\n        address blockProducer\n    );\n\n    event WithdrawClaimed(\n        address beneficiary,\n        uint amount,\n        uint stakerStake\n    );\n\n    event Response (\n        bytes32 request,\n        uint responseBlock,\n        uint result,\n        uint8 responseType\n    );\n\n    // mapping from stake id to bond id\n    mapping (bytes32 => bytes32) public bondedStake;\n    // mapping from bond id to stake ids\n    mapping (bytes32 => bytes32[]) public bondStakes;\n    // mapping from stake id to index in bond stake\n    mapping (bytes32 => uint) public bondStakeIndex;\n\n    /**\n        @param _token - The ERC20 token to stake with \n        @param _blockProducerContract - The block producers \n        @param _governanceContract - The contract that governs the blockProducer and actions of the system\n    */\n    function initialize(\n        address _token,\n        address _blockProducerContract,\n        address _governanceContract\n    )\n        initializer public\n    {\n        init(_token, _blockProducerContract, _governanceContract);\n    }\n\n    /** \n        @return the latest block submitted to the blockChain \n    */\n    function getLatestBlock() \n        public \n        view \n        returns (bytes32) \n    {\n        if (blockChain.length == 0) {\n            return 0x0;\n        }\n        return blockChain[blockChain.length-1];\n    }\n\n    /**\n        @dev Withdraw reward balance can post same params via raw\n        @param xyoBounty bounty for request\n    */\n    function withdrawRewardsRequest \n    (\n        uint xyoBounty\n    ) \n        whenActive\n        public\n        payable\n        returns (bytes32)\n    {\n        bytes32 requestId = keccak256(abi.encodePacked(msg.sender, xyoBounty, block.number));\n        submitRequest(requestId, xyoBounty, msg.sender, uint8(IXyRequester.RequestType.WITHDRAW));\n        return requestId;\n    }\n\n    /** \n        Implements IApprovalRecipient allows approveAndCall in one transaction\n    */\n    function receiveApproval(\n        address _spender, \n        uint256 _value, \n        address,\n        bytes calldata _extraData\n    ) \n        whenActive\n        external \n    {\n        require (msg.sender == xyoToken, \"sender must be token\");\n        (uint method, bytes memory data) = abi.decode(_extraData, (uint, bytes));\n        \n        if (method == 1) {\n            (address staker, address stakee) = abi.decode(data, (address, address));\n            stakeFrom(_spender, staker, stakee, _value);\n        } else if (method == 2) {\n            ( bytes32 request, uint xyoBounty, address xyoSender, uint8 requestType) = abi.decode(data, (bytes32, uint, address, uint8));\n            submitRequestFrom(_spender, request, xyoBounty, xyoSender, requestType);\n        } else if (method == 3) {\n            (address[] memory stakers, address[] memory stakees, uint[] memory amounts) = abi.decode(data, (address[], address[], uint[]));\n            stakeMultiple(_spender, stakers, stakees, amounts);\n        } else if (method == 4) {\n            (bytes32 bondId, address staker, address[] memory stakees, uint[] memory amounts) = abi.decode(data, (bytes32, address, address[], uint[]));\n            _stakeAndBond(bondId, _spender, staker, stakees, amounts);\n        }\n    }\n\n    /**\n        @dev Escrow eth and xyo, making sure it covers the answer mining cost\n        Stores new request in request pool\n        @param request How to uniquely identify a request\n        @param xyoBounty bounty for request\n        @param xyoSender who to deduct the xyo from for mining cost\n        @param requestType based on the type we know which callback to call (string or bool)\n    */\n    function submitRequest\n    (\n        bytes32 request, \n        uint xyoBounty,\n        address xyoSender, \n        uint8 requestType\n    ) \n        whenActive\n        public\n        payable\n    {\n        submitRequestFrom(msg.sender, request, xyoBounty, xyoSender, requestType);\n    }\n\n    function submitRequestFrom\n    (   \n        address from,\n        bytes32 request, \n        uint xyoBounty,\n        address xyoSender, \n        uint8 requestType\n    )\n        public \n        payable\n    {\n        require (requestsById[request].createdAt == 0, \"Duplicate request submitted\");\n\n        _requireFeesAndTransfer(xyoSender, xyoBounty);\n\n        Request memory q = Request (\n            xyoBounty,      // bounty\n            msg.value,      // wei for mining\n            block.number,   // created at\n            0,              // response block num           \n            from,           // requestSender (receives response cb)\n            requestType     // type of request\n        );\n\n        requestsById[request] = q;\n        requestChain.push(request);\n\n        emit RequestSubmitted(request, xyoBounty, msg.value, from, xyoSender, requestType);\n    }\n\n    /**\n        Will verify proper mining fees have been applied\n        @param xyoSender who to transfer the fees from (must have approved this contract)\n        @param xyoBounty the amount the xyoSender is paying for this request\n    */\n    function _requireFeesAndTransfer(address xyoSender, uint xyoBounty) \n        private \n    {\n        uint weiMiningMin = govContract.get(\"xyWeiMiningMin\");\n        uint bountyMin = govContract.get(\"xyXYORequestBountyMin\");\n        if (weiMiningMin > 0) {\n            require (msg.value >= weiMiningMin, \"Not enough wei to cover mining\");\n        }\n        if (xyoBounty > 0 || bountyMin > 0) {\n            require (xyoBounty >= bountyMin, \"XYO Bounty less than minimum\");\n            SafeERC20.transferFrom(xyoToken, xyoSender, address(this), xyoBounty);\n        }\n    }\n\n    /**\n        Requires the length of bytes is more than starting point + 32\n        returns 32 bytes memory (reversed to uint) at start + 32 to memory[start]\n        @param _bytes the bytes passed to pull uint from\n        @param _start index in bytes to return uint\n     */\n    function _toUintFromBytes(bytes memory _bytes, uint _start, uint bytesLen) private pure returns (uint256) {\n        require(_bytes.length >= (_start + bytesLen));\n        uint256 tempUint;\n\n        assembly {\n            tempUint := mload(add(add(_bytes, 0x20), _start))\n        }\n\n        return tempUint;\n    }\n\n    /** \n        @dev Calls Request interface submitResponse function for each answer.\n        Use for estimating gas of a request\n        @param _requests the requests queried\n        @param responses the response data of all the requests\n        @return The weiMining for submitting the new block\n        Will revert if the request does not exist, or the withdraw request is more htna the staker stake\n    */\n    function handleResponses\n    (\n        bytes32[] memory _requests, \n        bytes memory responses\n    )\n        internal \n        returns (uint)\n    {\n        uint byteOffset = 0;\n        uint weiMining = 0;\n        for (uint i = 0; i < _requests.length; i++) {\n            Request storage q = requestsById[_requests[i]];\n            require (q.createdAt > 0, \"Passed a request that does not exist\");\n            require (q.responseBlockNumber == 0, \"Response already submitted\");\n\n            uint numBytes = q.requestType == uint8(IXyRequester.RequestType.BOOL_CALLBACK)\n                         || q.requestType == uint8(IXyRequester.RequestType.BOOL) ? 1 : 32;\n\n            q.responseBlockNumber = numBlocks().add(1);\n            weiMining = weiMining.add(q.weiMining);\n\n            if (q.requestType == uint8(IXyRequester.RequestType.WITHDRAW)) {\n                uint amount = _toUintFromBytes(responses, byteOffset, numBytes);\n                require (amount <= totalStakeAndUnstake(q.requestSender), \"Withdraw amount more than total staker's stake\");\n                emit WithdrawClaimed(q.requestSender, amount, totalStakeAndUnstake(q.requestSender));\n                SafeERC20.transfer(xyoToken, q.requestSender, amount);\n            } else {\n                bytes memory result = new bytes(numBytes);\n                for (uint j = 0; j < numBytes; j++) {\n                    result[j] = responses[byteOffset + j];\n                }\n                if (q.requestType == uint8(IXyRequester.RequestType.BOOL_CALLBACK) \n                    || q.requestType == uint8(IXyRequester.RequestType.UINT_CALLBACK)) {\n                    IXyRequester(q.requestSender).submitResponse(_requests[i], q.requestType, result);\n                } \n                emit Response(_requests[i], q.responseBlockNumber, _toUintFromBytes(result, 0, numBytes), q.requestType);\n            }\n            byteOffset += numBytes;\n        }\n        \n        return weiMining;\n    }\n\n    /** \n        @dev checks a message hash was signed by a list of signers via their sigs\n        @param messageHash The hash of the message that was signed\n        @param signers The in-order list of signers of the message\n        @param sigR R values in signatures\n        @param sigS S values in signatures\n        @param sigV V values in signatures\n    */\n    function checkSigsAndStakes\n    (\n        bytes32 messageHash,\n        address[] memory signers,\n        bytes32[] memory sigR,\n        bytes32[] memory sigS,\n        uint8[] memory sigV\n    )\n        view\n        internal \n    {\n        bytes32 prefixedHash = keccak256(abi.encodePacked(\"\\x19Ethereum Signed Message:\\n32\", messageHash));\n        address lastStakee = address(0);\n        uint stake = 0;\n        for (uint i = 0; i < signers.length; i++) {\n            address signer = ecrecover(prefixedHash, sigV[i], sigR[i], sigS[i]);\n            require(signers[i] > lastStakee , \"Signers array must be ascending\");\n            lastStakee = signers[i];\n            require(signers[i] == signer, \"Signature mis-match\");\n            stake = stake.add(stakeeStake[lastStakee].activeStake);\n        }\n        // check sufficient stake by stakees subitted\n        require (stake > totalActiveStake.mul(govContract.get(\"xyStakeSuccessPct\")).div(100), \"Not enough stake\");\n    }\n\n    function _createBlock(bytes32 previousBlock, bytes32 newBlock, bytes32 supportingData, uint stakingBlock) private {\n        Block memory b = Block(previousBlock, supportingData, stakingBlock, block.number,  msg.sender);\n        blockChain.push(newBlock);\n        blocks[newBlock] = b;\n        emit BlockCreated(newBlock, previousBlock, supportingData, block.number, msg.sender);\n    }\n\n    /**\n        Submit a new block to the consensus blockChain. Verifies stake in consensus is over 51% of the network. \n        calls requests' callbacks with responses.  Creates new block and returns weiMining for successful creation.\n        @param previousBlock the prior block to maintain the \n        @param stakingBlock the block number diviners get staking data for\n        @param _requests list of the request ids (minus first 2 bytes)\n        @param supportingData the hash of the supporting block data\n        @param responses byte array of responses\n        @param signers Stakees, aka diviners and must be passed in ascending order to check for dups\n        @param sigR R values in signatures\n        @param sigS S values in signatures\n        @param sigV V values in signatures\n        @return The hash of the new block\n    */\n    function submitBlock\n    (\n        bytes32 previousBlock,\n        uint stakingBlock,\n        bytes32[] memory _requests,\n        bytes32 supportingData,\n        bytes memory responses,\n        address[] memory signers,\n        bytes32[] memory sigR,\n        bytes32[] memory sigS,\n        uint8[] memory sigV\n    ) \n        public \n        returns (bytes32)\n    {\n        require (blockProducerContract.exists(msg.sender), \"Only approved BP can submit\");\n        require (previousBlock == getLatestBlock(), \"Incorrect previous block\");\n        require (_requests.length > 0, \"No requests in block\");\n        \n        bytes32 newBlock = keccak256(abi.encodePacked(previousBlock, stakingBlock, _requests, supportingData, responses));\n        uint weiMining = handleResponses(_requests, responses);\n        msg.sender.transfer(weiMining);\n\n        checkSigsAndStakes(newBlock, signers, sigR, sigS, sigV);\n        _createBlock(previousBlock, newBlock, supportingData, stakingBlock);\n\n        return newBlock;\n    }\n\n    /**\n        Returns a block for a given request id or a undefined block\n        @param requestId the block this request was responded on\n    */\n    function blockForRequest(bytes32 requestId) \n        public view \n        returns (\n            bytes32 previousBlock,\n            bytes32 supportingData,\n            uint stakingBlock,\n            uint createdAt,\n            address creator\n        ) \n    {\n        Request memory r = requestsById[requestId];\n        if (r.responseBlockNumber > 0) {\n            bytes32 blockId = blockChain[r.responseBlockNumber.sub(1)];\n            if (blockId != 0) {\n                previousBlock = blocks[blockId].previousBlock;\n                supportingData = blocks[blockId].supportingData;\n                stakingBlock = blocks[blockId].stakingBlock;\n                createdAt = blocks[blockId].createdAt;\n                creator = blocks[blockId].creator;\n            }\n        }\n    }\n\n    /**\n        Returns supporting data for a given request id\n        @param requestId the block this request was responded on\n        @return content addressable hash of the data\n    */\n    function supportingDataForRequest(bytes32 requestId) public view returns (bytes32 supportingData) {\n        (,supportingData,,,) = blockForRequest(requestId);\n    }\n\n    function numRequests() public view returns (uint) {\n        return requestChain.length;\n    }\n    \n    function numBlocks() public view returns (uint) {\n        return blockChain.length;\n    }\n\n    /* Network Staking Support */\n\n    /**\n        Called from StakingModel base class to see if this is bonded stake\n    */\n    function isBondedStake(bytes32 stakingId) internal view returns (bool) {\n        return bondedStake[stakingId] != 0;\n    }\n\n    /**\n        stakes a bonded stake\n        @param bondId - the bond id to ensure the correct stake\n        @param issuer - Who provides the xyo\n        @param staker - the beneficiary of the stake\n        @param stakees - the stakees to stake\n        @param amounts - the amounts to stake by stakee\n    */\n    function _stakeAndBond (\n        bytes32 bondId, \n        address issuer, \n        address staker, \n        address[] memory stakees, \n        uint[] memory amounts\n    ) \n        private \n    {\n        require(stakees.length == amounts.length, \"bad inputs\");\n        address lastStakee = address(0);\n        for (uint i = 0; i < stakees.length; i++) {\n            require(stakees[i] > lastStakee , \"Stakees array must be unique and ascending\");\n            lastStakee = stakees[i];\n            bytes32 stakingId = stakeFrom(issuer, staker, stakees[i], amounts[i]);\n            bondedStake[stakingId] = bondId;\n            bondStakeIndex[stakingId] = bondStakes[bondId].length;\n            bondStakes[bondId].push(stakingId);\n            _activateStake(stakingId, blockProducerContract.exists(stakees[i]) != true);\n        }\n    } \n\n    function _removeBondedStake(\n        bytes32 bondId, \n        bytes32 stakingId \n    )\n        private\n    {\n        uint lastI = bondStakes[bondId].length.sub(1);\n        uint index = bondStakeIndex[stakingId];\n\n        bytes32 last = bondStakes[bondId][lastI];\n        bondStakes[bondId][index] = last;\n\n        bondStakes[bondId].length--;\n        bondStakeIndex[stakingId] = 0;\n        \n        bondStakeIndex[last] = index;\n        bondedStake[stakingId] = 0;\n    }\n\n    /**\n        Unstakes/withdraws to bonded stake\n        @param bondId - the bond id to ensure the correct stake\n        @param stakingId - the id of the stake to withdraw to bond contract\n    */\n    function unstakeBonded (\n        bytes32 bondId, \n        bytes32 stakingId\n    ) \n        whenActive\n        external \n    {\n        address bondContract = address(govContract.get('XyBondContract'));\n        require(msg.sender == bondContract, \"only from bond contract\");\n        require(bondId != 0 && bondId == bondedStake[stakingId], \"Stake not bonded to this bond\");\n        Stake storage data = stakeData[stakingId];\n        if (data.unstakeBlock==0) {\n            updateCacheOnUnstake(data);\n            emit StakeEvent(stakingId, data.amount, data.staker, data.stakee, StakeTransition.UNSTAKED);\n        }\n        _removeBondedStake(bondId, stakingId);\n        _withdrawStakeData(stakingId, data);\n    }\n\n    function numBondStakes(bytes32 bondId) public view returns(uint) {\n        return bondStakes[bondId].length;\n    }\n\n\n    /* \n        Done in conjunction with bonded stake\n        Complete abandonment of this smart contract's state to reimburse all tokens\n    */\n    function eject(address beneficiary) public {\n        uint amount = totalStakeAndUnstake(beneficiary);\n        StakeAmounts storage amt = stakerStake[beneficiary];\n\n        uint t = amt.totalStake;\n        uint a = amt.activeStake;\n        uint c = amt.cooldownStake;\n        uint u = amt.totalUnstake;\n\n        amt.totalStake = 0;\n        amt.activeStake = 0;\n        amt.cooldownStake = 0;\n        amt.totalUnstake = 0;\n\n        if (amount > 0) {\n            SafeERC20.transfer(xyoToken, beneficiary, amount);\n            emit EjectEvent(beneficiary, amount, t, a, c, u);\n        }\n    }\n}",
  "sourcePath": "/Users/kevin/GitHub/xyo/dapp-scsc-solidity/contracts/staking/XyStakingConsensus.sol",
  "compiler": {
    "name": "solc",
    "version": "0.5.4+commit.9549d8ff.Emscripten.clang"
  },
  "schemaVersion": "3.0.21",
  "updatedAt": "2020-03-25T16:49:23.655Z",
  "devdoc": {
    "details": "Manages the Stake for multiple clients in a decentralized consensus  system to trustlessly answer requests",
    "methods": {
      "blockForRequest(bytes32)": {
        "params": {
          "requestId": "the block this request was responded on"
        }
      },
      "cooldownStake(bytes32)": {
        "details": "Mark stake as cooled down or activated cooled down stake is for non-block producers only",
        "params": {
          "stakingId": "- the tokenId of the staking token"
        }
      },
      "getLatestBlock()": {
        "return": "the latest block submitted to the blockChain "
      },
      "initialize(address,address,address)": {
        "params": {
          "_blockProducerContract": "- The block producers ",
          "_governanceContract": "- The contract that governs the blockProducer and actions of the system",
          "_token": "- The ERC20 token to stake with "
        }
      },
      "resolveGovernanceAction(address,uint256,uint256)": {
        "params": {
          "batchSize": "if batchable action, batchSize",
          "stakee": "the staked item receiving action",
          "startIndex": "if a batchable action, where to start"
        }
      },
      "stake(address,uint256)": {
        "details": "This contract must be approved to transfers by holder",
        "params": {
          "amount": "- the amount to stake",
          "stakee": "- the stakable address "
        }
      },
      "submitBlock(bytes32,uint256,bytes32[],bytes32,bytes,address[],bytes32[],bytes32[],uint8[])": {
        "params": {
          "_requests": "list of the request ids (minus first 2 bytes)",
          "previousBlock": "the prior block to maintain the ",
          "responses": "byte array of responses",
          "sigR": "R values in signatures",
          "sigS": "S values in signatures",
          "sigV": "V values in signatures",
          "signers": "Stakees, aka diviners and must be passed in ascending order to check for dups",
          "stakingBlock": "the block number diviners get staking data for",
          "supportingData": "the hash of the supporting block data"
        },
        "return": "The hash of the new block"
      },
      "submitRequest(bytes32,uint256,address,uint8)": {
        "details": "Escrow eth and xyo, making sure it covers the answer mining cost Stores new request in request pool",
        "params": {
          "request": "How to uniquely identify a request",
          "requestType": "based on the type we know which callback to call (string or bool)",
          "xyoBounty": "bounty for request",
          "xyoSender": "who to deduct the xyo from for mining cost"
        }
      },
      "supportingDataForRequest(bytes32)": {
        "params": {
          "requestId": "the block this request was responded on"
        },
        "return": "content addressable hash of the data"
      },
      "unstake(bytes32)": {
        "params": {
          "stakingId": "- the tokenId of the staking token"
        }
      },
      "unstakeBonded(bytes32,bytes32)": {
        "params": {
          "bondId": "- the bond id to ensure the correct stake",
          "stakingId": "- the id of the stake to withdraw to bond contract"
        }
      },
      "withdrawManyStake(bytes32[])": {
        "params": {
          "stakingIds": "- Ids to withdraw"
        }
      },
      "withdrawRewardsRequest(uint256)": {
        "details": "Withdraw reward balance can post same params via raw",
        "params": {
          "xyoBounty": "bounty for request"
        }
      },
      "withdrawStake(bytes32)": {
        "params": {
          "stakingId": "- the id of the stake to remove"
        }
      }
    },
    "title": "XyStakingConsensus"
  },
  "userdoc": {
    "methods": {
      "blockForRequest(bytes32)": {
        "notice": "Returns a block for a given request id or a undefined block"
      },
      "numStakerStakes(address)": {
        "notice": "Public getters "
      },
      "receiveApproval(address,uint256,address,bytes)": {
        "notice": "Implements IApprovalRecipient allows approveAndCall in one transaction"
      },
      "resolveGovernanceAction(address,uint256,uint256)": {
        "notice": "Call this when it's time to resolve a passed governance action"
      },
      "stake(address,uint256)": {
        "notice": "Create new stake on a stakee"
      },
      "submitBlock(bytes32,uint256,bytes32[],bytes32,bytes,address[],bytes32[],bytes32[],uint8[])": {
        "notice": "Submit a new block to the consensus blockChain. Verifies stake in consensus is over 51% of the network.  calls requests' callbacks with responses.  Creates new block and returns weiMining for successful creation."
      },
      "supportingDataForRequest(bytes32)": {
        "notice": "Returns supporting data for a given request id"
      },
      "unstake(bytes32)": {
        "notice": "unstake a specific previous stake "
      },
      "unstakeBonded(bytes32,bytes32)": {
        "notice": "Unstakes/withdraws to bonded stake"
      },
      "withdrawManyStake(bytes32[])": {
        "notice": "Withdraw a batch of passed stake"
      },
      "withdrawStake(bytes32)": {
        "notice": "Withdraw a single stake by stakingId, removes stake"
      }
    }
  }
}