{
  "contractName": "XyBond",
  "abi": [
    {
      "constant": false,
      "inputs": [
        {
          "name": "account",
          "type": "address"
        }
      ],
      "name": "addGovernor",
      "outputs": [],
      "payable": false,
      "stateMutability": "nonpayable",
      "type": "function"
    },
    {
      "constant": true,
      "inputs": [
        {
          "name": "",
          "type": "uint256"
        }
      ],
      "name": "bonds",
      "outputs": [
        {
          "name": "",
          "type": "bytes32"
        }
      ],
      "payable": false,
      "stateMutability": "view",
      "type": "function"
    },
    {
      "constant": true,
      "inputs": [],
      "name": "erc20",
      "outputs": [
        {
          "name": "",
          "type": "address"
        }
      ],
      "payable": false,
      "stateMutability": "view",
      "type": "function"
    },
    {
      "constant": true,
      "inputs": [
        {
          "name": "",
          "type": "address"
        },
        {
          "name": "",
          "type": "uint256"
        }
      ],
      "name": "ownerBonds",
      "outputs": [
        {
          "name": "",
          "type": "bytes32"
        }
      ],
      "payable": false,
      "stateMutability": "view",
      "type": "function"
    },
    {
      "constant": true,
      "inputs": [],
      "name": "governablePeriod",
      "outputs": [
        {
          "name": "",
          "type": "uint256"
        }
      ],
      "payable": false,
      "stateMutability": "view",
      "type": "function"
    },
    {
      "constant": true,
      "inputs": [
        {
          "name": "",
          "type": "bytes32"
        }
      ],
      "name": "bond",
      "outputs": [
        {
          "name": "value",
          "type": "uint256"
        },
        {
          "name": "expirationSec",
          "type": "uint256"
        },
        {
          "name": "creationSec",
          "type": "uint256"
        },
        {
          "name": "allocated",
          "type": "uint256"
        },
        {
          "name": "owner",
          "type": "address"
        },
        {
          "name": "interest",
          "type": "uint8"
        }
      ],
      "payable": false,
      "stateMutability": "view",
      "type": "function"
    },
    {
      "constant": true,
      "inputs": [],
      "name": "consensus",
      "outputs": [
        {
          "name": "",
          "type": "address"
        }
      ],
      "payable": false,
      "stateMutability": "view",
      "type": "function"
    },
    {
      "constant": true,
      "inputs": [
        {
          "name": "",
          "type": "bytes32"
        }
      ],
      "name": "stakeIdManager",
      "outputs": [
        {
          "name": "",
          "type": "address"
        }
      ],
      "payable": false,
      "stateMutability": "view",
      "type": "function"
    },
    {
      "constant": true,
      "inputs": [
        {
          "name": "",
          "type": "bytes32"
        }
      ],
      "name": "bondIndex",
      "outputs": [
        {
          "name": "",
          "type": "uint256"
        }
      ],
      "payable": false,
      "stateMutability": "view",
      "type": "function"
    },
    {
      "constant": false,
      "inputs": [],
      "name": "renounceGovernor",
      "outputs": [],
      "payable": false,
      "stateMutability": "nonpayable",
      "type": "function"
    },
    {
      "constant": true,
      "inputs": [
        {
          "name": "account",
          "type": "address"
        }
      ],
      "name": "isGovernor",
      "outputs": [
        {
          "name": "",
          "type": "bool"
        }
      ],
      "payable": false,
      "stateMutability": "view",
      "type": "function"
    },
    {
      "anonymous": false,
      "inputs": [
        {
          "indexed": false,
          "name": "bondId",
          "type": "bytes32"
        },
        {
          "indexed": false,
          "name": "beneficiary",
          "type": "address"
        },
        {
          "indexed": false,
          "name": "amount",
          "type": "uint256"
        },
        {
          "indexed": false,
          "name": "expiration",
          "type": "uint256"
        }
      ],
      "name": "BondDeposit",
      "type": "event"
    },
    {
      "anonymous": false,
      "inputs": [
        {
          "indexed": false,
          "name": "bondId",
          "type": "bytes32"
        },
        {
          "indexed": false,
          "name": "beneficiary",
          "type": "address"
        },
        {
          "indexed": false,
          "name": "amount",
          "type": "uint256"
        }
      ],
      "name": "BondWithdraw",
      "type": "event"
    },
    {
      "anonymous": false,
      "inputs": [
        {
          "indexed": false,
          "name": "bondId",
          "type": "bytes32"
        },
        {
          "indexed": false,
          "name": "sender",
          "type": "address"
        },
        {
          "indexed": false,
          "name": "beneficiary",
          "type": "address"
        },
        {
          "indexed": false,
          "name": "amount",
          "type": "uint256"
        }
      ],
      "name": "BondStake",
      "type": "event"
    },
    {
      "anonymous": false,
      "inputs": [
        {
          "indexed": false,
          "name": "bondId",
          "type": "bytes32"
        },
        {
          "indexed": false,
          "name": "sender",
          "type": "address"
        },
        {
          "indexed": false,
          "name": "stakingId",
          "type": "bytes32"
        },
        {
          "indexed": false,
          "name": "amount",
          "type": "uint256"
        }
      ],
      "name": "BondUnstake",
      "type": "event"
    },
    {
      "anonymous": false,
      "inputs": [
        {
          "indexed": true,
          "name": "account",
          "type": "address"
        }
      ],
      "name": "GovernorAdded",
      "type": "event"
    },
    {
      "anonymous": false,
      "inputs": [
        {
          "indexed": true,
          "name": "account",
          "type": "address"
        }
      ],
      "name": "GovernorRemoved",
      "type": "event"
    },
    {
      "constant": false,
      "inputs": [
        {
          "name": "_token",
          "type": "address"
        },
        {
          "name": "_consensusContract",
          "type": "address"
        },
        {
          "name": "_governablePeriod",
          "type": "uint256"
        }
      ],
      "name": "initialize",
      "outputs": [],
      "payable": false,
      "stateMutability": "nonpayable",
      "type": "function"
    },
    {
      "constant": false,
      "inputs": [
        {
          "name": "xyoAmount",
          "type": "uint256"
        },
        {
          "name": "expirationDate",
          "type": "uint256"
        }
      ],
      "name": "deposit",
      "outputs": [
        {
          "name": "",
          "type": "bytes32"
        }
      ],
      "payable": false,
      "stateMutability": "nonpayable",
      "type": "function"
    },
    {
      "constant": false,
      "inputs": [
        {
          "name": "_spender",
          "type": "address"
        },
        {
          "name": "_value",
          "type": "uint256"
        },
        {
          "name": "_token",
          "type": "address"
        },
        {
          "name": "_extraData",
          "type": "bytes"
        }
      ],
      "name": "receiveApproval",
      "outputs": [],
      "payable": false,
      "stateMutability": "nonpayable",
      "type": "function"
    },
    {
      "constant": false,
      "inputs": [
        {
          "name": "bondId",
          "type": "bytes32"
        },
        {
          "name": "to",
          "type": "address"
        }
      ],
      "name": "withdrawTo",
      "outputs": [],
      "payable": false,
      "stateMutability": "nonpayable",
      "type": "function"
    },
    {
      "constant": false,
      "inputs": [
        {
          "name": "bondId",
          "type": "bytes32"
        },
        {
          "name": "beneficiary",
          "type": "address"
        },
        {
          "name": "stakees",
          "type": "address[]"
        },
        {
          "name": "amounts",
          "type": "uint256[]"
        }
      ],
      "name": "stake",
      "outputs": [],
      "payable": false,
      "stateMutability": "nonpayable",
      "type": "function"
    },
    {
      "constant": false,
      "inputs": [
        {
          "name": "bondId",
          "type": "bytes32"
        },
        {
          "name": "beneficiary",
          "type": "address"
        },
        {
          "name": "stakees",
          "type": "address[]"
        },
        {
          "name": "amounts",
          "type": "uint256[]"
        }
      ],
      "name": "sendEthAndStake",
      "outputs": [],
      "payable": true,
      "stateMutability": "payable",
      "type": "function"
    },
    {
      "constant": false,
      "inputs": [
        {
          "name": "bondId",
          "type": "bytes32"
        },
        {
          "name": "stakingId",
          "type": "bytes32"
        }
      ],
      "name": "unstake",
      "outputs": [],
      "payable": false,
      "stateMutability": "nonpayable",
      "type": "function"
    },
    {
      "constant": true,
      "inputs": [
        {
          "name": "bondId",
          "type": "bytes32"
        }
      ],
      "name": "isExpired",
      "outputs": [
        {
          "name": "",
          "type": "bool"
        }
      ],
      "payable": false,
      "stateMutability": "view",
      "type": "function"
    }
  ],
  "bytecode": "0x608060405234801561001057600080fd5b50611c94806100206000396000f3fe608060405260043610610131576000357c0100000000000000000000000000000000000000000000000000000000900480638862eadb116100bd578063c472c4e011610081578063c472c4e01461059d578063dcf39945146105c7578063e026049c14610703578063e2bbb15814610718578063e43581b81461074857610131565b80638862eadb146104445780638b3ee973146104595780638ef3f761146104c25780638f4ffcb1146104d7578063b7a8b5111461057357610131565b80636db2feb2116101045780636db2feb21461022357806373194f0214610261578063767e0e10146103aa578063785e9e86146103da578063853394cf1461040b57610131565b80631794bb3c146101365780632e331e6a1461017b5780633c4a25d0146101b45780635f1c17c0146101e7575b600080fd5b34801561014257600080fd5b506101796004803603606081101561015957600080fd5b50600160a060020a0381358116916020810135909116906040013561077b565b005b34801561018757600080fd5b506101796004803603604081101561019e57600080fd5b5080359060200135600160a060020a0316610867565b3480156101c057600080fd5b50610179600480360360208110156101d757600080fd5b5035600160a060020a0316610ab9565b3480156101f357600080fd5b506102116004803603602081101561020a57600080fd5b5035610b24565b60408051918252519081900360200190f35b34801561022f57600080fd5b5061024d6004803603602081101561024657600080fd5b5035610b43565b604080519115158252519081900360200190f35b34801561026d57600080fd5b506101796004803603608081101561028457600080fd5b813591600160a060020a03602082013516918101906060810160408201356401000000008111156102b457600080fd5b8201836020820111156102c657600080fd5b803590602001918460208302840111640100000000831117156102e857600080fd5b919080806020026020016040519081016040528093929190818152602001838360200280828437600092019190915250929594936020810193503591505064010000000081111561033857600080fd5b82018360208201111561034a57600080fd5b8035906020019184602083028401116401000000008311171561036c57600080fd5b919080806020026020016040519081016040528093929190818152602001838360200280828437600092019190915250929550610b5a945050505050565b3480156103b657600080fd5b50610179600480360360408110156103cd57600080fd5b5080359060200135610fb4565b3480156103e657600080fd5b506103ef61134d565b60408051600160a060020a039092168252519081900360200190f35b34801561041757600080fd5b506102116004803603604081101561042e57600080fd5b50600160a060020a03813516906020013561135c565b34801561045057600080fd5b5061021161138c565b34801561046557600080fd5b506104836004803603602081101561047c57600080fd5b5035611392565b604080519687526020870195909552858501939093526060850191909152600160a060020a0316608084015260ff1660a0830152519081900360c00190f35b3480156104ce57600080fd5b506103ef6113e7565b3480156104e357600080fd5b50610179600480360360808110156104fa57600080fd5b600160a060020a03823581169260208101359260408201359092169181019060808101606082013564010000000081111561053457600080fd5b82018360208201111561054657600080fd5b8035906020019184600183028401116401000000008311171561056857600080fd5b5090925090506113f6565b34801561057f57600080fd5b506103ef6004803603602081101561059657600080fd5b50356114e5565b3480156105a957600080fd5b50610211600480360360208110156105c057600080fd5b5035611500565b610179600480360360808110156105dd57600080fd5b813591600160a060020a036020820135169181019060608101604082013564010000000081111561060d57600080fd5b82018360208201111561061f57600080fd5b8035906020019184602083028401116401000000008311171561064157600080fd5b919080806020026020016040519081016040528093929190818152602001838360200280828437600092019190915250929594936020810193503591505064010000000081111561069157600080fd5b8201836020820111156106a357600080fd5b803590602001918460208302840111640100000000831117156106c557600080fd5b919080806020026020016040519081016040528093929190818152602001838360200280828437600092019190915250929550611512945050505050565b34801561070f57600080fd5b50610179611564565b34801561072457600080fd5b506102116004803603604081101561073b57600080fd5b508035906020013561156f565b34801561075457600080fd5b5061024d6004803603602081101561076b57600080fd5b5035600160a060020a0316611583565b600154610100900460ff1680610794575061079461159b565b806107a2575060015460ff16155b15156107e25760405160e560020a62461bcd02815260040180806020018281038252602e815260200180611c1a602e913960400191505060405180910390fd5b6001805461010061ff00198216811760ff191683179092556034805473ffffffffffffffffffffffffffffffffffffffff19908116600160a060020a03888116919091179092556035805490911691861691909117905560368390550460ff1661084a6115a1565b600180549115156101000261ff0019909216919091179055505050565b60008281526038602052604081208054909181116108cf576040805160e560020a62461bcd02815260206004820152601160248201527f426f6e6420686173206e6f2076616c7565000000000000000000000000000000604482015290519081900360640190fd5b6000825560048201546003830154600160a060020a039091163314901561092a5760405160e560020a62461bcd028152600401808060200182810382526021815260200180611c486021913960400191505060405180910390fd5b808061099c57506040805160c0810182528454815260018501546020820152600285015491810191909152600384015460608201526004840154600160a060020a038116608083015274010000000000000000000000000000000000000000900460ff1660a082015261099c906115aa565b15156109f2576040805160e560020a62461bcd02815260206004820181905260248201527f6f776e6572206f7220676f7665726e61626c652063616e207769746864726177604482015290519081900360640190fd5b8015610a535760018301544211610a53576040805160e560020a62461bcd02815260206004820152601460248201527f426f6e64206973207374696c6c20616374697665000000000000000000000000604482015290519081900360640190fd5b603454610a6a90600160a060020a031685846115ea565b60408051868152600160a060020a038616602082015280820184905290517fc15103656f6b64cd545b27cff5200a514f316fafe20fdbecfb7369781fcd14359181900360600190a15050505050565b610ac233611583565b1515610b18576040805160e560020a62461bcd02815260206004820152601460248201527f4f6e6c7920476f7665726e6f7220416374696f6e000000000000000000000000604482015290519081900360640190fd5b610b21816116e1565b50565b603b805482908110610b3257fe5b600091825260209091200154905081565b600090815260386020526040902060010154421190565b60008481526038602052604090206004810154600160a060020a031633148080610bea57506040805160c0810182528354815260018401546020820152600284015491810191909152600383015460608201526004830154600160a060020a038116608083015274010000000000000000000000000000000000000000900460ff1660a0820152610bea906115aa565b1515610c40576040805160e560020a62461bcd02815260206004820152601d60248201527f6f776e6572206f7220676f7665726e61626c652063616e207374616b65000000604482015290519081900360640190fd5b6000805b8451811015610c7f57610c758582815181101515610c5e57fe5b60209081029091010151839063ffffffff61172916565b9150600101610c44565b506003830154610c95908263ffffffff61172916565b6003840181905583541015610cf4576040805160e560020a62461bcd02815260206004820152601960248201527f496e73756666696369656e7420626f6e642062616c616e636500000000000000604482015290519081900360640190fd5b6060878787876040516020018085815260200184600160a060020a0316600160a060020a031681526020018060200180602001838103835285818151815260200191508051906020019060200280838360005b83811015610d5f578181015183820152602001610d47565b50505050905001838103825284818151815260200191508051906020019060200280838360005b83811015610d9e578181015183820152602001610d86565b50505050905001965050505050505060405160208183030381529060405290506060600482604051602001808360ff16815260200180602001828103825283818151815260200191508051906020019080838360005b83811015610e0c578181015183820152602001610df4565b50505050905090810190601f168015610e395780820380516001836020036101000a031916815260200191505b5060408051601f19818403018152908290526034546035547fcae9ca51000000000000000000000000000000000000000000000000000000008452600160a060020a0390811660048501818152602486018d9052606060448701908152855160648801528551959b5092909316985063cae9ca51975095508a945088939192909160840190602085019080838360005b83811015610ee1578181015183820152602001610ec9565b50505050905090810190601f168015610f0e5780820380516001836020036101000a031916815260200191505b50945050505050602060405180830381600087803b158015610f2f57600080fd5b505af1158015610f43573d6000803e3d6000fd5b505050506040513d6020811015610f5957600080fd5b5050604080518a8152336020820152600160a060020a038a16818301526060810185905290517f42e7044c4f07599463ab916896808dec08d53a4d63c09608065f9fa448d5ce829181900360800190a1505050505050505050565b603554604080517f1e23f2f9000000000000000000000000000000000000000000000000000000008152600481018490529051600092600160a060020a031691631e23f2f9916024808301926020929190829003018186803b15801561101957600080fd5b505afa15801561102d573d6000803e3d6000fd5b505050506040513d602081101561104357600080fd5b5051603554604080517f5652c52f000000000000000000000000000000000000000000000000000000008152600481018690529051929350600092600160a060020a0390921691635652c52f9160248082019260e092909190829003018186803b1580156110b057600080fd5b505afa1580156110c4573d6000803e3d6000fd5b505050506040513d60e08110156110da57600080fd5b50519050818414611135576040805160e560020a62461bcd02815260206004820152601860248201527f5374616b65206e6565647320746f20626520626f6e6465640000000000000000604482015290519081900360640190fd5b60008481526038602052604090206004810154600160a060020a03163314806111c457506040805160c0810182528254815260018301546020820152600283015491810191909152600382015460608201526004820154600160a060020a038116608083015274010000000000000000000000000000000000000000900460ff1660a08201526111c4906115aa565b151561121a576040805160e560020a62461bcd02815260206004820152601f60248201527f6f776e6572206f7220676f7665726e61626c652063616e20756e7374616b6500604482015290519081900360640190fd5b60038101548211156112605760405160e560020a62461bcd028152600401808060200182810382526023815260200180611bf76023913960400191505060405180910390fd5b6003810154611275908363ffffffff61173616565b6003820155603554604080517fd78b37ed00000000000000000000000000000000000000000000000000000000815260048101889052602481018790529051600160a060020a039092169163d78b37ed9160448082019260009290919082900301818387803b1580156112e757600080fd5b505af11580156112fb573d6000803e3d6000fd5b5050604080518881523360208201528082018890526060810186905290517f687f705929669882a184d4123148de163cc23c02682e756263a0259955ea3e789350908190036080019150a15050505050565b603454600160a060020a031681565b603a6020528160005260406000208181548110151561137757fe5b90600052602060002001600091509150505481565b60365481565b6038602052600090815260409020805460018201546002830154600384015460049094015492939192909190600160a060020a0381169074010000000000000000000000000000000000000000900460ff1686565b603554600160a060020a031681565b603454600160a060020a0384811691161461145b576040805160e560020a62461bcd02815260206004820152601b60248201527f43616c6c2066726f6d207468652063757272656e7420746f6b656e0000000000604482015290519081900360640190fd5b33600160a060020a038416146114bb576040805160e560020a62461bcd02815260206004820152601060248201527f53656e646572206e6f7420746f6b656e00000000000000000000000000000000604482015290519081900360640190fd5b6000828260208110156114cd57600080fd5b503590506114dc868683611748565b50505050505050565b603760205260009081526040902054600160a060020a031681565b60396020526000908152604090205481565b600034111561155257604051600160a060020a038416903480156108fc02916000818181858888f19350505050158015611550573d6000803e3d6000fd5b505b61155e84848484610b5a565b50505050565b61156d3361197d565b565b600061157c338484611748565b9392505050565b6000611595818363ffffffff6119c516565b92915050565b303b1590565b61156d336116e1565b6000806115b633611583565b905060006115d3603654856040015161172990919063ffffffff16565b42111590508180156115e25750805b949350505050565b82600160a060020a031663a9059cbb83836040518363ffffffff167c01000000000000000000000000000000000000000000000000000000000281526004018083600160a060020a0316600160a060020a0316815260200182815260200192505050600060405180830381600087803b15801561166657600080fd5b505af115801561167a573d6000803e3d6000fd5b505050506116866119fc565b15156116dc576040805160e560020a62461bcd02815260206004820152600d60248201527f7472616e73666572206661696c00000000000000000000000000000000000000604482015290519081900360640190fd5b505050565b6116f260008263ffffffff611a3016565b604051600160a060020a038216907fdc5a48d79e2e147530ff63ecdbed5a5a66adb9d5cf339384d5d076da197c40b590600090a250565b8181018281101561159557fe5b60008282111561174257fe5b50900390565b60004282116117a1576040805160e560020a62461bcd02815260206004820152601c60248201527f457870697279206d75737420626520696e207468652066757475726500000000604482015290519081900360640190fd5b60408051600160a060020a03861660208083019190915281830186905260608201859052436080808401919091528351808403909101815260a090920190925280519101206117ee611bb3565b506040805160c081018252858152602080820186815242838501908152600060608501818152600160a060020a03808d166080880181815260a08901858152603b80548d885260398b528c88205560388a528b87208b51815598516001808b0191909155975160028a015594516003890155905160049097018054915160ff16740100000000000000000000000000000000000000000274ff00000000000000000000000000000000000000001998851673ffffffffffffffffffffffffffffffffffffffff19909316929092179790971617909555938252603a85529581208054808401825590825293812090930186905584549081018555939091527fbbe3212124853f8b0084a66a2d057c2966e251e132af3691db153ab65f0d1a4d90920183905560345490916119259116873088611a7e565b60408051838152600160a060020a03881660208201528082018790526060810186905290517f3db8638351f2d0f91f71603c1096c8170b9c1af65d6d548492a3857ba71fd6f99181900360800190a150949350505050565b61198e60008263ffffffff611b6716565b604051600160a060020a038216907f1ebe834e73d60a5fec822c1e1727d34bc79f2ad977ed504581cc1822fe20fb5b90600090a250565b6000600160a060020a03821615156119dc57600080fd5b50600160a060020a03166000908152602091909152604090205460ff1690565b6000803d8015611a135760208114611a1c57611a28565b60019150611a28565b60206000803e60005191505b501515905090565b600160a060020a0381161515611a4557600080fd5b611a4f82826119c5565b15611a5957600080fd5b600160a060020a0316600090815260209190915260409020805460ff19166001179055565b604080517f23b872dd000000000000000000000000000000000000000000000000000000008152600160a060020a0385811660048301528481166024830152604482018490529151918616916323b872dd9160648082019260009290919082900301818387803b158015611af157600080fd5b505af1158015611b05573d6000803e3d6000fd5b50505050611b116119fc565b151561155e576040805160e560020a62461bcd02815260206004820152601160248201527f7472616e7366657246726f6d206661696c000000000000000000000000000000604482015290519081900360640190fd5b600160a060020a0381161515611b7c57600080fd5b611b8682826119c5565b1515611b9157600080fd5b600160a060020a0316600090815260209190915260409020805460ff19169055565b60c060405190810160405280600081526020016000815260200160008152602001600081526020016000600160a060020a03168152602001600060ff168152509056fe43616e6e6f7420756e7374616b65206f76657220626f6e6420616c6c6f636174696f6e436f6e747261637420696e7374616e63652068617320616c7265616479206265656e20696e697469616c697a6564426f6e64206d7573742068617665206e6f20616c6c6f6361746564207374616b65a165627a7a723058203cad4108d3f704dbc0e6d15c641c4429ffda7eadafb964bbbf00a73cce4ab9930029",
  "source": "pragma solidity >=0.5.0 <0.6.0;\n\nimport \"./XyStakingConsensus.sol\";\nimport \"../utils/SafeMath.sol\";\nimport \"../token/ERC20/SafeERC20.sol\";\nimport \"../token/ERC20/IXYOERC20.sol\";\nimport \"../utils/Initializable.sol\";\nimport \"../access/GovernorRole.sol\";\n\ncontract XyBond is GovernorRole, Initializable {\n    using SafeMath for uint;\n\n    address public erc20;\n    address public consensus;\n    uint public governablePeriod; // seconds after bond creation it's governable\n    mapping (bytes32 => address) public stakeIdManager;\n\n    event BondDeposit(bytes32 bondId, address beneficiary, uint amount, uint expiration);\n    event BondWithdraw(bytes32 bondId, address beneficiary, uint amount);\n    event BondStake(bytes32 bondId, address sender, address beneficiary, uint amount);\n    event BondUnstake(bytes32 bondId, address sender, bytes32 stakingId, uint amount);\n\n    struct Bond {\n        uint value;             // amount staked\n        uint expirationSec;     // expiration date in seconds\n        uint creationSec;       // creation date in seconds\n        uint allocated;         // number allocated to node stake\n        address owner;          // who owns the stake\n        uint8 interest;         // possibly add interest or relationship here\n    }\n\n    mapping (bytes32 => Bond) public bond;\n    mapping (bytes32 => uint) public bondIndex;\n    mapping (address => bytes32[]) public ownerBonds;\n    bytes32[] public bonds;\n\n    function initialize (\n        address _token,\n        address _consensusContract,\n        uint _governablePeriod\n    )\n        initializer \n        public\n    {\n        erc20 = _token;\n        consensus = _consensusContract;\n        governablePeriod = _governablePeriod;\n        super.init();\n    }\n\n    /**\n        Must approve before deposit can transfer in token\n    */\n    function deposit (uint xyoAmount, uint expirationDate) \n        public \n        returns (bytes32)\n    {\n        return depositTo(msg.sender, xyoAmount, expirationDate);\n    }\n\n    function receiveApproval(\n        address _spender, \n        uint256 _value, \n        address _token,\n        bytes calldata _extraData\n    ) \n        external \n    {\n        require (_token == erc20, \"Call from the current token\");\n        require (msg.sender == _token, \"Sender not token\"); \n        (uint expireDate) = abi.decode(_extraData, (uint));\n\n        depositTo(_spender, _value, expireDate);\n    }\n\n    function depositTo (address to, uint xyoAmount, uint expirationDate) \n        internal \n        returns (bytes32)\n    {\n        require (expirationDate > now, \"Expiry must be in the future\");\n        bytes32 bondId = keccak256(abi.encode(to, xyoAmount, expirationDate, block.number));\n        Bond memory ns = Bond(\n            xyoAmount,\n            expirationDate,\n            block.timestamp,\n            0,\n            to,\n            0\n        );\n        bondIndex[bondId] = bonds.length;\n        bond[bondId] = ns;\n        ownerBonds[to].push(bondId);\n        bonds.push(bondId);\n        \n        SafeERC20.transferFrom(erc20, to, address(this), xyoAmount);\n        emit BondDeposit(bondId, to, xyoAmount, expirationDate);\n        return bondId;\n    }\n\n    function withdrawTo (bytes32 bondId, address to) \n        public\n    {\n        Bond storage bs = bond[bondId];\n        uint withdrawAmount = bs.value;\n        require (withdrawAmount > 0, \"Bond has no value\");\n        bs.value = 0; // erase value of bond\n        bool isOwner = msg.sender == bs.owner;\n        require (bs.allocated == 0, \"Bond must have no allocated stake\");\n        require (isOwner || governable(bs), \"owner or governable can withdraw\");\n        if (isOwner) {\n            require (now > bs.expirationSec, \"Bond is still active\");\n        }\n        SafeERC20.transfer(erc20, to, withdrawAmount);\n\n        emit BondWithdraw(bondId, to, withdrawAmount);\n    }\n\n    function stake (bytes32 bondId, address payable beneficiary, address[] memory stakees, uint[] memory amounts)\n        public\n    {\n        Bond storage bs = bond[bondId];\n        bool isOwner = msg.sender == bs.owner;\n        require (isOwner || governable(bs), \"owner or governable can stake\");\n        \n        uint total = 0;\n        for (uint i = 0; i < amounts.length; i++) {\n            total = total.add(amounts[i]);\n        }\n        bs.allocated = bs.allocated.add(total);\n\n        require (bs.allocated <= bs.value, \"Insufficient bond balance\");\n\n        // stake stakees with amounts\n        bytes memory encoded = abi.encode(bondId, beneficiary, stakees, amounts);\n        bytes memory methodData = abi.encode(4, encoded);\n        \n        // stake bonded nodes\n        IXYOERC20(erc20).approveAndCall(consensus, total, methodData);\n\n        emit BondStake(bondId, msg.sender, beneficiary, total);\n    }\n\n    function sendEthAndStake(bytes32 bondId, address payable beneficiary, address[] memory stakees, uint[] memory amounts) \n        public\n        payable\n    {\n        if (msg.value > 0) {\n            beneficiary.transfer(msg.value);\n        }\n        stake(bondId, beneficiary, stakees, amounts);\n    }\n\n    function unstake (bytes32 bondId, bytes32 stakingId) \n        public  \n    {\n        bytes32 checkBondId = XyStakingConsensus(consensus).bondedStake(stakingId);\n        (uint amount,,,,,,) = XyStakingConsensus(consensus).stakeData(stakingId);\n        require(checkBondId == bondId, \"Stake needs to be bonded\");\n\n        Bond storage bs = bond[bondId];\n        require (msg.sender == bs.owner || governable(bs), \"owner or governable can unstake\");\n        \n        require(bs.allocated >= amount, \"Cannot unstake over bond allocation\");\n        bs.allocated = bs.allocated.sub(amount);\n\n        // will fail if already withdrew  \n        XyStakingConsensus(consensus).unstakeBonded(bondId, stakingId);\n\n        emit BondUnstake(bondId, msg.sender, stakingId, amount);\n    }\n\n    function isExpired(bytes32 bondId) \n        public \n        view \n        returns (bool)\n    {\n        return bond[bondId].expirationSec < now;\n    }\n\n    function governable(Bond memory bs) \n        private \n        view\n        returns (bool) \n    {\n        bool isGov = isGovernor(msg.sender);\n        bool govActive = now <= bs.creationSec.add(governablePeriod);\n        return isGov && govActive;\n    }\n}",
  "compiler": {
    "name": "solc",
    "version": "0.5.4+commit.9549d8ff.Emscripten.clang"
  },
  "schemaVersion": "3.0.6",
  "updatedAt": "2019-04-26T23:50:43.100Z",
  "devdoc": {
    "methods": {}
  },
  "userdoc": {
    "methods": {
      "deposit(uint256,uint256)": {
        "notice": "Must approve before deposit can transfer in token"
      }
    }
  }
}