{
  "contractName": "XyBlockProducer",
  "abi": [
    {
      "constant": true,
      "inputs": [
        {
          "name": "",
          "type": "address"
        }
      ],
      "name": "blockProducerIndexes",
      "outputs": [
        {
          "name": "",
          "type": "uint256"
        }
      ],
      "payable": false,
      "stateMutability": "view",
      "type": "function"
    },
    {
      "constant": false,
      "inputs": [
        {
          "name": "account",
          "type": "address"
        }
      ],
      "name": "addGovernor",
      "outputs": [],
      "payable": false,
      "stateMutability": "nonpayable",
      "type": "function"
    },
    {
      "constant": true,
      "inputs": [
        {
          "name": "",
          "type": "uint256"
        }
      ],
      "name": "blockProducers",
      "outputs": [
        {
          "name": "",
          "type": "address"
        }
      ],
      "payable": false,
      "stateMutability": "view",
      "type": "function"
    },
    {
      "constant": false,
      "inputs": [],
      "name": "renounceGovernor",
      "outputs": [],
      "payable": false,
      "stateMutability": "nonpayable",
      "type": "function"
    },
    {
      "constant": true,
      "inputs": [
        {
          "name": "account",
          "type": "address"
        }
      ],
      "name": "isGovernor",
      "outputs": [
        {
          "name": "",
          "type": "bool"
        }
      ],
      "payable": false,
      "stateMutability": "view",
      "type": "function"
    },
    {
      "anonymous": false,
      "inputs": [
        {
          "indexed": false,
          "name": "bp",
          "type": "address"
        },
        {
          "indexed": false,
          "name": "creator",
          "type": "address"
        }
      ],
      "name": "BlockProducerCreated",
      "type": "event"
    },
    {
      "anonymous": false,
      "inputs": [
        {
          "indexed": false,
          "name": "bp",
          "type": "address"
        },
        {
          "indexed": false,
          "name": "creator",
          "type": "address"
        }
      ],
      "name": "BlockProducerRemoved",
      "type": "event"
    },
    {
      "anonymous": false,
      "inputs": [
        {
          "indexed": true,
          "name": "account",
          "type": "address"
        }
      ],
      "name": "GovernorAdded",
      "type": "event"
    },
    {
      "anonymous": false,
      "inputs": [
        {
          "indexed": true,
          "name": "account",
          "type": "address"
        }
      ],
      "name": "GovernorRemoved",
      "type": "event"
    },
    {
      "constant": false,
      "inputs": [],
      "name": "initialize",
      "outputs": [],
      "payable": false,
      "stateMutability": "nonpayable",
      "type": "function"
    },
    {
      "constant": false,
      "inputs": [
        {
          "name": "bp",
          "type": "address"
        }
      ],
      "name": "create",
      "outputs": [],
      "payable": false,
      "stateMutability": "nonpayable",
      "type": "function"
    },
    {
      "constant": false,
      "inputs": [
        {
          "name": "bp",
          "type": "address"
        }
      ],
      "name": "remove",
      "outputs": [],
      "payable": false,
      "stateMutability": "nonpayable",
      "type": "function"
    },
    {
      "constant": true,
      "inputs": [
        {
          "name": "bp",
          "type": "address"
        }
      ],
      "name": "exists",
      "outputs": [
        {
          "name": "",
          "type": "bool"
        }
      ],
      "payable": false,
      "stateMutability": "view",
      "type": "function"
    },
    {
      "constant": true,
      "inputs": [],
      "name": "numBlockProducers",
      "outputs": [
        {
          "name": "",
          "type": "uint256"
        }
      ],
      "payable": false,
      "stateMutability": "view",
      "type": "function"
    }
  ],
  "bytecode": "0x608060405234801561001057600080fd5b506109aa806100206000396000f3fe608060405234801561001057600080fd5b50600436106100bb576000357c0100000000000000000000000000000000000000000000000000000000900480639ed93318116100835780639ed9331814610156578063c18530a01461017c578063e026049c146101b5578063e43581b8146101bd578063f6a3d24e146101f7576100bb565b806314df8b72146100c057806329092d0e146100f85780633c4a25d0146101205780638129fc1c146101465780639c9697201461014e575b600080fd5b6100e6600480360360208110156100d657600080fd5b5035600160a060020a031661021d565b60408051918252519081900360200190f35b61011e6004803603602081101561010e57600080fd5b5035600160a060020a031661022f565b005b61011e6004803603602081101561013657600080fd5b5035600160a060020a03166103f7565b61011e610479565b6100e6610539565b61011e6004803603602081101561016c57600080fd5b5035600160a060020a0316610540565b6101996004803603602081101561019257600080fd5b50356106d5565b60408051600160a060020a039092168252519081900360200190f35b61011e6106fd565b6101e3600480360360208110156101d357600080fd5b5035600160a060020a0316610708565b604080519115158252519081900360200190f35b6101e36004803603602081101561020d57600080fd5b5035600160a060020a0316610723565b60356020526000908152604090205481565b61023833610708565b15156102a557604080517f08c379a000000000000000000000000000000000000000000000000000000000815260206004820152601460248201527f4f6e6c7920476f7665726e6f7220416374696f6e000000000000000000000000604482015290519081900360640190fd5b600160a060020a038116600090815260356020526040812054603480549192600019830192909190839081106102d757fe5b600091825260208220015460348054600160a060020a03909216935090849081106102fe57fe5b6000918252602090912001805473ffffffffffffffffffffffffffffffffffffffff1916600160a060020a03929092169190911790556034805490610347906000198301610909565b50600160a060020a038416600090815260356020526040812055603480548291908590811061037257fe5b6000918252602080832091909101805473ffffffffffffffffffffffffffffffffffffffff1916600160a060020a0394851617905583831682526035815260409182902086905581519287168352339083015280517f7165669f720a007f8bbef87274e7e6c7c1d3e992f364e206d10796863e3321589281900390910190a150505050565b61040033610708565b151561046d57604080517f08c379a000000000000000000000000000000000000000000000000000000000815260206004820152601460248201527f4f6e6c7920476f7665726e6f7220416374696f6e000000000000000000000000604482015290519081900360640190fd5b61047681610799565b50565b600054610100900460ff168061049257506104926107e1565b806104a0575060005460ff16155b15156104f7576040517f08c379a000000000000000000000000000000000000000000000000000000000815260040180806020018281038252602e815260200180610951602e913960400191505060405180910390fd5b60008054600161010061ff00198316811760ff1916919091179092550460ff1661051f6107e7565b600080549115156101000261ff0019909216919091179055565b6034545b90565b61054933610708565b15156105b657604080517f08c379a000000000000000000000000000000000000000000000000000000000815260206004820152601460248201527f4f6e6c7920476f7665726e6f7220416374696f6e000000000000000000000000604482015290519081900360640190fd5b6105bf81610723565b1561062b57604080517f08c379a000000000000000000000000000000000000000000000000000000000815260206004820152600e60248201527f5468697320425020657869737473000000000000000000000000000000000000604482015290519081900360640190fd5b60348054600160a060020a0383166000818152603560209081526040808320859055600185018655949091527f46bddb1178e94d7f2892ff5f366840eb658911794f2c3a44c450aa2c505186c1909201805473ffffffffffffffffffffffffffffffffffffffff1916821790558251908152339181019190915281517f3835b28e7cf08733ea41c69aba3ad10c7cf3a75363658eec96af795be78e8bbd929181900390910190a150565b60348054829081106106e357fe5b600091825260209091200154600160a060020a0316905081565b610706336107f0565b565b600061071b60338363ffffffff61083816565b90505b919050565b600160a060020a038116600090815260356020526040812054610744610539565b8110801561075a5750600160a060020a03831615155b1561079057603480548290811061076d57fe5b600091825260209091200154600160a060020a03848116911614915061071e9050565b50600092915050565b6107aa60338263ffffffff61086f16565b604051600160a060020a038216907fdc5a48d79e2e147530ff63ecdbed5a5a66adb9d5cf339384d5d076da197c40b590600090a250565b303b1590565b61070633610799565b61080160338263ffffffff6108bd16565b604051600160a060020a038216907f1ebe834e73d60a5fec822c1e1727d34bc79f2ad977ed504581cc1822fe20fb5b90600090a250565b6000600160a060020a038216151561084f57600080fd5b50600160a060020a03166000908152602091909152604090205460ff1690565b600160a060020a038116151561088457600080fd5b61088e8282610838565b1561089857600080fd5b600160a060020a0316600090815260209190915260409020805460ff19166001179055565b600160a060020a03811615156108d257600080fd5b6108dc8282610838565b15156108e757600080fd5b600160a060020a0316600090815260209190915260409020805460ff19169055565b81548183558181111561092d5760008381526020902061092d918101908301610932565b505050565b61053d91905b8082111561094c5760008155600101610938565b509056fe436f6e747261637420696e7374616e63652068617320616c7265616479206265656e20696e697469616c697a6564a165627a7a723058200a2d968af66ba31408eb3a71baf8095410d76e012f15097f04680b2a3ff620740029",
  "source": "pragma solidity >=0.5.0 <0.6.0;\n\nimport \"./utils/Initializable.sol\";\nimport \"./access/GovernorRole.sol\";\n\n/* \n    Contract used to track stakable addresses in XYO network \n    These token ids are the payment ids that are passed up the XYO origin chains\n    Stakers on these tokens may make reward withdrawels,\n*/\ncontract XyBlockProducer is Initializable, GovernorRole {\n\n    event BlockProducerCreated(\n        address bp,\n        address creator\n    );\n\n    event BlockProducerRemoved(\n        address bp,\n        address creator\n    );\n\n    // Keep a list of block producers to publicly show who the BPs are in the system\n    address[] public blockProducers;\n\n    // Add mapping of indexes so that we can find a BP by their blockProducers[index[id]]\n    mapping(address => uint) public blockProducerIndexes;\n\n    function initialize () \n        initializer public\n    {\n        super.init();\n    }\n\n    /** \n        Mints a stakable address with the account hash as the token id\n        Emits transfer event to sender\n        msg.sender - new account creator\n    */\n    function create(address bp) \n        onlyGovernor \n        public\n    {\n        require(exists(bp) == false, \"This BP exists\");\n        blockProducerIndexes[bp] = blockProducers.length;\n        blockProducers.push(bp);\n        emit BlockProducerCreated(bp, msg.sender);\n    }\n\n    /**\n        Only govenor (the scsc) can burn a BP (because stake needs to be removed)\n        @param bp the stakee to burn \n    */\n    function remove(address bp)\n        onlyGovernor \n        public \n    {\n        uint index = blockProducerIndexes[bp];\n        uint lastBPIndex = blockProducers.length - 1;\n        address lastBP = blockProducers[lastBPIndex];\n\n        blockProducers[lastBPIndex] = address(0);\n        blockProducers.length--;\n        delete blockProducerIndexes[bp];\n        \n        blockProducers[index] = lastBP;\n        blockProducerIndexes[lastBP] = index;\n        emit BlockProducerRemoved(bp, msg.sender);\n    }\n\n    /**\n        Expose internal exists function to be used\n    */\n    function exists(address bp) public view returns (bool) {\n        uint index = blockProducerIndexes[bp];\n        if (index < numBlockProducers() && bp != (address(0))) {\n            return (bp == blockProducers[index]);\n        }\n        return false;\n    }\n\n    function numBlockProducers() public view returns (uint) {\n        return blockProducers.length;\n    }\n}",
  "compiler": {
    "name": "solc",
    "version": "0.5.4+commit.9549d8ff.Emscripten.clang"
  },
  "schemaVersion": "3.0.6",
  "updatedAt": "2019-04-18T16:26:33.107Z",
  "devdoc": {
    "methods": {
      "remove(address)": {
        "params": {
          "bp": "the stakee to burn "
        }
      }
    }
  },
  "userdoc": {
    "methods": {
      "create(address)": {
        "notice": "Mints a stakable address with the account hash as the token id Emits transfer event to sender msg.sender - new account creator"
      },
      "exists(address)": {
        "notice": "Expose internal exists function to be used"
      },
      "remove(address)": {
        "notice": "Only govenor (the scsc) can burn a BP (because stake needs to be removed)"
      }
    }
  }
}