{
  "contractName": "XyStakingConsensus",
  "abi": [
    {
      "constant": true,
      "inputs": [
        {
          "name": "",
          "type": "address"
        },
        {
          "name": "",
          "type": "uint256"
        }
      ],
      "name": "stakeeToStakingIds",
      "outputs": [
        {
          "name": "",
          "type": "bytes32"
        }
      ],
      "payable": false,
      "stateMutability": "view",
      "type": "function"
    },
    {
      "constant": true,
      "inputs": [],
      "name": "xyoToken",
      "outputs": [
        {
          "name": "",
          "type": "address"
        }
      ],
      "payable": false,
      "stateMutability": "view",
      "type": "function"
    },
    {
      "constant": true,
      "inputs": [],
      "name": "totalActiveStake",
      "outputs": [
        {
          "name": "",
          "type": "uint256"
        }
      ],
      "payable": false,
      "stateMutability": "view",
      "type": "function"
    },
    {
      "constant": true,
      "inputs": [],
      "name": "govContract",
      "outputs": [
        {
          "name": "",
          "type": "address"
        }
      ],
      "payable": false,
      "stateMutability": "view",
      "type": "function"
    },
    {
      "constant": true,
      "inputs": [
        {
          "name": "",
          "type": "address"
        }
      ],
      "name": "stakerStake",
      "outputs": [
        {
          "name": "totalStake",
          "type": "uint256"
        },
        {
          "name": "activeStake",
          "type": "uint256"
        },
        {
          "name": "cooldownStake",
          "type": "uint256"
        },
        {
          "name": "totalUnstake",
          "type": "uint256"
        }
      ],
      "payable": false,
      "stateMutability": "view",
      "type": "function"
    },
    {
      "constant": true,
      "inputs": [
        {
          "name": "actionType",
          "type": "uint8"
        }
      ],
      "name": "isUnstakeAction",
      "outputs": [
        {
          "name": "",
          "type": "bool"
        }
      ],
      "payable": false,
      "stateMutability": "pure",
      "type": "function"
    },
    {
      "constant": true,
      "inputs": [],
      "name": "totalVotingStake",
      "outputs": [
        {
          "name": "",
          "type": "uint256"
        }
      ],
      "payable": false,
      "stateMutability": "view",
      "type": "function"
    },
    {
      "constant": false,
      "inputs": [
        {
          "name": "stakingId",
          "type": "bytes32"
        }
      ],
      "name": "cooldownStake",
      "outputs": [],
      "payable": false,
      "stateMutability": "nonpayable",
      "type": "function"
    },
    {
      "constant": false,
      "inputs": [
        {
          "name": "stakingId",
          "type": "bytes32"
        }
      ],
      "name": "activateStake",
      "outputs": [],
      "payable": false,
      "stateMutability": "nonpayable",
      "type": "function"
    },
    {
      "constant": true,
      "inputs": [
        {
          "name": "",
          "type": "bytes32"
        }
      ],
      "name": "stakingStakerIndex",
      "outputs": [
        {
          "name": "",
          "type": "uint256"
        }
      ],
      "payable": false,
      "stateMutability": "view",
      "type": "function"
    },
    {
      "constant": true,
      "inputs": [
        {
          "name": "",
          "type": "bytes32"
        }
      ],
      "name": "stakeData",
      "outputs": [
        {
          "name": "amount",
          "type": "uint256"
        },
        {
          "name": "stakeBlock",
          "type": "uint256"
        },
        {
          "name": "unstakeBlock",
          "type": "uint256"
        },
        {
          "name": "stakee",
          "type": "address"
        },
        {
          "name": "staker",
          "type": "address"
        },
        {
          "name": "isActivated",
          "type": "bool"
        },
        {
          "name": "isCooledDown",
          "type": "bool"
        }
      ],
      "payable": false,
      "stateMutability": "view",
      "type": "function"
    },
    {
      "constant": true,
      "inputs": [
        {
          "name": "staker",
          "type": "address"
        }
      ],
      "name": "getAvailableStakerUnstake",
      "outputs": [
        {
          "name": "",
          "type": "uint256"
        }
      ],
      "payable": false,
      "stateMutability": "view",
      "type": "function"
    },
    {
      "constant": true,
      "inputs": [],
      "name": "totalCooldownStake",
      "outputs": [
        {
          "name": "",
          "type": "uint256"
        }
      ],
      "payable": false,
      "stateMutability": "view",
      "type": "function"
    },
    {
      "constant": false,
      "inputs": [
        {
          "name": "stakingId",
          "type": "bytes32"
        }
      ],
      "name": "unstake",
      "outputs": [],
      "payable": false,
      "stateMutability": "nonpayable",
      "type": "function"
    },
    {
      "constant": true,
      "inputs": [
        {
          "name": "staker",
          "type": "address"
        }
      ],
      "name": "totalStakeAndUnstake",
      "outputs": [
        {
          "name": "",
          "type": "uint256"
        }
      ],
      "payable": false,
      "stateMutability": "view",
      "type": "function"
    },
    {
      "constant": false,
      "inputs": [
        {
          "name": "stakee",
          "type": "address"
        },
        {
          "name": "startIndex",
          "type": "uint256"
        },
        {
          "name": "batchSize",
          "type": "uint256"
        }
      ],
      "name": "resolveGovernanceAction",
      "outputs": [],
      "payable": false,
      "stateMutability": "nonpayable",
      "type": "function"
    },
    {
      "constant": true,
      "inputs": [
        {
          "name": "",
          "type": "address"
        },
        {
          "name": "",
          "type": "uint256"
        }
      ],
      "name": "stakerToStakingIds",
      "outputs": [
        {
          "name": "",
          "type": "bytes32"
        }
      ],
      "payable": false,
      "stateMutability": "view",
      "type": "function"
    },
    {
      "constant": true,
      "inputs": [],
      "name": "blockProducerContract",
      "outputs": [
        {
          "name": "",
          "type": "address"
        }
      ],
      "payable": false,
      "stateMutability": "view",
      "type": "function"
    },
    {
      "constant": false,
      "inputs": [
        {
          "name": "stakee",
          "type": "address"
        },
        {
          "name": "amount",
          "type": "uint256"
        }
      ],
      "name": "stake",
      "outputs": [
        {
          "name": "",
          "type": "bytes32"
        }
      ],
      "payable": false,
      "stateMutability": "nonpayable",
      "type": "function"
    },
    {
      "constant": false,
      "inputs": [
        {
          "name": "batchLimit",
          "type": "uint256"
        }
      ],
      "name": "withdrawManyStake",
      "outputs": [],
      "payable": false,
      "stateMutability": "nonpayable",
      "type": "function"
    },
    {
      "constant": true,
      "inputs": [
        {
          "name": "",
          "type": "uint256"
        }
      ],
      "name": "requestChain",
      "outputs": [
        {
          "name": "",
          "type": "bytes32"
        }
      ],
      "payable": false,
      "stateMutability": "view",
      "type": "function"
    },
    {
      "constant": true,
      "inputs": [
        {
          "name": "",
          "type": "uint256"
        }
      ],
      "name": "blockChain",
      "outputs": [
        {
          "name": "",
          "type": "bytes32"
        }
      ],
      "payable": false,
      "stateMutability": "view",
      "type": "function"
    },
    {
      "constant": true,
      "inputs": [
        {
          "name": "",
          "type": "bytes32"
        }
      ],
      "name": "stakingStakeeIndex",
      "outputs": [
        {
          "name": "",
          "type": "uint256"
        }
      ],
      "payable": false,
      "stateMutability": "view",
      "type": "function"
    },
    {
      "constant": false,
      "inputs": [
        {
          "name": "stakingId",
          "type": "bytes32"
        }
      ],
      "name": "withdrawStake",
      "outputs": [],
      "payable": false,
      "stateMutability": "nonpayable",
      "type": "function"
    },
    {
      "constant": true,
      "inputs": [],
      "name": "penaltyStake",
      "outputs": [
        {
          "name": "",
          "type": "uint256"
        }
      ],
      "payable": false,
      "stateMutability": "view",
      "type": "function"
    },
    {
      "constant": true,
      "inputs": [
        {
          "name": "stakee",
          "type": "address"
        }
      ],
      "name": "numStakeeStakes",
      "outputs": [
        {
          "name": "",
          "type": "uint256"
        }
      ],
      "payable": false,
      "stateMutability": "view",
      "type": "function"
    },
    {
      "constant": true,
      "inputs": [
        {
          "name": "",
          "type": "bytes32"
        }
      ],
      "name": "requestsById",
      "outputs": [
        {
          "name": "xyoBounty",
          "type": "uint256"
        },
        {
          "name": "weiMining",
          "type": "uint256"
        },
        {
          "name": "createdAt",
          "type": "uint256"
        },
        {
          "name": "responseBlockNumber",
          "type": "uint256"
        },
        {
          "name": "requestSender",
          "type": "address"
        },
        {
          "name": "requestType",
          "type": "uint8"
        }
      ],
      "payable": false,
      "stateMutability": "view",
      "type": "function"
    },
    {
      "constant": true,
      "inputs": [
        {
          "name": "staker",
          "type": "address"
        }
      ],
      "name": "numStakerStakes",
      "outputs": [
        {
          "name": "",
          "type": "uint256"
        }
      ],
      "payable": false,
      "stateMutability": "view",
      "type": "function"
    },
    {
      "constant": true,
      "inputs": [
        {
          "name": "stakee",
          "type": "address"
        }
      ],
      "name": "getAvailableStakeeUnstake",
      "outputs": [
        {
          "name": "",
          "type": "uint256"
        }
      ],
      "payable": false,
      "stateMutability": "view",
      "type": "function"
    },
    {
      "constant": true,
      "inputs": [
        {
          "name": "",
          "type": "bytes32"
        }
      ],
      "name": "blocks",
      "outputs": [
        {
          "name": "previousBlock",
          "type": "bytes32"
        },
        {
          "name": "supportingData",
          "type": "bytes32"
        },
        {
          "name": "stakingBlock",
          "type": "uint256"
        },
        {
          "name": "createdAt",
          "type": "uint256"
        },
        {
          "name": "creator",
          "type": "address"
        }
      ],
      "payable": false,
      "stateMutability": "view",
      "type": "function"
    },
    {
      "constant": true,
      "inputs": [
        {
          "name": "",
          "type": "address"
        }
      ],
      "name": "stakeeStake",
      "outputs": [
        {
          "name": "totalStake",
          "type": "uint256"
        },
        {
          "name": "activeStake",
          "type": "uint256"
        },
        {
          "name": "cooldownStake",
          "type": "uint256"
        },
        {
          "name": "totalUnstake",
          "type": "uint256"
        }
      ],
      "payable": false,
      "stateMutability": "view",
      "type": "function"
    },
    {
      "anonymous": false,
      "inputs": [
        {
          "indexed": false,
          "name": "request",
          "type": "bytes32"
        },
        {
          "indexed": false,
          "name": "xyoBounty",
          "type": "uint256"
        },
        {
          "indexed": false,
          "name": "weiMining",
          "type": "uint256"
        },
        {
          "indexed": false,
          "name": "requester",
          "type": "address"
        },
        {
          "indexed": false,
          "name": "xyoSender",
          "type": "address"
        },
        {
          "indexed": false,
          "name": "requestType",
          "type": "uint8"
        }
      ],
      "name": "RequestSubmitted",
      "type": "event"
    },
    {
      "anonymous": false,
      "inputs": [
        {
          "indexed": false,
          "name": "blockHash",
          "type": "bytes32"
        },
        {
          "indexed": false,
          "name": "previousBlock",
          "type": "bytes32"
        },
        {
          "indexed": false,
          "name": "supportingData",
          "type": "bytes32"
        },
        {
          "indexed": false,
          "name": "createdAtBlock",
          "type": "uint256"
        },
        {
          "indexed": false,
          "name": "blockProducer",
          "type": "address"
        }
      ],
      "name": "BlockCreated",
      "type": "event"
    },
    {
      "anonymous": false,
      "inputs": [
        {
          "indexed": false,
          "name": "beneficiary",
          "type": "address"
        },
        {
          "indexed": false,
          "name": "amount",
          "type": "uint256"
        },
        {
          "indexed": false,
          "name": "stakerStake",
          "type": "uint256"
        }
      ],
      "name": "WithdrawClaimed",
      "type": "event"
    },
    {
      "anonymous": false,
      "inputs": [
        {
          "indexed": false,
          "name": "request",
          "type": "bytes32"
        },
        {
          "indexed": false,
          "name": "responseBlock",
          "type": "uint256"
        },
        {
          "indexed": false,
          "name": "result",
          "type": "uint256"
        },
        {
          "indexed": false,
          "name": "responseType",
          "type": "uint8"
        }
      ],
      "name": "Response",
      "type": "event"
    },
    {
      "anonymous": false,
      "inputs": [
        {
          "indexed": false,
          "name": "stakingId",
          "type": "bytes32"
        },
        {
          "indexed": false,
          "name": "amount",
          "type": "uint256"
        },
        {
          "indexed": false,
          "name": "staker",
          "type": "address"
        },
        {
          "indexed": false,
          "name": "stakee",
          "type": "address"
        },
        {
          "indexed": false,
          "name": "transition",
          "type": "uint8"
        }
      ],
      "name": "StakeEvent",
      "type": "event"
    },
    {
      "constant": false,
      "inputs": [
        {
          "name": "_token",
          "type": "address"
        },
        {
          "name": "_blockProducerContract",
          "type": "address"
        },
        {
          "name": "_governanceContract",
          "type": "address"
        }
      ],
      "name": "initialize",
      "outputs": [],
      "payable": false,
      "stateMutability": "nonpayable",
      "type": "function"
    },
    {
      "constant": true,
      "inputs": [],
      "name": "getLatestBlock",
      "outputs": [
        {
          "name": "",
          "type": "bytes32"
        }
      ],
      "payable": false,
      "stateMutability": "view",
      "type": "function"
    },
    {
      "constant": false,
      "inputs": [
        {
          "name": "xyoBounty",
          "type": "uint256"
        }
      ],
      "name": "withdrawRewardsRequest",
      "outputs": [
        {
          "name": "",
          "type": "bytes32"
        }
      ],
      "payable": true,
      "stateMutability": "payable",
      "type": "function"
    },
    {
      "constant": false,
      "inputs": [
        {
          "name": "_spender",
          "type": "address"
        },
        {
          "name": "_value",
          "type": "uint256"
        },
        {
          "name": "_token",
          "type": "address"
        },
        {
          "name": "_extraData",
          "type": "bytes"
        }
      ],
      "name": "receiveApproval",
      "outputs": [],
      "payable": false,
      "stateMutability": "nonpayable",
      "type": "function"
    },
    {
      "constant": false,
      "inputs": [
        {
          "name": "request",
          "type": "bytes32"
        },
        {
          "name": "xyoBounty",
          "type": "uint256"
        },
        {
          "name": "xyoSender",
          "type": "address"
        },
        {
          "name": "requestType",
          "type": "uint8"
        }
      ],
      "name": "submitRequest",
      "outputs": [],
      "payable": true,
      "stateMutability": "payable",
      "type": "function"
    },
    {
      "constant": false,
      "inputs": [
        {
          "name": "from",
          "type": "address"
        },
        {
          "name": "request",
          "type": "bytes32"
        },
        {
          "name": "xyoBounty",
          "type": "uint256"
        },
        {
          "name": "xyoSender",
          "type": "address"
        },
        {
          "name": "requestType",
          "type": "uint8"
        }
      ],
      "name": "submitRequestFrom",
      "outputs": [],
      "payable": true,
      "stateMutability": "payable",
      "type": "function"
    },
    {
      "constant": false,
      "inputs": [
        {
          "name": "previousBlock",
          "type": "bytes32"
        },
        {
          "name": "stakingBlock",
          "type": "uint256"
        },
        {
          "name": "_requests",
          "type": "bytes32[]"
        },
        {
          "name": "supportingData",
          "type": "bytes32"
        },
        {
          "name": "responses",
          "type": "bytes"
        },
        {
          "name": "signers",
          "type": "address[]"
        },
        {
          "name": "sigR",
          "type": "bytes32[]"
        },
        {
          "name": "sigS",
          "type": "bytes32[]"
        },
        {
          "name": "sigV",
          "type": "uint8[]"
        }
      ],
      "name": "submitBlock",
      "outputs": [
        {
          "name": "",
          "type": "bytes32"
        }
      ],
      "payable": false,
      "stateMutability": "nonpayable",
      "type": "function"
    },
    {
      "constant": true,
      "inputs": [
        {
          "name": "requestId",
          "type": "bytes32"
        }
      ],
      "name": "blockForRequest",
      "outputs": [
        {
          "name": "previousBlock",
          "type": "bytes32"
        },
        {
          "name": "supportingData",
          "type": "bytes32"
        },
        {
          "name": "stakingBlock",
          "type": "uint256"
        },
        {
          "name": "createdAt",
          "type": "uint256"
        },
        {
          "name": "creator",
          "type": "address"
        }
      ],
      "payable": false,
      "stateMutability": "view",
      "type": "function"
    },
    {
      "constant": true,
      "inputs": [
        {
          "name": "requestId",
          "type": "bytes32"
        }
      ],
      "name": "supportingDataForRequest",
      "outputs": [
        {
          "name": "supportingData",
          "type": "bytes32"
        }
      ],
      "payable": false,
      "stateMutability": "view",
      "type": "function"
    },
    {
      "constant": true,
      "inputs": [],
      "name": "numRequests",
      "outputs": [
        {
          "name": "",
          "type": "uint256"
        }
      ],
      "payable": false,
      "stateMutability": "view",
      "type": "function"
    },
    {
      "constant": true,
      "inputs": [],
      "name": "numBlocks",
      "outputs": [
        {
          "name": "",
          "type": "uint256"
        }
      ],
      "payable": false,
      "stateMutability": "view",
      "type": "function"
    }
  ],
  "bytecode": "0x608060405234801561001057600080fd5b506156dd80620000216000396000f3fe60806040526004361061028e576000357c0100000000000000000000000000000000000000000000000000000000900480639170c1ab11610166578063be98dc0a116100e3578063dfdb61c9116100a7578063f588a96a11610081578063f588a96a14610da4578063f666ad7114610dce578063fd36117b14610df85761028e565b8063dfdb61c914610d03578063e4f5425d14610d3e578063edf2165b14610d715761028e565b8063be98dc0a14610bc7578063c0c53b8b14610c0d578063c1ae3cd214610c52578063c2e4e2a914610c67578063d734389714610c9a5761028e565b8063b0c25dfc1161012a578063b0c25dfc14610af5578063b1ff471514610b1f578063b35af56f14610b49578063b4f5052b14610b73578063b95ff68914610b9d5761028e565b80639170c1ab14610a60578063930fc21614610a755780639fb42b1f14610a8a578063a17a43bf14610a9f578063adc9772e14610abc5761028e565b80634fba18381161020f5780636d697dd0116101d3578063867c9332116101ad578063867c93321461094c5780638ccc35441461098b5780638f4ffcb1146109c45761028e565b80636d697dd01461089157806371ed5d1a146108ef5780637cd44a8a146109195761028e565b80634fba18381461079a5780635652c52f146107c457806361d6f78a146108345780636762b2f1146108495780636bb289181461087c5761028e565b80633603248611610256578063360324861461069557806338c226ac146106ee5780634317d00b1461072f57806345441d17146107445780634ce0e438146107705761028e565b80630b70bc49146102935780631242b1941461060157806314fa8a251461063a57806328f731481461066b5780632fa4d12b14610680575b600080fd5b34801561029f57600080fd5b506105ef60048036036101208110156102b757600080fd5b8135916020810135918101906060810160408201356401000000008111156102de57600080fd5b8201836020820111156102f057600080fd5b8035906020019184602083028401116401000000008311171561031257600080fd5b9190808060200260200160405190810160405280939291908181526020018383602002808284376000920191909152509295843595909490935060408101925060200135905064010000000081111561036a57600080fd5b82018360208201111561037c57600080fd5b8035906020019184600183028401116401000000008311171561039e57600080fd5b91908080601f01602080910402602001604051908101604052809392919081815260200183838082843760009201919091525092959493602081019350359150506401000000008111156103f157600080fd5b82018360208201111561040357600080fd5b8035906020019184602083028401116401000000008311171561042557600080fd5b919080806020026020016040519081016040528093929190818152602001838360200280828437600092019190915250929594936020810193503591505064010000000081111561047557600080fd5b82018360208201111561048757600080fd5b803590602001918460208302840111640100000000831117156104a957600080fd5b91908080602002602001604051908101604052809392919081815260200183836020028082843760009201919091525092959493602081019350359150506401000000008111156104f957600080fd5b82018360208201111561050b57600080fd5b8035906020019184602083028401116401000000008311171561052d57600080fd5b919080806020026020016040519081016040528093929190818152602001838360200280828437600092019190915250929594936020810193503591505064010000000081111561057d57600080fd5b82018360208201111561058f57600080fd5b803590602001918460208302840111640100000000831117156105b157600080fd5b919080806020026020016040519081016040528093929190818152602001838360200280828437600092019190915250929550610e2b945050505050565b60408051918252519081900360200190f35b34801561060d57600080fd5b506105ef6004803603604081101561062457600080fd5b50600160a060020a0381351690602001356110e9565b34801561064657600080fd5b5061064f611119565b60408051600160a060020a039092168252519081900360200190f35b34801561067757600080fd5b506105ef611128565b34801561068c57600080fd5b5061064f61112e565b3480156106a157600080fd5b506106c8600480360360208110156106b857600080fd5b5035600160a060020a031661113d565b604080519485526020850193909352838301919091526060830152519081900360800190f35b3480156106fa57600080fd5b5061071b6004803603602081101561071157600080fd5b503560ff16611164565b604080519115158252519081900360200190f35b34801561073b57600080fd5b506105ef611190565b34801561075057600080fd5b5061076e6004803603602081101561076757600080fd5b50356111af565b005b34801561077c57600080fd5b5061076e6004803603602081101561079357600080fd5b50356114c8565b3480156107a657600080fd5b506105ef600480360360208110156107bd57600080fd5b50356117cd565b3480156107d057600080fd5b506107ee600480360360208110156107e757600080fd5b50356117df565b60408051978852602088019690965286860194909452600160a060020a03928316606087015291166080850152151560a0840152151560c0830152519081900360e00190f35b34801561084057600080fd5b506105ef611831565b34801561085557600080fd5b506105ef6004803603602081101561086c57600080fd5b5035600160a060020a0316611867565b34801561088857600080fd5b506105ef611a13565b34801561089d57600080fd5b506108bb600480360360208110156108b457600080fd5b5035611a19565b604080519586526020860194909452848401929092526060840152600160a060020a03166080830152519081900360a00190f35b3480156108fb57600080fd5b5061076e6004803603602081101561091257600080fd5b5035611b19565b34801561092557600080fd5b506105ef6004803603602081101561093c57600080fd5b5035600160a060020a0316611ecf565b34801561095857600080fd5b5061076e6004803603606081101561096f57600080fd5b50600160a060020a038135169060208101359060400135611ef2565b34801561099757600080fd5b506105ef600480360360408110156109ae57600080fd5b50600160a060020a038135169060200135612293565b3480156109d057600080fd5b5061076e600480360360808110156109e757600080fd5b600160a060020a038235811692602081013592604082013590921691810190608081016060820135640100000000811115610a2157600080fd5b820183602082011115610a3357600080fd5b80359060200191846001830284011164010000000083111715610a5557600080fd5b5090925090506122ae565b348015610a6c57600080fd5b5061064f612568565b348015610a8157600080fd5b506105ef612577565b348015610a9657600080fd5b506105ef61257d565b6105ef60048036036020811015610ab557600080fd5b5035612583565b348015610ac857600080fd5b506105ef60048036036040811015610adf57600080fd5b50600160a060020a0381351690602001356125dd565b348015610b0157600080fd5b5061076e60048036036020811015610b1857600080fd5b50356126ef565b348015610b2b57600080fd5b506105ef60048036036020811015610b4257600080fd5b5035612c8d565b348015610b5557600080fd5b506105ef60048036036020811015610b6c57600080fd5b5035612cac565b348015610b7f57600080fd5b506105ef60048036036020811015610b9657600080fd5b5035612cba565b348015610ba957600080fd5b5061076e60048036036020811015610bc057600080fd5b5035612ccc565b61076e600480360360a0811015610bdd57600080fd5b508035600160a060020a03908116916020810135916040820135916060810135909116906080013560ff1661315f565b348015610c1957600080fd5b5061076e60048036036060811015610c3057600080fd5b50600160a060020a03813581169160208101358216916040909101351661335f565b348015610c5e57600080fd5b506105ef61340e565b348015610c7357600080fd5b506105ef60048036036020811015610c8a57600080fd5b5035600160a060020a0316613414565b348015610ca657600080fd5b50610cc460048036036020811015610cbd57600080fd5b503561342f565b604080519687526020870195909552858501939093526060850191909152600160a060020a0316608084015260ff1660a0830152519081900360c00190f35b61076e60048036036080811015610d1957600080fd5b508035906020810135906040810135600160a060020a0316906060013560ff16613473565b348015610d4a57600080fd5b506105ef60048036036020811015610d6157600080fd5b5035600160a060020a0316613486565b348015610d7d57600080fd5b506105ef60048036036020811015610d9457600080fd5b5035600160a060020a03166134a1565b348015610db057600080fd5b506108bb60048036036020811015610dc757600080fd5b5035613690565b348015610dda57600080fd5b506105ef60048036036020811015610df157600080fd5b50356136c8565b348015610e0457600080fd5b506106c860048036036020811015610e1b57600080fd5b5035600160a060020a03166136de565b603454604080517ff6a3d24e0000000000000000000000000000000000000000000000000000000081523360048201529051600092600160a060020a03169163f6a3d24e916024808301926020929190829003018186803b158015610e8f57600080fd5b505afa158015610ea3573d6000803e3d6000fd5b505050506040513d6020811015610eb957600080fd5b50511515610f11576040805160e560020a62461bcd02815260206004820152601b60248201527f4f6e6c7920617070726f7665642042502063616e207375626d69740000000000604482015290519081900360640190fd5b610f19611831565b8a14610f6f576040805160e560020a62461bcd02815260206004820152601860248201527f496e636f72726563742070726576696f757320626c6f636b0000000000000000604482015290519081900360640190fd5b8751600010610fc8576040805160e560020a62461bcd02815260206004820152601460248201527f4e6f20726571756573747320696e20626c6f636b000000000000000000000000604482015290519081900360640190fd5b60008a8a8a8a8a60405160200180868152602001858152602001848051906020019060200280838360005b8381101561100b578181015183820152602001610ff3565b5050505090500183815260200182805190602001908083835b602083106110435780518252601f199092019160209182019101611024565b6001836020036101000a0380198251168184511680821785525050505050509050019550505050505060405160208183030381529060405280519060200120905060006110908a89613705565b604051909150339082156108fc029083906000818181858888f193505050501580156110c0573d6000803e3d6000fd5b506110ce8288888888613bd2565b6110da8c838b8e613f5f565b509a9950505050505050505050565b603a6020528160005260406000208181548110151561110457fe5b90600052602060002001600091509150505481565b603354600160a060020a031681565b60365481565b603554600160a060020a031681565b603f6020526000908152604090208054600182015460028301546003909301549192909184565b60008082600281111561117357fe5b148061118a5750600282600281111561118857fe5b145b92915050565b60006111a96036546037546140a290919063ffffffff16565b90505b90565b603554604080516000805160206156928339815191528152602060048201819052600860248301527f787950617573656400000000000000000000000000000000000000000000000060448301529151600160a060020a039093169263693ec85e92606480840193919291829003018186803b15801561122e57600080fd5b505afa158015611242573d6000803e3d6000fd5b505050506040513d602081101561125857600080fd5b5051156112af576040805160e560020a62461bcd02815260206004820152601160248201527f5374616b696e6720697320506175736564000000000000000000000000000000604482015290519081900360640190fd5b60006112ba826140af565b600481015490915060a860020a900460ff1615611321576040805160e560020a62461bcd02815260206004820152601860248201527f63616e6e6f742072652d636f6f6c646f776e207374616b650000000000000000604482015290519081900360640190fd5b6034546003820154604080517ff6a3d24e000000000000000000000000000000000000000000000000000000008152600160a060020a0392831660048201529051919092169163f6a3d24e916024808301926020929190829003018186803b15801561138c57600080fd5b505afa1580156113a0573d6000803e3d6000fd5b505050506040513d60208110156113b657600080fd5b50511561140d576040805160e560020a62461bcd02815260206004820152601f60248201527f4f6e6c79206e6f6e204250732063616e20626520636f6f6c656420646f776e00604482015290519081900360640190fd5b60048101805475ff000000000000000000000000000000000000000000191660a860020a1790558054600382015461144e9190600160a060020a031661427f565b80546003820154604080518581526020810184905233918101829052600160a060020a03909216606083018190527f7ab7e8e11949eaafd5e2ea7bac9bba6e3beabc6a6615bd6757d10434e5afd2f49386939092919060029060808101825b60ff1681526020019550505050505060405180910390a15050565b603554604080516000805160206156928339815191528152602060048201819052600860248301527f787950617573656400000000000000000000000000000000000000000000000060448301529151600160a060020a039093169263693ec85e92606480840193919291829003018186803b15801561154757600080fd5b505afa15801561155b573d6000803e3d6000fd5b505050506040513d602081101561157157600080fd5b5051156115c8576040805160e560020a62461bcd02815260206004820152601160248201527f5374616b696e6720697320506175736564000000000000000000000000000000604482015290519081900360640190fd5b60006115d3826140af565b600481015490915060a060020a900460ff161561163a576040805160e560020a62461bcd02815260206004820152601860248201527f63616e6e6f742072652d6163746976617465207374616b650000000000000000604482015290519081900360640190fd5b6034546003820154604080517ff6a3d24e000000000000000000000000000000000000000000000000000000008152600160a060020a0392831660048201529051919092169163f6a3d24e916024808301926020929190829003018186803b1580156116a557600080fd5b505afa1580156116b9573d6000803e3d6000fd5b505050506040513d60208110156116cf57600080fd5b5051151560011461172a576040805160e560020a62461bcd02815260206004820152601960248201527f4f6e6c79204250732063616e2062652061637469766174656400000000000000604482015290519081900360640190fd5b60048101805474ff0000000000000000000000000000000000000000191660a060020a1790558054600382015461176a9190600160a060020a0316614318565b80546003820154604080518581526020810184905233918101829052600160a060020a03909216606083018190527f7ab7e8e11949eaafd5e2ea7bac9bba6e3beabc6a6615bd6757d10434e5afd2f49386939092919060019060808101826114ad565b603d6020526000908152604090205481565b60396020526000908152604090208054600182015460028301546003840154600490940154929391929091600160a060020a03908116919081169060ff60a060020a820481169160a860020a90041687565b6042546000901515611845575060006111ac565b60428054600019810190811061185757fe5b9060005260206000200154905090565b6000808061187484613486565b905060005b81811015611a0a576118896154b5565b600160a060020a0386166000908152603b6020526040812080546039929190859081106118b257fe5b600091825260208083209091015483528281019390935260409182018120825160e0810184528154815260018201549481019490945260028101549284018390526003810154600160a060020a039081166060860152600490910154908116608085015260ff60a060020a82048116151560a086015260a860020a90910416151560c08401529192501180156119f45750603554604080516000805160206156928339815191528152602060048201819052601160248301527f7879556e7374616b65436f6f6c646f776e000000000000000000000000000000604483015291514393600160a060020a03169263693ec85e9260648082019391829003018186803b1580156119c057600080fd5b505afa1580156119d4573d6000803e3d6000fd5b505050506040513d60208110156119ea57600080fd5b5051604083015101105b15611a0157805193909301925b50600101611879565b50909392505050565b60375481565b6000806000806000611a296154f1565b506000868152604160209081526040808320815160c08101835281548152600182015493810193909352600281015491830191909152600381015460608301819052600490910154600160a060020a038116608084015260a060020a900460ff1660a083015290911015611b0f5760006042611ab3600184606001516143b190919063ffffffff16565b81548110611abd57fe5b60009182526020909120015490508015611b0d5760008181526043602052604090208054600182015460028301546003840154600490940154929a509098509650909450600160a060020a031692505b505b5091939590929450565b603554604080516000805160206156928339815191528152602060048201819052600860248301527f787950617573656400000000000000000000000000000000000000000000000060448301529151600160a060020a039093169263693ec85e92606480840193919291829003018186803b158015611b9857600080fd5b505afa158015611bac573d6000803e3d6000fd5b505050506040513d6020811015611bc257600080fd5b505115611c19576040805160e560020a62461bcd02815260206004820152601160248201527f5374616b696e6720697320506175736564000000000000000000000000000000604482015290519081900360640190fd5b60008181526039602052604090206004810154600160a060020a03163314611c755760405160e560020a62461bcd0281526004018080602001828103825260238152602001806156416023913960400191505060405180910390fd5b603554604080516000805160206156928339815191528152602060048201819052600f60248301527f78795374616b65436f6f6c646f776e0000000000000000000000000000000000604483015291514393600160a060020a03169263693ec85e9260648082019391829003018186803b158015611cf257600080fd5b505afa158015611d06573d6000803e3d6000fd5b505050506040513d6020811015611d1c57600080fd5b505160018301540110611d79576040805160e560020a62461bcd02815260206004820152601960248201527f5374616b696e67206e6565647320746f20636f6f6c646f776e00000000000000604482015290519081900360640190fd5b600281015415611dd3576040805160e560020a62461bcd02815260206004820152601160248201527f43616e6e6f742072652d756e7374616b65000000000000000000000000000000604482015290519081900360640190fd5b6040805160e08101825282548152600183015460208201526002830154918101919091526003820154600160a060020a0390811660608301526004830154908116608083015260ff60a060020a82048116151560a084015260a860020a90910416151560c0820152611e44906143c3565b60048101805475ffff000000000000000000000000000000000000000019811690915543600283015581546003808401546040805187815260208101859052600160a060020a0395861691810182905294909116606085018190527f7ab7e8e11949eaafd5e2ea7bac9bba6e3beabc6a6615bd6757d10434e5afd2f4948794939060808101826114ad565b600160a060020a03166000908152603f6020526040902080546003909101540190565b603554604080517fb776f569000000000000000000000000000000000000000000000000000000008152600160a060020a03868116600483015291516000938493849391169163b776f56991602480820192608092909190829003018186803b158015611f5e57600080fd5b505afa158015611f72573d6000803e3d6000fd5b505050506040513d6080811015611f8857600080fd5b50602081015160408201516060909201519094509092509050600181151514611ffb576040805160e560020a62461bcd02815260206004820152601760248201527f616374696f6e206d757374206265206163636570746564000000000000000000604482015290519081900360640190fd5b600082600281111561200957fe5b14156120205761201b86868686614475565b6121d8565b600282600281111561202e57fe5b14156120c5576120418686866000614475565b603454604080517f29092d0e000000000000000000000000000000000000000000000000000000008152600160a060020a038981166004830152915191909216916329092d0e91602480830192600092919082900301818387803b1580156120a857600080fd5b505af11580156120bc573d6000803e3d6000fd5b505050506121d8565b60018260028111156120d357fe5b14156121d857603454604080517f9ed93318000000000000000000000000000000000000000000000000000000008152600160a060020a03898116600483015291519190921691639ed9331891602480830192600092919082900301818387803b15801561214057600080fd5b505af1158015612154573d6000803e3d6000fd5b5050603554604080517f8400657e000000000000000000000000000000000000000000000000000000008152600160a060020a038b811660048301529151919092169350638400657e9250602480830192600092919082900301818387803b1580156121bf57600080fd5b505af11580156121d3573d6000803e3d6000fd5b505050505b6121e182611164565b80156122065750600160a060020a0386166000908152603e6020526040902060010154155b1561228b57603554604080517f8400657e000000000000000000000000000000000000000000000000000000008152600160a060020a03898116600483015291519190921691638400657e91602480830192600092919082900301818387803b15801561227257600080fd5b505af1158015612286573d6000803e3d6000fd5b505050505b505050505050565b603b6020528160005260406000208181548110151561110457fe5b603354600160a060020a038481169116146122fd5760405160e560020a62461bcd0281526004018080602001828103825260298152602001806156186029913960400191505060405180910390fd5b600060608383604081101561231157600080fd5b8135919081019060408101602082013564010000000081111561233357600080fd5b82018360208201111561234557600080fd5b8035906020019184600183028401116401000000008311171561236757600080fd5b91908080601f0160208091040260200160405190810160405280939291908181526020018383808284376000920191909152509698509196505050600186141593506123eb92505050576000808280602001905160408110156123c957600080fd5b50805160209091015190925090506123e38983838b61460a565b50505061255f565b81600214156124425760008060008084806020019051608081101561240f57600080fd5b50805160208201516040830151606090930151919650945090925090506124398b8585858561315f565b5050505061255f565b816003141561255f57606080606083806020019051606081101561246557600080fd5b81019080805164010000000081111561247d57600080fd5b8201602081018481111561249057600080fd5b81518560208202830111640100000000821117156124ad57600080fd5b505092919060200180516401000000008111156124c957600080fd5b820160208101848111156124dc57600080fd5b81518560208202830111640100000000821117156124f957600080fd5b5050929190602001805164010000000081111561251557600080fd5b8201602081018481111561252857600080fd5b815185602082028301116401000000008211171561254557600080fd5b50509291905050509250925092506122868a848484614a2b565b50505050505050565b603454600160a060020a031681565b60425490565b60405490565b60408051336c01000000000000000000000000810260208084019190915260348301859052436054808501919091528451808503909101815260749093019093528151919092012060009161118a90829085906003613473565b603554604080516000805160206156928339815191528152602060048201819052600860248301527f787950617573656400000000000000000000000000000000000000000000000060448301529151600093600160a060020a03169263693ec85e9260648082019391829003018186803b15801561265b57600080fd5b505afa15801561266f573d6000803e3d6000fd5b505050506040513d602081101561268557600080fd5b5051156126dc576040805160e560020a62461bcd02815260206004820152601160248201527f5374616b696e6720697320506175736564000000000000000000000000000000604482015290519081900360640190fd5b6126e83333858561460a565b9392505050565b603554604080516000805160206156928339815191528152602060048201819052600860248301527f787950617573656400000000000000000000000000000000000000000000000060448301529151600160a060020a039093169263693ec85e92606480840193919291829003018186803b15801561276e57600080fd5b505afa158015612782573d6000803e3d6000fd5b505050506040513d602081101561279857600080fd5b5051156127ef576040805160e560020a62461bcd02815260206004820152601160248201527f5374616b696e6720697320506175736564000000000000000000000000000000604482015290519081900360640190fd5b60006127fa33613486565b9050600080831161280b578161280d565b825b90506000809050606082604051908082528060200260200182016040528015612840578160200160208202803883390190505b5090506000805b858110801561285557508481105b15612ab7576128626154b5565b336000908152603b60205260408120805460399291908590811061288257fe5b600091825260208083209091015483528281019390935260409182018120825160e0810184528154815260018201549481019490945260028101549284018390526003810154600160a060020a039081166060860152600490910154908116608085015260ff60a060020a82048116151560a086015260a860020a90910416151560c08401529192501180156129c45750603554604080516000805160206156928339815191528152602060048201819052601160248301527f7879556e7374616b65436f6f6c646f776e000000000000000000000000000000604483015291514393600160a060020a03169263693ec85e9260648082019391829003018186803b15801561299057600080fd5b505afa1580156129a4573d6000803e3d6000fd5b505050506040513d60208110156129ba57600080fd5b5051604083015101105b8015612a6457506035546060820151604080517f4348f5cd000000000000000000000000000000000000000000000000000000008152600160a060020a03928316600482015290519190921691634348f5cd916024808301926020929190829003018186803b158015612a3657600080fd5b505afa158015612a4a573d6000803e3d6000fd5b505050506040513d6020811015612a6057600080fd5b5051155b15612aae57336000908152603b60205260409020805483908110612a8457fe5b90600052602060002001548484815181101515612a9d57fe5b602090810290910101526001909201915b50600101612847565b5060005b81811015612c6c57612ae38382815181101515612ad457fe5b90602001906020020151614a91565b612b038382815181101515612af457fe5b90602001906020020151614ba3565b612b0b6154b5565b603960008584815181101515612b1d57fe5b60209081029091018101518252818101929092526040908101600020815160e08101835281548082526001830154948201949094526002820154928101929092526003810154600160a060020a0390811660608401819052600490920154908116608084015260ff60a060020a82048116151560a085015260a860020a90910416151560c083015296820196909250612bb69190614cb5565b7f7ab7e8e11949eaafd5e2ea7bac9bba6e3beabc6a6615bd6757d10434e5afd2f48483815181101515612be557fe5b9060200190602002015182600001518360800151846060015160046040518086815260200185815260200184600160a060020a0316600160a060020a0316815260200183600160a060020a0316600160a060020a03168152602001826004811115612c4c57fe5b60ff1681526020019550505050505060405180910390a150600101612abb565b50600083111561228b5760335461228b90600160a060020a03163385614d38565b6040805482908110612c9b57fe5b600091825260209091200154905081565b6042805482908110612c9b57fe5b603c6020526000908152604090205481565b603554604080516000805160206156928339815191528152602060048201819052600860248301527f787950617573656400000000000000000000000000000000000000000000000060448301529151600160a060020a039093169263693ec85e92606480840193919291829003018186803b158015612d4b57600080fd5b505afa158015612d5f573d6000803e3d6000fd5b505050506040513d6020811015612d7557600080fd5b505115612dcc576040805160e560020a62461bcd02815260206004820152601160248201527f5374616b696e6720697320506175736564000000000000000000000000000000604482015290519081900360640190fd5b612dd46154b5565b50600081815260396020908152604091829020825160e081018452815481526001820154818401526002820154818501526003820154600160a060020a0390811660608301819052600493840154808316608085015260ff60a060020a82048116151560a086015260a860020a90910416151560c084015260355486517f4348f5cd00000000000000000000000000000000000000000000000000000000815294850191909152945191941692634348f5cd9260248082019391829003018186803b158015612ea257600080fd5b505afa158015612eb6573d6000803e3d6000fd5b505050506040513d6020811015612ecc57600080fd5b505115612f0d5760405160e560020a62461bcd0281526004018080602001828103825260268152602001806155a06026913960400191505060405180910390fd5b6080810151600160a060020a03163314612f71576040805160e560020a62461bcd02815260206004820152601760248201527f4f6e6c79206f776e65722063616e207769746864726177000000000000000000604482015290519081900360640190fd5b600081604001511180156130315750603554604080516000805160206156928339815191528152602060048201819052601160248301527f7879556e7374616b65436f6f6c646f776e000000000000000000000000000000604483015291514393600160a060020a03169263693ec85e9260648082019391829003018186803b158015612ffd57600080fd5b505afa158015613011573d6000803e3d6000fd5b505050506040513d602081101561302757600080fd5b5051604083015101105b1515613087576040805160e560020a62461bcd02815260206004820152601660248201527f4e6f7420726561647920666f7220776974686472617700000000000000000000604482015290519081900360640190fd5b7f7ab7e8e11949eaafd5e2ea7bac9bba6e3beabc6a6615bd6757d10434e5afd2f48282600001518360800151846060015160046040518086815260200185815260200184600160a060020a0316600160a060020a0316815260200183600160a060020a0316600160a060020a0316815260200182600481111561310657fe5b60ff1681526020019550505050505060405180910390a161312682614a91565b61312f82614ba3565b61314181600001518260600151614cb5565b603354815161315b91600160a060020a0316903390614d38565b5050565b600084815260416020526040902060020154156131c6576040805160e560020a62461bcd02815260206004820152601b60248201527f4475706c69636174652072657175657374207375626d69747465640000000000604482015290519081900360640190fd5b6131d08284614e2f565b6131d86154f1565b60c0604051908101604052808581526020013481526020014381526020016000815260200187600160a060020a031681526020018360ff16815250905080604160008781526020019081526020016000206000820151816000015560208201518160010155604082015181600201556060820151816003015560808201518160040160006101000a815481600160a060020a030219169083600160a060020a0316021790555060a08201518160040160146101000a81548160ff021916908360ff16021790555090505060408590806001815401808255809150509060018203906000526020600020016000909192909190915055507ffe6124b23e2b09739c63840fae4e7d9bd8f30eb25c008affee4439bc9974d1a48585348987876040518087815260200186815260200185815260200184600160a060020a0316600160a060020a0316815260200183600160a060020a0316600160a060020a031681526020018260ff1660ff168152602001965050505050505060405180910390a1505050505050565b600054610100900460ff16806133785750613378615071565b80613386575060005460ff16155b15156133c65760405160e560020a62461bcd02815260040180806020018281038252602e815260200180615664602e913960400191505060405180910390fd5b60008054600161010061ff00198316811760ff1916919091179092550460ff166133f1848484615077565b600080549115156101000261ff0019909216919091179055505050565b60385481565b600160a060020a03166000908152603a602052604090205490565b6041602052600090815260409020805460018201546002830154600384015460049094015492939192909190600160a060020a0381169060a060020a900460ff1686565b613480338585858561315f565b50505050565b600160a060020a03166000908152603b602052604090205490565b600160a060020a0381166000908152603a6020908152604080832080548251818502810185019093528083526060938301828280156134ff57602002820191906000526020600020905b8154815260200190600101908083116134eb575b509394506000935083925050505b82518110156136885761351e6154b5565b60396000858481518110151561353057fe5b602090810290910181015182528181019290925260409081016000908120825160e0810184528154815260018201549481019490945260028101549284018390526003810154600160a060020a039081166060860152600490910154908116608085015260ff60a060020a82048116151560a086015260a860020a90910416151560c08401529192501180156136725750603554604080516000805160206156928339815191528152602060048201819052601160248301527f7879556e7374616b65436f6f6c646f776e000000000000000000000000000000604483015291514393600160a060020a03169263693ec85e9260648082019391829003018186803b15801561363e57600080fd5b505afa158015613652573d6000803e3d6000fd5b505050506040513d602081101561366857600080fd5b5051604083015101105b1561367f57805192909201915b5060010161350d565b509392505050565b6043602052600090815260409020805460018201546002830154600384015460049094015492939192909190600160a060020a031685565b60006136d382611a19565b509195945050505050565b603e6020526000908152604090208054600182015460028301546003909301549192909184565b60008080805b8551811015613bc957600060416000888481518110151561372857fe5b90602001906020020151815260200190815260200160002090506000816002015411151561378a5760405160e560020a62461bcd0281526004018080602001828103825260248152602001806155c66024913960400191505060405180910390fd5b600481015460009060ff60a060020a90910416600114806137b8575060048281015460a060020a900460ff16145b6137c35760206137c6565b60015b60ff1690506137e460016137d8612577565b9063ffffffff6140a216565b600383015560018201546137ff90859063ffffffff6140a216565b600483015490945060ff60a060020a90910416600314156139085760006138278887846150c3565b600484015490915061384190600160a060020a0316611ecf565b8111156138825760405160e560020a62461bcd02815260040180806020018281038252602e8152602001806155ea602e913960400191505060405180910390fd5b60048301547f5b9b0bc34c7f6a61889ce3382d8697cc823f00d6e619362ae6b156bc8ee3ad4690600160a060020a0316826138bc82611ecf565b60408051600160a060020a039094168452602084019290925282820152519081900360600190a1603354600484015461390291600160a060020a03908116911683614d38565b50613bbb565b6060816040519080825280601f01601f191660200182016040528015613935576020820181803883390190505b50905060005b828110156139e4578881880181518110151561395357fe5b9060200101517f010000000000000000000000000000000000000000000000000000000000000090047f01000000000000000000000000000000000000000000000000000000000000000282828151811015156139ac57fe5b9060200101907effffffffffffffffffffffffffffffffffffffffffffffffffffffffffffff1916908160001a90535060010161393b565b50600483015460ff60a060020a9091041660011480613a125750600483015460ff60a060020a909104166002145b15613b3a5760048301548951600160a060020a0390911690637e663238908b9087908110613a3c57fe5b906020019060200201518560040160149054906101000a900460ff16846040518463ffffffff167c0100000000000000000000000000000000000000000000000000000000028152600401808481526020018360ff1660ff16815260200180602001828103825283818151815260200191508051906020019080838360005b83811015613ad3578181015183820152602001613abb565b50505050905090810190601f168015613b005780820380516001836020036101000a031916815260200191505b50945050505050600060405180830381600087803b158015613b2157600080fd5b505af1158015613b35573d6000803e3d6000fd5b505050505b7fed534ef810cf0b4ca5a86d09f252615f3613687938a15c734176eedaec90800e8985815181101515613b6957fe5b906020019060200201518460030154613b84846000876150c3565b60048701546040805194855260208501939093528383019190915260ff60a060020a909104166060830152519081900360800190a1505b93909301925060010161370b565b50949350505050565b604080517f19457468657265756d205369676e6564204d6573736167653a0a333200000000602080830191909152603c80830189905283518084039091018152605c9092019092528051910120600080805b8751811015613e2f5760006001858784815181101515613c4057fe5b906020019060200201518a85815181101515613c5857fe5b906020019060200201518a86815181101515613c7057fe5b9060200190602002015160405160008152602001604052604051808581526020018460ff1660ff1681526020018381526020018281526020019450505050506020604051602081039080840390855afa158015613cd1573d6000803e3d6000fd5b50505060206040510351905083600160a060020a03168983815181101515613cf557fe5b60209081029091010151600160a060020a031611613d5d576040805160e560020a62461bcd02815260206004820152601f60248201527f5369676e657273206172726179206d75737420626520617363656e64696e6700604482015290519081900360640190fd5b8882815181101515613d6b57fe5b90602001906020020151935080600160a060020a03168983815181101515613d8f57fe5b60209081029091010151600160a060020a031614613df7576040805160e560020a62461bcd02815260206004820152601360248201527f5369676e6174757265206d69732d6d6174636800000000000000000000000000604482015290519081900360640190fd5b600160a060020a0384166000908152603e6020526040902060010154613e2490849063ffffffff6140a216565b925050600101613c24565b50603554604080516000805160206156928339815191528152602060048201819052601160248301527f78795374616b655375636365737350637400000000000000000000000000000060448301529151613eff93606493613ef393600160a060020a039092169263693ec85e9280870192919081900387018186803b158015613eb857600080fd5b505afa158015613ecc573d6000803e3d6000fd5b505050506040513d6020811015613ee257600080fd5b50516036549063ffffffff6150e116565b9063ffffffff61510a16565b8111613f55576040805160e560020a62461bcd02815260206004820152601060248201527f4e6f7420656e6f756768207374616b6500000000000000000000000000000000604482015290519081900360640190fd5b5050505050505050565b613f67615534565b60a06040519081016040528086815260200184815260200183815260200143815260200133600160a060020a03168152509050604284908060018154018082558091505090600182039060005260206000200160009091929091909150555080604360008681526020019081526020016000206000820151816000015560208201518160010155604082015181600201556060820151816003015560808201518160040160006101000a815481600160a060020a030219169083600160a060020a031602179055509050507f82fc50e339180bcc315d917fbc4224d406c0a8185ad1f9e522a403a3814dca0f84868543336040518086815260200185815260200184815260200183815260200182600160a060020a0316600160a060020a031681526020019550505050505060405180910390a15050505050565b8181018281101561118a57fe5b60008181526039602052604081206004810154600160a060020a03163314614121576040805160e560020a62461bcd02815260206004820152601c60248201527f4f6e6c7920746865207374616b65722063616e20616374697661746500000000604482015290519081900360640190fd5b603554604080516000805160206156928339815191528152602060048201819052600f60248301527f78795374616b65436f6f6c646f776e0000000000000000000000000000000000604483015291514393600160a060020a03169263693ec85e9260648082019391829003018186803b15801561419e57600080fd5b505afa1580156141b2573d6000803e3d6000fd5b505050506040513d60208110156141c857600080fd5b505160018301540110614225576040805160e560020a62461bcd02815260206004820152601f60248201527f4e6f7420726561647920746f206163746976617465207374616b652079657400604482015290519081900360640190fd5b60028101541561118a576040805160e560020a62461bcd02815260206004820152601760248201527f43616e6e6f7420616374697661746520756e7374616b65000000000000000000604482015290519081900360640190fd5b600160a060020a0381166000908152603e60205260409020600201546142ab908363ffffffff6140a216565b600160a060020a0382166000908152603e60209081526040808320600290810194909455338352603f909152902001546142eb908363ffffffff6140a216565b336000908152603f6020526040902060020155603754614311908363ffffffff6140a216565b6037555050565b600160a060020a0381166000908152603e6020526040902060010154614344908363ffffffff6140a216565b600160a060020a0382166000908152603e60209081526040808320600190810194909455338352603f90915290200154614384908363ffffffff6140a216565b336000908152603f60205260409020600101556036546143aa908363ffffffff6140a216565b6036555050565b6000828211156143bd57fe5b50900390565b6143d181826000015161511f565b80516060820151600160a060020a03166000908152603e60205260409020600301546144029163ffffffff6140a216565b6060820151600160a060020a039081166000908152603e60209081526040808320600390810195909555855160808701519094168352603f9091529020909101546144529163ffffffff6140a216565b608090910151600160a060020a03166000908152603f6020526040902060030155565b825b83830181101561460357600160a060020a0385166000908152603a602052604081208054839081106144a557fe5b60009182526020808320909101548083526039909152604090912060028101549192509015156145f95760008411156145815760006144f66064613ef38460000154886150e190919063ffffffff16565b6040805160e08101825284548152600185015460208201526002850154918101919091526003840154600160a060020a0390811660608301526004850154908116608083015260ff60a060020a82048116151560a084015260a860020a90910416151560c082015290915061456b908261511f565b60385461457e908263ffffffff6140a216565b50505b6040805160e08101825282548152600183015460208201526002830154918101919091526003820154600160a060020a0390811660608301526004830154908116608083015260ff60a060020a82048116151560a084015260a860020a90910416151560c08201526145f2906143c3565b4360028201555b5050600101614477565b5050505050565b60335460009061462590600160a060020a0316863085615323565b603554604080517f4348f5cd000000000000000000000000000000000000000000000000000000008152600160a060020a03868116600483015291519190921691634348f5cd916024808301926020929190829003018186803b15801561468b57600080fd5b505afa15801561469f573d6000803e3d6000fd5b505050506040513d60208110156146b557600080fd5b5051156146f65760405160e560020a62461bcd0281526004018080602001828103825260268152602001806155a06026913960400191505060405180910390fd5b614700828461540c565b60408051600160a060020a038581166c0100000000000000000000000090810260208085019190915291881602603483015243604880840191909152835180840390910181526068909201909252805191012061475b6154b5565b60e0604051908101604052808581526020014381526020016000815260200186600160a060020a0316815260200187600160a060020a03168152602001600015158152602001600015158152509050603a600086600160a060020a0316600160a060020a0316815260200190815260200160002080549050603c600084815260200190815260200160002081905550603a600086600160a060020a0316600160a060020a03168152602001908152602001600020829080600181540180825580915050906001820390600052602060002001600090919290919091505550603b600087600160a060020a0316600160a060020a0316815260200190815260200160002080549050603d600084815260200190815260200160002081905550603b600087600160a060020a0316600160a060020a03168152602001908152602001600020829080600181540180825580915050906001820390600052602060002001600090919290919091505550806039600084815260200190815260200160002060008201518160000155602082015181600101556040820151816002015560608201518160030160006101000a815481600160a060020a030219169083600160a060020a0316021790555060808201518160040160006101000a815481600160a060020a030219169083600160a060020a0316021790555060a08201518160040160146101000a81548160ff02191690831515021790555060c08201518160040160156101000a81548160ff0219169083151502179055509050507f7ab7e8e11949eaafd5e2ea7bac9bba6e3beabc6a6615bd6757d10434e5afd2f48285888860006040518086815260200185815260200184600160a060020a0316600160a060020a0316815260200183600160a060020a0316600160a060020a03168152602001826004811115614a0a57fe5b60ff1681526020019550505050505060405180910390a15095945050505050565b60005b825181101561460357614a88858583815181101515614a4957fe5b906020019060200201518584815181101515614a6157fe5b906020019060200201518585815181101515614a7957fe5b9060200190602002015161460a565b50600101614a2e565b600081815260396020908152604080832060030154603c835281842054600160a060020a03909116808552603a909352908320805492939192600019810192919083908110614adc57fe5b9060005260206000200154905080603a600086600160a060020a0316600160a060020a0316815260200190815260200160002084815481101515614b1c57fe5b6000918252602080832090910192909255600160a060020a0386168152603a90915260408120805484908110614b4e57fe5b6000918252602080832090910192909255600160a060020a0386168152603a90915260409020805490614b85906000198301615562565b506000948552603c6020526040808620869055908552909320555050565b600081815260396020908152604080832060040154603d835281842054600160a060020a03909116808552603b909352908320805492939192600019810192919083908110614bee57fe5b9060005260206000200154905080603b600086600160a060020a0316600160a060020a0316815260200190815260200160002084815481101515614c2e57fe5b6000918252602080832090910192909255600160a060020a0386168152603b90915260408120805484908110614c6057fe5b6000918252602080832090910192909255600160a060020a0386168152603b90915260409020805490614c97906000198301615562565b506000948552603d6020526040808620869055908552909320555050565b600160a060020a0381166000908152603e6020526040902060030154614ce1908363ffffffff6143b116565b600160a060020a0382166000908152603e60209081526040808320600390810194909455338352603f90915290200154614d21908363ffffffff6143b116565b336000908152603f60205260409020600301555050565b82600160a060020a031663a9059cbb83836040518363ffffffff167c01000000000000000000000000000000000000000000000000000000000281526004018083600160a060020a0316600160a060020a0316815260200182815260200192505050600060405180830381600087803b158015614db457600080fd5b505af1158015614dc8573d6000803e3d6000fd5b50505050614dd4615481565b1515614e2a576040805160e560020a62461bcd02815260206004820152600d60248201527f7472616e73666572206661696c00000000000000000000000000000000000000604482015290519081900360640190fd5b505050565b603554604080516000805160206156928339815191528152602060048201819052600e60248301527f78795765694d696e696e674d696e00000000000000000000000000000000000060448301529151600093600160a060020a03169263693ec85e9260648082019391829003018186803b158015614ead57600080fd5b505afa158015614ec1573d6000803e3d6000fd5b505050506040513d6020811015614ed757600080fd5b5051603554604080516000805160206156928339815191528152602060048201819052601560248301527f787958594f52657175657374426f756e74794d696e000000000000000000000060448301529151939450600093600160a060020a039093169263693ec85e92606480840193919291829003018186803b158015614f5e57600080fd5b505afa158015614f72573d6000803e3d6000fd5b505050506040513d6020811015614f8857600080fd5b505190506000821115614fed5734821115614fed576040805160e560020a62461bcd02815260206004820152601e60248201527f4e6f7420656e6f7567682077656920746f20636f766572206d696e696e670000604482015290519081900360640190fd5b6000831180614ffc5750600081115b156134805780831015615059576040805160e560020a62461bcd02815260206004820152601c60248201527f58594f20426f756e7479206c657373207468616e206d696e696d756d00000000604482015290519081900360640190fd5b60335461348090600160a060020a0316853086615323565b303b1590565b60338054600160a060020a0394851673ffffffffffffffffffffffffffffffffffffffff1991821617909155603480549385169382169390931790925560358054919093169116179055565b60008183018451101515156150d757600080fd5b5050016020015190565b60008215156150f25750600061118a565b5081810281838281151561510257fe5b041461118a57fe5b6000818381151561511757fe5b049392505050565b6060820151600160a060020a03166000908152603e602052604090205461514c908263ffffffff6143b116565b6060830151600160a060020a039081166000908152603e602090815260408083209490945560808601519092168152603f9091522054615192908263ffffffff6143b116565b6080830151600160a060020a03166000908152603f602052604090205560a08201511561526b576060820151600160a060020a03166000908152603e60205260409020600101546151e9908263ffffffff6143b116565b6060830151600160a060020a039081166000908152603e6020908152604080832060019081019590955560808701519093168252603f9052200154615234908263ffffffff6143b116565b6080830151600160a060020a03166000908152603f6020526040902060010155603654615267908263ffffffff6143b116565b6036555b8160c001511561315b576060820151600160a060020a03166000908152603e60205260409020600201546152a5908263ffffffff6143b116565b6060830151600160a060020a039081166000908152603e6020908152604080832060029081019590955560808701519093168252603f90522001546152f0908263ffffffff6143b116565b6080830151600160a060020a03166000908152603f6020526040902060020155603754614311908263ffffffff6143b116565b604080517f23b872dd000000000000000000000000000000000000000000000000000000008152600160a060020a0385811660048301528481166024830152604482018490529151918616916323b872dd9160648082019260009290919082900301818387803b15801561539657600080fd5b505af11580156153aa573d6000803e3d6000fd5b505050506153b6615481565b1515613480576040805160e560020a62461bcd02815260206004820152601160248201527f7472616e7366657246726f6d206661696c000000000000000000000000000000604482015290519081900360640190fd5b600160a060020a0381166000908152603e6020526040902054615435908363ffffffff6140a216565b600160a060020a0382166000908152603e6020908152604080832093909355338252603f9052205461546d908363ffffffff6140a216565b336000908152603f60205260409020555050565b6000803d801561549857602081146154a1576154ad565b600191506154ad565b60206000803e60005191505b501515905090565b6040805160e081018252600080825260208201819052918101829052606081018290526080810182905260a0810182905260c081019190915290565b60c060405190810160405280600081526020016000815260200160008152602001600081526020016000600160a060020a03168152602001600060ff1681525090565b6040805160a08101825260008082526020820181905291810182905260608101829052608081019190915290565b815481835581811115614e2a57600083815260209020614e2a9181019083016111ac91905b8082111561559b5760008155600101615587565b509056fe416c6c20616374696f6e73206f6e207374616b6565206d757374206265207265736f6c76656450617373656420612072657175657374207468617420646f6573206e6f74206578697374576974686472617720616d6f756e74206d6f7265207468616e20746f74616c207374616b65722773207374616b6543616e206f6e6c792062652063616c6c65642066726f6d207468652063757272656e7420746f6b656e4f6e6c7920746865207374616b65722063616e20756e7374616b652061207374616b65436f6e747261637420696e7374616e63652068617320616c7265616479206265656e20696e697469616c697a6564693ec85e00000000000000000000000000000000000000000000000000000000a165627a7a723058200628c1986673dd4e7b90121126b0dde058bf4257eaddc405bbf154a9677266eb0029",
  "source": "pragma solidity >=0.5.0 <0.6.0;\n\nimport \"./utils/Initializable.sol\";\nimport \"./XyStakingModel.sol\";\nimport \"./IXyRequester.sol\";\n\n /**\n    @title XyStakingConsensus\n    @dev Manages the Stake for multiple clients in a decentralized consensus \n    system to trustlessly answer requests\n  */\ncontract XyStakingConsensus is Initializable, XyStakingModel {\n    using SafeMath for uint;\n    \n    /** STRUCTS */\n    struct Block {\n        bytes32 previousBlock;\n        bytes32 supportingData;\n        uint stakingBlock;\n        uint createdAt;\n        address creator;\n    }\n\n    struct Request {\n        uint xyoBounty;\n        uint weiMining;\n        uint createdAt;\n        uint responseBlockNumber;\n        address requestSender;\n        uint8 requestType;\n    }\n\n    // the array of request ids\n    bytes32[] public requestChain;\n    // the requests in the requestChain\n    mapping(bytes32 => Request) public requestsById; \n    // the array of block ids\n    bytes32[] public blockChain; \n    // The blocks in the blockChain\n    mapping(bytes32 => Block) public blocks; \n\n    /** EVENTS */\n    event RequestSubmitted(\n        bytes32 request,\n        uint xyoBounty,\n        uint weiMining,\n        address requester,\n        address xyoSender,\n        uint8 requestType\n    );\n\n    event BlockCreated(\n        bytes32 blockHash,\n        bytes32 previousBlock,\n        bytes32 supportingData,\n        uint createdAtBlock,\n        address blockProducer\n    );\n\n    event WithdrawClaimed(\n        address beneficiary,\n        uint amount,\n        uint stakerStake\n    );\n\n    event Response (\n        bytes32 request,\n        uint responseBlock,\n        uint result,\n        uint8 responseType\n    );\n\n    /**\n        @param _token - The ERC20 token to stake with \n        @param _blockProducerContract - The block producers \n        @param _governanceContract - The contract that governs the blockProducer and actions of the system\n    */\n    function initialize(\n        address _token,\n        address _blockProducerContract,\n        address _governanceContract\n    )\n        initializer public\n    {\n        init(_token, _blockProducerContract, _governanceContract);\n    }\n\n    /** \n        @return the latest block submitted to the blockChain \n    */\n    function getLatestBlock() \n        public \n        view \n        returns (bytes32) \n    {\n        if (blockChain.length == 0) {\n            return 0x0;\n        }\n        return blockChain[blockChain.length-1];\n    }\n\n    /**\n        @dev Withdraw reward balance can post same params via raw\n        @param xyoBounty bounty for request\n    */\n    function withdrawRewardsRequest \n    (\n        uint xyoBounty\n    ) \n        public\n        payable\n        returns (bytes32)\n    {\n        bytes32 requestId = keccak256(abi.encodePacked(msg.sender, xyoBounty, block.number));\n        submitRequest(requestId, xyoBounty, msg.sender, uint8(IXyRequester.RequestType.WITHDRAW));\n        return requestId;\n    }\n\n    /** \n        Implements IApprovalRecipient allows approveAndCall in one transaction\n    */\n    function receiveApproval(\n        address _spender, \n        uint256 _value, \n        address _token,\n        bytes calldata _extraData\n    ) \n        external \n    {\n        require (_token == xyoToken, \"Can only be called from the current token\");\n        (uint method, bytes memory data) = abi.decode(_extraData, (uint, bytes));\n        \n        if (method == 1) {\n            (address staker, address stakee) = abi.decode(data, (address, address));\n            stakeFrom(_spender, staker, stakee, _value);\n        } else if (method == 2) {\n            ( bytes32 request, uint xyoBounty, address xyoSender, uint8 requestType) = abi.decode(data, (bytes32, uint, address, uint8));\n            submitRequestFrom(_spender, request, xyoBounty, xyoSender, requestType);\n        } else if (method == 3) {\n            (address[] memory stakers, address[] memory stakees, uint[] memory amounts) = abi.decode(data, (address[], address[], uint[]));\n            stakeMultiple(_spender, stakers, stakees, amounts);\n        }\n    }\n\n    /**\n        @dev Escrow eth and xyo, making sure it covers the answer mining cost\n        Stores new request in request pool\n        @param request How to uniquely identify a request\n        @param xyoBounty bounty for request\n        @param xyoSender who to deduct the xyo from for mining cost\n        @param requestType based on the type we know which callback to call (string or bool)\n    */\n    function submitRequest\n    (\n        bytes32 request, \n        uint xyoBounty,\n        address xyoSender, \n        uint8 requestType\n    ) \n        public\n        payable\n    {\n        submitRequestFrom(msg.sender, request, xyoBounty, xyoSender, requestType);\n    }\n\n    function submitRequestFrom\n    (   \n        address from,\n        bytes32 request, \n        uint xyoBounty,\n        address xyoSender, \n        uint8 requestType\n    )\n        public \n        payable\n    {\n        require (requestsById[request].createdAt == 0, \"Duplicate request submitted\");\n\n        _requireFeesAndTransfer(xyoSender, xyoBounty);\n\n        Request memory q = Request (\n            xyoBounty,      // bounty\n            msg.value,      // wei for mining\n            block.number,   // created at\n            0,              // response block num           \n            from,           // requestSender (receives response cb)\n            requestType     // type of request\n        );\n\n        requestsById[request] = q;\n        requestChain.push(request);\n\n        emit RequestSubmitted(request, xyoBounty, msg.value, from, xyoSender, requestType);\n    }\n\n    /**\n        Will verify proper mining fees have been applied\n        @param xyoSender who to transfer the fees from (must have approved this contract)\n        @param xyoBounty the amount the xyoSender is paying for this request\n    */\n    function _requireFeesAndTransfer(address xyoSender, uint xyoBounty) \n        private \n    {\n        uint weiMiningMin = govContract.get(\"xyWeiMiningMin\");\n        uint bountyMin = govContract.get(\"xyXYORequestBountyMin\");\n        if (weiMiningMin > 0) {\n            require (msg.value >= weiMiningMin, \"Not enough wei to cover mining\");\n        }\n        if (xyoBounty > 0 || bountyMin > 0) {\n            require (xyoBounty >= bountyMin, \"XYO Bounty less than minimum\");\n            SafeERC20.transferFrom(xyoToken, xyoSender, address(this), xyoBounty);\n        }\n    }\n\n    /**\n        Requires the length of bytes is more than starting point + 32\n        returns 32 bytes memory (reversed to uint) at start + 32 to memory[start]\n        @param _bytes the bytes passed to pull uint from\n        @param _start index in bytes to return uint\n     */\n    function _toUintFromBytes(bytes memory _bytes, uint _start, uint bytesLen) private pure returns (uint256) {\n        require(_bytes.length >= (_start + bytesLen));\n        uint256 tempUint;\n\n        assembly {\n            tempUint := mload(add(add(_bytes, 0x20), _start))\n        }\n\n        return tempUint;\n    }    \n\n\n    /** \n        @dev Calls Request interface submitResponse function for each answer.\n        Use for estimating gas of a request\n        @param _requests the requests queried\n        @param responses the response data of all the requests\n        @return The weiMining for submitting the new block\n        Will revert if the request does not exist, or the withdraw request is more htna the staker stake\n    */\n    function handleResponses\n    (\n        bytes32[] memory _requests, \n        bytes memory responses\n    )\n        internal \n        returns (uint)\n    {\n        uint byteOffset = 0;\n        uint weiMining = 0;\n        for (uint i = 0; i < _requests.length; i++) {\n            Request storage q = requestsById[_requests[i]];\n            require (q.createdAt > 0, \"Passed a request that does not exist\");\n            uint numBytes = q.requestType == uint8(IXyRequester.RequestType.BOOL_CALLBACK)\n                         || q.requestType == uint8(IXyRequester.RequestType.BOOL) ? 1 : 32;\n\n            q.responseBlockNumber = numBlocks().add(1);\n            weiMining = weiMining.add(q.weiMining);\n\n            if (q.requestType == uint8(IXyRequester.RequestType.WITHDRAW)) {\n                uint amount = _toUintFromBytes(responses, byteOffset, numBytes);\n                require (amount <= totalStakeAndUnstake(q.requestSender), \"Withdraw amount more than total staker's stake\");\n                emit WithdrawClaimed(q.requestSender, amount, totalStakeAndUnstake(q.requestSender));\n                SafeERC20.transfer(xyoToken, q.requestSender, amount);\n            } else {\n                bytes memory result = new bytes(numBytes);\n                for (uint j = 0; j < numBytes; j++) {\n                    result[j] = responses[byteOffset + j];\n                }\n                if (q.requestType == uint8(IXyRequester.RequestType.BOOL_CALLBACK) \n                    || q.requestType == uint8(IXyRequester.RequestType.UINT_CALLBACK)) {\n                    IXyRequester(q.requestSender).submitResponse(_requests[i], q.requestType, result);\n                } \n                emit Response(_requests[i], q.responseBlockNumber, _toUintFromBytes(result, 0, numBytes), q.requestType);\n            }\n            byteOffset += numBytes;\n        }\n        \n        return weiMining;\n    }\n\n    /** \n        @dev checks a message hash was signed by a list of signers via their sigs\n        @param messageHash The hash of the message that was signed\n        @param signers The in-order list of signers of the message\n        @param sigR R values in signatures\n        @param sigS S values in signatures\n        @param sigV V values in signatures\n    */\n    function checkSigsAndStakes\n    (\n        bytes32 messageHash,\n        address[] memory signers,\n        bytes32[] memory sigR,\n        bytes32[] memory sigS,\n        uint8[] memory sigV\n    )\n        view\n        internal \n    {\n        bytes32 prefixedHash = keccak256(abi.encodePacked(\"\\x19Ethereum Signed Message:\\n32\", messageHash));\n        address lastStakee = address(0);\n        uint stake = 0;\n        for (uint i = 0; i < signers.length; i++) {\n            address signer = ecrecover(prefixedHash, sigV[i], sigR[i], sigS[i]);\n            require(signers[i] > lastStakee , \"Signers array must be ascending\");\n            lastStakee = signers[i];\n            require(signers[i] == signer, \"Signature mis-match\");\n            stake = stake.add(stakeeStake[lastStakee].activeStake);\n        }\n        // check sufficient stake by stakees subitted\n        require (stake > totalActiveStake.mul(govContract.get(\"xyStakeSuccessPct\")).div(100), \"Not enough stake\");\n    }\n\n    function _createBlock(bytes32 previousBlock, bytes32 newBlock, bytes32 supportingData, uint stakingBlock) private {\n        Block memory b = Block(previousBlock, supportingData, stakingBlock, block.number,  msg.sender);\n        blockChain.push(newBlock);\n        blocks[newBlock] = b;\n        emit BlockCreated(newBlock, previousBlock, supportingData, block.number, msg.sender);\n    }\n\n    /**\n        Submit a new block to the consensus blockChain. Verifies stake in consensus is over 51% of the network. \n        calls requests' callbacks with responses.  Creates new block and returns weiMining for successful creation.\n        @param previousBlock the prior block to maintain the \n        @param stakingBlock the block number diviners get staking data for\n        @param _requests list of the request ids (minus first 2 bytes)\n        @param supportingData the hash of the supporting block data\n        @param responses byte array of responses\n        @param signers Stakees, aka diviners and must be passed in ascending order to check for dups\n        @param sigR R values in signatures\n        @param sigS S values in signatures\n        @param sigV V values in signatures\n        @return The hash of the new block\n    */\n    function submitBlock\n    (\n        bytes32 previousBlock,\n        uint stakingBlock,\n        bytes32[] memory _requests,\n        bytes32 supportingData,\n        bytes memory responses,\n        address[] memory signers,\n        bytes32[] memory sigR,\n        bytes32[] memory sigS,\n        uint8[] memory sigV\n    ) \n        public \n        returns (bytes32)\n    {\n        require (blockProducerContract.exists(msg.sender), \"Only approved BP can submit\");\n        require (previousBlock == getLatestBlock(), \"Incorrect previous block\");\n        require (_requests.length > 0, \"No requests in block\");\n        \n        bytes32 newBlock = keccak256(abi.encodePacked(previousBlock, stakingBlock, _requests, supportingData, responses));\n        uint weiMining = handleResponses(_requests, responses);\n        msg.sender.transfer(weiMining);\n\n        checkSigsAndStakes(newBlock, signers, sigR, sigS, sigV);\n        _createBlock(previousBlock, newBlock, supportingData, stakingBlock);\n\n        return newBlock;\n    }\n\n    /**\n        Returns a block for a given request id or a undefined block\n        @param requestId the block this request was responded on\n    */\n    function blockForRequest(bytes32 requestId) \n        public view \n        returns (\n            bytes32 previousBlock,\n            bytes32 supportingData,\n            uint stakingBlock,\n            uint createdAt,\n            address creator\n        ) \n    {\n        Request memory r = requestsById[requestId];\n        if (r.responseBlockNumber > 0) {\n            bytes32 blockId = blockChain[r.responseBlockNumber.sub(1)];\n            if (blockId != 0) {\n                previousBlock = blocks[blockId].previousBlock;\n                supportingData = blocks[blockId].supportingData;\n                stakingBlock = blocks[blockId].stakingBlock;\n                createdAt = blocks[blockId].createdAt;\n                creator = blocks[blockId].creator;\n            }\n        }\n    }\n\n    /**\n        Returns supporting data for a given request id\n        @param requestId the block this request was responded on\n        @return content addressable hash of the data\n    */\n    function supportingDataForRequest(bytes32 requestId) public view returns (bytes32 supportingData) {\n        (,supportingData,,,) = blockForRequest(requestId);\n    }\n\n    function numRequests() public view returns (uint) {\n        return requestChain.length;\n    }\n    \n    function numBlocks() public view returns (uint) {\n        return blockChain.length;\n    }\n}",
  "compiler": {
    "name": "solc",
    "version": "0.5.4+commit.9549d8ff.Emscripten.clang"
  },
  "schemaVersion": "3.0.6",
  "updatedAt": "2019-04-18T16:26:33.261Z",
  "devdoc": {
    "details": "Manages the Stake for multiple clients in a decentralized consensus  system to trustlessly answer requests",
    "methods": {
      "activateStake(bytes32)": {
        "details": "Activate stake on a block producer",
        "params": {
          "stakingId": "- the tokenId of the staking token"
        }
      },
      "blockForRequest(bytes32)": {
        "params": {
          "requestId": "the block this request was responded on"
        }
      },
      "cooldownStake(bytes32)": {
        "details": "Mark stake as cooled down so we can cache totals for voting",
        "params": {
          "stakingId": "- the tokenId of the staking token"
        }
      },
      "getLatestBlock()": {
        "return": "the latest block submitted to the blockChain "
      },
      "initialize(address,address,address)": {
        "params": {
          "_blockProducerContract": "- The block producers ",
          "_governanceContract": "- The contract that governs the blockProducer and actions of the system",
          "_token": "- The ERC20 token to stake with "
        }
      },
      "resolveGovernanceAction(address,uint256,uint256)": {
        "params": {
          "batchSize": "if batchable action, batchSize",
          "stakee": "the staked item receiving action",
          "startIndex": "if a batchable action, where to start"
        }
      },
      "stake(address,uint256)": {
        "details": "This contract must be approved to transfer tokens by token holder",
        "params": {
          "amount": "- the amount to stake",
          "stakee": "- the stakable address "
        }
      },
      "submitBlock(bytes32,uint256,bytes32[],bytes32,bytes,address[],bytes32[],bytes32[],uint8[])": {
        "params": {
          "_requests": "list of the request ids (minus first 2 bytes)",
          "previousBlock": "the prior block to maintain the ",
          "responses": "byte array of responses",
          "sigR": "R values in signatures",
          "sigS": "S values in signatures",
          "sigV": "V values in signatures",
          "signers": "Stakees, aka diviners and must be passed in ascending order to check for dups",
          "stakingBlock": "the block number diviners get staking data for",
          "supportingData": "the hash of the supporting block data"
        },
        "return": "The hash of the new block"
      },
      "submitRequest(bytes32,uint256,address,uint8)": {
        "details": "Escrow eth and xyo, making sure it covers the answer mining cost Stores new request in request pool",
        "params": {
          "request": "How to uniquely identify a request",
          "requestType": "based on the type we know which callback to call (string or bool)",
          "xyoBounty": "bounty for request",
          "xyoSender": "who to deduct the xyo from for mining cost"
        }
      },
      "supportingDataForRequest(bytes32)": {
        "params": {
          "requestId": "the block this request was responded on"
        },
        "return": "content addressable hash of the data"
      },
      "unstake(bytes32)": {
        "params": {
          "stakingId": "- the tokenId of the staking token"
        }
      },
      "withdrawManyStake(uint256)": {
        "params": {
          "batchLimit": "- Allows iterating over withdrawing due to gas limits if batchlimit is 0, try withdrawing all available tokens (be prepared for out of gas if you've got > 50 tokens)"
        }
      },
      "withdrawRewardsRequest(uint256)": {
        "details": "Withdraw reward balance can post same params via raw",
        "params": {
          "xyoBounty": "bounty for request"
        }
      },
      "withdrawStake(bytes32)": {
        "params": {
          "stakingId": "- the tokenId of the staking token to remove"
        }
      }
    },
    "title": "XyStakingConsensus"
  },
  "userdoc": {
    "methods": {
      "blockForRequest(bytes32)": {
        "notice": "Returns a block for a given request id or a undefined block"
      },
      "getAvailableStakeeUnstake(address)": {
        "notice": "Get the available unstake, counting only stakes that can be withdrawn "
      },
      "getAvailableStakerUnstake(address)": {
        "notice": "Get the available unstake, counting only stakes that can be withdrawn "
      },
      "numStakerStakes(address)": {
        "notice": "Public getters "
      },
      "receiveApproval(address,uint256,address,bytes)": {
        "notice": "Implements IApprovalRecipient allows approveAndCall in one transaction"
      },
      "resolveGovernanceAction(address,uint256,uint256)": {
        "notice": "Call this when it's time to resolve a passed governance action"
      },
      "stake(address,uint256)": {
        "notice": "Adds stake to a stakable token id"
      },
      "submitBlock(bytes32,uint256,bytes32[],bytes32,bytes,address[],bytes32[],bytes32[],uint8[])": {
        "notice": "Submit a new block to the consensus blockChain. Verifies stake in consensus is over 51% of the network.  calls requests' callbacks with responses.  Creates new block and returns weiMining for successful creation."
      },
      "supportingDataForRequest(bytes32)": {
        "notice": "Returns supporting data for a given request id"
      },
      "unstake(bytes32)": {
        "notice": "unstake a specific previous stake "
      },
      "withdrawManyStake(uint256)": {
        "notice": "Withdraw a batch of first avaliable staking tokens"
      },
      "withdrawStake(bytes32)": {
        "notice": "Withdraw a single token's stake by token id, removes staking token"
      }
    }
  }
}