{
  "contractName": "XyStakingConsensus",
  "abi": [
    {
      "constant": true,
      "inputs": [
        {
          "name": "",
          "type": "address"
        },
        {
          "name": "",
          "type": "uint256"
        }
      ],
      "name": "stakeeToStakingIds",
      "outputs": [
        {
          "name": "",
          "type": "bytes32"
        }
      ],
      "payable": false,
      "stateMutability": "view",
      "type": "function"
    },
    {
      "constant": true,
      "inputs": [],
      "name": "xyoToken",
      "outputs": [
        {
          "name": "",
          "type": "address"
        }
      ],
      "payable": false,
      "stateMutability": "view",
      "type": "function"
    },
    {
      "constant": true,
      "inputs": [],
      "name": "totalActiveStake",
      "outputs": [
        {
          "name": "",
          "type": "uint256"
        }
      ],
      "payable": false,
      "stateMutability": "view",
      "type": "function"
    },
    {
      "constant": true,
      "inputs": [],
      "name": "govContract",
      "outputs": [
        {
          "name": "",
          "type": "address"
        }
      ],
      "payable": false,
      "stateMutability": "view",
      "type": "function"
    },
    {
      "constant": true,
      "inputs": [
        {
          "name": "",
          "type": "address"
        }
      ],
      "name": "stakerStake",
      "outputs": [
        {
          "name": "totalStake",
          "type": "uint256"
        },
        {
          "name": "activeStake",
          "type": "uint256"
        },
        {
          "name": "cooldownStake",
          "type": "uint256"
        },
        {
          "name": "totalUnstake",
          "type": "uint256"
        }
      ],
      "payable": false,
      "stateMutability": "view",
      "type": "function"
    },
    {
      "constant": true,
      "inputs": [
        {
          "name": "actionType",
          "type": "uint8"
        }
      ],
      "name": "isUnstakeAction",
      "outputs": [
        {
          "name": "",
          "type": "bool"
        }
      ],
      "payable": false,
      "stateMutability": "pure",
      "type": "function"
    },
    {
      "constant": true,
      "inputs": [],
      "name": "totalVotingStake",
      "outputs": [
        {
          "name": "",
          "type": "uint256"
        }
      ],
      "payable": false,
      "stateMutability": "view",
      "type": "function"
    },
    {
      "constant": false,
      "inputs": [
        {
          "name": "stakingId",
          "type": "bytes32"
        }
      ],
      "name": "cooldownStake",
      "outputs": [],
      "payable": false,
      "stateMutability": "nonpayable",
      "type": "function"
    },
    {
      "constant": false,
      "inputs": [
        {
          "name": "stakingId",
          "type": "bytes32"
        }
      ],
      "name": "activateStake",
      "outputs": [],
      "payable": false,
      "stateMutability": "nonpayable",
      "type": "function"
    },
    {
      "constant": true,
      "inputs": [
        {
          "name": "",
          "type": "bytes32"
        }
      ],
      "name": "stakingStakerIndex",
      "outputs": [
        {
          "name": "",
          "type": "uint256"
        }
      ],
      "payable": false,
      "stateMutability": "view",
      "type": "function"
    },
    {
      "constant": true,
      "inputs": [
        {
          "name": "",
          "type": "bytes32"
        }
      ],
      "name": "stakeData",
      "outputs": [
        {
          "name": "amount",
          "type": "uint256"
        },
        {
          "name": "stakeBlock",
          "type": "uint256"
        },
        {
          "name": "unstakeBlock",
          "type": "uint256"
        },
        {
          "name": "stakee",
          "type": "address"
        },
        {
          "name": "staker",
          "type": "address"
        },
        {
          "name": "isActivated",
          "type": "bool"
        },
        {
          "name": "isCooledDown",
          "type": "bool"
        }
      ],
      "payable": false,
      "stateMutability": "view",
      "type": "function"
    },
    {
      "constant": true,
      "inputs": [
        {
          "name": "staker",
          "type": "address"
        }
      ],
      "name": "getAvailableStakerUnstake",
      "outputs": [
        {
          "name": "",
          "type": "uint256"
        }
      ],
      "payable": false,
      "stateMutability": "view",
      "type": "function"
    },
    {
      "constant": true,
      "inputs": [],
      "name": "totalCooldownStake",
      "outputs": [
        {
          "name": "",
          "type": "uint256"
        }
      ],
      "payable": false,
      "stateMutability": "view",
      "type": "function"
    },
    {
      "constant": false,
      "inputs": [
        {
          "name": "stakingId",
          "type": "bytes32"
        }
      ],
      "name": "unstake",
      "outputs": [],
      "payable": false,
      "stateMutability": "nonpayable",
      "type": "function"
    },
    {
      "constant": true,
      "inputs": [
        {
          "name": "staker",
          "type": "address"
        }
      ],
      "name": "totalStakeAndUnstake",
      "outputs": [
        {
          "name": "",
          "type": "uint256"
        }
      ],
      "payable": false,
      "stateMutability": "view",
      "type": "function"
    },
    {
      "constant": false,
      "inputs": [
        {
          "name": "stakee",
          "type": "address"
        },
        {
          "name": "startIndex",
          "type": "uint256"
        },
        {
          "name": "batchSize",
          "type": "uint256"
        }
      ],
      "name": "resolveGovernanceAction",
      "outputs": [],
      "payable": false,
      "stateMutability": "nonpayable",
      "type": "function"
    },
    {
      "constant": true,
      "inputs": [
        {
          "name": "",
          "type": "address"
        },
        {
          "name": "",
          "type": "uint256"
        }
      ],
      "name": "stakerToStakingIds",
      "outputs": [
        {
          "name": "",
          "type": "bytes32"
        }
      ],
      "payable": false,
      "stateMutability": "view",
      "type": "function"
    },
    {
      "constant": true,
      "inputs": [],
      "name": "blockProducerContract",
      "outputs": [
        {
          "name": "",
          "type": "address"
        }
      ],
      "payable": false,
      "stateMutability": "view",
      "type": "function"
    },
    {
      "constant": false,
      "inputs": [
        {
          "name": "stakee",
          "type": "address"
        },
        {
          "name": "amount",
          "type": "uint256"
        }
      ],
      "name": "stake",
      "outputs": [
        {
          "name": "",
          "type": "bytes32"
        }
      ],
      "payable": false,
      "stateMutability": "nonpayable",
      "type": "function"
    },
    {
      "constant": false,
      "inputs": [
        {
          "name": "batchLimit",
          "type": "uint256"
        }
      ],
      "name": "withdrawManyStake",
      "outputs": [],
      "payable": false,
      "stateMutability": "nonpayable",
      "type": "function"
    },
    {
      "constant": true,
      "inputs": [
        {
          "name": "",
          "type": "uint256"
        }
      ],
      "name": "requestChain",
      "outputs": [
        {
          "name": "",
          "type": "bytes32"
        }
      ],
      "payable": false,
      "stateMutability": "view",
      "type": "function"
    },
    {
      "constant": true,
      "inputs": [
        {
          "name": "",
          "type": "uint256"
        }
      ],
      "name": "blockChain",
      "outputs": [
        {
          "name": "",
          "type": "bytes32"
        }
      ],
      "payable": false,
      "stateMutability": "view",
      "type": "function"
    },
    {
      "constant": true,
      "inputs": [
        {
          "name": "",
          "type": "bytes32"
        }
      ],
      "name": "stakingStakeeIndex",
      "outputs": [
        {
          "name": "",
          "type": "uint256"
        }
      ],
      "payable": false,
      "stateMutability": "view",
      "type": "function"
    },
    {
      "constant": false,
      "inputs": [
        {
          "name": "stakingId",
          "type": "bytes32"
        }
      ],
      "name": "withdrawStake",
      "outputs": [],
      "payable": false,
      "stateMutability": "nonpayable",
      "type": "function"
    },
    {
      "constant": true,
      "inputs": [],
      "name": "penaltyStake",
      "outputs": [
        {
          "name": "",
          "type": "uint256"
        }
      ],
      "payable": false,
      "stateMutability": "view",
      "type": "function"
    },
    {
      "constant": true,
      "inputs": [
        {
          "name": "stakee",
          "type": "address"
        }
      ],
      "name": "numStakeeStakes",
      "outputs": [
        {
          "name": "",
          "type": "uint256"
        }
      ],
      "payable": false,
      "stateMutability": "view",
      "type": "function"
    },
    {
      "constant": true,
      "inputs": [
        {
          "name": "",
          "type": "bytes32"
        }
      ],
      "name": "requestsById",
      "outputs": [
        {
          "name": "xyoBounty",
          "type": "uint256"
        },
        {
          "name": "weiMining",
          "type": "uint256"
        },
        {
          "name": "createdAt",
          "type": "uint256"
        },
        {
          "name": "responseBlockNumber",
          "type": "uint256"
        },
        {
          "name": "requestSender",
          "type": "address"
        },
        {
          "name": "requestType",
          "type": "uint8"
        }
      ],
      "payable": false,
      "stateMutability": "view",
      "type": "function"
    },
    {
      "constant": true,
      "inputs": [
        {
          "name": "staker",
          "type": "address"
        }
      ],
      "name": "numStakerStakes",
      "outputs": [
        {
          "name": "",
          "type": "uint256"
        }
      ],
      "payable": false,
      "stateMutability": "view",
      "type": "function"
    },
    {
      "constant": true,
      "inputs": [
        {
          "name": "stakee",
          "type": "address"
        }
      ],
      "name": "getAvailableStakeeUnstake",
      "outputs": [
        {
          "name": "",
          "type": "uint256"
        }
      ],
      "payable": false,
      "stateMutability": "view",
      "type": "function"
    },
    {
      "constant": true,
      "inputs": [
        {
          "name": "",
          "type": "bytes32"
        }
      ],
      "name": "blocks",
      "outputs": [
        {
          "name": "previousBlock",
          "type": "bytes32"
        },
        {
          "name": "supportingData",
          "type": "bytes32"
        },
        {
          "name": "stakingBlock",
          "type": "uint256"
        },
        {
          "name": "createdAt",
          "type": "uint256"
        },
        {
          "name": "creator",
          "type": "address"
        }
      ],
      "payable": false,
      "stateMutability": "view",
      "type": "function"
    },
    {
      "constant": true,
      "inputs": [
        {
          "name": "",
          "type": "address"
        }
      ],
      "name": "stakeeStake",
      "outputs": [
        {
          "name": "totalStake",
          "type": "uint256"
        },
        {
          "name": "activeStake",
          "type": "uint256"
        },
        {
          "name": "cooldownStake",
          "type": "uint256"
        },
        {
          "name": "totalUnstake",
          "type": "uint256"
        }
      ],
      "payable": false,
      "stateMutability": "view",
      "type": "function"
    },
    {
      "anonymous": false,
      "inputs": [
        {
          "indexed": false,
          "name": "request",
          "type": "bytes32"
        },
        {
          "indexed": false,
          "name": "xyoBounty",
          "type": "uint256"
        },
        {
          "indexed": false,
          "name": "weiMining",
          "type": "uint256"
        },
        {
          "indexed": false,
          "name": "requester",
          "type": "address"
        },
        {
          "indexed": false,
          "name": "xyoSender",
          "type": "address"
        },
        {
          "indexed": false,
          "name": "requestType",
          "type": "uint8"
        }
      ],
      "name": "RequestSubmitted",
      "type": "event"
    },
    {
      "anonymous": false,
      "inputs": [
        {
          "indexed": false,
          "name": "blockHash",
          "type": "bytes32"
        },
        {
          "indexed": false,
          "name": "previousBlock",
          "type": "bytes32"
        },
        {
          "indexed": false,
          "name": "supportingData",
          "type": "bytes32"
        },
        {
          "indexed": false,
          "name": "createdAtBlock",
          "type": "uint256"
        },
        {
          "indexed": false,
          "name": "blockProducer",
          "type": "address"
        }
      ],
      "name": "BlockCreated",
      "type": "event"
    },
    {
      "anonymous": false,
      "inputs": [
        {
          "indexed": false,
          "name": "beneficiary",
          "type": "address"
        },
        {
          "indexed": false,
          "name": "amount",
          "type": "uint256"
        },
        {
          "indexed": false,
          "name": "stakerStake",
          "type": "uint256"
        }
      ],
      "name": "WithdrawClaimed",
      "type": "event"
    },
    {
      "anonymous": false,
      "inputs": [
        {
          "indexed": false,
          "name": "request",
          "type": "bytes32"
        },
        {
          "indexed": false,
          "name": "responseBlock",
          "type": "uint256"
        },
        {
          "indexed": false,
          "name": "result",
          "type": "uint256"
        },
        {
          "indexed": false,
          "name": "responseType",
          "type": "uint8"
        }
      ],
      "name": "Response",
      "type": "event"
    },
    {
      "anonymous": false,
      "inputs": [
        {
          "indexed": false,
          "name": "packedBytes",
          "type": "bytes"
        },
        {
          "indexed": false,
          "name": "newBlockHash",
          "type": "bytes32"
        },
        {
          "indexed": false,
          "name": "wasMatch",
          "type": "bool"
        },
        {
          "indexed": false,
          "name": "lastSigner",
          "type": "address"
        },
        {
          "indexed": false,
          "name": "prefixedHash",
          "type": "bytes32"
        },
        {
          "indexed": false,
          "name": "stake",
          "type": "uint256"
        }
      ],
      "name": "LogTest",
      "type": "event"
    },
    {
      "anonymous": false,
      "inputs": [
        {
          "indexed": false,
          "name": "stakingId",
          "type": "bytes32"
        },
        {
          "indexed": false,
          "name": "amount",
          "type": "uint256"
        },
        {
          "indexed": false,
          "name": "staker",
          "type": "address"
        },
        {
          "indexed": false,
          "name": "stakee",
          "type": "address"
        },
        {
          "indexed": false,
          "name": "transition",
          "type": "uint8"
        }
      ],
      "name": "StakeEvent",
      "type": "event"
    },
    {
      "constant": false,
      "inputs": [
        {
          "name": "_token",
          "type": "address"
        },
        {
          "name": "_blockProducerContract",
          "type": "address"
        },
        {
          "name": "_governanceContract",
          "type": "address"
        }
      ],
      "name": "initialize",
      "outputs": [],
      "payable": false,
      "stateMutability": "nonpayable",
      "type": "function"
    },
    {
      "constant": true,
      "inputs": [],
      "name": "getLatestBlock",
      "outputs": [
        {
          "name": "",
          "type": "bytes32"
        }
      ],
      "payable": false,
      "stateMutability": "view",
      "type": "function"
    },
    {
      "constant": false,
      "inputs": [
        {
          "name": "xyoBounty",
          "type": "uint256"
        }
      ],
      "name": "withdrawRewardsRequest",
      "outputs": [
        {
          "name": "",
          "type": "bytes32"
        }
      ],
      "payable": true,
      "stateMutability": "payable",
      "type": "function"
    },
    {
      "constant": false,
      "inputs": [
        {
          "name": "request",
          "type": "bytes32"
        },
        {
          "name": "xyoBounty",
          "type": "uint256"
        },
        {
          "name": "xyoSender",
          "type": "address"
        },
        {
          "name": "requestType",
          "type": "uint8"
        }
      ],
      "name": "submitRequest",
      "outputs": [],
      "payable": true,
      "stateMutability": "payable",
      "type": "function"
    },
    {
      "constant": false,
      "inputs": [
        {
          "name": "previousBlock",
          "type": "bytes32"
        },
        {
          "name": "stakingBlock",
          "type": "uint256"
        },
        {
          "name": "_requests",
          "type": "bytes32[]"
        },
        {
          "name": "supportingData",
          "type": "bytes32"
        },
        {
          "name": "responses",
          "type": "bytes"
        },
        {
          "name": "signers",
          "type": "address[]"
        },
        {
          "name": "sigR",
          "type": "bytes32[]"
        },
        {
          "name": "sigS",
          "type": "bytes32[]"
        },
        {
          "name": "sigV",
          "type": "uint8[]"
        }
      ],
      "name": "testSubmit",
      "outputs": [],
      "payable": false,
      "stateMutability": "nonpayable",
      "type": "function"
    },
    {
      "constant": false,
      "inputs": [
        {
          "name": "previousBlock",
          "type": "bytes32"
        },
        {
          "name": "stakingBlock",
          "type": "uint256"
        },
        {
          "name": "_requests",
          "type": "bytes32[]"
        },
        {
          "name": "supportingData",
          "type": "bytes32"
        },
        {
          "name": "responses",
          "type": "bytes"
        },
        {
          "name": "signers",
          "type": "address[]"
        },
        {
          "name": "sigR",
          "type": "bytes32[]"
        },
        {
          "name": "sigS",
          "type": "bytes32[]"
        },
        {
          "name": "sigV",
          "type": "uint8[]"
        }
      ],
      "name": "submitBlock",
      "outputs": [
        {
          "name": "",
          "type": "bytes32"
        }
      ],
      "payable": false,
      "stateMutability": "nonpayable",
      "type": "function"
    },
    {
      "constant": true,
      "inputs": [
        {
          "name": "requestId",
          "type": "bytes32"
        }
      ],
      "name": "blockForRequest",
      "outputs": [
        {
          "name": "previousBlock",
          "type": "bytes32"
        },
        {
          "name": "supportingData",
          "type": "bytes32"
        },
        {
          "name": "stakingBlock",
          "type": "uint256"
        },
        {
          "name": "createdAt",
          "type": "uint256"
        },
        {
          "name": "creator",
          "type": "address"
        }
      ],
      "payable": false,
      "stateMutability": "view",
      "type": "function"
    },
    {
      "constant": true,
      "inputs": [
        {
          "name": "requestId",
          "type": "bytes32"
        }
      ],
      "name": "supportingDataForRequest",
      "outputs": [
        {
          "name": "supportingData",
          "type": "bytes32"
        }
      ],
      "payable": false,
      "stateMutability": "view",
      "type": "function"
    },
    {
      "constant": true,
      "inputs": [],
      "name": "numRequests",
      "outputs": [
        {
          "name": "",
          "type": "uint256"
        }
      ],
      "payable": false,
      "stateMutability": "view",
      "type": "function"
    },
    {
      "constant": true,
      "inputs": [],
      "name": "numBlocks",
      "outputs": [
        {
          "name": "",
          "type": "uint256"
        }
      ],
      "payable": false,
      "stateMutability": "view",
      "type": "function"
    }
  ],
  "bytecode": "0x608060405234801561001057600080fd5b5061576780620000216000396000f3fe608060405260043610610273576000357c0100000000000000000000000000000000000000000000000000000000900480639170c1ab11610166578063c0c53b8b116100e3578063e4f5425d116100a7578063f666ad7111610081578063f666ad7114610cd1578063f6bd543f14610cfb578063fd36117b1461105757610273565b8063e4f5425d14610c41578063edf2165b14610c74578063f588a96a14610ca757610273565b8063c0c53b8b14610b10578063c1ae3cd214610b55578063c2e4e2a914610b6a578063d734389714610b9d578063dfdb61c914610c0657610273565b8063b0c25dfc1161012a578063b0c25dfc14610a3e578063b1ff471514610a68578063b35af56f14610a92578063b4f5052b14610abc578063b95ff68914610ae657610273565b80639170c1ab146109a9578063930fc216146109be5780639fb42b1f146109d3578063a17a43bf146109e8578063adc9772e14610a0557610273565b80634fba1838116101f45780636d697dd0116101b85780636d697dd01461087657806371ed5d1a146108d45780637cd44a8a146108fe578063867c9332146109315780638ccc35441461097057610273565b80634fba18381461077f5780635652c52f146107a957806361d6f78a146108195780636762b2f11461082e5780636bb289181461086157610273565b8063360324861161023b578063360324861461067a57806338c226ac146106d35780634317d00b1461071457806345441d17146107295780634ce0e4381461075557610273565b80630b70bc49146102785780631242b194146105e657806314fa8a251461061f57806328f73148146106505780632fa4d12b14610665575b600080fd5b34801561028457600080fd5b506105d4600480360361012081101561029c57600080fd5b8135916020810135918101906060810160408201356401000000008111156102c357600080fd5b8201836020820111156102d557600080fd5b803590602001918460208302840111640100000000831117156102f757600080fd5b9190808060200260200160405190810160405280939291908181526020018383602002808284376000920191909152509295843595909490935060408101925060200135905064010000000081111561034f57600080fd5b82018360208201111561036157600080fd5b8035906020019184600183028401116401000000008311171561038357600080fd5b91908080601f01602080910402602001604051908101604052809392919081815260200183838082843760009201919091525092959493602081019350359150506401000000008111156103d657600080fd5b8201836020820111156103e857600080fd5b8035906020019184602083028401116401000000008311171561040a57600080fd5b919080806020026020016040519081016040528093929190818152602001838360200280828437600092019190915250929594936020810193503591505064010000000081111561045a57600080fd5b82018360208201111561046c57600080fd5b8035906020019184602083028401116401000000008311171561048e57600080fd5b91908080602002602001604051908101604052809392919081815260200183836020028082843760009201919091525092959493602081019350359150506401000000008111156104de57600080fd5b8201836020820111156104f057600080fd5b8035906020019184602083028401116401000000008311171561051257600080fd5b919080806020026020016040519081016040528093929190818152602001838360200280828437600092019190915250929594936020810193503591505064010000000081111561056257600080fd5b82018360208201111561057457600080fd5b8035906020019184602083028401116401000000008311171561059657600080fd5b91908080602002602001604051908101604052809392919081815260200183836020028082843760009201919091525092955061108a945050505050565b60408051918252519081900360200190f35b3480156105f257600080fd5b506105d46004803603604081101561060957600080fd5b50600160a060020a038135169060200135611348565b34801561062b57600080fd5b50610634611378565b60408051600160a060020a039092168252519081900360200190f35b34801561065c57600080fd5b506105d4611387565b34801561067157600080fd5b5061063461138d565b34801561068657600080fd5b506106ad6004803603602081101561069d57600080fd5b5035600160a060020a031661139c565b604080519485526020850193909352838301919091526060830152519081900360800190f35b3480156106df57600080fd5b50610700600480360360208110156106f657600080fd5b503560ff166113c3565b604080519115158252519081900360200190f35b34801561072057600080fd5b506105d46113ef565b34801561073557600080fd5b506107536004803603602081101561074c57600080fd5b503561140e565b005b34801561076157600080fd5b506107536004803603602081101561077857600080fd5b5035611727565b34801561078b57600080fd5b506105d4600480360360208110156107a257600080fd5b5035611a2c565b3480156107b557600080fd5b506107d3600480360360208110156107cc57600080fd5b5035611a3e565b60408051978852602088019690965286860194909452600160a060020a03928316606087015291166080850152151560a0840152151560c0830152519081900360e00190f35b34801561082557600080fd5b506105d4611a90565b34801561083a57600080fd5b506105d46004803603602081101561085157600080fd5b5035600160a060020a0316611ac6565b34801561086d57600080fd5b506105d4611c72565b34801561088257600080fd5b506108a06004803603602081101561089957600080fd5b5035611c78565b604080519586526020860194909452848401929092526060840152600160a060020a03166080830152519081900360a00190f35b3480156108e057600080fd5b50610753600480360360208110156108f757600080fd5b5035611d75565b34801561090a57600080fd5b506105d46004803603602081101561092157600080fd5b5035600160a060020a031661212b565b34801561093d57600080fd5b506107536004803603606081101561095457600080fd5b50600160a060020a03813516906020810135906040013561214e565b34801561097c57600080fd5b506105d46004803603604081101561099357600080fd5b50600160a060020a0381351690602001356124ef565b3480156109b557600080fd5b5061063461250a565b3480156109ca57600080fd5b506105d4612519565b3480156109df57600080fd5b506105d461251f565b6105d4600480360360208110156109fe57600080fd5b5035612525565b348015610a1157600080fd5b506105d460048036036040811015610a2857600080fd5b50600160a060020a03813516906020013561257f565b348015610a4a57600080fd5b5061075360048036036020811015610a6157600080fd5b503561296a565b348015610a7457600080fd5b506105d460048036036020811015610a8b57600080fd5b5035612f08565b348015610a9e57600080fd5b506105d460048036036020811015610ab557600080fd5b5035612f27565b348015610ac857600080fd5b506105d460048036036020811015610adf57600080fd5b5035612f35565b348015610af257600080fd5b5061075360048036036020811015610b0957600080fd5b5035612f47565b348015610b1c57600080fd5b5061075360048036036060811015610b3357600080fd5b50600160a060020a0381358116916020810135821691604090910135166133da565b348015610b6157600080fd5b506105d4613489565b348015610b7657600080fd5b506105d460048036036020811015610b8d57600080fd5b5035600160a060020a031661348f565b348015610ba957600080fd5b50610bc760048036036020811015610bc057600080fd5b50356134aa565b604080519687526020870195909552858501939093526060850191909152600160a060020a0316608084015260ff1660a0830152519081900360c00190f35b61075360048036036080811015610c1c57600080fd5b508035906020810135906040810135600160a060020a0316906060013560ff166134ee565b348015610c4d57600080fd5b506105d460048036036020811015610c6457600080fd5b5035600160a060020a03166136ed565b348015610c8057600080fd5b506105d460048036036020811015610c9757600080fd5b5035600160a060020a0316613708565b348015610cb357600080fd5b506108a060048036036020811015610cca57600080fd5b50356138f7565b348015610cdd57600080fd5b506105d460048036036020811015610cf457600080fd5b503561392f565b348015610d0757600080fd5b506107536004803603610120811015610d1f57600080fd5b813591602081013591810190606081016040820135640100000000811115610d4657600080fd5b820183602082011115610d5857600080fd5b80359060200191846020830284011164010000000083111715610d7a57600080fd5b91908080602002602001604051908101604052809392919081815260200183836020028082843760009201919091525092958435959094909350604081019250602001359050640100000000811115610dd257600080fd5b820183602082011115610de457600080fd5b80359060200191846001830284011164010000000083111715610e0657600080fd5b91908080601f0160208091040260200160405190810160405280939291908181526020018383808284376000920191909152509295949360208101935035915050640100000000811115610e5957600080fd5b820183602082011115610e6b57600080fd5b80359060200191846020830284011164010000000083111715610e8d57600080fd5b9190808060200260200160405190810160405280939291908181526020018383602002808284376000920191909152509295949360208101935035915050640100000000811115610edd57600080fd5b820183602082011115610eef57600080fd5b80359060200191846020830284011164010000000083111715610f1157600080fd5b9190808060200260200160405190810160405280939291908181526020018383602002808284376000920191909152509295949360208101935035915050640100000000811115610f6157600080fd5b820183602082011115610f7357600080fd5b80359060200191846020830284011164010000000083111715610f9557600080fd5b9190808060200260200160405190810160405280939291908181526020018383602002808284376000920191909152509295949360208101935035915050640100000000811115610fe557600080fd5b820183602082011115610ff757600080fd5b8035906020019184602083028401116401000000008311171561101957600080fd5b919080806020026020016040519081016040528093929190818152602001838360200280828437600092019190915250929550613945945050505050565b34801561106357600080fd5b506106ad6004803603602081101561107a57600080fd5b5035600160a060020a0316613c0c565b603454604080517ff6a3d24e0000000000000000000000000000000000000000000000000000000081523360048201529051600092600160a060020a03169163f6a3d24e916024808301926020929190829003018186803b1580156110ee57600080fd5b505afa158015611102573d6000803e3d6000fd5b505050506040513d602081101561111857600080fd5b50511515611170576040805160e560020a62461bcd02815260206004820152601b60248201527f4f6e6c7920617070726f7665642042502063616e207375626d69740000000000604482015290519081900360640190fd5b611178611a90565b8a146111ce576040805160e560020a62461bcd02815260206004820152601860248201527f496e636f72726563742070726576696f757320626c6f636b0000000000000000604482015290519081900360640190fd5b8751600010611227576040805160e560020a62461bcd02815260206004820152601460248201527f4e6f20726571756573747320696e20626c6f636b000000000000000000000000604482015290519081900360640190fd5b60008a8a8a8a8a60405160200180868152602001858152602001848051906020019060200280838360005b8381101561126a578181015183820152602001611252565b5050505090500183815260200182805190602001908083835b602083106112a25780518252601f199092019160209182019101611283565b6001836020036101000a0380198251168184511680821785525050505050509050019550505050505060405160208183030381529060405280519060200120905060006112ef8a89613c33565b604051909150339082156108fc029083906000818181858888f1935050505015801561131f573d6000803e3d6000fd5b5061132d8288888888614100565b6113398c838b8e61444d565b509a9950505050505050505050565b603a6020528160005260406000208181548110151561136357fe5b90600052602060002001600091509150505481565b603354600160a060020a031681565b60365481565b603554600160a060020a031681565b603f6020526000908152604090208054600182015460028301546003909301549192909184565b6000808260028111156113d257fe5b14806113e9575060028260028111156113e757fe5b145b92915050565b600061140860365460375461459090919063ffffffff16565b90505b90565b6035546040805160008051602061571c8339815191528152602060048201819052600860248301527f787950617573656400000000000000000000000000000000000000000000000060448301529151600160a060020a039093169263693ec85e92606480840193919291829003018186803b15801561148d57600080fd5b505afa1580156114a1573d6000803e3d6000fd5b505050506040513d60208110156114b757600080fd5b50511561150e576040805160e560020a62461bcd02815260206004820152601160248201527f5374616b696e6720697320506175736564000000000000000000000000000000604482015290519081900360640190fd5b60006115198261459d565b600481015490915060a860020a900460ff1615611580576040805160e560020a62461bcd02815260206004820152601860248201527f63616e6e6f742072652d636f6f6c646f776e207374616b650000000000000000604482015290519081900360640190fd5b6034546003820154604080517ff6a3d24e000000000000000000000000000000000000000000000000000000008152600160a060020a0392831660048201529051919092169163f6a3d24e916024808301926020929190829003018186803b1580156115eb57600080fd5b505afa1580156115ff573d6000803e3d6000fd5b505050506040513d602081101561161557600080fd5b50511561166c576040805160e560020a62461bcd02815260206004820152601f60248201527f4f6e6c79206e6f6e204250732063616e20626520636f6f6c656420646f776e00604482015290519081900360640190fd5b60048101805475ff000000000000000000000000000000000000000000191660a860020a179055805460038201546116ad9190600160a060020a031661476d565b80546003820154604080518581526020810184905233918101829052600160a060020a03909216606083018190527f7ab7e8e11949eaafd5e2ea7bac9bba6e3beabc6a6615bd6757d10434e5afd2f49386939092919060029060808101825b60ff1681526020019550505050505060405180910390a15050565b6035546040805160008051602061571c8339815191528152602060048201819052600860248301527f787950617573656400000000000000000000000000000000000000000000000060448301529151600160a060020a039093169263693ec85e92606480840193919291829003018186803b1580156117a657600080fd5b505afa1580156117ba573d6000803e3d6000fd5b505050506040513d60208110156117d057600080fd5b505115611827576040805160e560020a62461bcd02815260206004820152601160248201527f5374616b696e6720697320506175736564000000000000000000000000000000604482015290519081900360640190fd5b60006118328261459d565b600481015490915060a060020a900460ff1615611899576040805160e560020a62461bcd02815260206004820152601860248201527f63616e6e6f742072652d6163746976617465207374616b650000000000000000604482015290519081900360640190fd5b6034546003820154604080517ff6a3d24e000000000000000000000000000000000000000000000000000000008152600160a060020a0392831660048201529051919092169163f6a3d24e916024808301926020929190829003018186803b15801561190457600080fd5b505afa158015611918573d6000803e3d6000fd5b505050506040513d602081101561192e57600080fd5b50511515600114611989576040805160e560020a62461bcd02815260206004820152601960248201527f4f6e6c79204250732063616e2062652061637469766174656400000000000000604482015290519081900360640190fd5b60048101805474ff0000000000000000000000000000000000000000191660a060020a179055805460038201546119c99190600160a060020a0316614806565b80546003820154604080518581526020810184905233918101829052600160a060020a03909216606083018190527f7ab7e8e11949eaafd5e2ea7bac9bba6e3beabc6a6615bd6757d10434e5afd2f493869390929190600190608081018261170c565b603d6020526000908152604090205481565b60396020526000908152604090208054600182015460028301546003840154600490940154929391929091600160a060020a03908116919081169060ff60a060020a820481169160a860020a90041687565b6043546000901515611aa45750600061140b565b604380546000198101908110611ab657fe5b9060005260206000200154905090565b60008080611ad3846136ed565b905060005b81811015611c6957611ae8615568565b600160a060020a0386166000908152603b602052604081208054603992919085908110611b1157fe5b600091825260208083209091015483528281019390935260409182018120825160e0810184528154815260018201549481019490945260028101549284018390526003810154600160a060020a039081166060860152600490910154908116608085015260ff60a060020a82048116151560a086015260a860020a90910416151560c0840152919250118015611c5357506035546040805160008051602061571c8339815191528152602060048201819052601160248301527f7879556e7374616b65436f6f6c646f776e000000000000000000000000000000604483015291514393600160a060020a03169263693ec85e9260648082019391829003018186803b158015611c1f57600080fd5b505afa158015611c33573d6000803e3d6000fd5b505050506040513d6020811015611c4957600080fd5b5051604083015101105b15611c6057805193909301925b50600101611ad8565b50909392505050565b60375481565b6000806000806000611c886155a4565b50600086815260406020818152818320825160c08101845281548152600182015492810192909252600281015492820192909252600382015460608201819052600490920154600160a060020a038116608083015260a060020a900460ff1660a0820152911015611d6b5760006043611d0f6001846060015161489f90919063ffffffff16565b81548110611d1957fe5b60009182526020909120015490508015611d695760008181526042602052604090208054600182015460028301546003840154600490940154929a509098509650909450600160a060020a031692505b505b5091939590929450565b6035546040805160008051602061571c8339815191528152602060048201819052600860248301527f787950617573656400000000000000000000000000000000000000000000000060448301529151600160a060020a039093169263693ec85e92606480840193919291829003018186803b158015611df457600080fd5b505afa158015611e08573d6000803e3d6000fd5b505050506040513d6020811015611e1e57600080fd5b505115611e75576040805160e560020a62461bcd02815260206004820152601160248201527f5374616b696e6720697320506175736564000000000000000000000000000000604482015290519081900360640190fd5b60008181526039602052604090206004810154600160a060020a03163314611ed15760405160e560020a62461bcd0281526004018080602001828103825260238152602001806156cb6023913960400191505060405180910390fd5b6035546040805160008051602061571c8339815191528152602060048201819052600f60248301527f78795374616b65436f6f6c646f776e0000000000000000000000000000000000604483015291514393600160a060020a03169263693ec85e9260648082019391829003018186803b158015611f4e57600080fd5b505afa158015611f62573d6000803e3d6000fd5b505050506040513d6020811015611f7857600080fd5b505160018301540110611fd5576040805160e560020a62461bcd02815260206004820152601960248201527f5374616b696e67206e6565647320746f20636f6f6c646f776e00000000000000604482015290519081900360640190fd5b60028101541561202f576040805160e560020a62461bcd02815260206004820152601160248201527f43616e6e6f742072652d756e7374616b65000000000000000000000000000000604482015290519081900360640190fd5b6040805160e08101825282548152600183015460208201526002830154918101919091526003820154600160a060020a0390811660608301526004830154908116608083015260ff60a060020a82048116151560a084015260a860020a90910416151560c08201526120a0906148b1565b60048101805475ffff000000000000000000000000000000000000000019811690915543600283015581546003808401546040805187815260208101859052600160a060020a0395861691810182905294909116606085018190527f7ab7e8e11949eaafd5e2ea7bac9bba6e3beabc6a6615bd6757d10434e5afd2f49487949390608081018261170c565b600160a060020a03166000908152603f6020526040902080546003909101540190565b603554604080517fb776f569000000000000000000000000000000000000000000000000000000008152600160a060020a03868116600483015291516000938493849391169163b776f56991602480820192608092909190829003018186803b1580156121ba57600080fd5b505afa1580156121ce573d6000803e3d6000fd5b505050506040513d60808110156121e457600080fd5b50602081015160408201516060909201519094509092509050600181151514612257576040805160e560020a62461bcd02815260206004820152601760248201527f616374696f6e206d757374206265206163636570746564000000000000000000604482015290519081900360640190fd5b600082600281111561226557fe5b141561227c5761227786868686614963565b612434565b600282600281111561228a57fe5b14156123215761229d8686866000614963565b603454604080517f29092d0e000000000000000000000000000000000000000000000000000000008152600160a060020a038981166004830152915191909216916329092d0e91602480830192600092919082900301818387803b15801561230457600080fd5b505af1158015612318573d6000803e3d6000fd5b50505050612434565b600182600281111561232f57fe5b141561243457603454604080517f9ed93318000000000000000000000000000000000000000000000000000000008152600160a060020a03898116600483015291519190921691639ed9331891602480830192600092919082900301818387803b15801561239c57600080fd5b505af11580156123b0573d6000803e3d6000fd5b5050603554604080517f8400657e000000000000000000000000000000000000000000000000000000008152600160a060020a038b811660048301529151919092169350638400657e9250602480830192600092919082900301818387803b15801561241b57600080fd5b505af115801561242f573d6000803e3d6000fd5b505050505b61243d826113c3565b80156124625750600160a060020a0386166000908152603e6020526040902060010154155b156124e757603554604080517f8400657e000000000000000000000000000000000000000000000000000000008152600160a060020a03898116600483015291519190921691638400657e91602480830192600092919082900301818387803b1580156124ce57600080fd5b505af11580156124e2573d6000803e3d6000fd5b505050505b505050505050565b603b6020528160005260406000208181548110151561136357fe5b603454600160a060020a031681565b60435490565b60415490565b60408051336c0100000000000000000000000081026020808401919091526034830185905243605480850191909152845180850390910181526074909301909352815191909201206000916113e9908290859060036134ee565b6035546040805160008051602061571c8339815191528152602060048201819052600860248301527f787950617573656400000000000000000000000000000000000000000000000060448301529151600093600160a060020a03169263693ec85e9260648082019391829003018186803b1580156125fd57600080fd5b505afa158015612611573d6000803e3d6000fd5b505050506040513d602081101561262757600080fd5b50511561267e576040805160e560020a62461bcd02815260206004820152601160248201527f5374616b696e6720697320506175736564000000000000000000000000000000604482015290519081900360640190fd5b603554604080517f4348f5cd000000000000000000000000000000000000000000000000000000008152600160a060020a03868116600483015291519190921691634348f5cd916024808301926020929190829003018186803b1580156126e457600080fd5b505afa1580156126f8573d6000803e3d6000fd5b505050506040513d602081101561270e57600080fd5b50511561274f5760405160e560020a62461bcd0281526004018080602001828103825260268152602001806156536026913960400191505060405180910390fd5b6127598284614af8565b604080516c01000000000000000000000000600160a060020a0386168102602080840191909152339190910260348301524360488084019190915283518084039091018152606890920190925280519101206127b3615568565b506040805160e0810182528481524360208083019182526000838501818152600160a060020a03808b1660608701818152336080890181815260a08a0187815260c08b01888152948852603a89528b882080548e8a52603c8b528d8a2081905560018181018355918a528a8a20018e9055838952603b8a528c892080548f8b52603d8c528e8b208190558083018255908a528a8a20018e90558d895260399099529a9096208951815597519688019690965592516002870155915160038601805491831673ffffffffffffffffffffffffffffffffffffffff1992831617905592516004909501805497519251151560a860020a0275ff0000000000000000000000000000000000000000001993151560a060020a0274ff000000000000000000000000000000000000000019978416999095169890981795909516929092171694909417909155603354919261290d9216903087614b6d565b60408051838152602081018690523381830152600160a060020a03871660608201526000608082015290517f7ab7e8e11949eaafd5e2ea7bac9bba6e3beabc6a6615bd6757d10434e5afd2f49181900360a00190a1509392505050565b6035546040805160008051602061571c8339815191528152602060048201819052600860248301527f787950617573656400000000000000000000000000000000000000000000000060448301529151600160a060020a039093169263693ec85e92606480840193919291829003018186803b1580156129e957600080fd5b505afa1580156129fd573d6000803e3d6000fd5b505050506040513d6020811015612a1357600080fd5b505115612a6a576040805160e560020a62461bcd02815260206004820152601160248201527f5374616b696e6720697320506175736564000000000000000000000000000000604482015290519081900360640190fd5b6000612a75336136ed565b90506000808311612a865781612a88565b825b90506000809050606082604051908082528060200260200182016040528015612abb578160200160208202803883390190505b5090506000805b8581108015612ad057508481105b15612d3257612add615568565b336000908152603b602052604081208054603992919085908110612afd57fe5b600091825260208083209091015483528281019390935260409182018120825160e0810184528154815260018201549481019490945260028101549284018390526003810154600160a060020a039081166060860152600490910154908116608085015260ff60a060020a82048116151560a086015260a860020a90910416151560c0840152919250118015612c3f57506035546040805160008051602061571c8339815191528152602060048201819052601160248301527f7879556e7374616b65436f6f6c646f776e000000000000000000000000000000604483015291514393600160a060020a03169263693ec85e9260648082019391829003018186803b158015612c0b57600080fd5b505afa158015612c1f573d6000803e3d6000fd5b505050506040513d6020811015612c3557600080fd5b5051604083015101105b8015612cdf57506035546060820151604080517f4348f5cd000000000000000000000000000000000000000000000000000000008152600160a060020a03928316600482015290519190921691634348f5cd916024808301926020929190829003018186803b158015612cb157600080fd5b505afa158015612cc5573d6000803e3d6000fd5b505050506040513d6020811015612cdb57600080fd5b5051155b15612d2957336000908152603b60205260409020805483908110612cff57fe5b90600052602060002001548484815181101515612d1857fe5b602090810290910101526001909201915b50600101612ac2565b5060005b81811015612ee757612d5e8382815181101515612d4f57fe5b90602001906020020151614c5c565b612d7e8382815181101515612d6f57fe5b90602001906020020151614d6e565b612d86615568565b603960008584815181101515612d9857fe5b60209081029091018101518252818101929092526040908101600020815160e08101835281548082526001830154948201949094526002820154928101929092526003810154600160a060020a0390811660608401819052600490920154908116608084015260ff60a060020a82048116151560a085015260a860020a90910416151560c083015296820196909250612e319190614e80565b7f7ab7e8e11949eaafd5e2ea7bac9bba6e3beabc6a6615bd6757d10434e5afd2f48483815181101515612e6057fe5b9060200190602002015182600001518360800151846060015160046040518086815260200185815260200184600160a060020a0316600160a060020a0316815260200183600160a060020a0316600160a060020a03168152602001826004811115612ec757fe5b60ff1681526020019550505050505060405180910390a150600101612d36565b5060008311156124e7576033546124e790600160a060020a03163385614f03565b6041805482908110612f1657fe5b600091825260209091200154905081565b6043805482908110612f1657fe5b603c6020526000908152604090205481565b6035546040805160008051602061571c8339815191528152602060048201819052600860248301527f787950617573656400000000000000000000000000000000000000000000000060448301529151600160a060020a039093169263693ec85e92606480840193919291829003018186803b158015612fc657600080fd5b505afa158015612fda573d6000803e3d6000fd5b505050506040513d6020811015612ff057600080fd5b505115613047576040805160e560020a62461bcd02815260206004820152601160248201527f5374616b696e6720697320506175736564000000000000000000000000000000604482015290519081900360640190fd5b61304f615568565b50600081815260396020908152604091829020825160e081018452815481526001820154818401526002820154818501526003820154600160a060020a0390811660608301819052600493840154808316608085015260ff60a060020a82048116151560a086015260a860020a90910416151560c084015260355486517f4348f5cd00000000000000000000000000000000000000000000000000000000815294850191909152945191941692634348f5cd9260248082019391829003018186803b15801561311d57600080fd5b505afa158015613131573d6000803e3d6000fd5b505050506040513d602081101561314757600080fd5b5051156131885760405160e560020a62461bcd0281526004018080602001828103825260268152602001806156536026913960400191505060405180910390fd5b6080810151600160a060020a031633146131ec576040805160e560020a62461bcd02815260206004820152601760248201527f4f6e6c79206f776e65722063616e207769746864726177000000000000000000604482015290519081900360640190fd5b600081604001511180156132ac57506035546040805160008051602061571c8339815191528152602060048201819052601160248301527f7879556e7374616b65436f6f6c646f776e000000000000000000000000000000604483015291514393600160a060020a03169263693ec85e9260648082019391829003018186803b15801561327857600080fd5b505afa15801561328c573d6000803e3d6000fd5b505050506040513d60208110156132a257600080fd5b5051604083015101105b1515613302576040805160e560020a62461bcd02815260206004820152601660248201527f4e6f7420726561647920666f7220776974686472617700000000000000000000604482015290519081900360640190fd5b7f7ab7e8e11949eaafd5e2ea7bac9bba6e3beabc6a6615bd6757d10434e5afd2f48282600001518360800151846060015160046040518086815260200185815260200184600160a060020a0316600160a060020a0316815260200183600160a060020a0316600160a060020a0316815260200182600481111561338157fe5b60ff1681526020019550505050505060405180910390a16133a182614c5c565b6133aa82614d6e565b6133bc81600001518260600151614e80565b60335481516133d691600160a060020a0316903390614f03565b5050565b600054610100900460ff16806133f357506133f3614ffa565b80613401575060005460ff16155b15156134415760405160e560020a62461bcd02815260040180806020018281038252602e8152602001806156ee602e913960400191505060405180910390fd5b60008054600161010061ff00198316811760ff1916919091179092550460ff1661346c848484615000565b600080549115156101000261ff0019909216919091179055505050565b60385481565b600160a060020a03166000908152603a602052604090205490565b6040602081905260009182529020805460018201546002830154600384015460049094015492939192909190600160a060020a0381169060a060020a900460ff1686565b60008481526040602081905290206002015415613555576040805160e560020a62461bcd02815260206004820152601b60248201527f4475706c69636174652072657175657374207375626d69747465640000000000604482015290519081900360640190fd5b61355f828461504c565b6135676155a4565b60c0604051908101604052808581526020013481526020014381526020016000815260200133600160a060020a031681526020018360ff16815250905080604060008781526020019081526020016000206000820151816000015560208201518160010155604082015181600201556060820151816003015560808201518160040160006101000a815481600160a060020a030219169083600160a060020a0316021790555060a08201518160040160146101000a81548160ff021916908360ff16021790555090505060418590806001815401808255809150509060018203906000526020600020016000909192909190915055507ffe6124b23e2b09739c63840fae4e7d9bd8f30eb25c008affee4439bc9974d1a48585343387876040518087815260200186815260200185815260200184600160a060020a0316600160a060020a0316815260200183600160a060020a0316600160a060020a031681526020018260ff1660ff168152602001965050505050505060405180910390a15050505050565b600160a060020a03166000908152603b602052604090205490565b600160a060020a0381166000908152603a60209081526040808320805482518185028101850190935280835260609383018282801561376657602002820191906000526020600020905b815481526020019060010190808311613752575b509394506000935083925050505b82518110156138ef57613785615568565b60396000858481518110151561379757fe5b602090810290910181015182528181019290925260409081016000908120825160e0810184528154815260018201549481019490945260028101549284018390526003810154600160a060020a039081166060860152600490910154908116608085015260ff60a060020a82048116151560a086015260a860020a90910416151560c08401529192501180156138d957506035546040805160008051602061571c8339815191528152602060048201819052601160248301527f7879556e7374616b65436f6f6c646f776e000000000000000000000000000000604483015291514393600160a060020a03169263693ec85e9260648082019391829003018186803b1580156138a557600080fd5b505afa1580156138b9573d6000803e3d6000fd5b505050506040513d60208110156138cf57600080fd5b5051604083015101105b156138e657805192909201915b50600101613774565b509392505050565b6042602052600090815260409020805460018201546002830154600384015460049094015492939192909190600160a060020a031685565b600061393a82611c78565b509195945050505050565b6060898989898960405160200180868152602001858152602001848051906020019060200280838360005b83811015613988578181015183820152602001613970565b5050505090500183815260200182805190602001908083835b602083106139c05780518252601f1990920191602091820191016139a1565b6001836020036101000a0380198251168184511680821785525050505050509050019550505050505060405160208183030381529060405290506000818051906020012090506000613a1182615283565b905060008080805b8a51811015613b23578a81815181101515613a3057fe5b9060200190602002015193506001858983815181101515613a4d57fe5b906020019060200201518c84815181101515613a6557fe5b906020019060200201518c85815181101515613a7d57fe5b9060200190602002015160405160008152602001604052604051808581526020018460ff1660ff1681526020018381526020018281526020019450505050506020604051602081039080840390855afa158015613ade573d6000803e3d6000fd5b505060408051601f190151600160a060020a038781166000818152603e602052939093206001015491169091149350613b1991508490614590565b9250600101613a19565b507fab3214d91b3a9ee8b2d2c9852e2b7894f7d49dae22991de6bbe9f2ab64f84f1d86868386888760405180806020018781526020018615151515815260200185600160a060020a0316600160a060020a03168152602001848152602001838152602001828103825288818151815260200191508051906020019080838360005b83811015613bbc578181015183820152602001613ba4565b50505050905090810190601f168015613be95780820380516001836020036101000a031916815260200191505b5097505050505050505060405180910390a1505050505050505050505050505050565b603e6020526000908152604090208054600182015460028301546003909301549192909184565b60008080805b85518110156140f7576000604060008884815181101515613c5657fe5b906020019060200201518152602001908152602001600020905060008160020154111515613cb85760405160e560020a62461bcd0281526004018080602001828103825260248152602001806156796024913960400191505060405180910390fd5b600481015460009060ff60a060020a9091041660011480613ce6575060048281015460a060020a900460ff16145b613cf1576020613cf4565b60015b60ff169050613d126001613d06612519565b9063ffffffff61459016565b60038301556001820154613d2d90859063ffffffff61459016565b600483015490945060ff60a060020a9091041660031415613e36576000613d558887846152d4565b6004840154909150613d6f90600160a060020a031661212b565b811115613db05760405160e560020a62461bcd02815260040180806020018281038252602e81526020018061569d602e913960400191505060405180910390fd5b60048301547f5b9b0bc34c7f6a61889ce3382d8697cc823f00d6e619362ae6b156bc8ee3ad4690600160a060020a031682613dea8261212b565b60408051600160a060020a039094168452602084019290925282820152519081900360600190a16033546004840154613e3091600160a060020a03908116911683614f03565b506140e9565b6060816040519080825280601f01601f191660200182016040528015613e63576020820181803883390190505b50905060005b82811015613f125788818801815181101515613e8157fe5b9060200101517f010000000000000000000000000000000000000000000000000000000000000090047f0100000000000000000000000000000000000000000000000000000000000000028282815181101515613eda57fe5b9060200101907effffffffffffffffffffffffffffffffffffffffffffffffffffffffffffff1916908160001a905350600101613e69565b50600483015460ff60a060020a9091041660011480613f405750600483015460ff60a060020a909104166002145b156140685760048301548951600160a060020a0390911690637e663238908b9087908110613f6a57fe5b906020019060200201518560040160149054906101000a900460ff16846040518463ffffffff167c0100000000000000000000000000000000000000000000000000000000028152600401808481526020018360ff1660ff16815260200180602001828103825283818151815260200191508051906020019080838360005b83811015614001578181015183820152602001613fe9565b50505050905090810190601f16801561402e5780820380516001836020036101000a031916815260200191505b50945050505050600060405180830381600087803b15801561404f57600080fd5b505af1158015614063573d6000803e3d6000fd5b505050505b7fed534ef810cf0b4ca5a86d09f252615f3613687938a15c734176eedaec90800e898581518110151561409757fe5b9060200190602002015184600301546140b2846000876152d4565b60048701546040805194855260208501939093528383019190915260ff60a060020a909104166060830152519081900360800190a1505b939093019250600101613c39565b50949350505050565b600061410b86615283565b9050600080805b875181101561431d576000600185878481518110151561412e57fe5b906020019060200201518a8581518110151561414657fe5b906020019060200201518a8681518110151561415e57fe5b9060200190602002015160405160008152602001604052604051808581526020018460ff1660ff1681526020018381526020018281526020019450505050506020604051602081039080840390855afa1580156141bf573d6000803e3d6000fd5b50505060206040510351905083600160a060020a031689838151811015156141e357fe5b60209081029091010151600160a060020a03161161424b576040805160e560020a62461bcd02815260206004820152601f60248201527f5369676e657273206172726179206d75737420626520617363656e64696e6700604482015290519081900360640190fd5b888281518110151561425957fe5b90602001906020020151935080600160a060020a0316898381518110151561427d57fe5b60209081029091010151600160a060020a0316146142e5576040805160e560020a62461bcd02815260206004820152601360248201527f5369676e6174757265206d69732d6d6174636800000000000000000000000000604482015290519081900360640190fd5b600160a060020a0384166000908152603e602052604090206001015461431290849063ffffffff61459016565b925050600101614112565b506035546040805160008051602061571c8339815191528152602060048201819052601160248301527f78795374616b6553756363657373506374000000000000000000000000000000604483015291516143ed936064936143e193600160a060020a039092169263693ec85e9280870192919081900387018186803b1580156143a657600080fd5b505afa1580156143ba573d6000803e3d6000fd5b505050506040513d60208110156143d057600080fd5b50516036549063ffffffff6152f216565b9063ffffffff61531b16565b8111614443576040805160e560020a62461bcd02815260206004820152601060248201527f4e6f7420656e6f756768207374616b6500000000000000000000000000000000604482015290519081900360640190fd5b5050505050505050565b6144556155e7565b60a06040519081016040528086815260200184815260200183815260200143815260200133600160a060020a03168152509050604384908060018154018082558091505090600182039060005260206000200160009091929091909150555080604260008681526020019081526020016000206000820151816000015560208201518160010155604082015181600201556060820151816003015560808201518160040160006101000a815481600160a060020a030219169083600160a060020a031602179055509050507f82fc50e339180bcc315d917fbc4224d406c0a8185ad1f9e522a403a3814dca0f84868543336040518086815260200185815260200184815260200183815260200182600160a060020a0316600160a060020a031681526020019550505050505060405180910390a15050505050565b818101828110156113e957fe5b60008181526039602052604081206004810154600160a060020a0316331461460f576040805160e560020a62461bcd02815260206004820152601c60248201527f4f6e6c7920746865207374616b65722063616e20616374697661746500000000604482015290519081900360640190fd5b6035546040805160008051602061571c8339815191528152602060048201819052600f60248301527f78795374616b65436f6f6c646f776e0000000000000000000000000000000000604483015291514393600160a060020a03169263693ec85e9260648082019391829003018186803b15801561468c57600080fd5b505afa1580156146a0573d6000803e3d6000fd5b505050506040513d60208110156146b657600080fd5b505160018301540110614713576040805160e560020a62461bcd02815260206004820152601f60248201527f4e6f7420726561647920746f206163746976617465207374616b652079657400604482015290519081900360640190fd5b6002810154156113e9576040805160e560020a62461bcd02815260206004820152601760248201527f43616e6e6f7420616374697661746520756e7374616b65000000000000000000604482015290519081900360640190fd5b600160a060020a0381166000908152603e6020526040902060020154614799908363ffffffff61459016565b600160a060020a0382166000908152603e60209081526040808320600290810194909455338352603f909152902001546147d9908363ffffffff61459016565b336000908152603f60205260409020600201556037546147ff908363ffffffff61459016565b6037555050565b600160a060020a0381166000908152603e6020526040902060010154614832908363ffffffff61459016565b600160a060020a0382166000908152603e60209081526040808320600190810194909455338352603f90915290200154614872908363ffffffff61459016565b336000908152603f6020526040902060010155603654614898908363ffffffff61459016565b6036555050565b6000828211156148ab57fe5b50900390565b6148bf818260000151615330565b80516060820151600160a060020a03166000908152603e60205260409020600301546148f09163ffffffff61459016565b6060820151600160a060020a039081166000908152603e60209081526040808320600390810195909555855160808701519094168352603f9091529020909101546149409163ffffffff61459016565b608090910151600160a060020a03166000908152603f6020526040902060030155565b825b838301811015614af157600160a060020a0385166000908152603a6020526040812080548390811061499357fe5b6000918252602080832090910154808352603990915260409091206002810154919250901515614ae7576000841115614a6f5760006149e460646143e18460000154886152f290919063ffffffff16565b6040805160e08101825284548152600185015460208201526002850154918101919091526003840154600160a060020a0390811660608301526004850154908116608083015260ff60a060020a82048116151560a084015260a860020a90910416151560c0820152909150614a599082615330565b603854614a6c908263ffffffff61459016565b50505b6040805160e08101825282548152600183015460208201526002830154918101919091526003820154600160a060020a0390811660608301526004830154908116608083015260ff60a060020a82048116151560a084015260a860020a90910416151560c0820152614ae0906148b1565b4360028201555b5050600101614965565b5050505050565b600160a060020a0381166000908152603e6020526040902054614b21908363ffffffff61459016565b600160a060020a0382166000908152603e6020908152604080832093909355338252603f90522054614b59908363ffffffff61459016565b336000908152603f60205260409020555050565b604080517f23b872dd000000000000000000000000000000000000000000000000000000008152600160a060020a0385811660048301528481166024830152604482018490529151918616916323b872dd9160648082019260009290919082900301818387803b158015614be057600080fd5b505af1158015614bf4573d6000803e3d6000fd5b50505050614c00615534565b1515614c56576040805160e560020a62461bcd02815260206004820152601160248201527f7472616e7366657246726f6d206661696c000000000000000000000000000000604482015290519081900360640190fd5b50505050565b600081815260396020908152604080832060030154603c835281842054600160a060020a03909116808552603a909352908320805492939192600019810192919083908110614ca757fe5b9060005260206000200154905080603a600086600160a060020a0316600160a060020a0316815260200190815260200160002084815481101515614ce757fe5b6000918252602080832090910192909255600160a060020a0386168152603a90915260408120805484908110614d1957fe5b6000918252602080832090910192909255600160a060020a0386168152603a90915260409020805490614d50906000198301615615565b506000948552603c6020526040808620869055908552909320555050565b600081815260396020908152604080832060040154603d835281842054600160a060020a03909116808552603b909352908320805492939192600019810192919083908110614db957fe5b9060005260206000200154905080603b600086600160a060020a0316600160a060020a0316815260200190815260200160002084815481101515614df957fe5b6000918252602080832090910192909255600160a060020a0386168152603b90915260408120805484908110614e2b57fe5b6000918252602080832090910192909255600160a060020a0386168152603b90915260409020805490614e62906000198301615615565b506000948552603d6020526040808620869055908552909320555050565b600160a060020a0381166000908152603e6020526040902060030154614eac908363ffffffff61489f16565b600160a060020a0382166000908152603e60209081526040808320600390810194909455338352603f90915290200154614eec908363ffffffff61489f16565b336000908152603f60205260409020600301555050565b82600160a060020a031663a9059cbb83836040518363ffffffff167c01000000000000000000000000000000000000000000000000000000000281526004018083600160a060020a0316600160a060020a0316815260200182815260200192505050600060405180830381600087803b158015614f7f57600080fd5b505af1158015614f93573d6000803e3d6000fd5b50505050614f9f615534565b1515614ff5576040805160e560020a62461bcd02815260206004820152600d60248201527f7472616e73666572206661696c00000000000000000000000000000000000000604482015290519081900360640190fd5b505050565b303b1590565b60338054600160a060020a0394851673ffffffffffffffffffffffffffffffffffffffff1991821617909155603480549385169382169390931790925560358054919093169116179055565b6035546040805160008051602061571c8339815191528152602060048201819052600e60248301527f78795765694d696e696e674d696e00000000000000000000000000000000000060448301529151600093600160a060020a03169263693ec85e9260648082019391829003018186803b1580156150ca57600080fd5b505afa1580156150de573d6000803e3d6000fd5b505050506040513d60208110156150f457600080fd5b50516035546040805160008051602061571c8339815191528152602060048201819052601560248301527f787958594f52657175657374426f756e74794d696e000000000000000000000060448301529151939450600093600160a060020a039093169263693ec85e92606480840193919291829003018186803b15801561517b57600080fd5b505afa15801561518f573d6000803e3d6000fd5b505050506040513d60208110156151a557600080fd5b50519050600082111561520a573482111561520a576040805160e560020a62461bcd02815260206004820152601e60248201527f4e6f7420656e6f7567682077656920746f20636f766572206d696e696e670000604482015290519081900360640190fd5b6000811115614c56578083101561526b576040805160e560020a62461bcd02815260206004820152601c60248201527f58594f20426f756e7479206c657373207468616e206d696e696d756d00000000604482015290519081900360640190fd5b603354614c5690600160a060020a0316853084614b6d565b604080517f19457468657265756d205369676e6564204d6573736167653a0a333200000000602080830191909152603c8083019490945282518083039094018452605c909101909152815191012090565b60008183018451101515156152e857600080fd5b5050016020015190565b6000821515615303575060006113e9565b5081810281838281151561531357fe5b04146113e957fe5b6000818381151561532857fe5b049392505050565b6060820151600160a060020a03166000908152603e602052604090205461535d908263ffffffff61489f16565b6060830151600160a060020a039081166000908152603e602090815260408083209490945560808601519092168152603f90915220546153a3908263ffffffff61489f16565b6080830151600160a060020a03166000908152603f602052604090205560a08201511561547c576060820151600160a060020a03166000908152603e60205260409020600101546153fa908263ffffffff61489f16565b6060830151600160a060020a039081166000908152603e6020908152604080832060019081019590955560808701519093168252603f9052200154615445908263ffffffff61489f16565b6080830151600160a060020a03166000908152603f6020526040902060010155603654615478908263ffffffff61489f16565b6036555b8160c00151156133d6576060820151600160a060020a03166000908152603e60205260409020600201546154b6908263ffffffff61489f16565b6060830151600160a060020a039081166000908152603e6020908152604080832060029081019590955560808701519093168252603f9052200154615501908263ffffffff61489f16565b6080830151600160a060020a03166000908152603f60205260409020600201556037546147ff908263ffffffff61489f16565b6000803d801561554b576020811461555457615560565b60019150615560565b60206000803e60005191505b501515905090565b6040805160e081018252600080825260208201819052918101829052606081018290526080810182905260a0810182905260c081019190915290565b60c060405190810160405280600081526020016000815260200160008152602001600081526020016000600160a060020a03168152602001600060ff1681525090565b6040805160a08101825260008082526020820181905291810182905260608101829052608081019190915290565b815481835581811115614ff557600083815260209020614ff591810190830161140b91905b8082111561564e576000815560010161563a565b509056fe416c6c20616374696f6e73206f6e207374616b6565206d757374206265207265736f6c76656450617373656420612072657175657374207468617420646f6573206e6f74206578697374576974686472617720616d6f756e74206d6f7265207468616e20746f74616c207374616b65722773207374616b654f6e6c7920746865207374616b65722063616e20756e7374616b652061207374616b65436f6e747261637420696e7374616e63652068617320616c7265616479206265656e20696e697469616c697a6564693ec85e00000000000000000000000000000000000000000000000000000000a165627a7a72305820a7eafbc7d19d17f17313631b422664a19044b1d1104f6e16493cfc38d5bab9ea0029",
  "source": "pragma solidity >=0.5.0 <0.6.0;\n\nimport \"./utils/Initializable.sol\";\nimport \"./XyStakingModel.sol\";\nimport \"./IXyRequester.sol\";\n\n /**\n    @title XyStakingConsensus\n    @dev Manages the Stake for multiple clients in a decentralized consensus \n    system to trustlessly answer requests\n  */\ncontract XyStakingConsensus is Initializable, XyStakingModel {\n    using SafeMath for uint;\n    \n    /** STRUCTS */\n    struct Block {\n        bytes32 previousBlock;\n        bytes32 supportingData;\n        uint stakingBlock;\n        uint createdAt;\n        address creator;\n    }\n\n    struct Request {\n        uint xyoBounty;\n        uint weiMining;\n        uint createdAt;\n        uint responseBlockNumber;\n        address requestSender;\n        uint8 requestType;\n    }\n\n    // id should be unique (ie ipfs hash) maps to Request data\n    mapping(bytes32 => Request) public requestsById; \n\n    // an array of the requests useful for diviner reading\n    bytes32[] public requestChain;\n\n    mapping(bytes32 => Block) public blocks; //The blocks in the blockChain\n    bytes32[] public blockChain; // Store the blockChain as an array\n\n    /** EVENTS */\n    event RequestSubmitted(\n        bytes32 request,\n        uint xyoBounty,\n        uint weiMining,\n        address requester,\n        address xyoSender,\n        uint8 requestType\n    );\n\n    event BlockCreated(\n        bytes32 blockHash,\n        bytes32 previousBlock,\n        bytes32 supportingData,\n        uint createdAtBlock,\n        address blockProducer\n    );\n\n    event WithdrawClaimed(\n        address beneficiary,\n        uint amount,\n        uint stakerStake\n    );\n\n    event Response (\n        bytes32 request,\n        uint responseBlock,\n        uint result,\n        uint8 responseType\n    );\n    /**\n        @param _token - The ERC20 token to stake with \n        @param _blockProducerContract - The block producers \n        @param _governanceContract - The contract that governs the blockProducer and actions of the system\n    */\n    function initialize(\n        address _token,\n        address _blockProducerContract,\n        address _governanceContract\n    )\n        initializer public\n    {\n        init(_token, _blockProducerContract, _governanceContract);\n    }\n\n    /** \n        @return the latest block submitted to the blockChain \n    */\n    function getLatestBlock() \n        public \n        view \n        returns (bytes32) \n    {\n        if (blockChain.length == 0) {\n            return 0x0;\n        }\n        return blockChain[blockChain.length-1];\n    }\n\n    /**\n        Will verify proper mining fees have been applied\n        @param xyoSender who to transfer the fees from (must have approved this contract)\n        @param xyoBounty the amount the xyoSender is paying for this request\n    */\n    function _requireFeesAndTransfer(address xyoSender, uint xyoBounty) \n        private \n    {\n        uint weiMiningMin = govContract.get(\"xyWeiMiningMin\");\n        uint bountyMin = govContract.get(\"xyXYORequestBountyMin\");\n        if (weiMiningMin > 0) {\n            require (msg.value >= weiMiningMin, \"Not enough wei to cover mining\");\n        }\n        if (bountyMin > 0) {\n            require (xyoBounty >= bountyMin, \"XYO Bounty less than minimum\");\n            SafeERC20.transferFrom(xyoToken, xyoSender, address(this), bountyMin);\n        }\n    }\n\n    /**\n        @dev Withdraw reward balance can post same params via raw\n        @param xyoBounty bounty for request\n    */\n    function withdrawRewardsRequest \n    (\n        uint xyoBounty\n    ) \n        public\n        payable\n        returns (bytes32)\n    {\n        bytes32 requestId = keccak256(abi.encodePacked(msg.sender, xyoBounty, block.number));\n        submitRequest(requestId, xyoBounty, msg.sender, uint8(IXyRequester.RequestType.WITHDRAW));\n        return requestId;\n    }\n\n    /**\n        @dev Escrow eth and xyo, making sure it covers the answer mining cost\n        Stores new request in request pool\n        @param request How to uniquely identify a request\n        @param xyoBounty bounty for request\n        @param xyoSender who to deduct the xyo from for mining cost\n        @param requestType based on the type we know which callback to call (string or bool)\n    */\n    function submitRequest\n    (\n        bytes32 request, \n        uint xyoBounty,\n        address xyoSender, \n        uint8 requestType\n    ) \n        public\n        payable\n    {\n        require (requestsById[request].createdAt == 0, \"Duplicate request submitted\");\n\n        _requireFeesAndTransfer(xyoSender, xyoBounty);\n\n        Request memory q = Request (\n            xyoBounty,\n            msg.value, \n            block.number,\n            0,\n            msg.sender,\n            requestType\n        );\n\n        requestsById[request] = q;\n        requestChain.push(request);\n\n        emit RequestSubmitted(request, xyoBounty, msg.value,  msg.sender, xyoSender, requestType);\n    }\n\n    /**\n        @dev Builds a prefixed hash to mimic the behavior of eth_sign\n        @param msgHash bytes32 Message hash to be prefixed\n        @return The hash prefixed with the Erhereum signed message (compatable with the eth_sign)\n    */\n    function prefixed\n    (\n        bytes32 msgHash\n    )\n        internal\n        pure\n        returns (bytes32)\n    {\n        return keccak256(abi.encodePacked(\"\\x19Ethereum Signed Message:\\n32\", msgHash));\n    }\n    \n    /**\n        Requires the length of bytes is more than starting point + 32\n        returns 32 bytes memory (reversed to uint) at start + 32 to memory[start]\n        @param _bytes the bytes passed to pull uint from\n        @param _start index in bytes to return uint\n     */\n    function _toUintFromBytes(bytes memory _bytes, uint _start, uint bytesLen) private pure returns (uint256) {\n        require(_bytes.length >= (_start + bytesLen));\n        uint256 tempUint;\n\n        assembly {\n            tempUint := mload(add(add(_bytes, 0x20), _start))\n        }\n\n        return tempUint;\n    }    \n\n\n    /** \n        @dev Calls Request interface submitResponse function for each answer.\n        Use for estimating gas of a request\n        @param _requests the requests queried\n        @param responses the response data of all the requests\n        @return The weiMining for submitting the new block\n        Will revert if the request does not exist, or the withdraw request is more htna the staker stake\n    */\n    function handleResponses\n    (\n        bytes32[] memory _requests, \n        bytes memory responses\n    )\n        internal \n        returns (uint)\n    {\n        uint byteOffset = 0;\n        uint weiMining = 0;\n        for (uint i = 0; i < _requests.length; i++) {\n            Request storage q = requestsById[_requests[i]];\n            require (q.createdAt > 0, \"Passed a request that does not exist\");\n            uint numBytes = q.requestType == uint8(IXyRequester.RequestType.BOOL_CALLBACK)\n                         || q.requestType == uint8(IXyRequester.RequestType.BOOL) ? 1 : 32;\n\n            q.responseBlockNumber = numBlocks().add(1);\n            weiMining = weiMining.add(q.weiMining);\n\n            if (q.requestType == uint8(IXyRequester.RequestType.WITHDRAW)) {\n                uint amount = _toUintFromBytes(responses, byteOffset, numBytes);\n                require (amount <= totalStakeAndUnstake(q.requestSender), \"Withdraw amount more than total staker's stake\");\n                emit WithdrawClaimed(q.requestSender, amount, totalStakeAndUnstake(q.requestSender));\n                SafeERC20.transfer(xyoToken, q.requestSender, amount);\n            } else {\n                bytes memory result = new bytes(numBytes);\n                for (uint j = 0; j < numBytes; j++) {\n                    result[j] = responses[byteOffset + j];\n                }\n                if (q.requestType == uint8(IXyRequester.RequestType.BOOL_CALLBACK) \n                    || q.requestType == uint8(IXyRequester.RequestType.UINT_CALLBACK)) {\n                    IXyRequester(q.requestSender).submitResponse(_requests[i], q.requestType, result);\n                } \n                emit Response(_requests[i], q.responseBlockNumber, _toUintFromBytes(result, 0, numBytes), q.requestType);\n            }\n            byteOffset += numBytes;\n        }\n        \n        return weiMining;\n    }\n\n    /** \n        @dev checks a message hash was signed by a list of signers via their sigs\n        @param messageHash The hash of the message that was signed\n        @param signers The in-order list of signers of the message\n        @param sigR R values in signatures\n        @param sigS S values in signatures\n        @param sigV V values in signatures\n    */\n    function checkSigsAndStakes\n    (\n        bytes32 messageHash,\n        address[] memory signers,\n        bytes32[] memory sigR,\n        bytes32[] memory sigS,\n        uint8[] memory sigV\n    )\n        view\n        internal \n    {\n        bytes32 prefixedHash = prefixed(messageHash);\n        address lastStakee = address(0);\n        uint stake = 0;\n        for (uint i = 0; i < signers.length; i++) {\n            address signer = ecrecover(prefixedHash, sigV[i], sigR[i], sigS[i]);\n            require(signers[i] > lastStakee , \"Signers array must be ascending\");\n            lastStakee = signers[i];\n            require(signers[i] == signer, \"Signature mis-match\");\n            stake = stake.add(stakeeStake[lastStakee].activeStake);\n        }\n        // check sufficient stake by stakees subitted\n        require (stake > totalActiveStake.mul(govContract.get(\"xyStakeSuccessPct\")).div(100), \"Not enough stake\");\n    }\n\n    function _createBlock(bytes32 previousBlock, bytes32 newBlock, bytes32 supportingData, uint stakingBlock) private {\n        Block memory b = Block(previousBlock, supportingData, stakingBlock, block.number,  msg.sender);\n        blockChain.push(newBlock);\n        blocks[newBlock] = b;\n        emit BlockCreated(newBlock, previousBlock, supportingData, block.number, msg.sender);\n    }\n\n    event LogTest(bytes packedBytes, bytes32 newBlockHash, bool wasMatch, address lastSigner, bytes32 prefixedHash, uint stake);\n    function testSubmit\n    (\n        bytes32 previousBlock,\n        uint stakingBlock,\n        bytes32[] memory _requests,\n        bytes32 supportingData,\n        bytes memory responses,\n        address[] memory signers,\n        bytes32[] memory sigR,\n        bytes32[] memory sigS,\n        uint8[] memory sigV\n    )\n        public\n    {\n        bytes memory packedBytes = abi.encodePacked(previousBlock, stakingBlock, _requests, supportingData, responses);\n        bytes32 newBlock = keccak256(packedBytes);\n        bytes32 prefixedHash = prefixed(newBlock);\n        address lastSigner = address(0);\n        uint stake = 0;\n        bool wasMatch = false;\n        for (uint i = 0; i < signers.length; i++) {\n            lastSigner = signers[i];\n            wasMatch = lastSigner == ecrecover(prefixedHash, sigV[i], sigR[i], sigS[i]);\n            stake = stake.add(stakeeStake[lastSigner].activeStake);\n        }\n        emit LogTest(packedBytes, newBlock, wasMatch, lastSigner, prefixedHash, stake);\n    }\n\n    /**\n        Submit a new block to the consensus blockChain. Verifies stake in consensus is over 51% of the network. \n        calls requests' callbacks with responses.  Creates new block and returns weiMining for successful creation.\n        @param previousBlock the prior block to maintain the \n        @param stakingBlock the block number diviners get staking data for\n        @param _requests list of the request ids (minus first 2 bytes)\n        @param supportingData the hash of the supporting block data\n        @param responses byte array of responses\n        @param signers Stakees, aka diviners and must be passed in ascending order to check for dups\n        @param sigR R values in signatures\n        @param sigS S values in signatures\n        @param sigV V values in signatures\n        @return The hash of the new block\n    */\n    function submitBlock\n    (\n        bytes32 previousBlock,\n        uint stakingBlock,\n        bytes32[] memory _requests,\n        bytes32 supportingData,\n        bytes memory responses,\n        address[] memory signers,\n        bytes32[] memory sigR,\n        bytes32[] memory sigS,\n        uint8[] memory sigV\n    ) \n        public \n        returns (bytes32)\n    {\n        require (blockProducerContract.exists(msg.sender), \"Only approved BP can submit\");\n        require (previousBlock == getLatestBlock(), \"Incorrect previous block\");\n        require (_requests.length > 0, \"No requests in block\");\n        \n        bytes32 newBlock = keccak256(abi.encodePacked(previousBlock, stakingBlock, _requests, supportingData, responses));\n        uint weiMining = handleResponses(_requests, responses);\n        msg.sender.transfer(weiMining);\n\n        checkSigsAndStakes(newBlock, signers, sigR, sigS, sigV);\n        _createBlock(previousBlock, newBlock, supportingData, stakingBlock);\n\n        return newBlock;\n    }\n\n    function blockForRequest(bytes32 requestId) \n        public view \n        returns (\n            bytes32 previousBlock,\n            bytes32 supportingData,\n            uint stakingBlock,\n            uint createdAt,\n            address creator\n        ) \n    {\n        Request memory r = requestsById[requestId];\n        if (r.responseBlockNumber > 0) {\n            bytes32 blockId = blockChain[r.responseBlockNumber.sub(1)];\n            if (blockId != 0) {\n                previousBlock = blocks[blockId].previousBlock;\n                supportingData = blocks[blockId].supportingData;\n                stakingBlock = blocks[blockId].stakingBlock;\n                createdAt = blocks[blockId].createdAt;\n                creator = blocks[blockId].creator;\n            }\n        }\n    }\n\n    function supportingDataForRequest(bytes32 requestId) public view returns (bytes32 supportingData) {\n        (,supportingData,,,) = blockForRequest(requestId);\n    }\n\n    function numRequests() public view returns (uint) {\n        return requestChain.length;\n    }\n    \n    function numBlocks() public view returns (uint) {\n        return blockChain.length;\n    }\n}",
  "compiler": {
    "name": "solc",
    "version": "0.5.4+commit.9549d8ff.Emscripten.clang"
  },
  "schemaVersion": "3.0.1",
  "updatedAt": "2019-03-27T01:09:04.273Z",
  "devdoc": {
    "details": "Manages the Stake for multiple clients in a decentralized consensus  system to trustlessly answer requests",
    "methods": {
      "activateStake(bytes32)": {
        "details": "Activate stake on a block producer",
        "params": {
          "stakingId": "- the tokenId of the staking token"
        }
      },
      "cooldownStake(bytes32)": {
        "details": "Mark stake as cooled down so we can cache totals for voting",
        "params": {
          "stakingId": "- the tokenId of the staking token"
        }
      },
      "getLatestBlock()": {
        "return": "the latest block submitted to the blockChain "
      },
      "initialize(address,address,address)": {
        "params": {
          "_blockProducerContract": "- The block producers ",
          "_governanceContract": "- The contract that governs the blockProducer and actions of the system",
          "_token": "- The ERC20 token to stake with "
        }
      },
      "resolveGovernanceAction(address,uint256,uint256)": {
        "params": {
          "batchSize": "if batchable action, batchSize",
          "stakee": "the staked item receiving action",
          "startIndex": "if a batchable action, where to start"
        }
      },
      "stake(address,uint256)": {
        "details": "This contract must be approved to transfer tokens by token holder",
        "params": {
          "amount": "- the amount to stake",
          "stakee": "- the stakable address "
        }
      },
      "submitBlock(bytes32,uint256,bytes32[],bytes32,bytes,address[],bytes32[],bytes32[],uint8[])": {
        "params": {
          "_requests": "list of the request ids (minus first 2 bytes)",
          "previousBlock": "the prior block to maintain the ",
          "responses": "byte array of responses",
          "sigR": "R values in signatures",
          "sigS": "S values in signatures",
          "sigV": "V values in signatures",
          "signers": "Stakees, aka diviners and must be passed in ascending order to check for dups",
          "stakingBlock": "the block number diviners get staking data for",
          "supportingData": "the hash of the supporting block data"
        },
        "return": "The hash of the new block"
      },
      "submitRequest(bytes32,uint256,address,uint8)": {
        "details": "Escrow eth and xyo, making sure it covers the answer mining cost Stores new request in request pool",
        "params": {
          "request": "How to uniquely identify a request",
          "requestType": "based on the type we know which callback to call (string or bool)",
          "xyoBounty": "bounty for request",
          "xyoSender": "who to deduct the xyo from for mining cost"
        }
      },
      "unstake(bytes32)": {
        "params": {
          "stakingId": "- the tokenId of the staking token"
        }
      },
      "withdrawManyStake(uint256)": {
        "params": {
          "batchLimit": "- Allows iterating over withdrawing due to gas limits if batchlimit is 0, try withdrawing all available tokens (be prepared for out of gas if you've got > 50 tokens)"
        }
      },
      "withdrawRewardsRequest(uint256)": {
        "details": "Withdraw reward balance can post same params via raw",
        "params": {
          "xyoBounty": "bounty for request"
        }
      },
      "withdrawStake(bytes32)": {
        "params": {
          "stakingId": "- the tokenId of the staking token to remove"
        }
      }
    },
    "title": "XyStakingConsensus"
  },
  "userdoc": {
    "methods": {
      "getAvailableStakeeUnstake(address)": {
        "notice": "Get the available unstake, counting only stakes that can be withdrawn "
      },
      "getAvailableStakerUnstake(address)": {
        "notice": "Get the available unstake, counting only stakes that can be withdrawn "
      },
      "numStakerStakes(address)": {
        "notice": "Public getters "
      },
      "resolveGovernanceAction(address,uint256,uint256)": {
        "notice": "Call this when it's time to resolve a passed governance action"
      },
      "stake(address,uint256)": {
        "notice": "Adds stake to a stakable token id"
      },
      "submitBlock(bytes32,uint256,bytes32[],bytes32,bytes,address[],bytes32[],bytes32[],uint8[])": {
        "notice": "Submit a new block to the consensus blockChain. Verifies stake in consensus is over 51% of the network.  calls requests' callbacks with responses.  Creates new block and returns weiMining for successful creation."
      },
      "unstake(bytes32)": {
        "notice": "unstake a specific previous stake "
      },
      "withdrawManyStake(uint256)": {
        "notice": "Withdraw a batch of first avaliable staking tokens"
      },
      "withdrawStake(bytes32)": {
        "notice": "Withdraw a single token's stake by token id, removes staking token"
      }
    }
  }
}