{
  "contractName": "XyoNodeMapping",
  "abi": [
    {
      "constant": true,
      "inputs": [
        {
          "name": "",
          "type": "address"
        }
      ],
      "name": "nodes",
      "outputs": [
        {
          "name": "owner",
          "type": "address"
        },
        {
          "name": "node",
          "type": "address"
        },
        {
          "name": "next",
          "type": "address"
        },
        {
          "name": "stake",
          "type": "uint256"
        }
      ],
      "payable": false,
      "stateMutability": "view",
      "type": "function"
    },
    {
      "constant": true,
      "inputs": [],
      "name": "length",
      "outputs": [
        {
          "name": "",
          "type": "uint256"
        }
      ],
      "payable": false,
      "stateMutability": "view",
      "type": "function"
    },
    {
      "constant": true,
      "inputs": [],
      "name": "head",
      "outputs": [
        {
          "name": "",
          "type": "address"
        }
      ],
      "payable": false,
      "stateMutability": "view",
      "type": "function"
    },
    {
      "inputs": [],
      "payable": false,
      "stateMutability": "nonpayable",
      "type": "constructor"
    },
    {
      "constant": true,
      "inputs": [
        {
          "name": "index",
          "type": "uint256"
        }
      ],
      "name": "get",
      "outputs": [
        {
          "name": "",
          "type": "address"
        }
      ],
      "payable": false,
      "stateMutability": "view",
      "type": "function"
    },
    {
      "constant": false,
      "inputs": [
        {
          "name": "node",
          "type": "address"
        }
      ],
      "name": "add",
      "outputs": [],
      "payable": false,
      "stateMutability": "nonpayable",
      "type": "function"
    },
    {
      "constant": false,
      "inputs": [
        {
          "name": "node",
          "type": "address"
        }
      ],
      "name": "remove",
      "outputs": [],
      "payable": false,
      "stateMutability": "nonpayable",
      "type": "function"
    },
    {
      "constant": true,
      "inputs": [],
      "name": "tail",
      "outputs": [
        {
          "name": "",
          "type": "address"
        }
      ],
      "payable": false,
      "stateMutability": "view",
      "type": "function"
    }
  ],
  "bytecode": "0x6080604052600060015534801561001557600080fd5b506104ef806100256000396000f3006080604052600436106100825763ffffffff7c01000000000000000000000000000000000000000000000000000000006000350416630a3b0a4f811461008757806313d8c840146100aa578063189a5a17146100db5780631f7b6d321461013157806329092d0e146101585780638f7dcfa3146101795780639507d39a1461018e575b600080fd5b34801561009357600080fd5b506100a8600160a060020a03600435166101a6565b005b3480156100b657600080fd5b506100bf61027e565b60408051600160a060020a039092168252519081900360200190f35b3480156100e757600080fd5b506100fc600160a060020a03600435166102d9565b60408051600160a060020a03958616815293851660208501529190931682820152606082019290925290519081900360800190f35b34801561013d57600080fd5b50610146610311565b60408051918252519081900360200190f35b34801561016457600080fd5b506100a8600160a060020a0360043516610317565b34801561018557600080fd5b506100bf61045c565b34801561019a57600080fd5b506100bf60043561046b565b60006101b061027e565b9050600160a060020a03811615156101ef576000805473ffffffffffffffffffffffffffffffffffffffff1916600160a060020a03841617905561022f565b600160a060020a03818116600090815260026020819052604090912001805473ffffffffffffffffffffffffffffffffffffffff19169184169190911790555b50600160a060020a03166000818152600260205260409020805473ffffffffffffffffffffffffffffffffffffffff199081163317825560019182018054909116909217909155805481019055565b60008054600160a060020a03165b600160a060020a038082166000908152600260208190526040909120015416156102d457600160a060020a03908116600090815260026020819052604090912001541661028c565b919050565b60026020819052600091825260409091208054600182015492820154600390920154600160a060020a03918216938216929091169084565b60015481565b60008054600160a060020a038381169116141561036e5760008054600160a060020a038082168352600260208190526040842001541673ffffffffffffffffffffffffffffffffffffffff19909116179055610458565b50600054600160a060020a03165b600160a060020a0381161561045857600160a060020a03818116600090815260026020819052604090912001548116908316141561043457600160a060020a038181166000908152600260208190526040808320820180548086168552828520840154861673ffffffffffffffffffffffffffffffffffffffff199182161790915593861683528220805484168155600181810180548616905591810180549094169093556003909201558054600019019055610458565b600160a060020a03908116600090815260026020819052604090912001541661037c565b5050565b600054600160a060020a031681565b6000806001548310151561047e57600080fd5b50600054600160a060020a03165b82156104bd57600160a060020a0390811660009081526002602081905260409091200154600019909301921661048c565b929150505600a165627a7a72305820b248c72c5ebf87fd588a48ce7311d102bee57255ee6337918ce226fc4630b99e0029",
  "source": "pragma solidity ^0.4.24;\n\ncontract XyoNodeMapping {\n\n  struct Node {\n    address owner;\n    address node;\n    address next;\n    uint stake;\n  }\n\n  address public head;\n  uint public length = 0;\n  mapping (address => Node) public nodes;\n\n  constructor(\n  )\n    public\n  {\n\n  }\n\n  function get(uint index\n  )\n    public\n    view\n    returns(address)\n  {\n    require(index < length);\n    address ptr = head;\n    while (index != 0) {\n      ptr = nodes[ptr].next;\n      index = index - 1;\n    }\n    return ptr;\n  }\n\n  function add(address node\n  )\n    public\n  {\n    address ptr = tail();\n\n    if (ptr == 0) {\n      head = node;\n    } else {\n      nodes[ptr].next = node;\n    }\n    nodes[node].owner = msg.sender;\n    nodes[node].node = node;\n    length = length + 1;\n  }\n\n  function remove(address node\n  )\n    public\n  {\n    if (head == node) {\n      head = nodes[head].next;\n    } else {\n      address ptr = head;\n      while(ptr != 0) {\n        if (nodes[ptr].next == node) {\n          nodes[ptr].next = nodes[nodes[ptr].next].next;\n          delete nodes[node];\n          length = length - 1;\n          return;\n        } else {\n          ptr = nodes[ptr].next;\n        }\n      }\n    }\n  }\n\n  function tail(\n  )\n    public\n    view\n    returns(address)\n  {\n    address ptr = head;\n    while (nodes[ptr].next != 0) {\n      ptr = nodes[ptr].next;\n    }\n    return ptr;\n  }\n\n}\n",
  "sourcePath": "/Users/arietrouw/GitHub/dapp-scsc-solidity/contracts/XyoNodeMapping.sol",
  "compiler": {
    "name": "solc",
    "version": "0.4.24+commit.e67f0147.Emscripten.clang"
  },
  "schemaVersion": "2.0.1",
  "updatedAt": "2018-09-14T22:02:37.015Z"
}