{
  "contractName": "XyoStakedConsensus",
  "abi": [
    {
      "constant": false,
      "inputs": [
        {
          "name": "node",
          "type": "address"
        }
      ],
      "name": "add",
      "outputs": [],
      "payable": false,
      "stateMutability": "nonpayable",
      "type": "function"
    },
    {
      "constant": true,
      "inputs": [],
      "name": "tail",
      "outputs": [
        {
          "name": "",
          "type": "address"
        }
      ],
      "payable": false,
      "stateMutability": "view",
      "type": "function"
    },
    {
      "constant": true,
      "inputs": [
        {
          "name": "",
          "type": "address"
        }
      ],
      "name": "nodes",
      "outputs": [
        {
          "name": "owner",
          "type": "address"
        },
        {
          "name": "node",
          "type": "address"
        },
        {
          "name": "next",
          "type": "address"
        },
        {
          "name": "stake",
          "type": "uint256"
        }
      ],
      "payable": false,
      "stateMutability": "view",
      "type": "function"
    },
    {
      "constant": true,
      "inputs": [],
      "name": "length",
      "outputs": [
        {
          "name": "",
          "type": "uint256"
        }
      ],
      "payable": false,
      "stateMutability": "view",
      "type": "function"
    },
    {
      "constant": false,
      "inputs": [
        {
          "name": "node",
          "type": "address"
        }
      ],
      "name": "remove",
      "outputs": [],
      "payable": false,
      "stateMutability": "nonpayable",
      "type": "function"
    },
    {
      "constant": false,
      "inputs": [],
      "name": "withdraw",
      "outputs": [
        {
          "name": "",
          "type": "uint256"
        }
      ],
      "payable": false,
      "stateMutability": "nonpayable",
      "type": "function"
    },
    {
      "constant": false,
      "inputs": [],
      "name": "renounceOwnership",
      "outputs": [],
      "payable": false,
      "stateMutability": "nonpayable",
      "type": "function"
    },
    {
      "constant": true,
      "inputs": [],
      "name": "cooldown",
      "outputs": [
        {
          "name": "",
          "type": "uint256"
        }
      ],
      "payable": false,
      "stateMutability": "view",
      "type": "function"
    },
    {
      "constant": true,
      "inputs": [],
      "name": "owner",
      "outputs": [
        {
          "name": "",
          "type": "address"
        }
      ],
      "payable": false,
      "stateMutability": "view",
      "type": "function"
    },
    {
      "constant": true,
      "inputs": [
        {
          "name": "",
          "type": "uint256"
        }
      ],
      "name": "challenges",
      "outputs": [
        {
          "name": "block",
          "type": "uint256"
        },
        {
          "name": "challenger",
          "type": "address"
        }
      ],
      "payable": false,
      "stateMutability": "view",
      "type": "function"
    },
    {
      "constant": true,
      "inputs": [],
      "name": "head",
      "outputs": [
        {
          "name": "",
          "type": "address"
        }
      ],
      "payable": false,
      "stateMutability": "view",
      "type": "function"
    },
    {
      "constant": true,
      "inputs": [
        {
          "name": "index",
          "type": "uint256"
        }
      ],
      "name": "get",
      "outputs": [
        {
          "name": "",
          "type": "address"
        }
      ],
      "payable": false,
      "stateMutability": "view",
      "type": "function"
    },
    {
      "constant": true,
      "inputs": [
        {
          "name": "owner",
          "type": "address"
        }
      ],
      "name": "availableToWithdraw",
      "outputs": [
        {
          "name": "",
          "type": "uint256"
        }
      ],
      "payable": false,
      "stateMutability": "view",
      "type": "function"
    },
    {
      "constant": false,
      "inputs": [
        {
          "name": "node",
          "type": "address"
        },
        {
          "name": "amount",
          "type": "uint256"
        }
      ],
      "name": "stake",
      "outputs": [],
      "payable": false,
      "stateMutability": "nonpayable",
      "type": "function"
    },
    {
      "constant": false,
      "inputs": [
        {
          "name": "node",
          "type": "address"
        },
        {
          "name": "amount",
          "type": "uint256"
        }
      ],
      "name": "unstake",
      "outputs": [],
      "payable": false,
      "stateMutability": "nonpayable",
      "type": "function"
    },
    {
      "constant": true,
      "inputs": [
        {
          "name": "",
          "type": "uint256"
        }
      ],
      "name": "stakeRequests",
      "outputs": [
        {
          "name": "node",
          "type": "address"
        },
        {
          "name": "amount",
          "type": "uint256"
        },
        {
          "name": "time",
          "type": "uint256"
        }
      ],
      "payable": false,
      "stateMutability": "view",
      "type": "function"
    },
    {
      "constant": true,
      "inputs": [
        {
          "name": "",
          "type": "uint256"
        }
      ],
      "name": "blocks",
      "outputs": [
        {
          "name": "previousBlock",
          "type": "uint256"
        },
        {
          "name": "creator",
          "type": "address"
        }
      ],
      "payable": false,
      "stateMutability": "view",
      "type": "function"
    },
    {
      "constant": false,
      "inputs": [
        {
          "name": "_newOwner",
          "type": "address"
        }
      ],
      "name": "transferOwnership",
      "outputs": [],
      "payable": false,
      "stateMutability": "nonpayable",
      "type": "function"
    },
    {
      "constant": true,
      "inputs": [
        {
          "name": "",
          "type": "uint256"
        }
      ],
      "name": "unstakeRequests",
      "outputs": [
        {
          "name": "node",
          "type": "address"
        },
        {
          "name": "amount",
          "type": "uint256"
        },
        {
          "name": "time",
          "type": "uint256"
        }
      ],
      "payable": false,
      "stateMutability": "view",
      "type": "function"
    },
    {
      "constant": true,
      "inputs": [],
      "name": "token",
      "outputs": [
        {
          "name": "",
          "type": "address"
        }
      ],
      "payable": false,
      "stateMutability": "view",
      "type": "function"
    },
    {
      "inputs": [
        {
          "name": "_token",
          "type": "address"
        },
        {
          "name": "_cooldown",
          "type": "uint256"
        },
        {
          "name": "_genesis",
          "type": "uint256"
        }
      ],
      "payable": false,
      "stateMutability": "nonpayable",
      "type": "constructor"
    },
    {
      "anonymous": false,
      "inputs": [
        {
          "indexed": true,
          "name": "previousOwner",
          "type": "address"
        }
      ],
      "name": "OwnershipRenounced",
      "type": "event"
    },
    {
      "anonymous": false,
      "inputs": [
        {
          "indexed": true,
          "name": "previousOwner",
          "type": "address"
        },
        {
          "indexed": true,
          "name": "newOwner",
          "type": "address"
        }
      ],
      "name": "OwnershipTransferred",
      "type": "event"
    },
    {
      "constant": false,
      "inputs": [
        {
          "name": "blockToChallenge",
          "type": "uint256"
        }
      ],
      "name": "challenge",
      "outputs": [],
      "payable": false,
      "stateMutability": "nonpayable",
      "type": "function"
    }
  ],
  "bytecode": "0x6080604052600060025534801561001557600080fd5b5060405160608061102083398101604090815281516020830151919092015160008054600160a060020a0319908116331790915560068054600160a060020a0390951694909116939093179092556007556008819055600955610fa38061007d6000396000f30060806040526004361061011c5763ffffffff7c01000000000000000000000000000000000000000000000000000000006000350416630a3b0a4f811461012157806313d8c84014610144578063189a5a17146101755780631f7b6d32146101cb57806329092d0e146101f25780633ccfd60b14610213578063715018a614610228578063787a08a61461023d5780638da5cb5b146102525780638f1d3776146102675780638f7dcfa3146102a05780639507d39a146102b5578063a25db8ce146102cd578063ab82d9a0146102ee578063adc9772e14610306578063c2a672e01461032a578063d0714ad51461034e578063f25b3f991461038e578063f2fde38b146103a6578063f87975af146103c7578063fc0c546a146103df575b600080fd5b34801561012d57600080fd5b50610142600160a060020a03600435166103f4565b005b34801561015057600080fd5b506101596104ce565b60408051600160a060020a039092168252519081900360200190f35b34801561018157600080fd5b50610196600160a060020a0360043516610529565b60408051600160a060020a03958616815293851660208501529190931682820152606082019290925290519081900360800190f35b3480156101d757600080fd5b506101e0610561565b60408051918252519081900360200190f35b3480156101fe57600080fd5b50610142600160a060020a0360043516610567565b34801561021f57600080fd5b506101e06106af565b34801561023457600080fd5b506101426107b9565b34801561024957600080fd5b506101e0610825565b34801561025e57600080fd5b5061015961082b565b34801561027357600080fd5b5061027f60043561083a565b60408051928352600160a060020a0390911660208301528051918290030190f35b3480156102ac57600080fd5b5061015961085c565b3480156102c157600080fd5b5061015960043561086b565b3480156102d957600080fd5b506101e0600160a060020a03600435166108c2565b3480156102fa57600080fd5b50610142600435610984565b34801561031257600080fd5b50610142600160a060020a03600435166024356109dc565b34801561033657600080fd5b50610142600160a060020a0360043516602435610b70565b34801561035a57600080fd5b50610366600435610c65565b60408051600160a060020a039094168452602084019290925282820152519081900360600190f35b34801561039a57600080fd5b5061027f600435610ca0565b3480156103b257600080fd5b50610142600160a060020a0360043516610cc2565b3480156103d357600080fd5b50610366600435610ce5565b3480156103eb57600080fd5b50610159610cf3565b60006103fe6104ce565b9050600160a060020a038116151561043d576001805473ffffffffffffffffffffffffffffffffffffffff1916600160a060020a03841617905561047c565b600160a060020a038181166000908152600360205260409020600201805473ffffffffffffffffffffffffffffffffffffffff19169184169190911790555b50600160a060020a03166000818152600360205260409020805473ffffffffffffffffffffffffffffffffffffffff199081163317825560019182018054909116909217909155600280549091019055565b600154600090600160a060020a03165b600160a060020a03808216600090815260036020526040902060020154161561052457600160a060020a03908116600090815260036020526040902060020154166104de565b919050565b60036020819052600091825260409091208054600182015460028301549290930154600160a060020a03918216938216929091169084565b60025481565b600154600090600160a060020a03838116911614156105c35760018054600160a060020a038082166000908152600360205260409020600201541673ffffffffffffffffffffffffffffffffffffffff199091161790556106ab565b50600154600160a060020a03165b600160a060020a038116156106ab57600160a060020a038181166000908152600360205260409020600201548116908316141561068857600160a060020a038181166000908152600360208190526040808320600290810180548087168652838620830154871673ffffffffffffffffffffffffffffffffffffffff1991821617909155948716845290832080548516815560018101805486169055808201805490951690945592015580546000190190556106ab565b600160a060020a03908116600090815260036020526040902060020154166105d1565b5050565b600080805b6005548110156107ab576000805460058054600160a060020a0390921692600392909190859081106106e257fe5b60009182526020808320600390920290910154600160a060020a0390811684529083019390935260409091019020541614156107a3574260075460058381548110151561072b57fe5b9060005260206000209060030201600201540110156107a35761079e60058281548110151561075657fe5b60009182526020918290206040805160608101825260039093029091018054600160a060020a0316835260018101549383019390935260029092015491810191909152610d02565b820191505b6001016106b4565b6107b3610df2565b50919050565b600054600160a060020a031633146107d057600080fd5b60008054604051600160a060020a03909116917ff8df31144d9c2f0f6b59d69b8b98abd5459d07f2742c4df920b25aae33c6482091a26000805473ffffffffffffffffffffffffffffffffffffffff19169055565b60075481565b600054600160a060020a031681565b600b6020526000908152604090208054600190910154600160a060020a031682565b600154600160a060020a031681565b6000806002548310151561087e57600080fd5b50600154600160a060020a03165b82156108bc57600160a060020a03908116600090815260036020526040902060020154600019909301921661088c565b92915050565b600080805b60055481101561097d5783600160a060020a0316600360006005848154811015156108ee57fe5b60009182526020808320600390920290910154600160a060020a039081168452908301939093526040909101902054161415610975574260075460058381548110151561093757fe5b90600052602060002090600302016002015401101561097557600580548290811061095e57fe5b906000526020600020906003020160010154820191505b6001016108c7565b5092915050565b6040805180820182528281523360208083019182526000948552600b90529190922091518255516001909101805473ffffffffffffffffffffffffffffffffffffffff1916600160a060020a03909216919091179055565b600160a060020a03828116600090815260036020526040902054163314610a0257600080fd5b600654604080517f23b872dd000000000000000000000000000000000000000000000000000000008152336004820152306024820152604481018490529051600160a060020a03909216916323b872dd916064808201926020929091908290030181600087803b158015610a7557600080fd5b505af1158015610a89573d6000803e3d6000fd5b505050506040513d6020811015610a9f57600080fd5b505060408051606081018252600160a060020a03938416815260208101928352429181019182526004805460018101825560009190915290517f8a35acfbc15ff81a39ae7d344fd709f28e8600b4aa8c65c6b64bfe7fe36bd19b6003909202918201805473ffffffffffffffffffffffffffffffffffffffff1916919095161790935590517f8a35acfbc15ff81a39ae7d344fd709f28e8600b4aa8c65c6b64bfe7fe36bd19c830155517f8a35acfbc15ff81a39ae7d344fd709f28e8600b4aa8c65c6b64bfe7fe36bd19d90910155565b600160a060020a03828116600090815260036020526040902054163314610b9657600080fd5b60408051606081018252600160a060020a03938416815260208101928352429181019182526005805460018101825560009190915290517f036b6384b5eca791c62761152d0c79bb0604c104a5fb6f4eb0703f3154bb3db06003909202918201805473ffffffffffffffffffffffffffffffffffffffff1916919095161790935590517f036b6384b5eca791c62761152d0c79bb0604c104a5fb6f4eb0703f3154bb3db1830155517f036b6384b5eca791c62761152d0c79bb0604c104a5fb6f4eb0703f3154bb3db290910155565b6004805482908110610c7357fe5b6000918252602090912060039091020180546001820154600290920154600160a060020a03909116925083565b600a6020526000908152604090208054600190910154600160a060020a031682565b600054600160a060020a03163314610cd957600080fd5b610ce281610efa565b50565b6005805482908110610c7357fe5b600654600160a060020a031681565b8051600160a060020a039081166000908152600360205260408120549091163314610d2c57600080fd5b600754604083015142910110610d4157600080fd5b600654602080840151604080517f23b872dd000000000000000000000000000000000000000000000000000000008152306004820152336024820152604481019290925251600160a060020a03909316926323b872dd926064808401939192918290030181600087803b158015610db757600080fd5b505af1158015610dcb573d6000803e3d6000fd5b505050506040513d6020811015610de157600080fd5b505060006020929092019190915290565b60005b600554811015610ce2576005805482908110610e0d57fe5b90600052602060002090600302016001015460001415610ef157600580546000198101908110610e3957fe5b9060005260206000209060030201600582815481101515610e5657fe5b600091825260209091208254600390920201805473ffffffffffffffffffffffffffffffffffffffff1916600160a060020a0390921691909117815560018083015490820155600291820154910155600580546000198101908110610eb757fe5b600091825260208220600390910201805473ffffffffffffffffffffffffffffffffffffffff191681556001810182905560020155610ef5565b6001015b610df5565b600160a060020a0381161515610f0f57600080fd5b60008054604051600160a060020a03808516939216917f8be0079c531659141344cd1fd0a4f28419497f9722a3daafe3b4186f6b6457e091a36000805473ffffffffffffffffffffffffffffffffffffffff1916600160a060020a03929092169190911790555600a165627a7a7230582008caa24feb654d96d414180d01762facbfbf60da9cbe7f9fcff60013ce655f330029",
  "source": "pragma solidity ^0.4.24;\n\nimport \"./XyoStaked.sol\";\n\n/**\n * @title XyoStakedConsensus\n * @dev Manages the Stake for multiple clients in a decentralized consensus system\n */\ncontract XyoStakedConsensus is XyoStaked {\n\n  struct Block {\n    uint previousBlock;\n    address creator;\n  }\n\n  struct Challenge {\n    uint block;\n    address challenger;\n  }\n\n  uint genesis;\n  uint current;\n\n  mapping(uint => Block) public blocks; //The blocks in the chain\n  mapping(uint => Challenge) public challenges; //The blocks in the chain\n\n  /**\n  * @dev The constructor sets the rules for the system that can not be changed ever again.\n  * @param _token - The address of the ERC20 token to be used for staking\n  * @param _cooldown - The time delay before a stake is available for withdrawal ater a remove\n  * @param _genesis - The genesis block of the chain being staked\n  */\n  constructor(\n    address _token,\n    uint _cooldown,\n    uint _genesis\n  )\n    public\n    XyoStaked(_token, _cooldown)\n  {\n    genesis = _genesis;\n    current = _genesis;\n  }\n\n  function challenge(\n    uint blockToChallenge\n  )\n    public\n  {\n    challenges[blockToChallenge] = Challenge(blockToChallenge, msg.sender);\n  }\n\n}\n",
  "sourcePath": "/Users/arietrouw/GitHub/dapp-scsc-solidity/contracts/XyoStakedConsensus.sol",
  "compiler": {
    "name": "solc",
    "version": "0.4.24+commit.e67f0147.Emscripten.clang"
  },
  "schemaVersion": "2.0.1",
  "updatedAt": "2018-08-28T02:55:11.632Z"
}