{
  "contractName": "XyoStaked",
  "abi": [
    {
      "constant": false,
      "inputs": [
        {
          "name": "node",
          "type": "address"
        }
      ],
      "name": "add",
      "outputs": [],
      "payable": false,
      "stateMutability": "nonpayable",
      "type": "function"
    },
    {
      "constant": true,
      "inputs": [],
      "name": "tail",
      "outputs": [
        {
          "name": "",
          "type": "address"
        }
      ],
      "payable": false,
      "stateMutability": "view",
      "type": "function"
    },
    {
      "constant": true,
      "inputs": [
        {
          "name": "",
          "type": "address"
        }
      ],
      "name": "nodes",
      "outputs": [
        {
          "name": "owner",
          "type": "address"
        },
        {
          "name": "node",
          "type": "address"
        },
        {
          "name": "next",
          "type": "address"
        },
        {
          "name": "stake",
          "type": "uint256"
        }
      ],
      "payable": false,
      "stateMutability": "view",
      "type": "function"
    },
    {
      "constant": true,
      "inputs": [],
      "name": "length",
      "outputs": [
        {
          "name": "",
          "type": "uint256"
        }
      ],
      "payable": false,
      "stateMutability": "view",
      "type": "function"
    },
    {
      "constant": false,
      "inputs": [
        {
          "name": "node",
          "type": "address"
        }
      ],
      "name": "remove",
      "outputs": [],
      "payable": false,
      "stateMutability": "nonpayable",
      "type": "function"
    },
    {
      "constant": false,
      "inputs": [],
      "name": "renounceOwnership",
      "outputs": [],
      "payable": false,
      "stateMutability": "nonpayable",
      "type": "function"
    },
    {
      "constant": true,
      "inputs": [],
      "name": "cooldown",
      "outputs": [
        {
          "name": "",
          "type": "uint256"
        }
      ],
      "payable": false,
      "stateMutability": "view",
      "type": "function"
    },
    {
      "constant": true,
      "inputs": [],
      "name": "owner",
      "outputs": [
        {
          "name": "",
          "type": "address"
        }
      ],
      "payable": false,
      "stateMutability": "view",
      "type": "function"
    },
    {
      "constant": true,
      "inputs": [],
      "name": "head",
      "outputs": [
        {
          "name": "",
          "type": "address"
        }
      ],
      "payable": false,
      "stateMutability": "view",
      "type": "function"
    },
    {
      "constant": true,
      "inputs": [
        {
          "name": "index",
          "type": "uint256"
        }
      ],
      "name": "get",
      "outputs": [
        {
          "name": "",
          "type": "address"
        }
      ],
      "payable": false,
      "stateMutability": "view",
      "type": "function"
    },
    {
      "constant": true,
      "inputs": [
        {
          "name": "",
          "type": "uint256"
        }
      ],
      "name": "stakeRequests",
      "outputs": [
        {
          "name": "node",
          "type": "address"
        },
        {
          "name": "amount",
          "type": "uint256"
        },
        {
          "name": "time",
          "type": "uint256"
        }
      ],
      "payable": false,
      "stateMutability": "view",
      "type": "function"
    },
    {
      "constant": false,
      "inputs": [
        {
          "name": "_newOwner",
          "type": "address"
        }
      ],
      "name": "transferOwnership",
      "outputs": [],
      "payable": false,
      "stateMutability": "nonpayable",
      "type": "function"
    },
    {
      "constant": true,
      "inputs": [
        {
          "name": "",
          "type": "uint256"
        }
      ],
      "name": "unstakeRequests",
      "outputs": [
        {
          "name": "node",
          "type": "address"
        },
        {
          "name": "amount",
          "type": "uint256"
        },
        {
          "name": "time",
          "type": "uint256"
        }
      ],
      "payable": false,
      "stateMutability": "view",
      "type": "function"
    },
    {
      "constant": true,
      "inputs": [],
      "name": "token",
      "outputs": [
        {
          "name": "",
          "type": "address"
        }
      ],
      "payable": false,
      "stateMutability": "view",
      "type": "function"
    },
    {
      "inputs": [
        {
          "name": "_token",
          "type": "address"
        },
        {
          "name": "_cooldown",
          "type": "uint256"
        }
      ],
      "payable": false,
      "stateMutability": "nonpayable",
      "type": "constructor"
    },
    {
      "anonymous": false,
      "inputs": [
        {
          "indexed": true,
          "name": "previousOwner",
          "type": "address"
        }
      ],
      "name": "OwnershipRenounced",
      "type": "event"
    },
    {
      "anonymous": false,
      "inputs": [
        {
          "indexed": true,
          "name": "previousOwner",
          "type": "address"
        },
        {
          "indexed": true,
          "name": "newOwner",
          "type": "address"
        }
      ],
      "name": "OwnershipTransferred",
      "type": "event"
    },
    {
      "constant": false,
      "inputs": [
        {
          "name": "node",
          "type": "address"
        },
        {
          "name": "amount",
          "type": "uint256"
        }
      ],
      "name": "stake",
      "outputs": [],
      "payable": false,
      "stateMutability": "nonpayable",
      "type": "function"
    },
    {
      "constant": false,
      "inputs": [
        {
          "name": "node",
          "type": "address"
        },
        {
          "name": "amount",
          "type": "uint256"
        }
      ],
      "name": "unstake",
      "outputs": [],
      "payable": false,
      "stateMutability": "nonpayable",
      "type": "function"
    },
    {
      "constant": false,
      "inputs": [],
      "name": "withdraw",
      "outputs": [
        {
          "name": "",
          "type": "uint256"
        }
      ],
      "payable": false,
      "stateMutability": "nonpayable",
      "type": "function"
    },
    {
      "constant": true,
      "inputs": [
        {
          "name": "owner",
          "type": "address"
        }
      ],
      "name": "availableToWithdraw",
      "outputs": [
        {
          "name": "",
          "type": "uint256"
        }
      ],
      "payable": false,
      "stateMutability": "view",
      "type": "function"
    }
  ],
  "bytecode": "0x6080604052600060025534801561001557600080fd5b50604051604080610eec83398101604052805160209091015160008054600160a060020a0319908116331790915560068054600160a060020a039094169390911692909217909155600755610e7d8061006f6000396000f3006080604052600436106100fb5763ffffffff7c01000000000000000000000000000000000000000000000000000000006000350416630a3b0a4f811461010057806313d8c84014610123578063189a5a17146101545780631f7b6d32146101aa57806329092d0e146101d15780633ccfd60b146101f2578063715018a614610207578063787a08a61461021c5780638da5cb5b146102315780638f7dcfa3146102465780639507d39a1461025b578063a25db8ce14610273578063adc9772e14610294578063c2a672e0146102b8578063d0714ad5146102dc578063f2fde38b1461031c578063f87975af1461033d578063fc0c546a14610355575b600080fd5b34801561010c57600080fd5b50610121600160a060020a036004351661036a565b005b34801561012f57600080fd5b50610138610444565b60408051600160a060020a039092168252519081900360200190f35b34801561016057600080fd5b50610175600160a060020a036004351661049f565b60408051600160a060020a03958616815293851660208501529190931682820152606082019290925290519081900360800190f35b3480156101b657600080fd5b506101bf6104d7565b60408051918252519081900360200190f35b3480156101dd57600080fd5b50610121600160a060020a03600435166104dd565b3480156101fe57600080fd5b506101bf610625565b34801561021357600080fd5b5061012161072f565b34801561022857600080fd5b506101bf61079b565b34801561023d57600080fd5b506101386107a1565b34801561025257600080fd5b506101386107b0565b34801561026757600080fd5b506101386004356107bf565b34801561027f57600080fd5b506101bf600160a060020a0360043516610816565b3480156102a057600080fd5b50610121600160a060020a03600435166024356108d8565b3480156102c457600080fd5b50610121600160a060020a0360043516602435610a6c565b3480156102e857600080fd5b506102f4600435610b61565b60408051600160a060020a039094168452602084019290925282820152519081900360600190f35b34801561032857600080fd5b50610121600160a060020a0360043516610b9c565b34801561034957600080fd5b506102f4600435610bbf565b34801561036157600080fd5b50610138610bcd565b6000610374610444565b9050600160a060020a03811615156103b3576001805473ffffffffffffffffffffffffffffffffffffffff1916600160a060020a0384161790556103f2565b600160a060020a038181166000908152600360205260409020600201805473ffffffffffffffffffffffffffffffffffffffff19169184169190911790555b50600160a060020a03166000818152600360205260409020805473ffffffffffffffffffffffffffffffffffffffff199081163317825560019182018054909116909217909155600280549091019055565b600154600090600160a060020a03165b600160a060020a03808216600090815260036020526040902060020154161561049a57600160a060020a0390811660009081526003602052604090206002015416610454565b919050565b60036020819052600091825260409091208054600182015460028301549290930154600160a060020a03918216938216929091169084565b60025481565b600154600090600160a060020a03838116911614156105395760018054600160a060020a038082166000908152600360205260409020600201541673ffffffffffffffffffffffffffffffffffffffff19909116179055610621565b50600154600160a060020a03165b600160a060020a0381161561062157600160a060020a03818116600090815260036020526040902060020154811690831614156105fe57600160a060020a038181166000908152600360208190526040808320600290810180548087168652838620830154871673ffffffffffffffffffffffffffffffffffffffff199182161790915594871684529083208054851681556001810180548616905580820180549095169094559201558054600019019055610621565b600160a060020a0390811660009081526003602052604090206002015416610547565b5050565b600080805b600554811015610721576000805460058054600160a060020a03909216926003929091908590811061065857fe5b60009182526020808320600390920290910154600160a060020a03908116845290830193909352604090910190205416141561071957426007546005838154811015156106a157fe5b906000526020600020906003020160020154011015610719576107146005828154811015156106cc57fe5b60009182526020918290206040805160608101825260039093029091018054600160a060020a0316835260018101549383019390935260029092015491810191909152610bdc565b820191505b60010161062a565b610729610ccc565b50919050565b600054600160a060020a0316331461074657600080fd5b60008054604051600160a060020a03909116917ff8df31144d9c2f0f6b59d69b8b98abd5459d07f2742c4df920b25aae33c6482091a26000805473ffffffffffffffffffffffffffffffffffffffff19169055565b60075481565b600054600160a060020a031681565b600154600160a060020a031681565b600080600254831015156107d257600080fd5b50600154600160a060020a03165b821561081057600160a060020a0390811660009081526003602052604090206002015460001990930192166107e0565b92915050565b600080805b6005548110156108d15783600160a060020a03166003600060058481548110151561084257fe5b60009182526020808320600390920290910154600160a060020a0390811684529083019390935260409091019020541614156108c9574260075460058381548110151561088b57fe5b9060005260206000209060030201600201540110156108c95760058054829081106108b257fe5b906000526020600020906003020160010154820191505b60010161081b565b5092915050565b600160a060020a038281166000908152600360205260409020541633146108fe57600080fd5b600654604080517f23b872dd000000000000000000000000000000000000000000000000000000008152336004820152306024820152604481018490529051600160a060020a03909216916323b872dd916064808201926020929091908290030181600087803b15801561097157600080fd5b505af1158015610985573d6000803e3d6000fd5b505050506040513d602081101561099b57600080fd5b505060408051606081018252600160a060020a03938416815260208101928352429181019182526004805460018101825560009190915290517f8a35acfbc15ff81a39ae7d344fd709f28e8600b4aa8c65c6b64bfe7fe36bd19b6003909202918201805473ffffffffffffffffffffffffffffffffffffffff1916919095161790935590517f8a35acfbc15ff81a39ae7d344fd709f28e8600b4aa8c65c6b64bfe7fe36bd19c830155517f8a35acfbc15ff81a39ae7d344fd709f28e8600b4aa8c65c6b64bfe7fe36bd19d90910155565b600160a060020a03828116600090815260036020526040902054163314610a9257600080fd5b60408051606081018252600160a060020a03938416815260208101928352429181019182526005805460018101825560009190915290517f036b6384b5eca791c62761152d0c79bb0604c104a5fb6f4eb0703f3154bb3db06003909202918201805473ffffffffffffffffffffffffffffffffffffffff1916919095161790935590517f036b6384b5eca791c62761152d0c79bb0604c104a5fb6f4eb0703f3154bb3db1830155517f036b6384b5eca791c62761152d0c79bb0604c104a5fb6f4eb0703f3154bb3db290910155565b6004805482908110610b6f57fe5b6000918252602090912060039091020180546001820154600290920154600160a060020a03909116925083565b600054600160a060020a03163314610bb357600080fd5b610bbc81610dd4565b50565b6005805482908110610b6f57fe5b600654600160a060020a031681565b8051600160a060020a039081166000908152600360205260408120549091163314610c0657600080fd5b600754604083015142910110610c1b57600080fd5b600654602080840151604080517f23b872dd000000000000000000000000000000000000000000000000000000008152306004820152336024820152604481019290925251600160a060020a03909316926323b872dd926064808401939192918290030181600087803b158015610c9157600080fd5b505af1158015610ca5573d6000803e3d6000fd5b505050506040513d6020811015610cbb57600080fd5b505060006020929092019190915290565b60005b600554811015610bbc576005805482908110610ce757fe5b90600052602060002090600302016001015460001415610dcb57600580546000198101908110610d1357fe5b9060005260206000209060030201600582815481101515610d3057fe5b600091825260209091208254600390920201805473ffffffffffffffffffffffffffffffffffffffff1916600160a060020a0390921691909117815560018083015490820155600291820154910155600580546000198101908110610d9157fe5b600091825260208220600390910201805473ffffffffffffffffffffffffffffffffffffffff191681556001810182905560020155610dcf565b6001015b610ccf565b600160a060020a0381161515610de957600080fd5b60008054604051600160a060020a03808516939216917f8be0079c531659141344cd1fd0a4f28419497f9722a3daafe3b4186f6b6457e091a36000805473ffffffffffffffffffffffffffffffffffffffff1916600160a060020a03929092169190911790555600a165627a7a72305820e2eeed2162404490c3eabdc581bca8e4a3f3f42a073b64fed13838a70de0b4a00029",
  "source": "pragma solidity ^0.4.24;\n\nimport \"./Ownable.sol\";\nimport \"./ERC20.sol\";\n\nimport \"./XyoNodeMapping.sol\";\n\n/**\n * @title XyoStakedConsensus\n * @dev Manages the Stake for multiple clients in a decentralized consensus system\n */\ncontract XyoStaked is Ownable, XyoNodeMapping {\n\n  struct Request {\n    address node;\n    uint amount;\n    uint time;\n  }\n\n  Request[] public stakeRequests; //List of Stake Requests\n  Request[] public unstakeRequests; //List of Unstake Requests\n\n  ERC20 public token; //address of the ERC20 token used for staking\n  uint public cooldown; //the amount of time required for withdrawn stake to be available to be withdrawn\n\n  /**\n  * @dev The constructor sets the rules for the system that can not be changed ever again.\n  * @param _token - The address of the ERC20 token to be used for staking\n  * @param _cooldown - The time delay before a stake is available for withdrawal ater a remove\n  */\n  constructor(\n    address _token,\n    uint _cooldown\n  )\n    public\n  {\n    token = ERC20(_token);\n    cooldown = _cooldown;\n  }\n\n  /**\n   * @dev Adds Stake to a specific Node in the system\n   * @param node - The node on the XYO network that the stake is for\n   * @param amount - The amount of XYO being added to the stake\n   * @return The total XYO staked for this node\n   */\n  function stake(address node, uint amount)\n    public\n  {\n    require(nodes[node].owner == msg.sender);\n\n    //we assume that the caller gave this contract permission to transfer tokens before this call\n    token.transferFrom(msg.sender, this, amount);\n\n    stakeRequests.push(Request(node, amount, now));\n  }\n\n  /**\n   * @dev Removes Stake from a specific Node in the system\n   * @dev This Stake is not available to be withdrawn until cooldown time has expired\n   * @param node - The node on the XYO network that the stake is for\n   * @param amount - The amount of XYO being added to the stake\n   * @return The total XYO staked for this node\n   */\n  function unstake(address node, uint amount)\n    public\n  {\n    require(nodes[node].owner == msg.sender);\n    unstakeRequests.push(Request(node, amount, now));\n  }\n\n  /**\n   * @dev Withdraws Stake\n   * @return The total XYO that may be withdrawn from this node after this transaction\n   */\n  function withdraw()\n    public\n    returns (uint)\n  {\n    uint total = 0;\n    for (uint i = 0; i < unstakeRequests.length; i++) {\n      if (nodes[unstakeRequests[i].node].owner == owner) {\n        if ((unstakeRequests[i].time + cooldown) < now) {\n          total = total + withdrawFromRequest(unstakeRequests[i]);\n        }\n      }\n    }\n    purgeEmptyUnstakeRequests();\n    return total;\n  }\n\n  function purgeEmptyStakeRequests()\n    private\n  {\n    uint index = 0;\n    while (index < stakeRequests.length) {\n      if (stakeRequests[index].amount == 0) {\n        stakeRequests[index] = stakeRequests[stakeRequests.length - 1];\n        delete stakeRequests[stakeRequests.length - 1];\n      } else {\n        index++;\n      }\n    }\n  }\n\n  function purgeEmptyUnstakeRequests()\n    private\n  {\n    uint index = 0;\n    while (index < unstakeRequests.length) {\n      if (unstakeRequests[index].amount == 0) {\n        unstakeRequests[index] = unstakeRequests[unstakeRequests.length - 1];\n        delete unstakeRequests[unstakeRequests.length - 1];\n      } else {\n        index++;\n      }\n    }\n  }\n\n  function withdrawFromRequest(Request request)\n    private\n    returns (uint)\n  {\n    require(nodes[request.node].owner == msg.sender);\n    require((request.time + cooldown) < now);\n    token.transferFrom(this, msg.sender, request.amount);\n    request.amount = 0;\n  }\n\n  /**\n   * @dev Determines the amount of stake that can be withdrawn from a node\n   * @param owner - The owner address of the items to to check for availability\n   * @return The total XYO that may be withdrawn from this node\n   */\n  function availableToWithdraw(address owner)\n    public\n    view\n    returns (uint)\n  {\n    uint available = 0;\n    for (uint i = 0; i < unstakeRequests.length; i++) {\n      if (nodes[unstakeRequests[i].node].owner == owner) {\n        if ((unstakeRequests[i].time + cooldown) < now) {\n          available = available + unstakeRequests[i].amount;\n        }\n      }\n    }\n    return available;\n  }\n\n}\n",
  "sourcePath": "/Users/arietrouw/GitHub/dapp-scsc-solidity/contracts/XyoStaked.sol",
  "compiler": {
    "name": "solc",
    "version": "0.4.24+commit.e67f0147.Emscripten.clang"
  },
  "schemaVersion": "2.0.1",
  "updatedAt": "2018-08-28T02:55:11.643Z"
}