{
  "contractName": "XyoStaked",
  "abi": [
    {
      "constant": false,
      "inputs": [
        {
          "name": "node",
          "type": "address"
        }
      ],
      "name": "add",
      "outputs": [],
      "payable": false,
      "stateMutability": "nonpayable",
      "type": "function"
    },
    {
      "constant": true,
      "inputs": [],
      "name": "tail",
      "outputs": [
        {
          "name": "",
          "type": "address"
        }
      ],
      "payable": false,
      "stateMutability": "view",
      "type": "function"
    },
    {
      "constant": true,
      "inputs": [
        {
          "name": "",
          "type": "address"
        }
      ],
      "name": "nodes",
      "outputs": [
        {
          "name": "owner",
          "type": "address"
        },
        {
          "name": "node",
          "type": "address"
        },
        {
          "name": "next",
          "type": "address"
        },
        {
          "name": "stake",
          "type": "uint256"
        }
      ],
      "payable": false,
      "stateMutability": "view",
      "type": "function"
    },
    {
      "constant": true,
      "inputs": [],
      "name": "length",
      "outputs": [
        {
          "name": "",
          "type": "uint256"
        }
      ],
      "payable": false,
      "stateMutability": "view",
      "type": "function"
    },
    {
      "constant": false,
      "inputs": [
        {
          "name": "node",
          "type": "address"
        }
      ],
      "name": "remove",
      "outputs": [],
      "payable": false,
      "stateMutability": "nonpayable",
      "type": "function"
    },
    {
      "constant": false,
      "inputs": [],
      "name": "renounceOwnership",
      "outputs": [],
      "payable": false,
      "stateMutability": "nonpayable",
      "type": "function"
    },
    {
      "constant": true,
      "inputs": [],
      "name": "cooldown",
      "outputs": [
        {
          "name": "",
          "type": "uint256"
        }
      ],
      "payable": false,
      "stateMutability": "view",
      "type": "function"
    },
    {
      "constant": true,
      "inputs": [
        {
          "name": "",
          "type": "address"
        }
      ],
      "name": "nodeOwners",
      "outputs": [
        {
          "name": "",
          "type": "address"
        }
      ],
      "payable": false,
      "stateMutability": "view",
      "type": "function"
    },
    {
      "constant": true,
      "inputs": [],
      "name": "owner",
      "outputs": [
        {
          "name": "",
          "type": "address"
        }
      ],
      "payable": false,
      "stateMutability": "view",
      "type": "function"
    },
    {
      "constant": true,
      "inputs": [],
      "name": "head",
      "outputs": [
        {
          "name": "",
          "type": "address"
        }
      ],
      "payable": false,
      "stateMutability": "view",
      "type": "function"
    },
    {
      "constant": true,
      "inputs": [
        {
          "name": "index",
          "type": "uint256"
        }
      ],
      "name": "get",
      "outputs": [
        {
          "name": "",
          "type": "address"
        }
      ],
      "payable": false,
      "stateMutability": "view",
      "type": "function"
    },
    {
      "constant": true,
      "inputs": [
        {
          "name": "",
          "type": "uint256"
        }
      ],
      "name": "stakeRequests",
      "outputs": [
        {
          "name": "node",
          "type": "address"
        },
        {
          "name": "amount",
          "type": "uint256"
        },
        {
          "name": "time",
          "type": "uint256"
        }
      ],
      "payable": false,
      "stateMutability": "view",
      "type": "function"
    },
    {
      "constant": false,
      "inputs": [
        {
          "name": "_newOwner",
          "type": "address"
        }
      ],
      "name": "transferOwnership",
      "outputs": [],
      "payable": false,
      "stateMutability": "nonpayable",
      "type": "function"
    },
    {
      "constant": true,
      "inputs": [
        {
          "name": "",
          "type": "uint256"
        }
      ],
      "name": "unstakeRequests",
      "outputs": [
        {
          "name": "node",
          "type": "address"
        },
        {
          "name": "amount",
          "type": "uint256"
        },
        {
          "name": "time",
          "type": "uint256"
        }
      ],
      "payable": false,
      "stateMutability": "view",
      "type": "function"
    },
    {
      "constant": true,
      "inputs": [],
      "name": "token",
      "outputs": [
        {
          "name": "",
          "type": "address"
        }
      ],
      "payable": false,
      "stateMutability": "view",
      "type": "function"
    },
    {
      "inputs": [
        {
          "name": "_token",
          "type": "address"
        },
        {
          "name": "_cooldown",
          "type": "uint256"
        }
      ],
      "payable": false,
      "stateMutability": "nonpayable",
      "type": "constructor"
    },
    {
      "anonymous": false,
      "inputs": [
        {
          "indexed": true,
          "name": "previousOwner",
          "type": "address"
        }
      ],
      "name": "OwnershipRenounced",
      "type": "event"
    },
    {
      "anonymous": false,
      "inputs": [
        {
          "indexed": true,
          "name": "previousOwner",
          "type": "address"
        },
        {
          "indexed": true,
          "name": "newOwner",
          "type": "address"
        }
      ],
      "name": "OwnershipTransferred",
      "type": "event"
    },
    {
      "constant": false,
      "inputs": [
        {
          "name": "node",
          "type": "address"
        },
        {
          "name": "v",
          "type": "uint8"
        },
        {
          "name": "r",
          "type": "bytes32"
        },
        {
          "name": "s",
          "type": "bytes32"
        }
      ],
      "name": "claim",
      "outputs": [],
      "payable": false,
      "stateMutability": "nonpayable",
      "type": "function"
    },
    {
      "constant": false,
      "inputs": [
        {
          "name": "node",
          "type": "address"
        },
        {
          "name": "amount",
          "type": "uint256"
        }
      ],
      "name": "stake",
      "outputs": [],
      "payable": false,
      "stateMutability": "nonpayable",
      "type": "function"
    },
    {
      "constant": false,
      "inputs": [
        {
          "name": "node",
          "type": "address"
        },
        {
          "name": "amount",
          "type": "uint256"
        }
      ],
      "name": "unstake",
      "outputs": [],
      "payable": false,
      "stateMutability": "nonpayable",
      "type": "function"
    },
    {
      "constant": false,
      "inputs": [],
      "name": "withdraw",
      "outputs": [
        {
          "name": "",
          "type": "uint256"
        }
      ],
      "payable": false,
      "stateMutability": "nonpayable",
      "type": "function"
    },
    {
      "constant": true,
      "inputs": [
        {
          "name": "owner",
          "type": "address"
        }
      ],
      "name": "availableToWithdraw",
      "outputs": [
        {
          "name": "",
          "type": "uint256"
        }
      ],
      "payable": false,
      "stateMutability": "view",
      "type": "function"
    }
  ],
  "bytecode": "0x6080604052600060025534801561001557600080fd5b506040516040806110f583398101604052805160209091015160008054600160a060020a0319908116331790915560078054600160a060020a0390941693909116929092179091556008556110868061006f6000396000f3006080604052600436106101115763ffffffff7c01000000000000000000000000000000000000000000000000000000006000350416630a3b0a4f811461011657806313d8c84014610139578063189a5a171461016a5780631f7b6d32146101c057806329092d0e146101e75780633ccfd60b14610208578063715018a61461021d578063787a08a61461023257806378a6b968146102475780638da5cb5b146102685780638f7dcfa31461027d5780639507d39a14610292578063a25db8ce146102aa578063adc9772e146102cb578063c2a672e0146102ef578063cb70a93714610313578063d0714ad514610340578063f2fde38b14610380578063f87975af146103a1578063fc0c546a146103b9575b600080fd5b34801561012257600080fd5b50610137600160a060020a03600435166103ce565b005b34801561014557600080fd5b5061014e6104a8565b60408051600160a060020a039092168252519081900360200190f35b34801561017657600080fd5b5061018b600160a060020a0360043516610503565b60408051600160a060020a03958616815293851660208501529190931682820152606082019290925290519081900360800190f35b3480156101cc57600080fd5b506101d561053b565b60408051918252519081900360200190f35b3480156101f357600080fd5b50610137600160a060020a0360043516610541565b34801561021457600080fd5b506101d5610689565b34801561022957600080fd5b50610137610793565b34801561023e57600080fd5b506101d56107ff565b34801561025357600080fd5b5061014e600160a060020a0360043516610805565b34801561027457600080fd5b5061014e610820565b34801561028957600080fd5b5061014e61082f565b34801561029e57600080fd5b5061014e60043561083e565b3480156102b657600080fd5b506101d5600160a060020a0360043516610895565b3480156102d757600080fd5b50610137600160a060020a0360043516602435610957565b3480156102fb57600080fd5b50610137600160a060020a0360043516602435610aeb565b34801561031f57600080fd5b50610137600160a060020a036004351660ff60243516604435606435610be0565b34801561034c57600080fd5b50610358600435610d6a565b60408051600160a060020a039094168452602084019290925282820152519081900360600190f35b34801561038c57600080fd5b50610137600160a060020a0360043516610da5565b3480156103ad57600080fd5b50610358600435610dc8565b3480156103c557600080fd5b5061014e610dd6565b60006103d86104a8565b9050600160a060020a0381161515610417576001805473ffffffffffffffffffffffffffffffffffffffff1916600160a060020a038416179055610456565b600160a060020a038181166000908152600360205260409020600201805473ffffffffffffffffffffffffffffffffffffffff19169184169190911790555b50600160a060020a03166000818152600360205260409020805473ffffffffffffffffffffffffffffffffffffffff199081163317825560019182018054909116909217909155600280549091019055565b600154600090600160a060020a03165b600160a060020a0380821660009081526003602052604090206002015416156104fe57600160a060020a03908116600090815260036020526040902060020154166104b8565b919050565b60036020819052600091825260409091208054600182015460028301549290930154600160a060020a03918216938216929091169084565b60025481565b600154600090600160a060020a038381169116141561059d5760018054600160a060020a038082166000908152600360205260409020600201541673ffffffffffffffffffffffffffffffffffffffff19909116179055610685565b50600154600160a060020a03165b600160a060020a0381161561068557600160a060020a038181166000908152600360205260409020600201548116908316141561066257600160a060020a038181166000908152600360208190526040808320600290810180548087168652838620830154871673ffffffffffffffffffffffffffffffffffffffff199182161790915594871684529083208054851681556001810180548616905580820180549095169094559201558054600019019055610685565b600160a060020a03908116600090815260036020526040902060020154166105ab565b5050565b600080805b600654811015610785576000805460068054600160a060020a0390921692600392909190859081106106bc57fe5b60009182526020808320600390920290910154600160a060020a03908116845290830193909352604090910190205416141561077d574260085460068381548110151561070557fe5b90600052602060002090600302016002015401101561077d5761077860068281548110151561073057fe5b60009182526020918290206040805160608101825260039093029091018054600160a060020a0316835260018101549383019390935260029092015491810191909152610de5565b820191505b60010161068e565b61078d610ed5565b50919050565b600054600160a060020a031633146107aa57600080fd5b60008054604051600160a060020a03909116917ff8df31144d9c2f0f6b59d69b8b98abd5459d07f2742c4df920b25aae33c6482091a26000805473ffffffffffffffffffffffffffffffffffffffff19169055565b60085481565b600460205260009081526040902054600160a060020a031681565b600054600160a060020a031681565b600154600160a060020a031681565b6000806002548310151561085157600080fd5b50600154600160a060020a03165b821561088f57600160a060020a03908116600090815260036020526040902060020154600019909301921661085f565b92915050565b600080805b6006548110156109505783600160a060020a0316600360006006848154811015156108c157fe5b60009182526020808320600390920290910154600160a060020a039081168452908301939093526040909101902054161415610948574260085460068381548110151561090a57fe5b90600052602060002090600302016002015401101561094857600680548290811061093157fe5b906000526020600020906003020160010154820191505b60010161089a565b5092915050565b600160a060020a0382811660009081526003602052604090205416331461097d57600080fd5b600754604080517f23b872dd000000000000000000000000000000000000000000000000000000008152336004820152306024820152604481018490529051600160a060020a03909216916323b872dd916064808201926020929091908290030181600087803b1580156109f057600080fd5b505af1158015610a04573d6000803e3d6000fd5b505050506040513d6020811015610a1a57600080fd5b505060408051606081018252600160a060020a03938416815260208101928352429181019182526005805460018101825560009190915290517f036b6384b5eca791c62761152d0c79bb0604c104a5fb6f4eb0703f3154bb3db06003909202918201805473ffffffffffffffffffffffffffffffffffffffff1916919095161790935590517f036b6384b5eca791c62761152d0c79bb0604c104a5fb6f4eb0703f3154bb3db1830155517f036b6384b5eca791c62761152d0c79bb0604c104a5fb6f4eb0703f3154bb3db290910155565b600160a060020a03828116600090815260036020526040902054163314610b1157600080fd5b60408051606081018252600160a060020a03938416815260208101928352429181019182526006805460018101825560009190915290517ff652222313e28459528d920b65115c16c04f3efc82aaedc97be59f3f377c0d3f6003909202918201805473ffffffffffffffffffffffffffffffffffffffff1916919095161790935590517ff652222313e28459528d920b65115c16c04f3efc82aaedc97be59f3f377c0d40830155517ff652222313e28459528d920b65115c16c04f3efc82aaedc97be59f3f377c0d4190910155565b604080516c01000000000000000000000000338102602080840191909152600160a060020a03881690910260348301528251602881840301815260489092019283905281516000938493600293909282918401908083835b60208310610c575780518252601f199092019160209182019101610c38565b51815160209384036101000a600019018019909216911617905260405191909301945091925050808303816000865af1158015610c98573d6000803e3d6000fd5b5050506040513d6020811015610cad57600080fd5b5051604080516000808252602082810180855285905260ff8a16838501526060830189905260808301889052925193955060019360a08084019493601f19830193908390039091019190865af1158015610d0b573d6000803e3d6000fd5b5050604051601f190151915050600160a060020a0381163314610d2d57600080fd5b505050600160a060020a039092166000908152600460205260409020805473ffffffffffffffffffffffffffffffffffffffff1916331790555050565b6005805482908110610d7857fe5b6000918252602090912060039091020180546001820154600290920154600160a060020a03909116925083565b600054600160a060020a03163314610dbc57600080fd5b610dc581610fdd565b50565b6006805482908110610d7857fe5b600754600160a060020a031681565b8051600160a060020a039081166000908152600360205260408120549091163314610e0f57600080fd5b600854604083015142910110610e2457600080fd5b600754602080840151604080517f23b872dd000000000000000000000000000000000000000000000000000000008152306004820152336024820152604481019290925251600160a060020a03909316926323b872dd926064808401939192918290030181600087803b158015610e9a57600080fd5b505af1158015610eae573d6000803e3d6000fd5b505050506040513d6020811015610ec457600080fd5b505060006020929092019190915290565b60005b600654811015610dc5576006805482908110610ef057fe5b90600052602060002090600302016001015460001415610fd457600680546000198101908110610f1c57fe5b9060005260206000209060030201600682815481101515610f3957fe5b600091825260209091208254600390920201805473ffffffffffffffffffffffffffffffffffffffff1916600160a060020a0390921691909117815560018083015490820155600291820154910155600680546000198101908110610f9a57fe5b600091825260208220600390910201805473ffffffffffffffffffffffffffffffffffffffff191681556001810182905560020155610fd8565b6001015b610ed8565b600160a060020a0381161515610ff257600080fd5b60008054604051600160a060020a03808516939216917f8be0079c531659141344cd1fd0a4f28419497f9722a3daafe3b4186f6b6457e091a36000805473ffffffffffffffffffffffffffffffffffffffff1916600160a060020a03929092169190911790555600a165627a7a7230582040a446349b79977f894a04a60635fd1ce881becb238dc5978a1472cc78d758910029",
  "source": "pragma solidity ^0.4.24;\n\nimport \"./Ownable.sol\";\nimport \"./ERC20.sol\";\n\nimport \"./XyoNodeMapping.sol\";\n\n/**\n * @title XyoStakedConsensus\n * @dev Manages the Stake for multiple clients in a decentralized consensus system\n */\ncontract XyoStaked is Ownable, XyoNodeMapping {\n\n  struct Request {\n    address node;\n    uint amount;\n    uint time;\n  }\n\n  mapping(address => address) public nodeOwners; //Lists the owners of the ndoes\n\n  Request[] public stakeRequests; //List of Stake Requests\n  Request[] public unstakeRequests; //List of Unstake Requests\n\n  ERC20 public token; //address of the ERC20 token used for staking\n  uint public cooldown; //the amount of time required for withdrawn stake to be available to be withdrawn\n\n  /**\n  * @dev The constructor sets the rules for the system that can not be changed ever again.\n  * @param _token - The address of the ERC20 token to be used for staking\n  * @param _cooldown - The time delay before a stake is available for withdrawal ater a remove\n  */\n  constructor(\n    address _token,\n    uint _cooldown\n  )\n    public\n  {\n    token = ERC20(_token);\n    cooldown = _cooldown;\n  }\n\n  /**\n   * @dev Claim a Node to an Owner. Requires a signed datagram from the node containing the owner address\n   * @param node - The node's address.  The signature should be of this address concated with the owner's address sha256 hashed\n   * @param v - The v component of the signature\n   * @param r - The r component of the signature\n   * @param s - The s component of the signature\n   */\n  function claim(\n    address node,\n    uint8 v,\n    bytes32 r,\n    bytes32 s\n  )\n    public\n  {\n    bytes32 hashValue = sha256(abi.encodePacked(msg.sender, node));\n    address realAddress = ecrecover(hashValue, v, r, s);\n    require (realAddress == msg.sender);\n    nodeOwners[node] = msg.sender;\n  }\n\n  /**\n   * @dev Adds Stake to a specific Node in the system\n   * @param node - The node on the XYO network that the stake is for\n   * @param amount - The amount of XYO being added to the stake\n   * @return The total XYO staked for this node\n   */\n  function stake(address node, uint amount)\n    public\n  {\n    require(nodes[node].owner == msg.sender);\n\n    //we assume that the caller gave this contract permission to transfer tokens before this call\n    token.transferFrom(msg.sender, this, amount);\n\n    stakeRequests.push(Request(node, amount, now));\n  }\n\n  /**\n   * @dev Removes Stake from a specific Node in the system\n   * @dev This Stake is not available to be withdrawn until cooldown time has expired\n   * @param node - The node on the XYO network that the stake is for\n   * @param amount - The amount of XYO being added to the stake\n   * @return The total XYO staked for this node\n   */\n  function unstake(address node, uint amount)\n    public\n  {\n    require(nodes[node].owner == msg.sender);\n    unstakeRequests.push(Request(node, amount, now));\n  }\n\n  /**\n   * @dev Withdraws Stake\n   * @return The total XYO that may be withdrawn from this node after this transaction\n   */\n  function withdraw()\n    public\n    returns (uint)\n  {\n    uint total = 0;\n    for (uint i = 0; i < unstakeRequests.length; i++) {\n      if (nodes[unstakeRequests[i].node].owner == owner) {\n        if ((unstakeRequests[i].time + cooldown) < now) {\n          total = total + withdrawFromRequest(unstakeRequests[i]);\n        }\n      }\n    }\n    purgeEmptyUnstakeRequests();\n    return total;\n  }\n\n  function purgeEmptyStakeRequests()\n    private\n  {\n    uint index = 0;\n    while (index < stakeRequests.length) {\n      if (stakeRequests[index].amount == 0) {\n        stakeRequests[index] = stakeRequests[stakeRequests.length - 1];\n        delete stakeRequests[stakeRequests.length - 1];\n      } else {\n        index++;\n      }\n    }\n  }\n\n  function purgeEmptyUnstakeRequests()\n    private\n  {\n    uint index = 0;\n    while (index < unstakeRequests.length) {\n      if (unstakeRequests[index].amount == 0) {\n        unstakeRequests[index] = unstakeRequests[unstakeRequests.length - 1];\n        delete unstakeRequests[unstakeRequests.length - 1];\n      } else {\n        index++;\n      }\n    }\n  }\n\n  function withdrawFromRequest(Request request)\n    private\n    returns (uint)\n  {\n    require(nodes[request.node].owner == msg.sender);\n    require((request.time + cooldown) < now);\n    token.transferFrom(this, msg.sender, request.amount);\n    request.amount = 0;\n  }\n\n  /**\n   * @dev Determines the amount of stake that can be withdrawn from a node\n   * @param owner - The owner address of the items to to check for availability\n   * @return The total XYO that may be withdrawn from this node\n   */\n  function availableToWithdraw(address owner)\n    public\n    view\n    returns (uint)\n  {\n    uint available = 0;\n    for (uint i = 0; i < unstakeRequests.length; i++) {\n      if (nodes[unstakeRequests[i].node].owner == owner) {\n        if ((unstakeRequests[i].time + cooldown) < now) {\n          available = available + unstakeRequests[i].amount;\n        }\n      }\n    }\n    return available;\n  }\n\n}\n",
  "sourcePath": "/Users/arietrouw/GitHub/dapp-scsc-solidity/contracts/XyoStaked.sol",
  "compiler": {
    "name": "solc",
    "version": "0.4.24+commit.e67f0147.Emscripten.clang"
  },
  "schemaVersion": "2.0.1",
  "updatedAt": "2018-08-28T21:16:08.287Z"
}