{
  "contractName": "XyoStakedConsensus",
  "abi": [
    {
      "constant": true,
      "inputs": [],
      "name": "getStakeRequestsLen",
      "outputs": [
        {
          "name": "",
          "type": "uint256"
        }
      ],
      "payable": false,
      "stateMutability": "view",
      "type": "function"
    },
    {
      "constant": false,
      "inputs": [
        {
          "name": "node",
          "type": "address"
        }
      ],
      "name": "add",
      "outputs": [],
      "payable": false,
      "stateMutability": "nonpayable",
      "type": "function"
    },
    {
      "constant": true,
      "inputs": [],
      "name": "tail",
      "outputs": [
        {
          "name": "",
          "type": "address"
        }
      ],
      "payable": false,
      "stateMutability": "view",
      "type": "function"
    },
    {
      "constant": true,
      "inputs": [
        {
          "name": "",
          "type": "address"
        }
      ],
      "name": "nodes",
      "outputs": [
        {
          "name": "owner",
          "type": "address"
        },
        {
          "name": "node",
          "type": "address"
        },
        {
          "name": "next",
          "type": "address"
        },
        {
          "name": "stake",
          "type": "uint256"
        }
      ],
      "payable": false,
      "stateMutability": "view",
      "type": "function"
    },
    {
      "constant": true,
      "inputs": [],
      "name": "length",
      "outputs": [
        {
          "name": "",
          "type": "uint256"
        }
      ],
      "payable": false,
      "stateMutability": "view",
      "type": "function"
    },
    {
      "constant": false,
      "inputs": [
        {
          "name": "node",
          "type": "address"
        }
      ],
      "name": "remove",
      "outputs": [],
      "payable": false,
      "stateMutability": "nonpayable",
      "type": "function"
    },
    {
      "constant": false,
      "inputs": [],
      "name": "withdraw",
      "outputs": [
        {
          "name": "",
          "type": "uint256"
        }
      ],
      "payable": false,
      "stateMutability": "nonpayable",
      "type": "function"
    },
    {
      "constant": false,
      "inputs": [],
      "name": "renounceOwnership",
      "outputs": [],
      "payable": false,
      "stateMutability": "nonpayable",
      "type": "function"
    },
    {
      "constant": true,
      "inputs": [],
      "name": "cooldown",
      "outputs": [
        {
          "name": "",
          "type": "uint256"
        }
      ],
      "payable": false,
      "stateMutability": "view",
      "type": "function"
    },
    {
      "constant": true,
      "inputs": [
        {
          "name": "",
          "type": "address"
        }
      ],
      "name": "nodeOwners",
      "outputs": [
        {
          "name": "",
          "type": "address"
        }
      ],
      "payable": false,
      "stateMutability": "view",
      "type": "function"
    },
    {
      "constant": true,
      "inputs": [],
      "name": "owner",
      "outputs": [
        {
          "name": "",
          "type": "address"
        }
      ],
      "payable": false,
      "stateMutability": "view",
      "type": "function"
    },
    {
      "constant": true,
      "inputs": [
        {
          "name": "",
          "type": "uint256"
        }
      ],
      "name": "challenges",
      "outputs": [
        {
          "name": "block",
          "type": "uint256"
        },
        {
          "name": "challenger",
          "type": "address"
        }
      ],
      "payable": false,
      "stateMutability": "view",
      "type": "function"
    },
    {
      "constant": true,
      "inputs": [],
      "name": "head",
      "outputs": [
        {
          "name": "",
          "type": "address"
        }
      ],
      "payable": false,
      "stateMutability": "view",
      "type": "function"
    },
    {
      "constant": true,
      "inputs": [
        {
          "name": "index",
          "type": "uint256"
        }
      ],
      "name": "get",
      "outputs": [
        {
          "name": "",
          "type": "address"
        }
      ],
      "payable": false,
      "stateMutability": "view",
      "type": "function"
    },
    {
      "constant": true,
      "inputs": [
        {
          "name": "owner",
          "type": "address"
        }
      ],
      "name": "availableToWithdraw",
      "outputs": [
        {
          "name": "",
          "type": "uint256"
        }
      ],
      "payable": false,
      "stateMutability": "view",
      "type": "function"
    },
    {
      "constant": false,
      "inputs": [
        {
          "name": "node",
          "type": "address"
        },
        {
          "name": "amount",
          "type": "uint256"
        }
      ],
      "name": "stake",
      "outputs": [],
      "payable": false,
      "stateMutability": "nonpayable",
      "type": "function"
    },
    {
      "constant": false,
      "inputs": [
        {
          "name": "node",
          "type": "address"
        },
        {
          "name": "amount",
          "type": "uint256"
        }
      ],
      "name": "unstake",
      "outputs": [],
      "payable": false,
      "stateMutability": "nonpayable",
      "type": "function"
    },
    {
      "constant": false,
      "inputs": [],
      "name": "process",
      "outputs": [
        {
          "name": "",
          "type": "uint256"
        }
      ],
      "payable": false,
      "stateMutability": "nonpayable",
      "type": "function"
    },
    {
      "constant": false,
      "inputs": [
        {
          "name": "node",
          "type": "address"
        },
        {
          "name": "v",
          "type": "uint8"
        },
        {
          "name": "r",
          "type": "bytes32"
        },
        {
          "name": "s",
          "type": "bytes32"
        }
      ],
      "name": "claim",
      "outputs": [],
      "payable": false,
      "stateMutability": "nonpayable",
      "type": "function"
    },
    {
      "constant": true,
      "inputs": [
        {
          "name": "",
          "type": "uint256"
        }
      ],
      "name": "stakeRequests",
      "outputs": [
        {
          "name": "node",
          "type": "address"
        },
        {
          "name": "amount",
          "type": "uint256"
        },
        {
          "name": "time",
          "type": "uint256"
        }
      ],
      "payable": false,
      "stateMutability": "view",
      "type": "function"
    },
    {
      "constant": true,
      "inputs": [
        {
          "name": "",
          "type": "uint256"
        }
      ],
      "name": "blocks",
      "outputs": [
        {
          "name": "previousBlock",
          "type": "uint256"
        },
        {
          "name": "ipfsHash",
          "type": "uint256"
        },
        {
          "name": "creator",
          "type": "address"
        }
      ],
      "payable": false,
      "stateMutability": "view",
      "type": "function"
    },
    {
      "constant": false,
      "inputs": [
        {
          "name": "_newOwner",
          "type": "address"
        }
      ],
      "name": "transferOwnership",
      "outputs": [],
      "payable": false,
      "stateMutability": "nonpayable",
      "type": "function"
    },
    {
      "constant": true,
      "inputs": [
        {
          "name": "",
          "type": "uint256"
        }
      ],
      "name": "unstakeRequests",
      "outputs": [
        {
          "name": "node",
          "type": "address"
        },
        {
          "name": "amount",
          "type": "uint256"
        },
        {
          "name": "time",
          "type": "uint256"
        }
      ],
      "payable": false,
      "stateMutability": "view",
      "type": "function"
    },
    {
      "constant": true,
      "inputs": [],
      "name": "getUnstakeRequestsLen",
      "outputs": [
        {
          "name": "",
          "type": "uint256"
        }
      ],
      "payable": false,
      "stateMutability": "view",
      "type": "function"
    },
    {
      "constant": true,
      "inputs": [],
      "name": "token",
      "outputs": [
        {
          "name": "",
          "type": "address"
        }
      ],
      "payable": false,
      "stateMutability": "view",
      "type": "function"
    },
    {
      "inputs": [
        {
          "name": "_token",
          "type": "address"
        },
        {
          "name": "_cooldown",
          "type": "uint256"
        },
        {
          "name": "_genesis",
          "type": "uint256"
        }
      ],
      "payable": false,
      "stateMutability": "nonpayable",
      "type": "constructor"
    },
    {
      "anonymous": false,
      "inputs": [
        {
          "indexed": false,
          "name": "owner",
          "type": "address"
        },
        {
          "indexed": false,
          "name": "node",
          "type": "address"
        }
      ],
      "name": "Claim",
      "type": "event"
    },
    {
      "anonymous": false,
      "inputs": [
        {
          "indexed": false,
          "name": "node",
          "type": "address"
        },
        {
          "indexed": false,
          "name": "amount",
          "type": "uint256"
        }
      ],
      "name": "Stake",
      "type": "event"
    },
    {
      "anonymous": false,
      "inputs": [
        {
          "indexed": true,
          "name": "previousOwner",
          "type": "address"
        }
      ],
      "name": "OwnershipRenounced",
      "type": "event"
    },
    {
      "anonymous": false,
      "inputs": [
        {
          "indexed": true,
          "name": "previousOwner",
          "type": "address"
        },
        {
          "indexed": true,
          "name": "newOwner",
          "type": "address"
        }
      ],
      "name": "OwnershipTransferred",
      "type": "event"
    },
    {
      "constant": false,
      "inputs": [
        {
          "name": "blockToChallenge",
          "type": "uint256"
        }
      ],
      "name": "challenge",
      "outputs": [],
      "payable": false,
      "stateMutability": "nonpayable",
      "type": "function"
    }
  ],
  "bytecode": "0x6080604052600060025534801561001557600080fd5b506040516060806115cf83398101604090815281516020830151919092015160008054600160a060020a0319908116331790915560078054600160a060020a0390951694909116939093179092556008556009819055600a556115528061007d6000396000f3006080604052600436106101535763ffffffff7c0100000000000000000000000000000000000000000000000000000000600035041663094ade8881146101585780630a3b0a4f1461017f57806313d8c840146101a2578063189a5a17146101d35780631f7b6d321461022957806329092d0e1461023e5780633ccfd60b1461025f578063715018a614610274578063787a08a61461028957806378a6b9681461029e5780638da5cb5b146102bf5780638f1d3776146102d45780638f7dcfa31461030d5780639507d39a14610322578063a25db8ce1461033a578063ab82d9a01461035b578063adc9772e14610373578063c2a672e014610397578063c33fb877146103bb578063cb70a937146103d0578063d0714ad5146103fd578063f25b3f991461043d578063f2fde38b1461047c578063f87975af1461049d578063fbccb991146104b5578063fc0c546a146104ca575b600080fd5b34801561016457600080fd5b5061016d6104df565b60408051918252519081900360200190f35b34801561018b57600080fd5b506101a0600160a060020a03600435166104e5565b005b3480156101ae57600080fd5b506101b76105bf565b60408051600160a060020a039092168252519081900360200190f35b3480156101df57600080fd5b506101f4600160a060020a036004351661061a565b60408051600160a060020a03958616815293851660208501529190931682820152606082019290925290519081900360800190f35b34801561023557600080fd5b5061016d610652565b34801561024a57600080fd5b506101a0600160a060020a0360043516610658565b34801561026b57600080fd5b5061016d6107a0565b34801561028057600080fd5b506101a06108aa565b34801561029557600080fd5b5061016d610916565b3480156102aa57600080fd5b506101b7600160a060020a036004351661091c565b3480156102cb57600080fd5b506101b7610937565b3480156102e057600080fd5b506102ec600435610946565b60408051928352600160a060020a0390911660208301528051918290030190f35b34801561031957600080fd5b506101b7610968565b34801561032e57600080fd5b506101b7600435610977565b34801561034657600080fd5b5061016d600160a060020a03600435166109ce565b34801561036757600080fd5b506101a0600435610a90565b34801561037f57600080fd5b506101a0600160a060020a0360043516602435610ae8565b3480156103a357600080fd5b506101a0600160a060020a0360043516602435610cba565b3480156103c757600080fd5b5061016d610deb565b3480156103dc57600080fd5b506101a0600160a060020a036004351660ff60243516604435606435610f5c565b34801561040957600080fd5b506104156004356110fe565b60408051600160a060020a039094168452602084019290925282820152519081900360600190f35b34801561044957600080fd5b50610455600435611139565b604080519384526020840192909252600160a060020a031682820152519081900360600190f35b34801561048857600080fd5b506101a0600160a060020a0360043516611163565b3480156104a957600080fd5b50610415600435611186565b3480156104c157600080fd5b5061016d611194565b3480156104d657600080fd5b506101b761119a565b60055490565b60006104ef6105bf565b9050600160a060020a038116151561052e576001805473ffffffffffffffffffffffffffffffffffffffff1916600160a060020a03841617905561056d565b600160a060020a038181166000908152600360205260409020600201805473ffffffffffffffffffffffffffffffffffffffff19169184169190911790555b50600160a060020a03166000818152600360205260409020805473ffffffffffffffffffffffffffffffffffffffff199081163317825560019182018054909116909217909155600280549091019055565b600154600090600160a060020a03165b600160a060020a03808216600090815260036020526040902060020154161561061557600160a060020a03908116600090815260036020526040902060020154166105cf565b919050565b60036020819052600091825260409091208054600182015460028301549290930154600160a060020a03918216938216929091169084565b60025481565b600154600090600160a060020a03838116911614156106b45760018054600160a060020a038082166000908152600360205260409020600201541673ffffffffffffffffffffffffffffffffffffffff1990911617905561079c565b50600154600160a060020a03165b600160a060020a0381161561079c57600160a060020a038181166000908152600360205260409020600201548116908316141561077957600160a060020a038181166000908152600360208190526040808320600290810180548087168652838620830154871673ffffffffffffffffffffffffffffffffffffffff19918216179091559487168452908320805485168155600181018054861690558082018054909516909455920155805460001901905561079c565b600160a060020a03908116600090815260036020526040902060020154166106c2565b5050565b600080805b60065481101561089c576000805460068054600160a060020a0390921692600392909190859081106107d357fe5b60009182526020808320600390920290910154600160a060020a039081168452908301939093526040909101902054161415610894574260085460068381548110151561081c57fe5b9060005260206000209060030201600201540110156108945761088f60068281548110151561084757fe5b60009182526020918290206040805160608101825260039093029091018054600160a060020a03168352600181015493830193909352600290920154918101919091526111a9565b820191505b6001016107a5565b6108a4611299565b50919050565b600054600160a060020a031633146108c157600080fd5b60008054604051600160a060020a03909116917ff8df31144d9c2f0f6b59d69b8b98abd5459d07f2742c4df920b25aae33c6482091a26000805473ffffffffffffffffffffffffffffffffffffffff19169055565b60085481565b600460205260009081526040902054600160a060020a031681565b600054600160a060020a031681565b600c6020526000908152604090208054600190910154600160a060020a031682565b600154600160a060020a031681565b6000806002548310151561098a57600080fd5b50600154600160a060020a03165b82156109c857600160a060020a039081166000908152600360205260409020600201546000199093019216610998565b92915050565b600080805b600654811015610a895783600160a060020a0316600360006006848154811015156109fa57fe5b60009182526020808320600390920290910154600160a060020a039081168452908301939093526040909101902054161415610a815742600854600683815481101515610a4357fe5b906000526020600020906003020160020154011015610a81576006805482908110610a6a57fe5b906000526020600020906003020160010154820191505b6001016109d3565b5092915050565b6040805180820182528281523360208083019182526000948552600c90529190922091518255516001909101805473ffffffffffffffffffffffffffffffffffffffff1916600160a060020a03909216919091179055565b600160a060020a03828116600090815260036020526040902054163314610b0e57600080fd5b600754604080517f23b872dd000000000000000000000000000000000000000000000000000000008152336004820152306024820152604481018490529051600160a060020a03909216916323b872dd916064808201926020929091908290030181600087803b158015610b8157600080fd5b505af1158015610b95573d6000803e3d6000fd5b505050506040513d6020811015610bab57600080fd5b505060408051606081018252600160a060020a038481168083526020808401868152428587019081526005805460018101825560009190915295517f036b6384b5eca791c62761152d0c79bb0604c104a5fb6f4eb0703f3154bb3db06003909702968701805473ffffffffffffffffffffffffffffffffffffffff19169190961617909455517f036b6384b5eca791c62761152d0c79bb0604c104a5fb6f4eb0703f3154bb3db185015591517f036b6384b5eca791c62761152d0c79bb0604c104a5fb6f4eb0703f3154bb3db2909301929092558251918252810183905281517febedb8b3c678666e7f36970bc8f57abf6d8fa2e828c0da91ea5b75bf68ed101a929181900390910190a15050565b600160a060020a03828116600090815260036020526040902054163314610ce057600080fd5b600160a060020a03821660009081526003602081905260409091200154811115610d0957600080fd5b600160a060020a03918216600081815260036020818152604080842083018054879003905580516060810182529485529084019485524290840190815260068054600181018255935292517ff652222313e28459528d920b65115c16c04f3efc82aaedc97be59f3f377c0d3f92909102918201805473ffffffffffffffffffffffffffffffffffffffff1916919095161790935590517ff652222313e28459528d920b65115c16c04f3efc82aaedc97be59f3f377c0d40830155517ff652222313e28459528d920b65115c16c04f3efc82aaedc97be59f3f377c0d4190910155565b600080805b600554811015610f54576000805460058054600160a060020a039092169260039290919085908110610e1e57fe5b60009182526020808320600390920290910154600160a060020a039081168452908301939093526040909101902054161415610f4c5742600854600583815481101515610e6757fe5b906000526020600020906003020160020154011015610f4c576005805482908110610e8e57fe5b90600052602060002090600302016001015460036000600584815481101515610eb357fe5b6000918252602080832060039283020154600160a060020a031684528301939093526040909101812082015460058054949091019385908110610ef257fe5b6000918252602080832060039283020154600160a060020a0316845283019390935260409091018120909101919091556005805483908110610f3057fe5b9060005260206000209060030201600101819055508160010191505b600101610df0565b6108a46113a1565b604080516c01000000000000000000000000338102602080840191909152600160a060020a0388169091026034830152825160288184030181526048909201928390528151600093849392909182918401908083835b60208310610fd15780518252601f199092019160209182019101610fb2565b51815160209384036101000a600019018019909216911617905260408051929094018290038220600080845283830180875282905260ff8d1684870152606084018c9052608084018b905294519098506001965060a080840196509194601f19820194509281900390910191865af1158015611051573d6000803e3d6000fd5b505060408051601f19810151338252600160a060020a038a16602083015282519094507f1836092b86c602f5dc00f47313b2873163879c06590285c6c58d63e208ac746693509081900390910190a1600160a060020a03818116908716146110b857600080fd5b600160a060020a0386166000908152600460205260409020805473ffffffffffffffffffffffffffffffffffffffff1916331790556110f6866104e5565b505050505050565b600580548290811061110c57fe5b6000918252602090912060039091020180546001820154600290920154600160a060020a03909116925083565b600b60205260009081526040902080546001820154600290920154909190600160a060020a031683565b600054600160a060020a0316331461117a57600080fd5b611183816114a9565b50565b600680548290811061110c57fe5b60065490565b600754600160a060020a031681565b8051600160a060020a0390811660009081526003602052604081205490911633146111d357600080fd5b6008546040830151429101106111e857600080fd5b600754602080840151604080517f23b872dd000000000000000000000000000000000000000000000000000000008152306004820152336024820152604481019290925251600160a060020a03909316926323b872dd926064808401939192918290030181600087803b15801561125e57600080fd5b505af1158015611272573d6000803e3d6000fd5b505050506040513d602081101561128857600080fd5b505060006020929092019190915290565b60005b6006548110156111835760068054829081106112b457fe5b90600052602060002090600302016001015460001415611398576006805460001981019081106112e057fe5b90600052602060002090600302016006828154811015156112fd57fe5b600091825260209091208254600390920201805473ffffffffffffffffffffffffffffffffffffffff1916600160a060020a039092169190911781556001808301549082015560029182015491015560068054600019810190811061135e57fe5b600091825260208220600390910201805473ffffffffffffffffffffffffffffffffffffffff19168155600181018290556002015561139c565b6001015b61129c565b60005b6005548110156111835760058054829081106113bc57fe5b906000526020600020906003020160010154600014156114a0576005805460001981019081106113e857fe5b906000526020600020906003020160058281548110151561140557fe5b600091825260209091208254600390920201805473ffffffffffffffffffffffffffffffffffffffff1916600160a060020a039092169190911781556001808301549082015560029182015491015560058054600019810190811061146657fe5b600091825260208220600390910201805473ffffffffffffffffffffffffffffffffffffffff1916815560018101829055600201556114a4565b6001015b6113a4565b600160a060020a03811615156114be57600080fd5b60008054604051600160a060020a03808516939216917f8be0079c531659141344cd1fd0a4f28419497f9722a3daafe3b4186f6b6457e091a36000805473ffffffffffffffffffffffffffffffffffffffff1916600160a060020a03929092169190911790555600a165627a7a72305820bab6cc8a0ac61ddee0d5f40a092f3e2d97d6c95dbbd10df64fde70e78a4e8f8a0029",
  "source": "pragma solidity ^0.4.24;\n\nimport \"./XyoStaked.sol\";\n\n/**\n * @title XyoStakedConsensus\n * @dev Manages the Stake for multiple clients in a decentralized consensus system\n */\ncontract XyoStakedConsensus is XyoStaked {\n\n  struct Block {\n    uint previousBlock;\n    uint ipfsHash;\n    address creator;\n  }\n\n  struct Challenge {\n    uint block;\n    address challenger;\n  }\n\n  uint genesis;\n  uint current;\n\n  mapping(uint => Block) public blocks; //The blocks in the chain\n  mapping(uint => Challenge) public challenges; //The blocks in the chain\n\n  /**\n  * @dev The constructor sets the rules for the system that can not be changed ever again.\n  * @param _token - The address of the ERC20 token to be used for staking\n  * @param _cooldown - The time delay before a stake is available for withdrawal ater a remove\n  * @param _genesis - The genesis block of the chain being staked\n  */\n  constructor(\n    address _token,\n    uint _cooldown,\n    uint _genesis\n  )\n    public\n    XyoStaked(_token, _cooldown)\n  {\n    genesis = _genesis;\n    current = _genesis;\n  }\n\n  function challenge(\n    uint blockToChallenge\n  )\n    public\n  {\n    challenges[blockToChallenge] = Challenge(blockToChallenge, msg.sender);\n  }\n\n}\n",
  "sourcePath": "/Users/arietrouw/GitHub/dapp-scsc-solidity/contracts/XyoStakedConsensus.sol",
  "compiler": {
    "name": "solc",
    "version": "0.4.24+commit.e67f0147.Emscripten.clang"
  },
  "schemaVersion": "2.0.1",
  "updatedAt": "2018-09-29T21:22:21.333Z"
}