{
  "contractName": "XyoStaked",
  "abi": [
    {
      "constant": false,
      "inputs": [
        {
          "name": "node",
          "type": "address"
        }
      ],
      "name": "add",
      "outputs": [],
      "payable": false,
      "stateMutability": "nonpayable",
      "type": "function"
    },
    {
      "constant": true,
      "inputs": [],
      "name": "tail",
      "outputs": [
        {
          "name": "",
          "type": "address"
        }
      ],
      "payable": false,
      "stateMutability": "view",
      "type": "function"
    },
    {
      "constant": true,
      "inputs": [
        {
          "name": "",
          "type": "address"
        }
      ],
      "name": "nodes",
      "outputs": [
        {
          "name": "owner",
          "type": "address"
        },
        {
          "name": "node",
          "type": "address"
        },
        {
          "name": "next",
          "type": "address"
        },
        {
          "name": "stake",
          "type": "uint256"
        }
      ],
      "payable": false,
      "stateMutability": "view",
      "type": "function"
    },
    {
      "constant": true,
      "inputs": [],
      "name": "length",
      "outputs": [
        {
          "name": "",
          "type": "uint256"
        }
      ],
      "payable": false,
      "stateMutability": "view",
      "type": "function"
    },
    {
      "constant": false,
      "inputs": [
        {
          "name": "node",
          "type": "address"
        }
      ],
      "name": "remove",
      "outputs": [],
      "payable": false,
      "stateMutability": "nonpayable",
      "type": "function"
    },
    {
      "constant": false,
      "inputs": [],
      "name": "renounceOwnership",
      "outputs": [],
      "payable": false,
      "stateMutability": "nonpayable",
      "type": "function"
    },
    {
      "constant": true,
      "inputs": [],
      "name": "cooldown",
      "outputs": [
        {
          "name": "",
          "type": "uint256"
        }
      ],
      "payable": false,
      "stateMutability": "view",
      "type": "function"
    },
    {
      "constant": true,
      "inputs": [
        {
          "name": "",
          "type": "address"
        }
      ],
      "name": "nodeOwners",
      "outputs": [
        {
          "name": "",
          "type": "address"
        }
      ],
      "payable": false,
      "stateMutability": "view",
      "type": "function"
    },
    {
      "constant": true,
      "inputs": [],
      "name": "owner",
      "outputs": [
        {
          "name": "",
          "type": "address"
        }
      ],
      "payable": false,
      "stateMutability": "view",
      "type": "function"
    },
    {
      "constant": true,
      "inputs": [],
      "name": "head",
      "outputs": [
        {
          "name": "",
          "type": "address"
        }
      ],
      "payable": false,
      "stateMutability": "view",
      "type": "function"
    },
    {
      "constant": true,
      "inputs": [
        {
          "name": "index",
          "type": "uint256"
        }
      ],
      "name": "get",
      "outputs": [
        {
          "name": "",
          "type": "address"
        }
      ],
      "payable": false,
      "stateMutability": "view",
      "type": "function"
    },
    {
      "constant": true,
      "inputs": [
        {
          "name": "",
          "type": "uint256"
        }
      ],
      "name": "stakeRequests",
      "outputs": [
        {
          "name": "node",
          "type": "address"
        },
        {
          "name": "amount",
          "type": "uint256"
        },
        {
          "name": "time",
          "type": "uint256"
        }
      ],
      "payable": false,
      "stateMutability": "view",
      "type": "function"
    },
    {
      "constant": false,
      "inputs": [
        {
          "name": "_newOwner",
          "type": "address"
        }
      ],
      "name": "transferOwnership",
      "outputs": [],
      "payable": false,
      "stateMutability": "nonpayable",
      "type": "function"
    },
    {
      "constant": true,
      "inputs": [
        {
          "name": "",
          "type": "uint256"
        }
      ],
      "name": "unstakeRequests",
      "outputs": [
        {
          "name": "node",
          "type": "address"
        },
        {
          "name": "amount",
          "type": "uint256"
        },
        {
          "name": "time",
          "type": "uint256"
        }
      ],
      "payable": false,
      "stateMutability": "view",
      "type": "function"
    },
    {
      "constant": true,
      "inputs": [],
      "name": "token",
      "outputs": [
        {
          "name": "",
          "type": "address"
        }
      ],
      "payable": false,
      "stateMutability": "view",
      "type": "function"
    },
    {
      "inputs": [
        {
          "name": "_token",
          "type": "address"
        },
        {
          "name": "_cooldown",
          "type": "uint256"
        }
      ],
      "payable": false,
      "stateMutability": "nonpayable",
      "type": "constructor"
    },
    {
      "anonymous": false,
      "inputs": [
        {
          "indexed": false,
          "name": "owner",
          "type": "address"
        },
        {
          "indexed": false,
          "name": "node",
          "type": "address"
        }
      ],
      "name": "Claim",
      "type": "event"
    },
    {
      "anonymous": false,
      "inputs": [
        {
          "indexed": false,
          "name": "node",
          "type": "address"
        },
        {
          "indexed": false,
          "name": "amount",
          "type": "uint256"
        }
      ],
      "name": "Stake",
      "type": "event"
    },
    {
      "anonymous": false,
      "inputs": [
        {
          "indexed": true,
          "name": "previousOwner",
          "type": "address"
        }
      ],
      "name": "OwnershipRenounced",
      "type": "event"
    },
    {
      "anonymous": false,
      "inputs": [
        {
          "indexed": true,
          "name": "previousOwner",
          "type": "address"
        },
        {
          "indexed": true,
          "name": "newOwner",
          "type": "address"
        }
      ],
      "name": "OwnershipTransferred",
      "type": "event"
    },
    {
      "constant": true,
      "inputs": [],
      "name": "getStakeRequestsLen",
      "outputs": [
        {
          "name": "",
          "type": "uint256"
        }
      ],
      "payable": false,
      "stateMutability": "view",
      "type": "function"
    },
    {
      "constant": true,
      "inputs": [],
      "name": "getUnstakeRequestsLen",
      "outputs": [
        {
          "name": "",
          "type": "uint256"
        }
      ],
      "payable": false,
      "stateMutability": "view",
      "type": "function"
    },
    {
      "constant": false,
      "inputs": [
        {
          "name": "node",
          "type": "address"
        },
        {
          "name": "v",
          "type": "uint8"
        },
        {
          "name": "r",
          "type": "bytes32"
        },
        {
          "name": "s",
          "type": "bytes32"
        }
      ],
      "name": "claim",
      "outputs": [],
      "payable": false,
      "stateMutability": "nonpayable",
      "type": "function"
    },
    {
      "constant": false,
      "inputs": [
        {
          "name": "node",
          "type": "address"
        },
        {
          "name": "amount",
          "type": "uint256"
        }
      ],
      "name": "stake",
      "outputs": [],
      "payable": false,
      "stateMutability": "nonpayable",
      "type": "function"
    },
    {
      "constant": false,
      "inputs": [
        {
          "name": "node",
          "type": "address"
        },
        {
          "name": "amount",
          "type": "uint256"
        }
      ],
      "name": "unstake",
      "outputs": [],
      "payable": false,
      "stateMutability": "nonpayable",
      "type": "function"
    },
    {
      "constant": false,
      "inputs": [],
      "name": "process",
      "outputs": [
        {
          "name": "",
          "type": "uint256"
        }
      ],
      "payable": false,
      "stateMutability": "nonpayable",
      "type": "function"
    },
    {
      "constant": false,
      "inputs": [],
      "name": "withdraw",
      "outputs": [
        {
          "name": "",
          "type": "uint256"
        }
      ],
      "payable": false,
      "stateMutability": "nonpayable",
      "type": "function"
    },
    {
      "constant": true,
      "inputs": [
        {
          "name": "owner",
          "type": "address"
        }
      ],
      "name": "availableToWithdraw",
      "outputs": [
        {
          "name": "",
          "type": "uint256"
        }
      ],
      "payable": false,
      "stateMutability": "view",
      "type": "function"
    }
  ],
  "bytecode": "0x6080604052600060025534801561001557600080fd5b5060405160408061144c83398101604052805160209091015160008054600160a060020a0319908116331790915560078054600160a060020a0390941693909116929092179091556008556113dd8061006f6000396000f3006080604052600436106101325763ffffffff7c0100000000000000000000000000000000000000000000000000000000600035041663094ade8881146101375780630a3b0a4f1461015e57806313d8c84014610181578063189a5a17146101b25780631f7b6d321461020857806329092d0e1461021d5780633ccfd60b1461023e578063715018a614610253578063787a08a61461026857806378a6b9681461027d5780638da5cb5b1461029e5780638f7dcfa3146102b35780639507d39a146102c8578063a25db8ce146102e0578063adc9772e14610301578063c2a672e014610325578063c33fb87714610349578063cb70a9371461035e578063d0714ad51461038b578063f2fde38b146103cb578063f87975af146103ec578063fbccb99114610404578063fc0c546a14610419575b600080fd5b34801561014357600080fd5b5061014c61042e565b60408051918252519081900360200190f35b34801561016a57600080fd5b5061017f600160a060020a0360043516610434565b005b34801561018d57600080fd5b5061019661050e565b60408051600160a060020a039092168252519081900360200190f35b3480156101be57600080fd5b506101d3600160a060020a0360043516610569565b60408051600160a060020a03958616815293851660208501529190931682820152606082019290925290519081900360800190f35b34801561021457600080fd5b5061014c6105a1565b34801561022957600080fd5b5061017f600160a060020a03600435166105a7565b34801561024a57600080fd5b5061014c6106ef565b34801561025f57600080fd5b5061017f6107f9565b34801561027457600080fd5b5061014c610865565b34801561028957600080fd5b50610196600160a060020a036004351661086b565b3480156102aa57600080fd5b50610196610886565b3480156102bf57600080fd5b50610196610895565b3480156102d457600080fd5b506101966004356108a4565b3480156102ec57600080fd5b5061014c600160a060020a0360043516610901565b34801561030d57600080fd5b5061017f600160a060020a03600435166024356109c3565b34801561033157600080fd5b5061017f600160a060020a0360043516602435610b6f565b34801561035557600080fd5b5061014c610ca0565b34801561036a57600080fd5b5061017f600160a060020a036004351660ff60243516604435606435610e11565b34801561039757600080fd5b506103a3600435610fb3565b60408051600160a060020a039094168452602084019290925282820152519081900360600190f35b3480156103d757600080fd5b5061017f600160a060020a0360043516610fee565b3480156103f857600080fd5b506103a3600435611011565b34801561041057600080fd5b5061014c61101f565b34801561042557600080fd5b50610196611025565b60055490565b600061043e61050e565b9050600160a060020a038116151561047d576001805473ffffffffffffffffffffffffffffffffffffffff1916600160a060020a0384161790556104bc565b600160a060020a038181166000908152600360205260409020600201805473ffffffffffffffffffffffffffffffffffffffff19169184169190911790555b50600160a060020a03166000818152600360205260409020805473ffffffffffffffffffffffffffffffffffffffff199081163317825560019182018054909116909217909155600280549091019055565b600154600090600160a060020a03165b600160a060020a03808216600090815260036020526040902060020154161561056457600160a060020a039081166000908152600360205260409020600201541661051e565b919050565b60036020819052600091825260409091208054600182015460028301549290930154600160a060020a03918216938216929091169084565b60025481565b600154600090600160a060020a03838116911614156106035760018054600160a060020a038082166000908152600360205260409020600201541673ffffffffffffffffffffffffffffffffffffffff199091161790556106eb565b50600154600160a060020a03165b600160a060020a038116156106eb57600160a060020a03818116600090815260036020526040902060020154811690831614156106c857600160a060020a038181166000908152600360208190526040808320600290810180548087168652838620830154871673ffffffffffffffffffffffffffffffffffffffff1991821617909155948716845290832080548516815560018101805486169055808201805490951690945592015580546000190190556106eb565b600160a060020a0390811660009081526003602052604090206002015416610611565b5050565b600080805b6006548110156107eb576000805460068054600160a060020a03909216926003929091908590811061072257fe5b60009182526020808320600390920290910154600160a060020a0390811684529083019390935260409091019020541614156107e3574260085460068381548110151561076b57fe5b9060005260206000209060030201600201540110156107e3576107de60068281548110151561079657fe5b60009182526020918290206040805160608101825260039093029091018054600160a060020a0316835260018101549383019390935260029092015491810191909152611034565b820191505b6001016106f4565b6107f3611124565b50919050565b600054600160a060020a0316331461081057600080fd5b60008054604051600160a060020a03909116917ff8df31144d9c2f0f6b59d69b8b98abd5459d07f2742c4df920b25aae33c6482091a26000805473ffffffffffffffffffffffffffffffffffffffff19169055565b60085481565b600460205260009081526040902054600160a060020a031681565b600054600160a060020a031681565b600154600160a060020a031681565b6000806000600254841015156108b957600080fd5b50506001548290600160a060020a03165b81156108fa57600160a060020a0390811660009081526003602052604090206002015460001990920191166108ca565b9392505050565b600080805b6006548110156109bc5783600160a060020a03166003600060068481548110151561092d57fe5b60009182526020808320600390920290910154600160a060020a0390811684529083019390935260409091019020541614156109b4574260085460068381548110151561097657fe5b9060005260206000209060030201600201540110156109b457600680548290811061099d57fe5b906000526020600020906003020160010154820191505b600101610906565b5092915050565b600754604080517f23b872dd000000000000000000000000000000000000000000000000000000008152336004820152306024820152604481018490529051600160a060020a03909216916323b872dd916064808201926020929091908290030181600087803b158015610a3657600080fd5b505af1158015610a4a573d6000803e3d6000fd5b505050506040513d6020811015610a6057600080fd5b505060408051606081018252600160a060020a038481168083526020808401868152428587019081526005805460018101825560009190915295517f036b6384b5eca791c62761152d0c79bb0604c104a5fb6f4eb0703f3154bb3db06003909702968701805473ffffffffffffffffffffffffffffffffffffffff19169190961617909455517f036b6384b5eca791c62761152d0c79bb0604c104a5fb6f4eb0703f3154bb3db185015591517f036b6384b5eca791c62761152d0c79bb0604c104a5fb6f4eb0703f3154bb3db2909301929092558251918252810183905281517febedb8b3c678666e7f36970bc8f57abf6d8fa2e828c0da91ea5b75bf68ed101a929181900390910190a15050565b600160a060020a03828116600090815260036020526040902054163314610b9557600080fd5b600160a060020a03821660009081526003602081905260409091200154811115610bbe57600080fd5b600160a060020a03918216600081815260036020818152604080842083018054879003905580516060810182529485529084019485524290840190815260068054600181018255935292517ff652222313e28459528d920b65115c16c04f3efc82aaedc97be59f3f377c0d3f92909102918201805473ffffffffffffffffffffffffffffffffffffffff1916919095161790935590517ff652222313e28459528d920b65115c16c04f3efc82aaedc97be59f3f377c0d40830155517ff652222313e28459528d920b65115c16c04f3efc82aaedc97be59f3f377c0d4190910155565b600080805b600554811015610e09576000805460058054600160a060020a039092169260039290919085908110610cd357fe5b60009182526020808320600390920290910154600160a060020a039081168452908301939093526040909101902054161415610e015742600854600583815481101515610d1c57fe5b906000526020600020906003020160020154011015610e01576005805482908110610d4357fe5b90600052602060002090600302016001015460036000600584815481101515610d6857fe5b6000918252602080832060039283020154600160a060020a031684528301939093526040909101812082015460058054949091019385908110610da757fe5b6000918252602080832060039283020154600160a060020a0316845283019390935260409091018120909101919091556005805483908110610de557fe5b9060005260206000209060030201600101819055508160010191505b600101610ca5565b6107f361122c565b604080516c01000000000000000000000000338102602080840191909152600160a060020a0388169091026034830152825160288184030181526048909201928390528151600093849392909182918401908083835b60208310610e865780518252601f199092019160209182019101610e67565b51815160209384036101000a600019018019909216911617905260408051929094018290038220600080845283830180875282905260ff8d1684870152606084018c9052608084018b905294519098506001965060a080840196509194601f19820194509281900390910191865af1158015610f06573d6000803e3d6000fd5b505060408051601f19810151338252600160a060020a038a16602083015282519094507f1836092b86c602f5dc00f47313b2873163879c06590285c6c58d63e208ac746693509081900390910190a1600160a060020a0381811690871614610f6d57600080fd5b600160a060020a0386166000908152600460205260409020805473ffffffffffffffffffffffffffffffffffffffff191633179055610fab86610434565b505050505050565b6005805482908110610fc157fe5b6000918252602090912060039091020180546001820154600290920154600160a060020a03909116925083565b600054600160a060020a0316331461100557600080fd5b61100e81611334565b50565b6006805482908110610fc157fe5b60065490565b600754600160a060020a031681565b8051600160a060020a03908116600090815260036020526040812054909116331461105e57600080fd5b60085460408301514291011061107357600080fd5b600754602080840151604080517f23b872dd000000000000000000000000000000000000000000000000000000008152306004820152336024820152604481019290925251600160a060020a03909316926323b872dd926064808401939192918290030181600087803b1580156110e957600080fd5b505af11580156110fd573d6000803e3d6000fd5b505050506040513d602081101561111357600080fd5b505060006020929092019190915290565b60005b60065481101561100e57600680548290811061113f57fe5b906000526020600020906003020160010154600014156112235760068054600019810190811061116b57fe5b906000526020600020906003020160068281548110151561118857fe5b600091825260209091208254600390920201805473ffffffffffffffffffffffffffffffffffffffff1916600160a060020a03909216919091178155600180830154908201556002918201549101556006805460001981019081106111e957fe5b600091825260208220600390910201805473ffffffffffffffffffffffffffffffffffffffff191681556001810182905560020155611227565b6001015b611127565b60005b60055481101561100e57600580548290811061124757fe5b9060005260206000209060030201600101546000141561132b5760058054600019810190811061127357fe5b906000526020600020906003020160058281548110151561129057fe5b600091825260209091208254600390920201805473ffffffffffffffffffffffffffffffffffffffff1916600160a060020a03909216919091178155600180830154908201556002918201549101556005805460001981019081106112f157fe5b600091825260208220600390910201805473ffffffffffffffffffffffffffffffffffffffff19168155600181018290556002015561132f565b6001015b61122f565b600160a060020a038116151561134957600080fd5b60008054604051600160a060020a03808516939216917f8be0079c531659141344cd1fd0a4f28419497f9722a3daafe3b4186f6b6457e091a36000805473ffffffffffffffffffffffffffffffffffffffff1916600160a060020a03929092169190911790555600a165627a7a723058205141221ae5066f05bda7ba4142a63677f6edb19fd228f8e88a8b22427de737590029",
  "source": "pragma solidity ^0.4.24;\n\nimport \"./Ownable.sol\";\nimport \"./ERC20.sol\";\n\nimport \"./XyoNodeMapping.sol\";\n\n/**\n * @title XyoStakedConsensus\n * @dev Manages the Stake for multiple clients in a decentralized consensus system\n */\n\ncontract XyoStaked is Ownable, XyoNodeMapping {\n\n    struct Request {\n        address node;\n        uint amount;\n        uint time;\n    }\n\n    event Claim (\n        address owner,\n        address node\n    );\n\n    event Stake (\n        address node,\n        uint amount\n    );\n\n    mapping(address => address) public nodeOwners; //Lists the owners of the nodes\n\n    Request[] public stakeRequests; //List of Stake Requests\n\n    function getStakeRequestsLen() public view returns(uint) {\n        return stakeRequests.length;\n    }\n\n    Request[] public unstakeRequests; //List of Unstake Requests\n\n    function getUnstakeRequestsLen() public view returns(uint) {\n        return unstakeRequests.length;\n    }\n\n    ERC20 public token; //address of the ERC20 token used for staking\n    uint public cooldown; //the amount of time required for withdrawn stake to be available to be withdrawn\n\n    /**\n    * @dev The constructor sets the rules for the system that can not be changed ever again.\n    * @param _token - The address of the ERC20 token to be used for staking\n    * @param _cooldown - The time delay before a stake is available for withdrawal ater a remove\n    */\n\n    constructor(\n        address _token,\n        uint _cooldown)\n        public\n    {\n        token = ERC20(_token);\n        cooldown = _cooldown;\n    }\n\n    /**\n    * @dev Claim a Node to an Owner. Requires a signed datagram from the node containing the owner address\n    * @param node - The node's address.  The signature should be of this address concated with the owner's address sha256 hashed\n    * @param v - The v component of the signature\n    * @param r - The r component of the signature\n    * @param s - The s component of the signature\n    */\n    function claim(\n        address node,\n        uint8 v,\n        bytes32 r,\n        bytes32 s\n    )\n        public\n    {\n        bytes32 hashValue = keccak256(abi.encodePacked(msg.sender, node));\n\n        address realAddress = ecrecover(hashValue, v, r, s);\n        emit Claim(msg.sender, node);\n        require (realAddress == node);\n        nodeOwners[node] = msg.sender;\n        add(node);\n    }\n\n    /**\n    * @dev Adds Stake to a specific Node in the system\n    * @param node - The node on the XYO network that the stake is for\n    * @param amount - The amount of XYO being added to the stake\n    * @return The total XYO staked for this node\n    */\n    function stake(\n        address node,\n        uint amount\n    )\n        public\n    {\n        //require(nodes[node].owner == msg.sender);\n\n        //we assume that the caller gave this contract permission to transfer tokens before this call\n        token.transferFrom(msg.sender, this, amount);\n        stakeRequests.push(Request(node, amount, now));\n        emit Stake(node, amount);\n    }\n\n    /**\n    * @dev Removes Stake from a specific Node in the system\n    * @dev This Stake is not available to be withdrawn until cooldown time has expired\n    * @param node - The node on the XYO network that the stake is for\n    * @param amount - The amount of XYO being added to the stake\n    * @return The total XYO staked for this node\n    */\n    function unstake(\n        address node,\n        uint amount\n    )\n        public\n    {\n        require(nodes[node].owner == msg.sender);\n        require(nodes[node].stake >= amount);\n        nodes[node].stake = nodes[node].stake - amount;\n        unstakeRequests.push(Request(node, amount, now));\n    }\n\n    function process(\n    )\n        public\n        returns (uint)\n    {\n        uint count = 0;\n        for (uint i = 0; i < stakeRequests.length; i++) {\n            if (nodes[stakeRequests[i].node].owner == owner) {\n                if ((stakeRequests[i].time + cooldown) < now) {\n                    nodes[stakeRequests[i].node].stake = nodes[stakeRequests[i].node].stake + stakeRequests[i].amount;\n                    stakeRequests[i].amount = 0;\n                    count = count + 1;\n                }\n            }\n        }\n        purgeEmptyStakeRequests();\n        return count;\n    }\n\n    /**\n    * @dev Withdraws Stake\n    * @return The total XYO that may be withdrawn from this node after this transaction\n    */\n    function withdraw(\n    )\n        public\n        returns (uint)\n    {\n        uint total = 0;\n        for (uint i = 0; i < unstakeRequests.length; i++) {\n            if (nodes[unstakeRequests[i].node].owner == owner) {\n                if ((unstakeRequests[i].time + cooldown) < now) {\n                    total = total + withdrawFromRequest(unstakeRequests[i]);\n                }\n            }\n        }\n        purgeEmptyUnstakeRequests();\n        return total;\n    }\n\n    function purgeEmptyStakeRequests(\n    )\n        private\n    {\n        uint index = 0;\n        while (index < stakeRequests.length) {\n            if (stakeRequests[index].amount == 0) {\n                stakeRequests[index] = stakeRequests[stakeRequests.length - 1];\n                delete stakeRequests[stakeRequests.length - 1];\n            } else {\n                index++;\n            }\n        }\n    }\n\n    function purgeEmptyUnstakeRequests(\n    )\n        private\n    {\n        uint index = 0;\n        while (index < unstakeRequests.length) {\n            if (unstakeRequests[index].amount == 0) {\n                unstakeRequests[index] = unstakeRequests[unstakeRequests.length - 1];\n                delete unstakeRequests[unstakeRequests.length - 1];\n            } else {\n                index++;\n            }\n        }\n    }\n\n    function withdrawFromRequest(\n        Request request\n    )\n        private\n        returns (uint)\n    {\n        require(nodes[request.node].owner == msg.sender);\n        require((request.time + cooldown) < now);\n        token.transferFrom(this, msg.sender, request.amount);\n        request.amount = 0;\n    }\n\n    /**\n    * @dev Determines the amount of stake that can be withdrawn from a node\n    * @param owner - The owner address of the items to to check for availability\n    * @return The total XYO that may be withdrawn from this node\n    */\n    function availableToWithdraw(address owner)\n        public\n        view\n        returns (uint)\n    {\n        uint available = 0;\n        for (uint i = 0; i < unstakeRequests.length; i++) {\n            if (nodes[unstakeRequests[i].node].owner == owner) {\n                if ((unstakeRequests[i].time + cooldown) < now) {\n                    available = available + unstakeRequests[i].amount;\n                }\n            }\n        }\n        return available;\n    }\n\n}\n",
  "sourcePath": "/Users/arietrouw/GitHub/dapp-scsc-solidity/contracts/XyoStaked.sol",
  "compiler": {
    "name": "solc",
    "version": "0.4.24+commit.e67f0147.Emscripten.clang"
  },
  "schemaVersion": "2.0.1",
  "updatedAt": "2018-11-21T16:18:06.743Z"
}