{
  "contractName": "XyoStakedConsensus",
  "abi": [
    {
      "constant": false,
      "inputs": [
        {
          "name": "node",
          "type": "address"
        }
      ],
      "name": "add",
      "outputs": [],
      "payable": false,
      "stateMutability": "nonpayable",
      "type": "function"
    },
    {
      "constant": true,
      "inputs": [],
      "name": "tail",
      "outputs": [
        {
          "name": "",
          "type": "address"
        }
      ],
      "payable": false,
      "stateMutability": "view",
      "type": "function"
    },
    {
      "constant": true,
      "inputs": [
        {
          "name": "",
          "type": "address"
        }
      ],
      "name": "nodes",
      "outputs": [
        {
          "name": "owner",
          "type": "address"
        },
        {
          "name": "node",
          "type": "address"
        },
        {
          "name": "next",
          "type": "address"
        },
        {
          "name": "stake",
          "type": "uint256"
        }
      ],
      "payable": false,
      "stateMutability": "view",
      "type": "function"
    },
    {
      "constant": true,
      "inputs": [],
      "name": "length",
      "outputs": [
        {
          "name": "",
          "type": "uint256"
        }
      ],
      "payable": false,
      "stateMutability": "view",
      "type": "function"
    },
    {
      "constant": false,
      "inputs": [
        {
          "name": "node",
          "type": "address"
        }
      ],
      "name": "remove",
      "outputs": [],
      "payable": false,
      "stateMutability": "nonpayable",
      "type": "function"
    },
    {
      "constant": false,
      "inputs": [],
      "name": "withdraw",
      "outputs": [
        {
          "name": "",
          "type": "uint256"
        }
      ],
      "payable": false,
      "stateMutability": "nonpayable",
      "type": "function"
    },
    {
      "constant": false,
      "inputs": [],
      "name": "renounceOwnership",
      "outputs": [],
      "payable": false,
      "stateMutability": "nonpayable",
      "type": "function"
    },
    {
      "constant": true,
      "inputs": [],
      "name": "cooldown",
      "outputs": [
        {
          "name": "",
          "type": "uint256"
        }
      ],
      "payable": false,
      "stateMutability": "view",
      "type": "function"
    },
    {
      "constant": true,
      "inputs": [
        {
          "name": "",
          "type": "address"
        }
      ],
      "name": "nodeOwners",
      "outputs": [
        {
          "name": "",
          "type": "address"
        }
      ],
      "payable": false,
      "stateMutability": "view",
      "type": "function"
    },
    {
      "constant": true,
      "inputs": [],
      "name": "owner",
      "outputs": [
        {
          "name": "",
          "type": "address"
        }
      ],
      "payable": false,
      "stateMutability": "view",
      "type": "function"
    },
    {
      "constant": true,
      "inputs": [
        {
          "name": "",
          "type": "uint256"
        }
      ],
      "name": "challenges",
      "outputs": [
        {
          "name": "block",
          "type": "uint256"
        },
        {
          "name": "challenger",
          "type": "address"
        }
      ],
      "payable": false,
      "stateMutability": "view",
      "type": "function"
    },
    {
      "constant": true,
      "inputs": [],
      "name": "head",
      "outputs": [
        {
          "name": "",
          "type": "address"
        }
      ],
      "payable": false,
      "stateMutability": "view",
      "type": "function"
    },
    {
      "constant": true,
      "inputs": [
        {
          "name": "index",
          "type": "uint256"
        }
      ],
      "name": "get",
      "outputs": [
        {
          "name": "",
          "type": "address"
        }
      ],
      "payable": false,
      "stateMutability": "view",
      "type": "function"
    },
    {
      "constant": true,
      "inputs": [
        {
          "name": "owner",
          "type": "address"
        }
      ],
      "name": "availableToWithdraw",
      "outputs": [
        {
          "name": "",
          "type": "uint256"
        }
      ],
      "payable": false,
      "stateMutability": "view",
      "type": "function"
    },
    {
      "constant": false,
      "inputs": [
        {
          "name": "node",
          "type": "address"
        },
        {
          "name": "amount",
          "type": "uint256"
        }
      ],
      "name": "stake",
      "outputs": [],
      "payable": false,
      "stateMutability": "nonpayable",
      "type": "function"
    },
    {
      "constant": false,
      "inputs": [
        {
          "name": "node",
          "type": "address"
        },
        {
          "name": "amount",
          "type": "uint256"
        }
      ],
      "name": "unstake",
      "outputs": [],
      "payable": false,
      "stateMutability": "nonpayable",
      "type": "function"
    },
    {
      "constant": false,
      "inputs": [
        {
          "name": "node",
          "type": "address"
        },
        {
          "name": "v",
          "type": "uint8"
        },
        {
          "name": "r",
          "type": "bytes32"
        },
        {
          "name": "s",
          "type": "bytes32"
        }
      ],
      "name": "claim",
      "outputs": [],
      "payable": false,
      "stateMutability": "nonpayable",
      "type": "function"
    },
    {
      "constant": true,
      "inputs": [
        {
          "name": "",
          "type": "uint256"
        }
      ],
      "name": "stakeRequests",
      "outputs": [
        {
          "name": "node",
          "type": "address"
        },
        {
          "name": "amount",
          "type": "uint256"
        },
        {
          "name": "time",
          "type": "uint256"
        }
      ],
      "payable": false,
      "stateMutability": "view",
      "type": "function"
    },
    {
      "constant": true,
      "inputs": [
        {
          "name": "",
          "type": "uint256"
        }
      ],
      "name": "blocks",
      "outputs": [
        {
          "name": "previousBlock",
          "type": "uint256"
        },
        {
          "name": "creator",
          "type": "address"
        }
      ],
      "payable": false,
      "stateMutability": "view",
      "type": "function"
    },
    {
      "constant": false,
      "inputs": [
        {
          "name": "_newOwner",
          "type": "address"
        }
      ],
      "name": "transferOwnership",
      "outputs": [],
      "payable": false,
      "stateMutability": "nonpayable",
      "type": "function"
    },
    {
      "constant": true,
      "inputs": [
        {
          "name": "",
          "type": "uint256"
        }
      ],
      "name": "unstakeRequests",
      "outputs": [
        {
          "name": "node",
          "type": "address"
        },
        {
          "name": "amount",
          "type": "uint256"
        },
        {
          "name": "time",
          "type": "uint256"
        }
      ],
      "payable": false,
      "stateMutability": "view",
      "type": "function"
    },
    {
      "constant": true,
      "inputs": [],
      "name": "token",
      "outputs": [
        {
          "name": "",
          "type": "address"
        }
      ],
      "payable": false,
      "stateMutability": "view",
      "type": "function"
    },
    {
      "inputs": [
        {
          "name": "_token",
          "type": "address"
        },
        {
          "name": "_cooldown",
          "type": "uint256"
        },
        {
          "name": "_genesis",
          "type": "uint256"
        }
      ],
      "payable": false,
      "stateMutability": "nonpayable",
      "type": "constructor"
    },
    {
      "anonymous": false,
      "inputs": [
        {
          "indexed": true,
          "name": "previousOwner",
          "type": "address"
        }
      ],
      "name": "OwnershipRenounced",
      "type": "event"
    },
    {
      "anonymous": false,
      "inputs": [
        {
          "indexed": true,
          "name": "previousOwner",
          "type": "address"
        },
        {
          "indexed": true,
          "name": "newOwner",
          "type": "address"
        }
      ],
      "name": "OwnershipTransferred",
      "type": "event"
    },
    {
      "constant": false,
      "inputs": [
        {
          "name": "blockToChallenge",
          "type": "uint256"
        }
      ],
      "name": "challenge",
      "outputs": [],
      "payable": false,
      "stateMutability": "nonpayable",
      "type": "function"
    }
  ],
  "bytecode": "0x6080604052600060025534801561001557600080fd5b5060405160608061122983398101604090815281516020830151919092015160008054600160a060020a0319908116331790915560078054600160a060020a0390951694909116939093179092556008556009819055600a556111ac8061007d6000396000f3006080604052600436106101325763ffffffff7c01000000000000000000000000000000000000000000000000000000006000350416630a3b0a4f811461013757806313d8c8401461015a578063189a5a171461018b5780631f7b6d32146101e157806329092d0e146102085780633ccfd60b14610229578063715018a61461023e578063787a08a61461025357806378a6b968146102685780638da5cb5b146102895780638f1d37761461029e5780638f7dcfa3146102d75780639507d39a146102ec578063a25db8ce14610304578063ab82d9a014610325578063adc9772e1461033d578063c2a672e014610361578063cb70a93714610385578063d0714ad5146103b2578063f25b3f99146103f2578063f2fde38b1461040a578063f87975af1461042b578063fc0c546a14610443575b600080fd5b34801561014357600080fd5b50610158600160a060020a0360043516610458565b005b34801561016657600080fd5b5061016f610532565b60408051600160a060020a039092168252519081900360200190f35b34801561019757600080fd5b506101ac600160a060020a036004351661058d565b60408051600160a060020a03958616815293851660208501529190931682820152606082019290925290519081900360800190f35b3480156101ed57600080fd5b506101f66105c5565b60408051918252519081900360200190f35b34801561021457600080fd5b50610158600160a060020a03600435166105cb565b34801561023557600080fd5b506101f6610713565b34801561024a57600080fd5b5061015861081d565b34801561025f57600080fd5b506101f6610889565b34801561027457600080fd5b5061016f600160a060020a036004351661088f565b34801561029557600080fd5b5061016f6108aa565b3480156102aa57600080fd5b506102b66004356108b9565b60408051928352600160a060020a0390911660208301528051918290030190f35b3480156102e357600080fd5b5061016f6108db565b3480156102f857600080fd5b5061016f6004356108ea565b34801561031057600080fd5b506101f6600160a060020a0360043516610941565b34801561033157600080fd5b50610158600435610a03565b34801561034957600080fd5b50610158600160a060020a0360043516602435610a5b565b34801561036d57600080fd5b50610158600160a060020a0360043516602435610bef565b34801561039157600080fd5b50610158600160a060020a036004351660ff60243516604435606435610ce4565b3480156103be57600080fd5b506103ca600435610e6e565b60408051600160a060020a039094168452602084019290925282820152519081900360600190f35b3480156103fe57600080fd5b506102b6600435610ea9565b34801561041657600080fd5b50610158600160a060020a0360043516610ecb565b34801561043757600080fd5b506103ca600435610eee565b34801561044f57600080fd5b5061016f610efc565b6000610462610532565b9050600160a060020a03811615156104a1576001805473ffffffffffffffffffffffffffffffffffffffff1916600160a060020a0384161790556104e0565b600160a060020a038181166000908152600360205260409020600201805473ffffffffffffffffffffffffffffffffffffffff19169184169190911790555b50600160a060020a03166000818152600360205260409020805473ffffffffffffffffffffffffffffffffffffffff199081163317825560019182018054909116909217909155600280549091019055565b600154600090600160a060020a03165b600160a060020a03808216600090815260036020526040902060020154161561058857600160a060020a0390811660009081526003602052604090206002015416610542565b919050565b60036020819052600091825260409091208054600182015460028301549290930154600160a060020a03918216938216929091169084565b60025481565b600154600090600160a060020a03838116911614156106275760018054600160a060020a038082166000908152600360205260409020600201541673ffffffffffffffffffffffffffffffffffffffff1990911617905561070f565b50600154600160a060020a03165b600160a060020a0381161561070f57600160a060020a03818116600090815260036020526040902060020154811690831614156106ec57600160a060020a038181166000908152600360208190526040808320600290810180548087168652838620830154871673ffffffffffffffffffffffffffffffffffffffff19918216179091559487168452908320805485168155600181018054861690558082018054909516909455920155805460001901905561070f565b600160a060020a0390811660009081526003602052604090206002015416610635565b5050565b600080805b60065481101561080f576000805460068054600160a060020a03909216926003929091908590811061074657fe5b60009182526020808320600390920290910154600160a060020a039081168452908301939093526040909101902054161415610807574260085460068381548110151561078f57fe5b906000526020600020906003020160020154011015610807576108026006828154811015156107ba57fe5b60009182526020918290206040805160608101825260039093029091018054600160a060020a0316835260018101549383019390935260029092015491810191909152610f0b565b820191505b600101610718565b610817610ffb565b50919050565b600054600160a060020a0316331461083457600080fd5b60008054604051600160a060020a03909116917ff8df31144d9c2f0f6b59d69b8b98abd5459d07f2742c4df920b25aae33c6482091a26000805473ffffffffffffffffffffffffffffffffffffffff19169055565b60085481565b600460205260009081526040902054600160a060020a031681565b600054600160a060020a031681565b600c6020526000908152604090208054600190910154600160a060020a031682565b600154600160a060020a031681565b600080600254831015156108fd57600080fd5b50600154600160a060020a03165b821561093b57600160a060020a03908116600090815260036020526040902060020154600019909301921661090b565b92915050565b600080805b6006548110156109fc5783600160a060020a03166003600060068481548110151561096d57fe5b60009182526020808320600390920290910154600160a060020a0390811684529083019390935260409091019020541614156109f457426008546006838154811015156109b657fe5b9060005260206000209060030201600201540110156109f45760068054829081106109dd57fe5b906000526020600020906003020160010154820191505b600101610946565b5092915050565b6040805180820182528281523360208083019182526000948552600c90529190922091518255516001909101805473ffffffffffffffffffffffffffffffffffffffff1916600160a060020a03909216919091179055565b600160a060020a03828116600090815260036020526040902054163314610a8157600080fd5b600754604080517f23b872dd000000000000000000000000000000000000000000000000000000008152336004820152306024820152604481018490529051600160a060020a03909216916323b872dd916064808201926020929091908290030181600087803b158015610af457600080fd5b505af1158015610b08573d6000803e3d6000fd5b505050506040513d6020811015610b1e57600080fd5b505060408051606081018252600160a060020a03938416815260208101928352429181019182526005805460018101825560009190915290517f036b6384b5eca791c62761152d0c79bb0604c104a5fb6f4eb0703f3154bb3db06003909202918201805473ffffffffffffffffffffffffffffffffffffffff1916919095161790935590517f036b6384b5eca791c62761152d0c79bb0604c104a5fb6f4eb0703f3154bb3db1830155517f036b6384b5eca791c62761152d0c79bb0604c104a5fb6f4eb0703f3154bb3db290910155565b600160a060020a03828116600090815260036020526040902054163314610c1557600080fd5b60408051606081018252600160a060020a03938416815260208101928352429181019182526006805460018101825560009190915290517ff652222313e28459528d920b65115c16c04f3efc82aaedc97be59f3f377c0d3f6003909202918201805473ffffffffffffffffffffffffffffffffffffffff1916919095161790935590517ff652222313e28459528d920b65115c16c04f3efc82aaedc97be59f3f377c0d40830155517ff652222313e28459528d920b65115c16c04f3efc82aaedc97be59f3f377c0d4190910155565b604080516c01000000000000000000000000338102602080840191909152600160a060020a03881690910260348301528251602881840301815260489092019283905281516000938493600293909282918401908083835b60208310610d5b5780518252601f199092019160209182019101610d3c565b51815160209384036101000a600019018019909216911617905260405191909301945091925050808303816000865af1158015610d9c573d6000803e3d6000fd5b5050506040513d6020811015610db157600080fd5b5051604080516000808252602082810180855285905260ff8a16838501526060830189905260808301889052925193955060019360a08084019493601f19830193908390039091019190865af1158015610e0f573d6000803e3d6000fd5b5050604051601f190151915050600160a060020a0381163314610e3157600080fd5b505050600160a060020a039092166000908152600460205260409020805473ffffffffffffffffffffffffffffffffffffffff1916331790555050565b6005805482908110610e7c57fe5b6000918252602090912060039091020180546001820154600290920154600160a060020a03909116925083565b600b6020526000908152604090208054600190910154600160a060020a031682565b600054600160a060020a03163314610ee257600080fd5b610eeb81611103565b50565b6006805482908110610e7c57fe5b600754600160a060020a031681565b8051600160a060020a039081166000908152600360205260408120549091163314610f3557600080fd5b600854604083015142910110610f4a57600080fd5b600754602080840151604080517f23b872dd000000000000000000000000000000000000000000000000000000008152306004820152336024820152604481019290925251600160a060020a03909316926323b872dd926064808401939192918290030181600087803b158015610fc057600080fd5b505af1158015610fd4573d6000803e3d6000fd5b505050506040513d6020811015610fea57600080fd5b505060006020929092019190915290565b60005b600654811015610eeb57600680548290811061101657fe5b906000526020600020906003020160010154600014156110fa5760068054600019810190811061104257fe5b906000526020600020906003020160068281548110151561105f57fe5b600091825260209091208254600390920201805473ffffffffffffffffffffffffffffffffffffffff1916600160a060020a03909216919091178155600180830154908201556002918201549101556006805460001981019081106110c057fe5b600091825260208220600390910201805473ffffffffffffffffffffffffffffffffffffffff1916815560018101829055600201556110fe565b6001015b610ffe565b600160a060020a038116151561111857600080fd5b60008054604051600160a060020a03808516939216917f8be0079c531659141344cd1fd0a4f28419497f9722a3daafe3b4186f6b6457e091a36000805473ffffffffffffffffffffffffffffffffffffffff1916600160a060020a03929092169190911790555600a165627a7a7230582013c5618c2fb24658615a9a91b393809c239131ab0fc64fbaf34ac81474d00b980029",
  "source": "pragma solidity ^0.4.24;\n\nimport \"./XyoStaked.sol\";\n\n/**\n * @title XyoStakedConsensus\n * @dev Manages the Stake for multiple clients in a decentralized consensus system\n */\ncontract XyoStakedConsensus is XyoStaked {\n\n  struct Block {\n    uint previousBlock;\n    address creator;\n  }\n\n  struct Challenge {\n    uint block;\n    address challenger;\n  }\n\n  uint genesis;\n  uint current;\n\n  mapping(uint => Block) public blocks; //The blocks in the chain\n  mapping(uint => Challenge) public challenges; //The blocks in the chain\n\n  /**\n  * @dev The constructor sets the rules for the system that can not be changed ever again.\n  * @param _token - The address of the ERC20 token to be used for staking\n  * @param _cooldown - The time delay before a stake is available for withdrawal ater a remove\n  * @param _genesis - The genesis block of the chain being staked\n  */\n  constructor(\n    address _token,\n    uint _cooldown,\n    uint _genesis\n  )\n    public\n    XyoStaked(_token, _cooldown)\n  {\n    genesis = _genesis;\n    current = _genesis;\n  }\n\n  function challenge(\n    uint blockToChallenge\n  )\n    public\n  {\n    challenges[blockToChallenge] = Challenge(blockToChallenge, msg.sender);\n  }\n\n}\n",
  "sourcePath": "/Users/arietrouw/GitHub/dapp-scsc-solidity/contracts/XyoStakedConsensus.sol",
  "compiler": {
    "name": "solc",
    "version": "0.4.24+commit.e67f0147.Emscripten.clang"
  },
  "schemaVersion": "2.0.1",
  "updatedAt": "2018-08-28T21:16:07.940Z"
}